:020000040000FA
:10400000481C0020F1410000FDAC000065410000AB
:1040100000000000000000000000000000000000A0
:10402000000000000000000000000000034200004B
:104030000000000000000000074200004569000089
:104040000B4200000D4200000F4200001142000030
:1040500013420000154200001742000029580000DA
:10406000AD5900001D42000039A90000EDA8000074
:104070002342000039AA0000ADA900002942000037
:104080002B420000315B0000855B0000D55B000027
:10409000255C00000D71000035A10000D18E0000EC
:1040A0003B4200003D4200003F420000755C0000C2
:1040B000C55C0000155D0000655D0000B5AF000047
:1040C00000F002F800F03FF80CA030C808382418BF
:1040D0002D18A246671EAB4654465D46AC4201D140
:1040E00000F031F87E460F3E0FCCB6460126334233
:1040F00000D0FB1AA246AB4633431847A476000013
:10410000C47600000023002400250026103A01D3C5
:1041100078C1FBD8520700D330C100D50B6070477F
:1041200010B5642902D100F0EBF810BD782902D156
:1041300000F01CF910BD002010BD1FB500F0F4F90F
:104140001FBD10B510BD00F03FFC1146FFF7F5FF95
:1041500004F052FF00F057FC03B4FFF7F2FF03BC7A
:1041600002F0C4FF04207146084202D0EFF3098038
:1041700001E0EFF308807146004A1047B98C000057
:1041800030B40C490C684A6823681068C018106085
:10419000241D121D8C4207D28A4208D20C604A604C
:1041A00030BC4000400870470C00DC3CF6E70A00D9
:1041B000DC3AF3E7E015002070B505460C461646DC
:1041C00002E00FCC0FC5103E102EFAD2082E02D3FB
:1041D00003CC03C5083E042E07D301CC01C5361F0E
:1041E00003E021782970641C6D1C761EF9D270BD25
:1041F0001948804719480047FEE7FEE7FEE7FEE75B
:10420000FEE7FEE7FEE7FEE7FEE7FEE7FEE7FEE786
:10421000FEE7FEE7FEE7FEE7FEE7FEE7FEE7FEE776
:10422000FEE7FEE7FEE7FEE7FEE7FEE7FEE7FEE766
:10423000FEE7FEE7FEE7FEE7FEE7FEE7FEE7FEE756
:10424000FEE7FEE7FEE7FEE7FEE70000044805495B
:10425000034A054B7047000065690000C14000003B
:1042600048160020481C0020481600200FB40549BD
:1042700010B503AA029800F07BFB10BC08BC04B088
:1042800018470000900200200FB41CB5074B06AA87
:104290007B4469460090059800F051FB0020694678
:1042A00000F060FB1CBC08BC04B01847D10600003D
:1042B00070B5044685690068C10601D5302600E066
:1042C0002026C00707D070BD62683046A1689047BD
:1042D000206A401C20626D1EF6D570BD70B5044684
:1042E00085690078C00707D170BD6268A168202089
:1042F0009047206A401C20626D1EF6D570BD0000FC
:10430000F7B5002575291068009914A611D0C0468C
:10431000C046002802DA404211A608E00099096868
:104320008A0701D50FA602E0490704D50EA601258C
:1043300001E0C046C046009F0024243704E000F09E
:104340002BFB30313955641C0028F8D12B463246FE
:104350002146009800F096FAFEBD00000000000023
:104360002D0000002B0000002000000070B5044666
:104370000D4621461068C046C0462188090502D571
:104380000F4A7A4402E00E4A7A440E322346002154
:10439000243305E006070009360F965D5E54491C7C
:1043A0000028F7D120780023000705D5702D03D011
:1043B000002901D002231132204600F063FA70BDBB
:1043C000A5720000F3B50446002081B020622046AB
:1043D000E168884700287DD0252802D06268A1685E
:1043E00083E0454F00257F442046E1688847202828
:1043F000064608DB312E06D2B8192038007800288E
:1044000001D00543F0E7A80701D50420854300202B
:10441000E0610746A0612A2E0AD0304602F05EFE17
:10442000002827D0B8000019303E0090866119E0BE
:104430000298BA00121902C8916102902046E16800
:104440008847012F064617D1E06900281FDA20208F
:1044500085431CE000980A2180694843009980192F
:10446000303888612046E1688847064602F036FE0B
:104470000028EFD1012F0AD02E2E08D12046E16866
:1044800088470646202005437F1C022FC3DBA06916
:10449000002803DA4042A06101200543E80701D06B
:1044A00010208543002E24D030464138192803D8E7
:1044B0000120C00205432036204625603146029A7D
:1044C0001546FFF72DFE00280CD0012807D0ED1D62
:1044D000E80800E00DE0C0000830029077E72D1DED
:1044E000029574E762683046A1689047206A401CD4
:1044F0006CE7206AFEBD0000697200000B4A30B50F
:1045000011460B4C60310B46DC3B0CC1372106E0F9
:10451000020C8D0012185A51064A504300190A46DF
:10452000491E002AF4DC30BD0120E7E78015002099
:10453000E119D666CD0D0100034670B502460B4366
:104540009B070FD10E4CE60100E008C208C91D1BF5
:104550009D433542F9D0D9B21170521C00290DD0BB
:104560001B0AF8E70B78491C1370521C002B05D06E
:104570000B78491C1370521C002BF3D170BD000046
:104580000101010130B5441C03E00178401C002901
:104590000DD08107F9D10B4BDD0104C8D11A91432D
:1045A0002940FAD0001B0A0603D0C01E30BD001BF4
:1045B00030BD0A0401D0801E30BD0902FCD0401E6F
:1045C00030BD000001010101F8B5042A2CD3830796
:1045D00012D00B78491C0370401C521E83070BD06D
:1045E0000B78491C0370401C521E830704D00B78C3
:1045F000491C0370401C521E8B079B0F05D0C91A23
:10460000DF002023DE1B08C90AE0FFF7D5FDF8BD57
:104610001D4608C9FD401C46B4402C4310C0121F63
:10462000042AF5D2F308C91A521EF0D40B78491C9B
:104630000370401C521EEAD40B78491C0370401CC6
:10464000012AE4D409780170F8BDD2B210B5130282
:104650009A1813049A1800F00EF810BD01E004C077
:10466000091F0429FBD28B0701D50280801CC907D2
:1046700000D00270704700290BD0C30702D002702F
:10468000401C491E022904D3830702D50280801CE6
:10469000891EE3E70022EEE70022DFE7024670B55D
:1046A0000A4392072AD11E4DEE0104C808C9541BC3
:1046B0009443344017D0D0B2D9B2401A21060143F6
:1046C00010D190B299B2401A210401430AD11002CC
:1046D0001902000A090A401A2102014302D1100EF0
:1046E000190E401A70BD9A42DFD010BA19BA88422A
:1046F00001D9012070BD0020C04370BD02780B7845
:10470000401C491C002A09D09A4207D102780B7834
:10471000401C491C002A01D09A42EFD0D01A70BD2B
:1047200001010101002203098B422CD3030A8B42B1
:1047300011D300239C464EE003460B433CD4002299
:1047400043088B4231D303098B421CD3030A8B42AB
:1047500001D394463FE0C3098B4201D3CB01C01A79
:10476000524183098B4201D38B01C01A5241430944
:104770008B4201D34B01C01A524103098B4201D332
:104780000B01C01A5241C3088B4201D3CB00C01A9F
:10479000524183088B4201D38B00C01A5241430817
:1047A0008B4201D34B00C01A5241411A00D201463C
:1047B0005241104670475DE0CA0F00D049420310D5
:1047C00000D34042534000229C4603098B422DD324
:1047D000030A8B4212D3FC22890112BA030A8B42CC
:1047E0000CD3890192118B4208D3890192118B421B
:1047F00004D389013AD0921100E08909C3098B42A0
:1048000001D3CB01C01A524183098B4201D38B01E2
:10481000C01A524143098B4201D34B01C01A524185
:1048200003098B4201D30B01C01A5241C3088B42CA
:1048300001D3CB00C01A524183088B4201D38B00B5
:10484000C01A5241D9D243088B4201D34B00C01A3F
:104850005241411A00D20146634652415B10104654
:1048600001D34042002B00D54942704763465B109C
:1048700000D3404201B50020C046C04602BD70478B
:1048800070477047FFB504460D4681B02430009054
:104890002168880604D51022E0699143216000E078
:1048A0000120A84201DD471B00E000270498A16910
:1048B0007A191018081AA0612078C00602D4204680
:1048C000FFF7F6FC002608E003986268A168805DA7
:1048D0009047206A401C761C206204988642F3DBD5
:1048E0002078C0060AD52046FFF7E2FC06E06268A1
:1048F000A16830209047206A401C206238467F1E05
:104900000028F4DC07E000986268A168405D9047E9
:10491000206A401C206228466D1E0028F3DC2046D9
:10492000FFF7DCFC2078000602D5022005B0F0BDC0
:104930000120FBE701694A1C02610878704700B555
:104940008FB00291002105910549019379440391AB
:10495000114604906846FFF735FD0FB000BD00001A
:10496000E5FFFFFF0A681070521C0A6070470000E4
:10497000084B70B50D467B44FFF7E1FF044628461F
:1049800003F0A3FD002802D00020C04370BD2046E4
:1049900070BD0000633E000001468008081A02094D
:1049A0001018020A1018020C1018C0088200121801
:1049B0005200891A01E0401C0A390A29FBD27047CB
:1049C00000487047E81500207546FFF7F9FFAE462E
:1049D000050069465346C008C000854618B020B59A
:1049E000FFF734FC60BC00274908B6460026C0C566
:1049F000C0C5C0C5C0C5C0C5C0C5C0C5C0C5403D97
:104A000049008D46704710B50446C046C046204652
:104A1000FFF7A2FB10BD70B58C180578401C6B0722
:104A20005B0F01D10378401C2A1106D10278401C8B
:104A300003E00678401C0E70491C5B1EF9D12B0761
:104A400005D40023521E0DD40B70491CFAE70378DD
:104A5000401CCB1A921C03E01D780D70491C5B1C96
:104A6000521EF9D5A142D8D3002070BD10B5012146
:104A7000154801751548007820210843134908702E
:104A800000201349087013490875152002F0D2FA66
:104A900010200F49087000208870084680788870C0
:104AA0000846807808210843094988700020087169
:104AB0008871FF20C87200208872084600780121A2
:104AC00008430349087010BD4061004020040240C3
:104AD0000050044040600040064A127838239A4350
:104AE000044B1A701A461278C3001A43014B1A700D
:104AF00070470000005004400B4A127852085200E0
:104B0000094B1A70002803D180220A439A7103E0EE
:104B1000C0220A43044B9A71034A127801231A43B4
:104B2000014B1A70704700000050044010B5044655
:104B30000B48047200200B490875152002F07AFA20
:104B4000002109480175064880798011032805D0A5
:104B500003480078802108430149087010BD000017
:104B600000500440406000404061004000B5C02259
:104B70009178F8221140144A1278114313480A46DA
:104B8000E03A130002F030FA0E0A0E12161A1E1E38
:104B90001E080C1014181C1E0D4813E00D4811E0DF
:104BA0000D480FE00D480DE00D480BE00D4809E001
:104BB0000D4807E00D4805E00D4803E00D4801E011
:104BC0000D4800BF00BF00BD201C024040420F0046
:104BD0000090D003006CDC020048E80100366E0152
:104BE0000024F400001BB70000127A00808D5B00E7
:104BF00000093D00C0C62D0080841E0070B50B4B1F
:104C00000146C417640F6418E4101C5D0246C51702
:104C10006D0FAD18ED10ED00461B0125B5402C437E
:104C2000C5176D0F6D18ED105C5570BD005000403C
:104C3000FFB583B00D9A120F120701239B079A420A
:104C400002D10022009201E0012200920E9A120F7E
:104C5000120701239B079A4201D1002400E001249E
:104C6000009A002A01D1012200E000222240002AFD
:104C700002D0002201920DE0002C01D1012200E0BF
:104C80000022009B1A40002A02D00122019201E07A
:104C9000002201920122520782181170069A920195
:104CA0002032E3001A43009B9B001A43019B5B00E8
:104CB0001A43059B1A43204B0D015A5301231E4AE8
:104CC0000D01521953801C4B0D015B190C9A9A80EF
:104CD000194B0D015B190C9ADA80174A0D01521914
:104CE0000D9B9360144A0D0152190E9BD360134A19
:104CF000927E08231A43114B9A769A04104B9A60BD
:104D00001A4602920246C5176D0FAD18EE10029DAD
:104D1000AD5D0346C617760FF618F610F600871B32
:104D20000126BE403543C617760FB618F710029E0F
:104D3000F55507B0F0BD000020000020000802403B
:104D40000050004070B50B4B0146C417640F641847
:104D5000E4101C5D0246C5176D0FAD18ED10ED0097
:104D6000461B0125B540AC43C5176D0F6D18ED10FE
:104D70005C5570BD0050004030B5F1210B4AD16048
:104D80000A4B10330146C417640F6418E410E400A2
:104D9000051B0124AC400246C5176D0FAD18ED1080
:104DA0005C550021014AD16030BD00000050004038
:104DB0000A78436EC254426E632A03D2426E521C7A
:104DC000426601E000224266704710B5044600F0DA
:104DD000DDF800F0B2F8002002F0F0F80A2005F04B
:104DE0008FFED82001F0EAFCFF2109042140080CC5
:104DF00001F0E4FCFF2109022140080A01F0DEFC79
:104E0000E0B201F0DBFC012002F0D8F80A2005F046
:104E100077FE00F092F810BD70B505460C461646B8
:104E200002F0DCF8002002F0C9F80A2005F068FE64
:104E3000032001F0C3FCFF2109042140080C01F00C
:104E4000BDFCFF2109022140080A01F0B7FCE0B2D5
:104E500001F0B4FC04E0552001F0B0FC28706D1C9A
:104E60003046711E8EB20028F5D1012002F0A6F85E
:104E70000A2005F045FE70BD10B5044602F0AEF8FC
:104E800000F084F800F059F8002002F097F80A20AA
:104E900005F036FE812001F091FCFF21090421403C
:104EA000080C01F08BFCFF2109022140080A01F0E7
:104EB00085FCE0B201F082FC012002F07FF80A20BC
:104EC00005F01EFE00F039F810BD70B505460C4621
:104ED000164602F083F800F059F8002002F06EF850
:104EE0000A2005F00DFE022001F068FCFF210904F4
:104EF0002140080C01F062FCFF2109022140080A50
:104F000001F05CFCE0B201F059FCFF200130864268
:104F100000DD064603E0287801F050FC6D1C3046A9
:104F2000711E8EB20028F6D1012002F047F80A2047
:104F300005F0E6FD00F001F870BD10B5002400207A
:104F400002F03CF80A2005F0DBFD052001F036FCFC
:104F500000BF552001F032FC0446E007C00F0028D6
:104F6000F7D1012002F02AF80A2005F0C9FD10BD92
:104F7000F8B504460D46164602F030F82F46009468
:104F8000324639460098FFF71FFBF8BD10B50020E8
:104F900002F014F80A2005F0B3FD062001F00EFC23
:104FA000012002F00BF80A2005F0AAFD10BD000058
:104FB0000121054801770548808808430349888016
:104FC00000200349087770470061004060150440E5
:104FD00000600040012106480170064880880221D7
:104FE0000843044988800020034908707047000086
:104FF0002061004060150440206000407047704709
:105000004C31303031000000000000000000000092
:105010004D415354455200000000000000000000C4
:10502000302E302E31300000000000000000000063
:10503000323032332F30362F31350000000000007F
:105040000000000000000000000000000000000060
:105050000000000000000000000000000000000050
:105060000000000000000000000000000000000040
:105070000000000000000000000000000000000030
:10508000F7B5FFB085B085988390002754E001F014
:10509000A5FF8398C505ED0D8398401B80900120E6
:1050A0004002441B8698C01B86B28498C019829027
:1050B000684640198190B4421FDB002D03D10120C6
:1050C0004002864205D00122520268468099FFF7CD
:1050D0004FFF324682998198FFF776FA809805F063
:1050E00014FF6A4601214902809805F038FF839831
:1050F00080198390B81987B21EE0002D03D10120DA
:105100004002844205D00122520268468099FFF78E
:105110002FFF224682998198FFF756FA809805F072
:10512000F4FE6A4601214902809805F018FF839831
:1051300000198390381987B286988742A7DB7FB021
:1051400008B0F0BDF7B5C4B045984390002753E0D0
:1051500001F044FF4398C5B24398401B4090FF20A4
:105160000130441B4698C01B86B24498C019429037
:10517000684640194190B4421FDB002D03D1FF2047
:105180000130864205D0FF22013268464099FFF780
:1051900043FE324642994198FFF716FA4098FFF7CE
:1051A0006BFEFF22013268464099FFF78EFE43985E
:1051B00080194390B81987B21EE0002D03D1FF205B
:1051C0000130844205D0FF22013268464099FFF742
:1051D00023FE224642994198FFF7F6F94098FFF7DF
:1051E0004BFEFF22013268464099FFF76EFE43985E
:1051F00000194390381987B246988742A8DB47B018
:10520000F0BD000070B5184C247E6406240E174DC6
:105210002C72FF246C8101242C732C46247A6D8916
:105220006D1C6C43114D2C612C1F6168104B0022CA
:1052300014E0002005E01C780C70491C5B1C441C29
:10524000A0B20428F7DB002004E000240C70491C05
:10525000441CA0B20428F8DB541CA2B2024C247EE9
:105260009442E6DC70BD00009F0F00209C0B0020E4
:10527000C00B002070B5154C247E154D2C72154CBA
:105280006478641C25022C1B114D6C8101242C7345
:105290002C46247A6D896D1C6C430D4D2C612C1F9E
:1052A00063680D4A00200BE0002105E014781C70B3
:1052B0005B1C521C4C1CA1B20429F7DB441CA0B29D
:1052C000034C247A8442EFDC70BD00009F0F002065
:1052D0009C0B002098070020C00B002070B5134CD9
:1052E000247E134D2C72FF24F5346C8101242C7321
:1052F0002C46247A6D896D1C6C430D4D2C612C1F3E
:1053000063680C4A00200BE0002105E014781C7053
:105310005B1C521C4C1CA1B20429F7DB441CA0B23C
:10532000034C247A8442EFDC70BD00009F0F002004
:105330009C0B0020C00B002070B5144C247E144D33
:105340002C722C46247A25022C1B114D6C810124D1
:105350002C732C46247A6D896D1C6C430C4D2C618A
:105360002C1F63680B4A00200BE0002105E0147835
:105370001C705B1C521C4C1CA1B20429F7DB441CA2
:10538000A0B2034C247A8442EFDC70BD9F0F002052
:105390009C0B0020C00B002070B5224800782249E9
:1053A0004870002438E00A2060431E49891C4018D8
:1053B000047201F0B1F906461C48017E3046FFF741
:1053C000BBF9CDB2A800291818481930081841783F
:1053D00016206043164A1154A800291813481930A2
:1053E000081881781620604380188170A800291859
:1053F0000E4819300818C1781620604380180171D2
:10540000A8002918094819300818017916206043A6
:1054100080188171601CC4B202480078A042C2DCCE
:1054200070BD000058100020980700209F0F00203A
:105430009C04002070B5224C247E6400641E214D23
:105440002C72FF246C8101242C732C46247A6D89E4
:105450006D1C6C431B4D2C612C1F63681A48002186
:105460000BE0002205E004781C705B1C401C541CFF
:10547000A2B2042AF7DB4C1CA1B2114C247E8C4250
:10548000EFDC0F4C247E012C19DD0F480C4C247EE0
:10549000A41EA400001900210CE0002205E00478FD
:1054A0001C705B1C401C541CA2B2042AF7DB083899
:1054B0004C1CA1B2024C247E641E8C42EDDC70BDFB
:1054C0009F0F00209C0B0020C00B0020F8B53E4829
:1054D00000783E494870002471E00A2060433A4950
:1054E000891C401804720026002531E00A20604320
:1054F0003549891C095CA8002A183548805C81421E
:1055000024D1A80029183248081841781620604391
:10551000304A1154A80029182D48081881781620FF
:10552000604380188170A800291829480818C1789C
:105530001620604380180171A80029182448081813
:10554000017916206043801881710126681CC5B25C
:105550001F481938007EA842C8DC002E2DD101F06A
:10556000DBF807461A481938017E3846FFF7E4F899
:10557000CEB2B000311816480818417816206043A2
:10558000144A1154B00031181148081881781620B7
:10559000604380188170B00031180D480818C17838
:1055A0001620604380180171B000311808480818AF
:1055B00001791620604380188171601CC4B20248D2
:1055C0000078A04289DCF8BD581000209807002020
:1055D000B80F00209C04002070B5124C247E124DA0
:1055E0002C72FF246C8101242C732C46247A6D8943
:1055F0006D1C6C430C4D2C612C1F63680B4A002002
:105600000BE0002105E014781C705B1C521C4C1C44
:10561000A1B20429F7DB441CA0B2034C247A8442D3
:10562000EFDC70BD9F0F00209C0B0020C00B002002
:1056300010B503220021022000F03EFF0022114697
:10564000042000F039FF002207210D2000F034FF74
:10565000042202210C2000F02FFF002201210C2047
:1056600000F02AFF032206210D2000F025FF002272
:1056700006210D2000F020FF01221146022000F03B
:105680001BFF03220221084600F016FF002203211F
:10569000022000F011FF04220021012000F00CFF85
:1056A00000220121084600F007FF05220221012007
:1056B00000F002FF05220321012000F0FDFE05227B
:1056C0000421012000F0F8FE042211460C2000F015
:1056D000F3FE042203210C2000F0EEFE10BD0000BA
:1056E0007FB51A4D00201A49087000240DE0297872
:1056F0002D1DC8B2694608556846005D14490978F1
:10570000401813490870601CC4B2102CEFDB10481D
:105710000078FA2804DD0E4800780A300C49087039
:1057200000200C490870002408E06846005D094923
:105730000978401807490870A01CC4B2102CF4DB8B
:1057400004480078FEF7DAFE7FBD000094085000A0
:105750002F0200203402002008B5002016490870EE
:1057600016488088012108431449888008464089EA
:1057700013490840114948810846008910490840EA
:105780000E49088108460089891508430B4908819C
:105790000020009005E000BF68460078401CC1B2C0
:1057A0000091684600780E28F5D904480089012147
:1057B00008430249088108BD7803002060150440B1
:1057C000FEFF000008B516488088022108431449EE
:1057D0008880084640891349084011494881084695
:1057E0000089104908400E4908810846008949157A
:1057F00008430B4908810020009005E000BF68467F
:105800000078401CC1B20091684600780E28F5D996
:1058100003480089022108430149088108BD0000AE
:1058200060150440FDFF000010B5564800880221B5
:105830000840022807D154480088002803D00220DD
:10584000FFF7DDFB9AE04F480088C007C00F002833
:1058500007D04D480088002803D00520FFF7CFFB74
:105860008CE04A480078C007C00F002818D046488E
:10587000008800280FD04648006800784549087223
:1058800043480068401C424908603F480088401E69
:105890003D49088072E0FFF75FFF03F0BFFA6DE05B
:1058A0003A48007804210840002832D13548203099
:1058B0008088012108433349203188803148008B9A
:1058C0008004800C2F4908830846008B012189033E
:1058D00008432C4908832B48203040880121084385
:1058E0002849203148802948007804210843274965
:1058F000087029480088012807D1224820304089B3
:10590000264908401F4920314881FF20214908725B
:1059100034E0234800882049098888422EDA1D484F
:10592000007A2049096808701E480068401C1D491B
:1059300008601B480088401C1949088016480088E8
:10594000401E098888420BD10E48203040891349F7
:1059500008400C4920314881FF200E4908720DE0B3
:105960000F4800880C490988884204D1FFF7F4FEEB
:1059700003F04AFA02E0FF200649087200200A49B3
:10598000087710BD401504408003002078030020F4
:105990007C030020401704408A030020FEFF000023
:1059A00088030020840300200060004010B55648A2
:1059B000408802210840022807D154480088002866
:1059C00003D0022003F034FA9AE04F484088C00721
:1059D000C00F002807D04D480088002803D00520BC
:1059E00003F026FA8CE04A480078C007C00F002870
:1059F00018D04648008800280FD046480068007834
:105A00004549887243480068401C424908603F4845
:105A10000088401E3D49088072E0FFF7D3FE03F086
:105A200013FA6DE03A48007804210840002832D18A
:105A3000354820308088022108433349203188804E
:105A40003148408B8004800C2F4948830846408BA6
:105A50000121890308432C4948832B482030408882
:105A60000221084328492031488029480078042130
:105A700008432749087029480088012807D122488F
:105A800020304089264908401F4920314881FF20A5
:105A90002149887234E023480088204909888842D7
:105AA0002EDA1D48807A2049096808701E4800686F
:105AB000401C1D4908601B480088401C194908808B
:105AC00016480088401E098888420BD10E482030B5
:105AD0004089134908400C4920314881FF200E4974
:105AE00088720DE00F4800880C490988884204D16B
:105AF000FFF768FE03F09EF902E0FF200649887276
:105B000000200A49087010BD40150440940300208D
:105B10008C03002090030020401704409E030020C7
:105B2000FDFF00009C03002098030020206000403F
:105B300010B500200E4908710E480068401C0D4940
:105B400008600D480088C007C00F002808D00B4827
:105B5000008B401C0121090440180949086004E039
:105B60000648008B401C0649086000F055FF10BD38
:105B700040600040C8030020A01D0440001F0440F6
:105B8000B803002000200E4908720E480068401C2F
:105B90000C4908600C484088C007C00F002808D096
:105BA0000A48408B401C012109044018084908603C
:105BB00004E00648408B401C05490860704700001F
:105BC00040600040CC030020A01D0440001F0440A2
:105BD000BC03002000200E4908730E480068401CDA
:105BE0000C4908600C488088C007C00F002808D006
:105BF0000A488088401C01210904401808490860AF
:105C000004E006488088401C054908607047000091
:105C100040600040D0030020A01D0440601F0440ED
:105C2000C003002000200E4908740E480068401C84
:105C30000C4908600C48C088C007C00F002808D075
:105C40000A48C088401C012109044018084908601E
:105C500004E00648C088401C054908607047000001
:105C600040600040D4030020A01D0440601F044099
:105C7000C403002000200E4908730E480068401C31
:105C80000C4908600C480088C007C00F002808D0E5
:105C90000A48008B401C012109044018084908608B
:105CA00004E00648008B401C05490860704700006E
:105CB00060600040E8030020A0210440002304406D
:105CC000D803002000200E4908740E480068401CCC
:105CD0000C4908600C484088C007C00F002808D055
:105CE0000A48408B401C01210904401808490860FB
:105CF00004E00648408B401C0549086070470000DE
:105D000060600040EC030020A02104400023044018
:105D1000DC03002000200E4908750E480068401C76
:105D20000C4908600C488088C007C00F002808D0C4
:105D30000A488088401C012109044018084908606D
:105D400004E006488088401C054908607047000050
:105D500060600040F0030020A02104406023044064
:105D6000E003002000200E4908760E480068401C21
:105D70000C4908600C48C088C007C00F002808D034
:105D80000A48C088401C01210904401808490860DD
:105D900004E00648C088401C0549086070470000C0
:105DA00060600040F4030020A02104406023044010
:105DB000E40300204D48407B4021084000280CD0DF
:105DC0004B480078FF2804DA49480078401C4849CD
:105DD000087001204749087087E04648007801288C
:105DE00070D143480078042874DD414800780A28BF
:105DF0001EDA41480078002871D040480078401CE5
:105E00003E4908703E48006840003D4908603B48F4
:105E10000078202863DB084600683A4908600120C2
:105E2000394908700020354908703349087056E038
:105E30002F480078122847DD2D480078182824DAEA
:105E40002D48007800284AD02C480078401C2B4967
:105E500008702B480068400029490860084600681F
:105E6000012108432649086024480078202836DBB1
:105E70000846006823490860012023490870002073
:105E80001E4908701C49087029E019480078332819
:105E900012DD174800783C2808DA002017490870FE
:105EA0001749086001201449087018E000201249C1
:105EB00008701349086012E000200F49087010496B
:105EC00008600CE00EE005E000200B4908700C496A
:105ED000086004E0002008490870094908600020B3
:105EE000034908700020034908707047000004400F
:105EF000680200206A0200206B0200206902002074
:105F00006C0200205C020020600200201D4A127812
:105F100080231A431B4B1A70002802D100221A4B0F
:105F20001A77012808D10122174B1A77154AD2781F
:105F300010231A43134BDA70022802D1A222124B0B
:105F40001A77032802D182220F4B1A77042802D134
:105F5000C2220D4B1A77052802D103220A4B1A7769
:105F6000062802D14322084B1A770022074B1A82D7
:105F70000123074A13770022064B1A77034A11823E
:105F8000704700002004024060040440404F044079
:105F9000406100404060004010B500200B49087788
:105FA000172001F053F80021094801770948008AB9
:105FB0000121C90308430749088200BF0548008A38
:105FC0000121C90308400028F8D010BD40600040FE
:105FD00040610040404F04401FB50520FEF7B2FE6F
:105FE0000220FEF7A3FD03A91E48012213460092DA
:105FF0000291019000220E210520FEF719FE00BF3C
:10600000194880880028FBD1684680891749884252
:1060100002DD002004B010BD684680891449884222
:1060200001DD0520F6E7684680891149AC398842D0
:1060300001DD0420EEE7684680890E49884201DDD3
:106040000320E7E7684680890B49884201DD02208A
:10605000E0E7684680890949884201DD0120D9E7E7
:106060000020D7E70E50044000010020AC0E0000D5
:10607000110D0000540B000054090000FF03000044
:1060800010B5454800780221084000280ED043484A
:106090008078012803D100204049887002E0012067
:1060A0003E49887003F016FE01F058FC3C48007829
:1060B0000221084000280AD005233A4A3749891DA1
:1060C000481E00F0D5F903F05DFB01F053FC3648A3
:1060D000007802210840002803D001F057FC01F0AD
:1060E00079FC3248007802210840002803D001F0F2
:1060F00059FC01F07DFC2E48007802210840002860
:1061000001D001F05BFC24480078402108400028C1
:1061100004D003F015FB27A0FEF7A8F81E4800786E
:10612000DD2108401C4908701D480078DD21084029
:106130001B4908701C480078DD2108401A49087086
:106140001A480078DD21084018490870184800787E
:10615000DD210840164908700F480078B321084037
:106160000D4908700E480078B32108400C490870AA
:106170000D480078B32108400B4908700B4800789F
:10618000B32108400949087009480078B321084044
:106190000749087010BD00005C070020350F002083
:1061A0006807002026B60000740700208007002042
:1061B0008C070020726573657420776966690D0A23
:1061C000000000003EB5FFF707FF04460020012154
:1061D000322202230092019102900A4621461A4877
:1061E00000F03CF8002001213222022300920191AC
:1061F00002901A462146154800F030F8002001218F
:10620000322202230092019102900322214610487B
:1062100000F024F800200121322202230092019193
:106220000290042221460B4800F018F800200121BA
:106230003222022300920191029005222146064853
:1062400000F00CF83EBD00005C070020680700204D
:1062500074070020800700208C070020FFB50C4643
:10626000099D00210023504F4668BE4202D2466875
:10627000761C46604668AE4217D30A9E002E08D0B0
:1062800047680A9EAE19B74203D96E1C46600426C1
:1062900031434668AE4201D144263143944213D083
:1062A0000C263143002646600EE04768039EB74245
:1062B00006D9944208D0022631430026466003E006
:1062C000944201D000264660944201D10126314318
:1062D0000B9E002E54D002260E40002E03D0FD2629
:1062E000314010263143067810273E40002E34D02E
:1062F0002D4F8668BE4202D28668761C866087680B
:106300000B9EB7421BD910260E40002E08D0EF2658
:106310003140202631430678EF273E40067007E0E3
:1063200002263143EF2631400678EF273E400670C3
:10633000002686600678EF273E4006700DE01026A6
:106340000E40002E09D020263143EF26314006783A
:10635000EF273E4006700026866006783E273E40C6
:1063600033460678F607360E067006781E4306702A
:106370000678BE273E40067006780E43067011E090
:1063800006780E273E4033460678F607360E06702E
:1063900006781E43067006788E273E400670067803
:1063A0000E430670FFBD0000FFFF000070B503F054
:1063B000C1F905462B0000F017FE070507090B0D74
:1063C0000F11130002240DE002240BE00F2409E05A
:1063D0003C2407E0552405E0022403E0022401E008
:1063E000642400BF00BF5A2C08DD00BF10211548EF
:1063F000017300BF00201449087013E012480078B0
:10640000401CC0B210490870A0420BDD002008708B
:1064100000BF0C487038007B102148400949703992
:10642000087300BF09488078012805D100BF082102
:1064300004487038017704E000BF08210148017367
:1064400000BF70BD700004405A020020350F0020CC
:1064500030B50346002006E01C780D5CAC4200DC41
:1064600004E0441CE0B2541E8442F5DC00BF30BDA1
:10647000FFB50D4617461E46701EC2B2394600983B
:10648000FFF7E6FF04462878002809DD601CC1B24A
:106490000C46701E81420BDBC4B20020287007E05E
:1064A000002C01D0601EC4B2002C01D10120287044
:1064B000395D00980170FFBD70B50C46154601238B
:1064C000A340D9B22A462B0000F08EFD07052743D2
:1064D0005F65788CAA00534B1B5C8B43514E335441
:1064E000504B403B1B5C0B434E4E403E33544D4B98
:1064F000103B1B5C8B434B4E103E3354494B303B9F
:106500001B5C8B43474E303E3354464B203B1B5C59
:106510008B43444E203E335482E0424B1B5C8B4302
:10652000404E33543F4B403B1E5C0E431E543D4B8C
:10653000103B1E5C8E431E543A4B303B1B5C0B439E
:10654000384E303E3354374B203B1E5C8E431E5436
:1065500066E0344B1B5C8B43324E3354314B403B33
:106560001E5C0E431E542F4B103B1B5C8B432D4E69
:10657000103E33542B4B303B1E5C8E431E54294B34
:10658000203B1E5C8E431E544AE0264B1B5C0B4393
:10659000244E335444E0234B1E5C8E431E54214B47
:1065A000403B1B5C8B431F4E403E33541D4B103B06
:1065B0001B5C8B431B4E103E335431E0194B1B5C6C
:1065C0008B43184E3354174B403B1B5C8B43154E8B
:1065D000403E3354134B103B1B5C0B43114E103E9B
:1065E00033541DE00F4B1B5C8B430E4E33540D4B4D
:1065F000403B1E5C0E431E540A4B103B1B5C8B43FE
:10660000084E103E3354074B303B1E5C8E431E54E5
:10661000044B203B1B5C0B43024E203E335400BF17
:1066200000BF70BD600004401F49097880221143FB
:106630001D4A1170002808D100211C4A11771A49FF
:10664000C97810229143184AD170012808D101213C
:10665000164A11771449C97810221143124AD17091
:10666000022802D1A221114A1177032802D18221E6
:106670000E4A1177042802D1C2210C4A117705284D
:1066800002D10321094A1177062802D14321074A82
:1066900011770021064A51771146497F082211439C
:1066A000034A517770470000200402406004044010
:1066B000404F044010B5002014490876162000F021
:1066C000C5FC0021124801761248407F8021084312
:1066D000104948770846807F012108430D49887793
:1066E00000BF0C48807F022108400028F9D00948EB
:1066F000807F400840000749887700BF0548807FB9
:10670000022108400028F9D110BD0000406000407F
:1067100040610040404F044010B5084800780849E7
:106720000978401805490870FDF72AFD03490978E2
:106730004018024908700846007810BD3302002056
:1067400034020020002804D000BF082204494A7403
:1067500005E000BF0822024970314A7000BF70474F
:106760000000044010B5002201210846FFF7A4FEF6
:10677000052202210120FFF79FFE052203210120AF
:10678000FFF79AFE052204210120FFF795FE012064
:1067900000F014FC0020FFF7D5FF10BD002804D046
:1067A00000BF042204494A7405E000BF04220249E4
:1067B00070314A7000BF70470000044070B5034656
:1067C00000250026FF2400BF1FE080201840C609D6
:1067D0005806030E6006040E0020FFF7B3FF304694
:1067E000FFF7DCFF012004F08BF90120FFF7AAFF7F
:1067F000012004F085F9084840780221084000286B
:1068000001D0601CC4B2681CC5B2082DDDDB0020BD
:10681000FFF798FF204670BD0000044010B53C48CB
:106820000078401CC0B23A49087032286EDB002064
:10683000087038480068401C3649086036480078BF
:10684000012108433449087032480078C007C00F5E
:10685000002805D108460078022108432E49087017
:1068600005212C480068FDF75DFF002905D12A4865
:10687000007804210843284908700721254800684A
:10688000FDF750FF002905D123480078082108436F
:106890002149087019211F480068FDF743FF0029AE
:1068A00005D11D480078102108431B49087032218A
:1068B00018480068FDF736FF002905D11648007812
:1068C00020210843144908707D2112480068FDF713
:1068D00029FF002905D110480078402108430E49BE
:1068E0000870FA210B480068FDF71CFF002905D14C
:1068F0000948007880210843074908700548006866
:106900000649884202D300200249086010BD0000F9
:1069100074020020700200202C020020AC0D000048
:1069200010B5002006490870FEF7DAFE03F010FAF1
:1069300003F058FA03F0EAFD03F02EFA10BD000050
:106940001402002002480068401E01490860704798
:106950001002002000B5FEF709F90149086000BDEA
:106960002C04002000B580201B4948711A201A49C8
:10697000203908732B2048733C2088734D20C8733E
:10698000002016494860FEF7F1F81549086000201C
:10699000C043144908601449086014481449086049
:1069A000114903221202891848600F49891888602A
:1069B0000D498918C8600C49891808610A49891865
:1069C000486109498918886107498918C861AC205C
:1069D0000849487000BD00002004024000B001409A
:1069E0002C04002080E200E000E100E0C0C0C0C054
:1069F00000E400E0001002400249498A0143014AD4
:106A000051827047A01D04400249898A0143014A0E
:106A100091827047A01D044010B5FFF7CBF9FFF736
:106A2000FDFE10BDF8B505460E466A4631462846BD
:106A300000F0FEF90446002C1FD103201049888085
:106A40000846C08800090001C8800846C088694619
:106A5000097808430A49C880684640784006000C17
:106A600008490882684640784006000C488204487D
:106A7000408803210843024948802046F8BD0000B1
:106A8000201104400013044070B505460E463C48F2
:106A90000078042108433A49087003203949C88026
:106AA000222038492039088237480883672040026D
:106AB000364908823648007C01210843344908746D
:106AC0000720304920394881FF202330488231484F
:106AD0004883672040022D4948822A4800890121C5
:106AE0000843284908810846808A2B4908402549DF
:106AF000888208464089012108432249488100BF15
:106B00000520264908722648407801210843244977
:106B10004870234820304078400840002049203108
:106B200048701F484030407C400840001C494031BC
:106B300048741B4860304078400840001849603174
:106B4000487000BF00BF0E2014496031087214481D
:106B5000203080780821084311492031887010487E
:106B600060308078082188430D496031887000BF0B
:106B700031462846FFF756FF0446204670BD000008
:106B800020040240201104409780000000130440BC
:106B90006004044097400000FEFF0000000804402D
:106BA000000004400449087400BF044909886022B9
:106BB00011400029F9D1704700130440001104402E
:106BC000F8B505460E466A463146284600F030F9CB
:106BD0000446002C19D10C200D49888068460078A5
:106BE000302108430A49C880684640784006000CB6
:106BF00008498880684640784006000CC8800448F0
:106C000040880C210843024948802046F8BD000016
:106C1000201104404013044070B505460E46434819
:106C200000780421084341490870414880880C21BC
:106C300008433F49888001213E480175017601776C
:106C400000203D490875087608773C4838492039C6
:106C500088823A48753088836720400238498880A6
:106C60003848007C0421084336490874072030491D
:106C70002039C8813448C8823448C883672040021C
:106C80002F49C8802A4800890421084328490881DF
:106C90000846808A2E49084025498882084640894E
:106CA000042108432249488100BF0A2029498870ED
:106CB0002948007B042108432749087326482030CF
:106CC000007B042188432449203108732248403046
:106CD000007F042188432049403108771E486030F6
:106CE000007B042188431C496031087300BF00BF4A
:106CF0000C2018492031C8731748203080780221B1
:106D0000084315492031887013486030807802218B
:106D1000884311496031887000BF31462846FFF72B
:106D20004FFF044600F05CF8204670BD200402408E
:106D300020110440206100402060004022800000BB
:106D4000401304406004044022810000974000008A
:106D5000FBFF0000400804400000044010B502465C
:106D60000020002901D1812006E00023034C23806C
:106D7000034B1980034B1A6010BD0000FC02002079
:106D8000FE020020F802002010B502460020002973
:106D900001D181201AE00E4B1A600E4B198001239D
:106DA0000D4C23700A4B1B681B780C4C2371084B4D
:106DB0001B685B1C064C2360064B1B885B1E054C46
:106DC000238000BF044B1B78002BFBD110BD0000BB
:106DD000F0020020F40200202702002040130440AB
:106DE00010B510480089042108430E49088108465F
:106DF0004089042108430B494881084640880C21FA
:106E000008430849488000200749087508760D2086
:106E100000F004F90E2000F001F90021034801758B
:106E2000017610BD20110440206000402061004028
:106E3000F7B584B016468020039000242BE0600054
:106E4000174A115A0498FDF76DFC019002251EE0C7
:106E5000691C0198FDF766FC41080291114A0299EC
:106E6000514308460599FDF75DFC0E49471A381E47
:106E700001DB014600E04142142906DA34707570E6
:106E800000200390039807B0F0BD681CC5B2802DA8
:106E9000DEDB601CC4B2102CD1DB0398F3E70000EA
:106EA0002AB100001027000070B505460C463E4888
:106EB0000078012108433C49087082203B49C88280
:106EC0002846FFF7A1FD012D06D0022D1CD0042D70
:106ED00032D0082D62D148E00020354908711120D8
:106EE00000F090F80120C003304920390882601E6C
:106EF000304908832D48408B400840002B49488387
:106F000000212D4801714AE0002029490872122011
:106F100000F078F80120C003244920394882601E1F
:106F2000244948832148408B022188431F494883D4
:106F300000212148017232E000201D49087313200E
:106F400000F060F80120C003184920398882601ED3
:106F50001849603188801548408B042188431349C3
:106F6000488300211448017319E000201049087477
:106F7000142000F047F80120C0030C492039C882D2
:106F8000601E0C496031C8800848408B0821884346
:106F90000649488300210848017400E000BF00BF93
:106FA0002846FFF729FD70BD20040240A01D0440C3
:106FB00040600040001F044040610040002804D0B1
:106FC00000BF102204494A7405E000BF10220249A4
:106FD00070314A7000BF704700000440AC20014986
:106FE000487070470010024030B47446641E257823
:106FF000641CAB4204D3635D5B00E31830BC1847EC
:107000001D46F8E7002805DBC206D20E012191409B
:10701000014A11607047000080E200E0002805DBB3
:10702000C206D20E01219140014A11607047000052
:1070300080E200E0002805DBC206D20E012191406B
:10704000014A11607047000080E200E0002805DB83
:10705000C206D20E01219140014A11607047000022
:1070600080E200E010B5002819DB1A4A03231B0256
:10707000D21883089B00D2588307DC0EFF23A3405D
:107080009A438B071B0E8407E40EA3401A43114B4F
:10709000032424021B198408A4001A5118E00E4A84
:1070A00003071B0F083B9B089B00D2588307DC0E8D
:1070B000FF23A3409A438B071B0E8407E40EA340D3
:1070C0001A43054B0407240F083CA408A4001A51D6
:1070D00010BD000000E100E01CED00E030380A289F
:1070E00001D201207047002070470000002803D023
:1070F0000449054A116202E00121034A116200BFFE
:10710000FEE70000AD0B00000080024000200449B3
:10711000087504480068401C024908607047000078
:10712000406000400004002010B5C0B00446214675
:1071300001A801F0E9FB012069464876214601A833
:1071400003F042F830A801F0F7FB214630A800F028
:1071500007F830A803F050F8012040B010BD00003F
:1071600070B590B004460E4640216846FDF794FA8B
:1071700000206946087020783C2806D9217819A09B
:10718000FDF774F8002010B070BD00250FE0601C02
:10719000405DB04209D0601C415D68460278501CD9
:1071A000C3B268460370401C8154681CC5B2207885
:1071B000A842ECDC684600782178884210D1684605
:1071C0000178401C465468460078401CC1B26846AD
:1071D00001703D2269462046FDF7F6F90120D2E70D
:1071E0000120D0E75B6E756D3A25645D0D000000EF
:1071F0007FB504460E460020009001900290039057
:107200006946087020780D2806D9217819A0FDF765
:107210002DF8002004B070BD00250FE0601C405D1B
:10722000B04209D0601C415D68460278501CC3B270
:1072300068460370401C8154681CC5B22078A8427F
:10724000ECDC684600782178884210D168460178E5
:10725000401C465468460078401CC1B26846017024
:107260000E2269462046FDF7AFF90120D2E7012042
:10727000D0E700005B6E756D3A25645D0D0000007F
:1072800030B591B005460C46802C02DA002011B0D2
:1072900030BD002068752146284602F095FF01A800
:1072A00001F0EAFA214601A8FFF75AFF01A802F00F
:1072B00081FF01A801F08AFB214601A8FFF750FFDA
:1072C00001A802F0A3FF0120E1E77FB505460C46C7
:1072D0000D2C02D3002004B070BD2146284602F0D8
:1072E0009FFF684601F0A0FB21466846FFF780FF3C
:1072F000684602F0A7FF0120EDE730B5FFB0B6B059
:1073000005460C46684601F09FFA6846007800285A
:1073100009D068460078A04201DB1E2C03DB002068
:107320007FB036B030BD1821614300AA0132881801
:1073300018222946FDF748F968460078A04205D191
:1073400068460078401CC1B268460170684602F089
:1073500019FF0120E4E710B502F014FA02F0BAFCBC
:1073600010BD00001CB50446BB2168460170447086
:10737000002181701149C170090A0171FFF7CCF930
:10738000010268464171090A8171FFF7C5F901469A
:1073900068468279437910021843081881B268461A
:1073A0004171090A8171072100F017F8C1B26846DE
:1073B000C171082103F08AFA1CBD0000050200001B
:1073C00001460020087800024A78104300028A78BB
:1073D00010430002CA781043704730B502460020BF
:1073E000002303E01578521C28185B1C8B42F9D34C
:1073F00030BD00B591B0402101A8FDF74DF901A8BD
:1074000002F0D8FE01A802F001FF01A802F0F4FE8C
:1074100011B000BD00B585B014216846FDF73CF9F8
:10742000142291046846FDF72BFE05B000BD1FB580
:1074300000200090019002900390684602F002FF45
:107440001FBD70B505460C46611E2846FFF7C5FFF7
:10745000C1B228192038C07F814205D02146284674
:1074600002F07BFD002070BD0120FCE770B50246F4
:107470000B4618781678B04220D1107800281FD01B
:107480000025002110E0002409E0501C065D581C76
:10749000405C864201D1681CC5B2601CC4B2107841
:1074A000A042F2DC481CC1B210788842EBDC1078B4
:1074B000A84201D1012070BD0020FCE70020FAE7BE
:1074C00000BFF8E71CB50446BB2168460170447054
:1074D000062181700B49C170090A0171FFF71CF97F
:1074E000014668464171FFF717F901466846817108
:1074F0000721FFF772FFC1B26846C171082103F08E
:10750000E5F91CBD0102000070B5D0B000257BE09C
:10751000BC2121A8FDF7C0F80C2169434D4A505801
:10752000FDF730F8C1B220A801710C206843494A28
:10753000115821A80130FCF7FFFF0C206843454992
:107540004018017A20A801760C2068434149401870
:10755000417A20A8C1760C2068433E49401846680D
:1075600000243EE0A000305CFF280FD1A00080196D
:107570004078FF280AD1A00080198078FF2805D123
:10758000A0008019C078FF2800D12CE0A000315C59
:10759000A000221827A8013010184170A0008019FF
:1075A0004178A000221827A8013010188170A0008F
:1075B00080198178A000221827A801301018C17006
:1075C000A0008019C178A000221827A80130101847
:1075D000017120A8007F401CC1B220A80177601C67
:1075E000C4B2082CBEDB00BF322120A80175417552
:1075F00064218175C175002141768176294621A8D3
:1076000002F0E2FD681CC5B21E2D81DB402101A8FD
:10761000FDF742F811A801F0D9F910A800791E3041
:10762000C1B26846017110A80279411D1D38FCF7EE
:10763000CBFF002504E001A801304555681CC5B208
:107640001E2DF8DB01A802F0B5FD01A802F07DFCBB
:1076500050B070BD4CB1000070B505460C4610220C
:10766000691C2046FCF7B0FF687C2074A87C60741D
:10767000E87CA074287DE074697D2175AA7D62751F
:10768000E97DA175297EE17570BD70B504460D4692
:1076900010222146681CFCF797FF207C6874607CF0
:1076A000A874A07CE874E07C2875217D6975627DF2
:1076B000AA75A17DE975E07D287670BDF0B587B02B
:1076C0000446002006908D49E01C085C0390039856
:1076D000062830D006DC0300FFF786FC06111417DD
:1076E0001A2529850B287DD004DC082846D00A28D5
:1076F00079D146E00E2877D02C28F9D1F1E001F0BD
:1077000067FBF7E002F02AFCF4E001F03AF9F1E05F
:107710007A49A01D085C7A490870002203210846B6
:1077200003F0A6FBE6E0012076490870E2E00120C4
:1077300075490870DEE07149201D085C00020A46A8
:10774000611D515C08430490002713E0A01DC0197F
:10775000801C6A49085C0502A01DC019C01C085C99
:1077600045190919891DC81900F0D8F80646281DC1
:10777000381887B204988742E8DBBBE0FFF7EBFDDF
:10778000B8E0002005900598002804D1FF200130C2
:107790005E4908800CE00598012803D140025B494E
:1077A000088005E00598022802D140025749088068
:1077B0005249A01D085C564908600846006800024E
:1077C00008604E49E01D085C51490968084350496A
:1077D00008600846006800020860484920460830F2
:1077E000085C02E01AE084E06FE049490968084358
:1077F0004749086008460068000208603F49204683
:107800000930085C42490968084341490860002082
:1078100003F068F90A203F4908706BE03D480078A2
:107820000A2851D101203C4908703449201D085CC8
:1078300000020A46611D515C084304901146A01DD8
:107840000D5C2D02E01D085C05432D02204608302A
:10785000085C05432D0220460930085C05430846B4
:10786000069020460A3006990818069004980428C5
:107870000DD127480068854209D100222946069883
:1078800001F002FF064600202249087012E0049829
:10789000001F1E490988884208DC0498001F82B234
:1078A0002946069801F0F0FE064603E0002019493B
:1078B00008700026012E04D1002203210B2003F0C2
:1078C000D7FA00201449087014E00C49A01D085C88
:1078D0000290E01D085C01900199029803F032FAD1
:1078E00008E00649A01D085C0290029803F012FA15
:1078F00000E000BF00BF07B0F0BD0000480C002052
:1079000083020020810200208202002086020020E3
:10791000880200208C02002080020020FEB5044670
:1079200026786778A0780502E078401985B230465D
:1079300000F0D2FF019001984000074940184078BC
:10794000B84201D00020FEBD2A46211D304600F07D
:10795000B6FA00900098F6E7D8B0000010B503A082
:10796000FCF784FC02F010FF10BD00000D4B310D40
:107970000000000010B503A0FCF778FC012002F025
:10798000C9FE10BD0D4B320D0000000010B503A064
:10799000FCF76CFC002002F0BDFE10BD0D4B330D5A
:1079A0000A00000010B503A0FCF760FC012002F003
:1079B000CBFE10BD0D4B340D0000000010B503A030
:1079C000FCF754FC002002F0BFFE10BD0D4B350D3E
:1079D0000000000010B50548807A401EC4B21D2C7E
:1079E00000DD1D24204602F00FFA10BD350F0020E7
:1079F00010B50548807A401CC4B21D2C00DD00245F
:107A0000204602F001FA10BD350F0020034908603E
:107A100000BF024909680029FBD17047100200200D
:107A2000044800E000BF0146421E90B20029F9D18F
:107A3000704700007427000010B5C0B0044621460E
:107A400001A800F061FF002069464876214601A8A0
:107A500002F0BAFB30A800F06FFF214630A800F01A
:107A600007F830A802F0C8FB012040B010BD0000AC
:107A7000F0B591B004460F46402101A8FCF70CFE7A
:107A800020783C2806D9217815A0FCF7EFFB0020D0
:107A900011B0F0BD2078002800D1F9E700260025BC
:107AA0000DE0601C405DB84207D0601C425D30466E
:107AB000711CCEB201A901310A54681CC5B22078EC
:107AC000A842EEDC2078B04201D10020E0E7684611
:107AD00006713D2201A92046FCF776FD0120D7E77B
:107AE0005B6E756D3A25645D0D000000F0B585B0E4
:107AF00004460F46002000900190029003902078E9
:107B00000D2806D9217816A0FCF7B0FB002005B09F
:107B1000F0BD2078002800D1F9E7002600250DE00F
:107B2000601C405DB84207D0601C425D3046711C4D
:107B3000CEB200A901310A54681CC5B22078A8420F
:107B4000EEDC2078B04201D10020E0E76846067004
:107B50000E2269462046FCF737FD0120D7E70000DA
:107B60005B6E756D3A25645D0D00000010B5C0B008
:107B70000446802C06DA214618A0FCF777FB00208B
:107B800040B010BD214601A800F004FF0220694664
:107B90004876214601A802F017FB30A800F06CFEE1
:107BA000214630A8FFF764FF30A802F003FB30A89D
:107BB00000F00CFF214630A8FFF75AFF30A802F072
:107BC00025FB30A800F0B8FE214630A8FFF750FF93
:107BD00030A802F011FB00BFD2E7000064656C65BD
:107BE00074655F6F726967696E616C5F6566206E50
:107BF000756D203A25640A001FB50446684600F0FA
:107C000013FF21466846FFF771FF684602F01AFB32
:107C1000012004B010BD30B5FFB0FFB0EDB0054697
:107C2000B6A800F011FEB0A8017EA94204DB1E2D0B
:107C300002DA007E002804D100207FB07FB06DB052
:107C400030BDB521890001A8FCF726FD002418E00D
:107C5000AC4214D018226243B6AB0133D1186A4645
:107C6000127918235A4301AB0133D0181822FCF7BC
:107C7000ABFC68460079401CC1B268460171601CCB
:107C8000C4B2B0A8007EA042E2DC01A802F07AFAF9
:107C90000120D2E702468A4202DD501AC0B2704784
:107CA000881AC0B2FBE7000070B505460C462146B5
:107CB000FF2201322846FDF708F964216143084696
:107CC00003218903FCF738FD06462146324602A00F
:107CD000FCF7CCFA70BD0000646F776E6C6F616466
:107CE0003A204F7825303478205B256425255D0DBA
:107CF0000000000070B504460D462A462146782053
:107D000001F04EFC0646012E00D170BD0020FCE7BC
:107D1000F8B504460D462946204601F003FD074606
:107D2000384601F0A3FA39466A2001F071FC064694
:107D3000012E00D1F8BD0020FCE7F8B504460D4641
:107D40002946204601F0EEFC074639466F2001F037
:107D50005FFC0646012E00D1F8BD0020FCE770B59F
:107D600004460D4601F088FA2A4621467F2001F09C
:107D700017FC0646012E00D170BD0020FCE770B54F
:107D800004460D462A4621467E2001F009FC06469F
:107D9000012E00D170BD0020FCE770B504460D46F1
:107DA0002946204601F07DFA2A462146812001F02D
:107DB000F7FB0646012E00D170BD0020FCE770B530
:107DC00004460D462946204601F080FA2A462146FF
:107DD000802001F0E5FB0646012E00D170BD002099
:107DE000FCE770B504460D462946204601F09AFA94
:107DF0002A462146682001F0D3FB0646012E00D119
:107E000070BD0020FCE770B504460D462A462146A9
:107E1000672001F0C5FB0646012E00D170BD002091
:107E2000FCE7F8B504460D462946204601F07AFCE9
:107E3000074639466D2001F0EBFB0646012E00D1C6
:107E4000F8BD0020FCE770B504460D4629462046E3
:107E500001F07CFA2A462146772001F0A1FB064674
:107E6000012E00D170BD0020FCE770B504460D4620
:107E70002A4621467C2001F093FB0646012E00D1C4
:107E800070BD0020FCE770B504460D462A46214629
:107E90007A2001F085FB0646012E00D170BD00203E
:107EA000FCE770B504460D462A462146752001F0D0
:107EB00077FB0646012E00D170BD0020FCE7F8B527
:107EC00005460E461746772D73D026DC6D2D73D0F0
:107ED00018DC682D4FD00CDC652D3AD004DC142D55
:107EE0002BD0152D67D12EE0662D38D0672DF9D116
:107EF0003BE0692D45D06A2D49D06B2D4DD06C2DBE
:107F0000F0D150E028466E380300FFF76DF8095BAA
:107F100061676D73797F858B54002846783803003C
:107F2000FFF762F8148C92989EA4AAB0B6BCC2C89F
:107F3000CED4DAE0E6F0F6FCEC493946304600F003
:107F40004BFA0446F7E03946304600F08CFA044616
:107F5000F1E03946304600F061F90446EBE039467D
:107F6000304600F029F90446E5E039463046FFF78F
:107F70004AFF0446DFE039463046FFF732FF044649
:107F8000D9E03946304600F060FA0446D3E039467D
:107F90003046FFF7BDFE0446CDE03946304600F0DE
:107FA00030FA0446C7E03946304600F003FA04468A
:107FB000C1E03DE000E0BDE039463046FFF731FF6B
:107FC0000446B8E03946304600F036F90446B2E0DF
:107FD00039463046FFF7B1FE0446ACE0394630463C
:107FE00000F021FA0446A6E03946304600F0D0F908
:107FF0000446A0E03946304600F002F904469AE013
:108000003946304600F0EAF8044694E039463046F6
:1080100000F0A6F804468EE039463046FFF741FFEF
:10802000044688E03946304600F088F8044682E08D
:1080300039463046FFF707FF04467CE039463046B4
:10804000FFF758FE044676E03946304600F096F8D1
:10805000044670E039463046FFF715FF04466AE0F3
:108060003946304600F0FAF8044664E039463046B6
:10807000FFF7FBFE04465EE03946304600F08EF81E
:10808000044658E039463046FFF779FE044652E090
:1080900039463046FFF763FE04464CE03946304629
:1080A000FFF78DFE044646E039463046FFF775FE81
:1080B000044640E03946304600F0ECF804463AE029
:1080C0003946304600F0F4F8044634E0394630468C
:1080D00000F0FCF804462EE03946304600F004F982
:1080E000044628E03946304600F00CF9044622E008
:1080F0003946304600F014F904461CE014E00DE067
:1081000006E0FFE73946304600F018F9044612E071
:108110003946304600F020F904460CE03946304636
:1081200000F028F9044606E03946304600F0A4F88D
:10813000044600E000BF00BF2046F8BD70B504460D
:108140000D462946204601F002F92A4621467620AE
:1081500001F026FA0646012E00D170BD0020FCE792
:1081600070B504460D462A462146742001F018FADF
:108170000646012E00D170BD0020FCE770B5044614
:108180000D4601F000FC2A462146792001F008FA4C
:108190000646012E00D170BD0020FCE770B50446F4
:1081A0000D462A4621467D2001F0FAF90646012EA9
:1081B00000D170BD0020FCE770B504460D4629468D
:1081C000204601F039F92A462146662001F0E8F9F7
:1081D0000646012E00D170BD0020FCE770B50446B4
:1081E0000D462946204601F059F92A4621467320BA
:1081F00001F0D6F90646012E00D170BD0020FCE743
:1082000070B504460D462A462146722001F0C8F991
:108210000646012E00D170BD0020FCE770B5044673
:108220000D462A462146652001F0BAF90646012E80
:1082300000D170BD0020FCE7F8B504460D46294684
:10824000204601F06FFA074639466E2001F0E0F94A
:108250000646012E00D1F8BD0020FCE770B50446AB
:108260000D462A4621467B2001F09AF90646012E4A
:1082700000D170BD0020FCE770B504460D462A46CB
:1082800021468B2001F08CF90646012E00D170BDED
:108290000020FCE770B504460D462A4621468220A0
:1082A00001F07EF90646012E00D170BD0020FCE7EA
:1082B00070B504460D462A462146832001F070F928
:1082C0000646012E00D170BD0020FCE770B50446C3
:1082D0000D462A462146842001F062F90646012E09
:1082E00000D170BD0020FCE770B504460D462A465B
:1082F0002146852001F054F90646012E00D170BDBB
:108300000020FCE770B504460D462A46214686202B
:1083100001F046F90646012E00D170BD0020FCE7B1
:1083200070B504460D462A462146872001F038F9EB
:108330000646012E00D170BD0020FCE770B5044652
:108340000D462A462146882001F02AF90646012ECC
:1083500000D170BD0020FCE770B504460D462A46EA
:108360002146892001F01CF90646012E00D170BD7E
:108370000020FCE770B504460D462A4621468A20B7
:1083800001F00EF90646012E00D170BD0020FCE779
:10839000F8B504460D462946204601F0C3F90746C4
:1083A0003946712001F034F90646012E00D1F8BD9E
:1083B0000020FCE7F8B504460D462946204601F0AA
:1083C000ABF9074639466C2001F08AF80646012EC3
:1083D00000D1F8BD0020FCE7F8B504460D4629465B
:1083E000204601F099F90746384601F06DF8394604
:1083F000142001F075F80646012E00D1F8BD0020CA
:10840000FCE7F8B504460D462946204601F084F9FC
:10841000074639466B2001F063F80646012E00D16D
:10842000F8BD0020FCE7F8B504460D462946204675
:1084300001F078F907463946702001F0E9F8064660
:10844000012E00D1F8BD0020FCE770B504460D46B2
:108450002A462146692001F0A3F80646012E00D1E4
:1084600070BD0020FCE7F8B506460F463946304699
:1084700001F055F90546002D06D0012D05D0022D3D
:1084800004D0032D04D102E003E002E001E000E0AB
:1084900000BF00BF2946152001F056F80446012C04
:1084A00000D1F8BD0020FCE70120014908727047A7
:1084B000350F00200020014908727047350F002059
:1084C00010B50020FCF781FC10BD01460020C04320
:1084D00070470000F0B58BB000200890BB480790B3
:1084E00000200690B948059006460A9000200190A9
:1084F000029000245AE00A206043B5494018808861
:10850000B04203D00298401C80B202900A2060431F
:10851000AF494018C1880A98814203D00198401C95
:1085200080B201900A206043A949401881880898C8
:10853000814205DD0A206043A549401880880890E3
:108540000A206043A2494018C1880698814205DD8F
:108550000A2060439E494018C08806900A20604364
:108560009B49401881880798814205DA0A206043B8
:1085700097494018808807900A2060439449401822
:10858000C1880598814205DA0A2060439049401865
:10859000C08805900A2060438D49401886880A20CB
:1085A00060434018C0880A90601C84B28848801ECE
:1085B0000078A0429FDC8748807D002803D0854852
:1085C000807D012837D18449019848700026002019
:1085D0000A9000252CE000241CE00A2060437C491E
:1085E0004018C088A84213D101200A907948807DA4
:1085F000002804D10A2060434018067208E0019860
:10860000801B401EC2B20A206043714940180272AA
:10861000601C84B26E48801E0078A042DDDC0A989F
:10862000002803D0701C86B200200A90681C85B216
:10863000102DD0DBC7E06748807D022803D0654855
:10864000807D032837D164490298487000260020B5
:108650000A9000252CE000241CE00A2060435C49BD
:1086600040188088A84213D101200A905948807D83
:10867000022804D10A2060434018067208E00298DC
:10868000801B401EC2B20A2060435149401802724A
:10869000601C84B24E48801E0078A042DDDC0A983F
:1086A000002803D0701C86B200200A90681C85B296
:1086B000102DD0DB87E04748807D052803D0454852
:1086C000807D04287FD1079A08998818C10F09185E
:1086D000C903090C0491059A06998818C10F091855
:1086E000C903090C0391002700253BE000200990F5
:1086F00000242BE00A206043354A801881880498C2
:10870000FFF7C8FA86B20A206043314A8018C18850
:108710000398FFF7BFFA80B20A900A98864209DDF3
:10872000AE4211D1012009900A2060432849401827
:10873000077209E00A98A84206D1012009900A2090
:108740006043234940180772601C84B22048801E91
:108750000078A042CEDC0998002801D0781C87B2AE
:10876000681C85B2102DC1DB002700240CE00A2014
:10877000604317494018007AB84203DD0A2060437D
:108780004018077A601C84B21148801E0078A0420D
:10879000EDDC11494F700F48807D042813D100246F
:1087A0000CE00A2060430A494018067AB81BC2B29E
:1087B0000A20604340180272601C84B20448801E84
:1087C0000078A042EDDC0BB0F0BD0000FFFF000020
:1087D0005A1000209F0F00209807002070B5044613
:1087E0000D46E0B2FEF7DEF90A2C02D10D20FEF7AD
:1087F000D9F9204670BD000010B51248C07D0300B5
:10880000FEF7F2FB0805080B0E1114171A1DFCF7F2
:108810005DFE15E0FCF7F6FC12E0FCF7DDFE0FE074
:10882000FCF708FE0CE0FCF725FD09E0FCF784FDF1
:1088300006E0FCF753FD03E0FCF7AEFD00E000BFEF
:1088400000BF10BD9F0F002010B50446024A034927
:108850002046FCF7E1FA10BDD1020000060C020030
:1088600010B50446FF22433202492046FCF7D4FAF1
:1088700010BD0000C40A020010B504463D220249A2
:108880002046FCF7C9FA10BDFF08020030B50446C7
:10889000154628884018C21A00E0521A8A42FCD2B3
:1088A000A05C30BD30B502460020002305E01578FD
:1088B000521C2C18E0B25C1CA3B28B42F7DB30BD1B
:1088C00030B502460020002303E01578521C28181A
:1088D0005B1C8B42F9D330BD70B5054600F012F831
:1088E0000646002407E060000549085CA84200D164
:1088F00003E0601CC4B2B442F5DB00BF204670BD8B
:10890000D8B000002920704770B505460C460122FA
:108910001204D01DF830B92262438118B9222846CA
:10892000FCF77AFA70BD10B50446FF220121090454
:108930002046FCF771FA10BD10B504463D220249ED
:108940002046FCF769FA10BD7909020030B5C1B0C4
:10895000002500240EE0FF220132214601A8FCF789
:108960005BFAFF21013101A8FEF737FD4519E01D33
:10897000F93084B2032080038442ECDB284641B006
:1089800030BD10B5002422460321022002F070FA07
:1089900010BD000070B505460C46802C05DA214656
:1089A00008A0FBF763FC002070BD01221204D01D5B
:1089B000F830B92262438118B9222846FCF72CFA14
:1089C0000120F1E76E756D3A25640D0010B504467F
:1089D0003D2202492046FCF71FFA10BD3C09020067
:1089E00070B505460C46012212041046044A82184E
:1089F0004F20604311184F222846FCF70DFA70BD36
:108A0000FFB9000070B505460C460122120410465D
:108A1000044A82184F206043111810222846FCF7A0
:108A2000FBF970BDFFB9000010B504460E220249E3
:108A30002046FCF7F1F910BDB609020070B50546F5
:108A40000C461E2C00DB70BD064A1046064A8018F4
:108A5000401C18226243811818222846FCF7DCF9D2
:108A600000BFF0E7C409020042020000FFB581B078
:108A70000C460B9D01E0281B85B2A542FBDC039848
:108A8000008801190498081A401B461C00E0361B98
:108A9000A642FCD2A71BAF4206D3019881192A46F1
:108AA0000A98FBF791FD0BE0019881193A460A9864
:108AB000FBF78AFDEA1B0A99C8190199FBF784FDA7
:108AC00005B0F0BDFFB583B00F4614460C9D0026DF
:108AD00031E0218806980088814224D0072322466D
:108AE00039460398FFF7D2FECC2813D10820002383
:108AF00022463946009501900398FFF7B7FF0721FA
:108B00002846FEF76AFCC0B2E979884202D1022009
:108B100007B0F0BD2088401C80B22080B84208DB3E
:108B20000020208005E0002E01D10020F0E7012088
:108B3000EEE7701C86B27D20C0008642C9DB0120B2
:108B4000E6E7000030B5D1B0FF2145316846FBF7BC
:108B5000A3FD6846FFF784FE68460078202801DD03
:108B600051B030BD002433E000252BE00A206043E3
:108B70001B490A5C0A20684300A90231085C824252
:108B80001ED10A206843401842880A2060431449D5
:108B9000401842800A20684300A9023140188288A8
:108BA0000A2060430E49401882800A20684300A9C9
:108BB00002314018C2880A20604309494018C28027
:108BC000681CC5B268460078A842CFDC601CC4B2FD
:108BD0000348801E0078A042C6DC00BFC0E700004A
:108BE0005A1000203EB500243FE02348406E224941
:108BF00088660A216143214A505CFEF7B3FBFEF709
:108C00000FFF01A81C4B64331A1D64210090581AF1
:108C1000FFF758FF0546022D1FD1684642790A200A
:108C200060431649085C824217D168468079022861
:108C300013D16846017AC27908021043104988426C
:108C40000BD16846817A427A08021043C2B20A20E8
:108C500060430A494018427005E0FF220A20604341
:108C6000064940184270601CC4B20448801E007857
:108C7000A042BADC3EBD0000300400205A100020A3
:108C80000502000010B506480078002803D1FFF760
:108C90000BFC01F012FE01200149087010BD00001C
:108CA000350F002000B5002002490870FFF702FCD4
:108CB00000BD0000350F002086B004460D46266832
:108CC0006768A0680590E068049020690390606977
:108CD0000290A0690190E069009014A0FBF7C6FA29
:108CE000314618A0FBF7C2FA394619A0FBF7BEFAC5
:108CF0001AA00599FBF7BAFA1BA00499FBF7B6FA7C
:108D00001CA00399FBF7B2FA1DA00299FBF7AEFA7B
:108D100020A00199FBF7AAFA23A00099FBF7A6FA75
:108D2000294626A0FBF7A2FA00BFFEE75B48617266
:108D300064206661756C742068616E646C65725D38
:108D40000D0A00005230203D2025780D0A00000059
:108D50005231203D2025780D0A0000005232203D7E
:108D60002025780D0A0000005233203D2025780D83
:108D70000A000000523132203D2025780D0A000003
:108D8000537461636B6564204C52203D2025780D3F
:108D90000A000000537461636B6564205043203DFA
:108DA0002025780D0A000000537461636B65642010
:108DB000505352203D2025780D0A000043757272F1
:108DC000656E74204C52203D2025780D0A0000006D
:108DD00010B500240B480078002808D10021204657
:108DE00001F01EFBC4B201200649087004E0012115
:108DF000204601F015FBC4B222460321002002F0F8
:108E000037F810BD8402002010B501200249087017
:108E1000FCF7CEF810BD0000B503002010B501200E
:108E200002490870FCF7C4F810BD0000B40300202C
:108E30007047000010B5012002490870FCF7CAF81D
:108E400010BD0000B703002010B5012002490870D2
:108E5000FCF7C0F810BD0000B603002000B595B0C7
:108E6000FEF7E5FA502101A8FBF716FC0C21684635
:108E7000017102790DA1401DFBF7A6FB0121684697
:108E80000175002101A841741E2168468175827D0B
:108E90000A491730FBF798FB002101A801F058F8A8
:108EA000002101A8FEF711FA15B000BD64656661E6
:108EB000756C74206C69737400000000B4B200001B
:108EC00002480068401C01490860704714040020F3
:108ED00010B5002002490877FFF7F2FF10BD00002F
:108EE0004060004070B5B2B00546314800780028B7
:108EF0005BD0A021684601712D4801786846417118
:108F00002B48007806214843861C002444E00A20B0
:108F100060432749891C0A5C0620604301A902318D
:108F20000A54FF2206206043401842700A20604322
:108F30001F49891C085CA84215D100220620604305
:108F400001A9023140188270062060434018C270A7
:108F5000FF22062060434018027100220620604371
:108F60004018427116E000220620604301A9023138
:108F70004018827006202146414368440818C27098
:108F80000620604301A902314018027106206043A7
:108F900040184271601CC4B205480078A042B6DC9B
:108FA000044A314601A801F061FC32B070BD0000F6
:108FB000581000203A12002010B50D48817A6A300E
:108FC000FFF7A2FC00240DE0A200A318084A833298
:108FD0009A18511CA200074BD0180422FBF7F4FA90
:108FE000601CC4B202486A30007EA042ECDC10BDB6
:108FF000350F0020C00B002072B601208003884985
:109000008860BFF35F8F62B6FBF730FDFCF710FBA3
:10901000FDF7A0FC7D21C90082480068FBF782FBB8
:1090200006463446601E8049884200D90CE0601E26
:109030007E4948610321081FFEF714F800207B4990
:1090400088610720086100BFFDF784FC4B2189027D
:1090500074480068FDF718FD0546802D01D100BF5A
:10906000FEE74B2189026F480068FDF7D5FD01211D
:109070006F48FDF773FE6FA0FBF7F8F80021724808
:10908000017300BF10217148017300BF00BF0821A8
:10909000017300BF00BF02216C487038017700BF28
:1090A00001210220FCF732FFFCF776FF0121664820
:1090B0002030017703210120FBF71EFD0D21022046
:1090C000FBF70AFD01F02EFA05210120FDF7ECFE69
:1090D00000215D48203001710220FDF7A5FAFDF75F
:1090E000E9FA01F019FE0720594908700020594992
:1090F0000870012058490870002058490870642001
:10910000FEF784FCFDF72EFBFDF70AFC64215448B2
:1091100041710120524988700020087200BF10215F
:109120004A487038017700BF00BF082147480173E3
:1091300000BF74E04B480078C007C00F002809D07A
:1091400048480078FE21084046490870FDF746FF70
:1091500001F0FEFD4348007802210840002805D0B8
:1091600040480078FD2108403E4908703D4800789D
:109170000421084000280DD03A480078FB2108401F
:1091800038490870FDF71EF8FDF728FFFCF778FF57
:10919000FDF70CF93348007808210840002807D073
:1091A00030480078F72108402E49087001F0FAFA9B
:1091B0002C48007810210840002805D02948007864
:1091C000EF210840274908702648007820210840F0
:1091D000002805D023480078DF2108402149087085
:1091E0002048007840210840002805D01D4800781C
:1091F000BF2108401B4908701A48007880210840A8
:1092000000280CD0174800784006400E1549087019
:10921000FBF7F4FE14480088401C1349088089E7D6
:1092200000ED00E02C040020FFFFFF0000E000E064
:10923000260200200A48656C6C6F2C4920616D2065
:109240004D61747365720A00206100407000044033
:10925000290200202A0200201D02002023020020F3
:10926000350F00202C0200200C020020014948711B
:1092700070470000350F002030B587B004460D461A
:1092800001A92046FEF7E8F901A800F064FE217864
:1092900001A8FEF732F800F0C0FC00F053FE07B062
:1092A00030BD70B504460D46FFF7ECFC294620465C
:1092B000FEF7C7F8002800D170BD2946204600F00F
:1092C0004CFE6078FFF70EFE0120F5E7F0B585B0A3
:1092D00005460E467005070E002416E0002000909B
:1092E00001900290E0004119082203A8FBF76CF9F5
:1092F0006846017B0170C1894180018A8180418A71
:10930000C18000F0E9FE601CC4B2BC42E6DB044848
:1093100000F044FF00F020FEFFF7C4FC05B0F0BDF4
:109320005810002070B504460D4629462046FEF729
:1093300088F8002800D170BD2178601CFDF7A0FFDF
:1093400000F00AFA00F01FFB0120F4E7704770B547
:1093500005460E4631462846FEF773F8002800D130
:1093600070BD2C4620780300FDF73EFE160C10144D
:10937000181C202326292C3337383C4448494D51AA
:1093800056575A62204600F088FA52E0607800F0A2
:109390006DFA4EE06078FEF7E9FB4AE06078FDF791
:1093A000C3FE46E06078FEF747FB42E000F0D4F9E8
:1093B0003FE000F0E8FA3CE000F0D0FA39E000F0DD
:1093C00075FB36E000F0C8F900F0DDFA00F0C6FAEF
:1093D0002FE0204600F009FB2BE02AE06078FEF742
:1093E0000BFC26E0607801F033F900F0D5F900F0CD
:1093F000A9FB1EE0607800F0DBFA1AE019E0607863
:10940000FEF709FC15E0607800F0E8FB11E000F0E1
:10941000E3F900F0A1FD0CE00BE000F0FEFB08E03A
:10942000607800F0F1FC00F0B7F900F08BFB00E091
:1094300000BF00BF012093E770B504460D462946E2
:109440002046FDF7FEFF002800D170BD20780228DD
:1094500012D004DC002807D0012816D108E0032828
:109460000BD0642811D10CE060780B4908720DE034
:10947000607801F096F809E008E060780649C87164
:1094800004E0607801F0E4F800E000BF00BF00F005
:1094900061FD0120D9E70000350F002070B50446BA
:1094A0000D4629462046FDF7CCFF002800D170BDAF
:1094B0002178601CFDF709FF204600F044FD00F014
:1094C000F5FA0120F3E70000002803D00121034A48
:1094D000917002E00021014A91707047350F002021
:1094E00070B504460D46002616480078012800D1C4
:1094F00070BD2146304600F093FF064601213046FC
:1095000000F08EFF06460021304600F089FF064637
:109510000121304600F084FF0646002D05D10021D0
:10952000304600F07DFF064604E00121304600F0A1
:1095300077FF064632460321072001F099FC0120FF
:10954000D6E700008002002070B504460E460025D4
:1095500012480078012800D170BD2146284600F04D
:109560005FFF05460421284600F05AFF054600210A
:10957000284600F055FF05460121284600F050FF1F
:1095800005463146284600F04BFF05462A46032192
:10959000072001F06DFC0120DEE7000080020020C2
:1095A000F7B506461446002718480078012800D170
:1095B000FEBD3146384600F033FF074600213846ED
:1095C00000F02EFF07462546E017000E4019000464
:1095D000010E384600F024FF0746E017000E401940
:1095E00000120002201AC1B2384600F019FF0746E7
:1095F00022463846019900F001FF07463A4603210A
:10960000072001F035FC0120D2E700008002002095
:1096100070B505460C4600261A480078012800D18E
:1096200070BD2946304600F0FBFE0646022130465A
:1096300000F0F6FE06460021304600F0F1FE064638
:109640000421304600F0ECFE0646210E304600F0C4
:10965000E7FE06462002010E304600F0E1FE064617
:109660002004010E304600F0DBFE0646E1B2304633
:1096700000F0D6FE064632460321072001F0F8FB33
:109680000120CDE78002002070B504460D46164645
:1096900032462946204600F003F8012070BD000044
:1096A000F8B507460D461646002E16D1FFF74EF9BF
:1096B000044616480068A04226D11448006800F00D
:1096C00085FE00BFBFF34F8F11481249C860BFF33A
:1096D0004F8F00BF00BF00BFFDE7002D06D1002067
:1096E0000A490860FDF796FEFEF7EAFE294638466D
:1096F000FEF7DAFAFF2101313846FDF76EFE034925
:109700000968401801490860F8BD00001C040020E9
:109710000400FA0500ED00E00246107870470246AA
:109720001078704710B503460C461846FDF748FE02
:1097300010BD00000148007870470000830200203F
:1097400010B500200349087000220321042001F015
:109750008FFB10BD8102002000B59BB001A8FFF770
:109760008BF8652101A8FDF738FE18A9487266221A
:1097700001A97820FFF714FF01A800F0E6FB1BB059
:1097800000BD000010B5034841796A20FFF740FF93
:1097900010BD0000350F002000B595B00D48417A8E
:1097A00000A80130FFF71CF90A48417A68460170A9
:1097B0005021FDF712FEC1B210A801745122694672
:1097C0007D20FFF7EDFE68460178401C00F0C0FBED
:1097D00015B000BD350F002010B5C0B0FF2101311C
:1097E0006846FAF759FF002428E00A2060431E4922
:1097F000085CE1006A4650540A2060431A49401848
:109800004078E100891848700A20604316494018E2
:109810004088E100891848800A20604312494018B6
:109820008088E100891888800A2060430E4940182A
:10983000C088E1008918C880601CC4B20A48801E34
:109840000078A042D1DC0848801E0078C10068463C
:1098500000F083FB0448801E0078C2006946802027
:10986000FFF79EFE40B010BD5A10002010B5B0B0FA
:109870000446684604712146401DFFF745F8BA21A9
:1098800001A8FDF7AAFDC1B228A88177BB2201A9D2
:109890006820FFF785FE30B010BD30B5EDB005464D
:1098A000F42130A8FAF7F8FE6878042801DD6DB0DD
:1098B00030BD687830A9087000243EE0681C611C47
:1098C000425C3C202146414330A8013042543C20B8
:1098D000604330AA0132115C01A8FFF715F8684611
:1098E00002793C20604330A90131401842703C218C
:1098F000614330AA01328918881C0F2201A9013165
:10990000FAF762FE6846427E3C20604330A901318E
:10991000401882746846027E3C20604340184274BE
:109920003C21614330AA01328918084613302922AC
:1099300007A9FAF749FE601CC4B230A80078A0421B
:10994000BCDCF12130A8FDF748FD68A94874F2227B
:1099500030A97C20FFF724FE00BFA8E700B59BB02C
:1099600001A8FEF7E9FF652101A8FDF736FD18A95A
:109970004872662201A97A20FFF712FE01A800F0C2
:10998000E4FA1BB000BD00B59BB001A8FFF71EF8BC
:10999000652101A8FDF721FD18A94872662201A9D9
:1099A0007920FFF7FDFD01A800F0CFFA1BB000BD44
:1099B00010B596B00446214601A80130FFF710F813
:1099C00068460471502101A8FDF707FDC1B210A837
:1099D0000175512201A97320FFF7E2FD6846017964
:1099E000401D00F0B5FA16B010BD30B5EDB005461B
:1099F000F42130A8FAF750FE6878042801DD6DB034
:109A000030BD687830A9087000243EE0681C611CF5
:109A1000425C3C202146414330A8013042543C2066
:109A2000604330AA0132115C01A8FEF76DFF684661
:109A300002793C20604330A90131401842703C213A
:109A4000614330AA01328918881C0F2201A9013113
:109A5000FAF7BAFD6846427E3C20604330A90131E6
:109A6000401882746846027E3C206043401842746D
:109A70003C21614330AA013289180846133029225B
:109A800007A9FAF7A1FD601CC4B230A80078A04273
:109A9000BCDCF12130A8FDF7A0FC68A94874F222D3
:109AA00030A96520FFF77CFD00BFA8E710B5C4B062
:109AB00004A8FEF7B9FF04A800F04BFAF02108A8AB
:109AC000FAF7EAFD6846017C08A80170002424E04A
:109AD00004A80130015D2001221808A8013081543A
