:020000040000FA
:10400000C81D0020B941000005C600006541000040
:1040100000000000000000000000000000000000A0
:10402000000000000000000000000000CB41000084
:104030000000000000000000CF410000E94F000038
:10404000D3410000D5410000D7410000D941000014
:10405000DB410000DD410000DF4100006D60000039
:10406000F1610000E541000049C100000DC1000000
:10407000EB41000051C20000C5C10000F141000049
:10408000F341000075630000C9630000196400007B
:1040900069640000A97C00003DB60000C19D0000DD
:1040A000034200000542000007420000B96400001E
:1040B0000965000059650000A965000069C9000094
:1040C00000F002F800F03FF80CA030C808382418BF
:1040D0002D18A246671EAB4654465D46AC4201D140
:1040E00000F031F87E460F3E0FCCB6460126334233
:1040F00000D0FB1AA246AB4633431847E88F0000B6
:10410000089000000023002400250026103A01D367
:1041100078C1FBD8520700D330C100D50B6070477F
:1041200010B5642902D100F0CFF810BD782902D172
:1041300000F000F910BD002010BD1FB500F0D8F947
:104140001FBD10B510BD00F023FC1146FFF7F5FFB1
:1041500005F004FF00F03BFC03B4FFF7F2FF03BCE3
:1041600003F034FD04207146084202D0EFF30980C9
:1041700001E0EFF308807146004A1047319B0000D0
:1041800070B505460C46164602E00FCC0FC5103E32
:10419000102EFAD2082E02D303CC03C5083E042EFB
:1041A00007D301CC01C5361F03E021782970641CB8
:1041B0006D1C761EF9D270BD19488047194800471A
:1041C000FEE7FEE7FEE7FEE7FEE7FEE7FEE7FEE7C7
:1041D000FEE7FEE7FEE7FEE7FEE7FEE7FEE7FEE7B7
:1041E000FEE7FEE7FEE7FEE7FEE7FEE7FEE7FEE7A7
:1041F000FEE7FEE7FEE7FEE7FEE7FEE7FEE7FEE797
:10420000FEE7FEE7FEE7FEE7FEE7FEE7FEE7FEE786
:10421000FEE7000004480549034A054B70470000CB
:1042200021740000C1400000C8170020C81D0020F4
:10423000C81700200FB4054910B503AA029800F072
:104240007BFB10BC08BC04B0184700007C020020B7
:104250000FB41CB5074B06AA7B446946009005982D
:1042600000F051FB0020694600F060FB1CBC08BC5C
:1042700004B01847D106000070B50446856900688F
:10428000C10601D5302600E02026C00707D070BD4A
:1042900062683046A1689047206A401C20626D1E0B
:1042A000F6D570BD70B5044685690078C00707D1A2
:1042B00070BD6268A16820209047206A401C20627F
:1042C0006D1EF6D570BD0000F7B500257529106884
:1042D000009914A611D0C046C046002802DA404218
:1042E00011A608E0009909688A0701D50FA602E027
:1042F000490704D50EA6012501E0C046C046009F2F
:104300000024243704E000F02BFB30313955641CC5
:104310000028F8D12B4632462146009800F096FA44
:10432000FEBD0000000000002D0000002B0000007A
:104330002000000070B504460D4621461068C046B6
:10434000C0462188090502D50F4A7A4402E00E4A88
:104350007A440E3223460021243305E00607000983
:10436000360F965D5E54491C0028F7D12078002353
:10437000000705D5702D03D0002901D0022311328A
:10438000204600F063FA70BDDA8B0000F3B50446F6
:10439000002081B020622046E168884700287DD057
:1043A000252802D06268A16883E0454F00257F443C
:1043B0002046E16888472028064608DB312E06D2D1
:1043C000B81920380078002801D00543F0E7A80785
:1043D00001D5042085430020E0610746A0612A2E14
:1043E0000AD0304603F0EAFB002827D0B8000019B5
:1043F000303E0090866119E00298BA00121902C896
:10440000916102902046E1688847012F064617D146
:10441000E06900281FDA202085431CE000980A216B
:104420008069484300998019303888612046E168E6
:104430008847064603F0C2FB0028EFD1012F0AD0BF
:104440002E2E08D12046E1688847064620200543E5
:104450007F1C022FC3DBA069002803DA4042A06161
:1044600001200543E80701D010208543002E24D009
:1044700030464138192803D80120C00205432036B0
:10448000204625603146029A1546FFF749FE00286E
:104490000CD0012807D0ED1DE80800E00DE0C000B9
:1044A0000830029077E72D1D029574E76268304668
:1044B000A1689047206A401C6CE7206AFEBD00009E
:1044C0009E8B00000B4A30B511460B4C60310B46F9
:1044D000DC3B0CC1372106E0020C8D0012185A514A
:1044E000064A504300190A46491E002AF4DC30BD32
:1044F0000120E7E700170020E119D666CD0D010085
:10450000034670B502460B439B070FD10E4CE601E4
:1045100000E008C208C91D1B9D433542F9D0D9B23D
:104520001170521C00290DD01B0AF8E70B78491CAA
:104530001370521C002B05D00B78491C1370521CB1
:10454000002BF3D170BD00000101010130B5441C06
:1045500003E00178401C00290DD08107F9D10B4BF5
:10456000DD0104C8D11A91432940FAD0001B0A0684
:1045700003D0C01E30BD001B30BD0A0401D0801E18
:1045800030BD0902FCD0401E30BD00000101010118
:10459000F8B5042A2CD3830712D00B78491C03707A
:1045A000401C521E83070BD00B78491C0370401C23
:1045B000521E830704D00B78491C0370401C521E06
:1045C0008B079B0F05D0C91ADF002023DE1B08C90B
:1045D0000AE0FFF7D5FDF8BD1D4608C9FD401C46A1
:1045E000B4402C4310C0121F042AF5D2F308C91A94
:1045F000521EF0D40B78491C0370401C521EEAD4A2
:104600000B78491C0370401C012AE4D4097801701E
:10461000F8BDD2B210B513029A1813049A1800F01C
:104620000EF810BD01E004C0091F0429FBD28B075E
:1046300001D50280801CC90700D002707047002994
:104640000BD0C30702D00270401C491E022904D3BC
:10465000830702D50280801C891EE3E70022EEE773
:104660000022DFE7024670B50A4392072AD11E4DA9
:10467000EE0104C808C9541B9443344017D0D0B28B
:10468000D9B2401A2106014310D190B299B2401A12
:10469000210401430AD110021902000A090A401A32
:1046A0002102014302D1100E190E401A70BD9A4228
:1046B000DFD010BA19BA884201D9012070BD00209C
:1046C000C04370BD02780B78401C491C002A09D0F9
:1046D0009A4207D102780B78401C491C002A01D06D
:1046E0009A42EFD0D01A70BD0101010100220309E6
:1046F0008B422CD3030A8B4211D300239C464EE0FD
:1047000003460B433CD4002243088B4231D30309B8
:104710008B421CD3030A8B4201D394463FE0C3096A
:104720008B4201D3CB01C01A524183098B4201D382
:104730008B01C01A524143098B4201D34B01C01A6D
:10474000524103098B4201D30B01C01A5241C308E5
:104750008B4201D3CB00C01A524183088B4201D354
:104760008B00C01A524143088B4201D34B00C01A40
:104770005241411A00D201465241104670475DE055
:10478000CA0F00D04942031000D3404253400022D8
:104790009C4603098B422DD3030A8B4212D3FC2281
:1047A000890112BA030A8B420CD3890192118B4200
:1047B00008D3890192118B4204D389013AD0921116
:1047C00000E08909C3098B4201D3CB01C01A5241D1
:1047D00083098B4201D38B01C01A524143098B429A
:1047E00001D34B01C01A524103098B4201D30B0183
:1047F000C01A5241C3088B4201D3CB00C01A5241A8
:1048000083088B4201D38B00C01A5241D9D243088E
:104810008B4201D34B00C01A5241411A00D20146CB
:10482000634652415B10104601D34042002B00D535
:104830004942704763465B1000D3404201B50020F7
:10484000C046C04602BD704770477047FFB504467A
:104850000D4681B0243000902168880604D51022CE
:10486000E0699143216000E00120A84201DD471B7F
:1048700000E000270498A1697A191018081AA061AD
:104880002078C00602D42046FFF7F6FC002608E098
:1048900003986268A168805D9047206A401C761C7E
:1048A000206204988642F3DB2078C0060AD52046B1
:1048B000FFF7E2FC06E06268A16830209047206ABA
:1048C000401C206238467F1E0028F4DC07E0009878
:1048D0006268A168405D9047206A401C20622846BB
:1048E0006D1E0028F3DC2046FFF7DCFC2078000674
:1048F00002D5022005B0F0BD0120FBE701694A1C8A
:1049000002610878704700B58FB0029100210591CF
:104910000549019379440391114604906846FFF7D5
:1049200035FD0FB000BD0000E5FFFFFF0A68107005
:10493000521C0A6070470000084B70B50D467B445E
:10494000FFF7E1FF0446284604F05AFD002802D094
:104950000020C04370BD204670BD0000BF4C000069
:1049600001468008081A02091018020A1018020CE1
:104970001018C008820012185200891A01E0401C69
:104980000A390A29FBD2704700487047681700208F
:104990007546FFF7F9FFAE46050069465346C00865
:1049A000C000854618B020B5FFF734FC60BC002776
:1049B0004908B6460026C0C5C0C5C0C5C0C5C0C5EB
:1049C000C0C5C0C5C0C5403D49008D46704710B543
:1049D0000446C046C0462046FFF7BEFB10BD70B57A
:1049E0008C180578401C6B075B0F01D10378401CC5
:1049F0002A1106D10278401C03E00678401C0E7094
:104A0000491C5B1EF9D12B0705D40023521E0DD47F
:104A10000B70491CFAE70378401CCB1A921C03E088
:104A20001D780D70491C5B1C521EF9D5A142D8D3CC
:104A3000002070BD10B5012115480175154800789A
:104A400020210843134908700020134908701349B6
:104A50000875152003F05EF810200F49087000203B
:104A60008870084680788870084680780821084356
:104A700009498870002008718871FF20C8720020E1
:104A8000887208460078012108430349087010BD68
:104A9000406100402004024000500440406000405B
:104AA000064A127838239A43044B1A701A46127831
:104AB000C3001A43014B1A707047000000500440B5
:104AC0000B4A127852085200094B1A70002803D181
:104AD00080220A439A7103E0C0220A43044B9A7170
:104AE000034A127801231A43014B1A7070470000E1
:104AF0000050044010B504460B48047200200B49D6
:104B00000875152003F006F80021094801750648CC
:104B100080798011032805D003480078802108435C
:104B20000149087010BD0000005004404060004082
:104B30004061004010B5084800788021884306494C
:104B400008700121054801750020054908751520E8
:104B500002F0E0FF10BD0000005004404061004042
:104B60004060004010B50146CC17240F6418231193
:104B70000846CC17240F2418241124010A1B0A20EC
:104B800058438018C2B2104610BD000000B5C022C4
:104B90009178F8221140144A1278114313480A46BA
:104BA000E03A130002F090FF0E0A0E12161A1E1EB3
:104BB0001E080C1014181C1E0D4813E00D4811E0BF
:104BC0000D480FE00D480DE00D480BE00D4809E0E1
:104BD0000D4807E00D4805E00D4803E00D4801E0F1
:104BE0000D4800BF00BF00BD201C024040420F0026
:104BF0000090D003006CDC020048E80100366E0132
:104C00000024F400001BB70000127A00808D5B00C6
:104C100000093D00C0C62D0080841E0070B50B4BFE
:104C20000146C417640F6418E4101C5D0246C517E2
:104C30006D0FAD18ED10ED00461B0125B5402C435E
:104C4000C5176D0F6D18ED105C5570BD005000401C
:104C5000FFB583B00D9A120F120701239B079A42EA
:104C600002D10022009201E0012200920E9A120F5E
:104C7000120701239B079A4201D1002400E001247E
:104C8000009A002A01D1012200E000222240002ADD
:104C900002D0002201920DE0002C01D1012200E09F
:104CA0000022009B1A40002A02D00122019201E05A
:104CB000002201920122520782181170069A920175
:104CC0002032E3001A43009B9B001A43019B5B00C8
:104CD0001A43059B1A43204B0D015A5301231E4AC8
:104CE0000D01521953801C4B0D015B190C9A9A80CF
:104CF000194B0D015B190C9ADA80174A0D015219F4
:104D00000D9B9360144A0D0152190E9BD360134AF8
:104D1000927E08231A43114B9A769A04104B9A609C
:104D20001A4602920246C5176D0FAD18EE10029D8D
:104D3000AD5D0346C617760FF618F610F600871B12
:104D40000126BE403543C617760FB618F710029EEF
:104D5000F55507B0F0BD000020000020000802401B
:104D60000050004070B50B4B0146C417640F641827
:104D7000E4101C5D0246C5176D0FAD18ED10ED0077
:104D8000461B0125B540AC43C5176D0F6D18ED10DE
:104D90005C5570BD0050004030B5F1210B4AD16028
:104DA0000A4B10330146C417640F6418E410E40082
:104DB000051B0124AC400246C5176D0FAD18ED1060
:104DC0005C550021014AD16030BD00000050004018
:104DD00010B5044600F0F2F800F0C7F8002002F029
:104DE0005DFE0A2007F01CFBD82002F053FAFF21D9
:104DF00009042140080C02F04DFAFF21090221406C
:104E0000080A02F047FAE0B202F044FA012002F088
:104E100045FE0A2007F004FB00F0A7F810BD70B5AE
:104E200005460C46164602F049FE002002F036FE0A
:104E30000A2007F0F5FA032002F02CFAFF210904FA
:104E40002140080C02F026FAFF2109022140080A3D
:104E500002F020FAE0B202F01DFA04E0552002F060
:104E600019FA28706D1C3046711E8EB20028F5D1DB
:104E7000012002F013FE0A2007F0D2FA70BD10B52F
:104E800000F09CF8002002F009FE0A2007F0C8FAA2
:104E9000C72002F0FFF9012002F000FE0A2007F00F
:104EA000BFFA00F062F810BD10B5044602F006FE2D
:104EB00000F084F800F059F8002002F0EFFD0A201D
:104EC00007F0AEFA812002F0E5F9FF210904214044
:104ED000080C02F0DFF9FF2109022140080A02F064
:104EE000D9F9E0B202F0D6F9012002F0D7FD0A208C
:104EF00007F096FA00F039F810BD70B505460C467B
:104F0000164602F0DBFD00F059F8002002F0C6FD65
:104F10000A2007F085FA022002F0BCF9FF210904FB
:104F20002140080C02F0B6F9FF2109022140080ACD
:104F300002F0B0F9E0B202F0ADF9FF200130864294
:104F400000DD064603E0287802F0A4F96D1C304627
:104F5000711E8EB20028F6D1012002F09FFD0A20BA
:104F600007F05EFA00F001F870BD10B500240020D3
:104F700002F094FD0A2007F053FA052002F08AF9A6
:104F800000BF552002F086F90446E007C00F002854
:104F9000F7D1012002F082FD0A2007F041FA10BD8E
:104FA000F8B504460D46164602F088FD2F460094DB
:104FB000324639460098FFF7EBFAF8BD10B50020ED
:104FC00002F06CFD0A2007F02BFA062002F062F9CD
:104FD000012002F063FD0A2007F022FA10BD00B59F
:104FE00000F08EFD00BD000002480068401E01492F
:104FF000086070471802002070477047704770477C
:105000004C31303031000000000000000000000092
:105010004150505F4D415354455200000000000084
:10502000312E322E3234000000000000000000005B
:105030004E6F7620323520323032330000000000CF
:1050400031343A32323A33340000000000000000BC
:105050004A4F454C2E4348454E00000000000000DA
:105060000000000000000000000000000000000040
:105070000000000000000000000000000000000030
:105080000000000000000000000000000000000020
:105090000000000000000000000000000000000010
:1050A000F7B5FFB085B085988390002754E002F0F3
:1050B00005FD8398C505ED0D8398401B8090012068
:1050C0004002441B8698C01B86B28498C019829007
:1050D000684640198190B4421FDB002D03D10120A6
:1050E0004002864205D00122520268468099FFF7AD
:1050F00057FF324682998198FFF74AFA809807F065
:10510000DEFB6A4601214902809807F002FC839881
:1051100080198390B81987B21EE0002D03D10120B9
:105120004002844205D00122520268468099FFF76E
:1051300037FF224682998198FFF72AFA809807F074
:10514000BEFB6A4601214902809807F0E2FB839882
:1051500000198390381987B286988742A7DB7FB001
:1051600008B0F0BDF7B5C4B045984390002753E0B0
:1051700002F0A4FC4398C5B24398401B4090FF2026
:105180000130441B4698C01B86B24498C019429017
:10519000684640194190B4421FDB002D03D1FF2027
:1051A0000130864205D0FF22013268464099FFF760
:1051B00036FE324642994198FFF7EAF94098FFF7E8
:1051C00073FEFF22013268464099FFF796FE43982E
:1051D00080194390B81987B21EE0002D03D1FF203B
:1051E0000130844205D0FF22013268464099FFF722
:1051F00016FE224642994198FFF7CAF94098FFF7F8
:1052000053FEFF22013268464099FFF776FE43982D
:1052100000194390381987B246988742A8DB47B0F7
:10522000F0BD000070B50546002D00D10125072115
:105230002846FFF765FA401CC6B21849098A88B2A9
:105240003346174A114600F0A4FD002214491439D0
:10525000124801F0BDFD01241BE01148143801780B
:10526000162060430E4A143A1154104681781620D5
:1052700060438018817010460179162060438018C1
:105280000171104681791620604380188171601C7D
:10529000C4B204484078A042DFDA70BD240B00207D
:1052A000380400202007002070B5184C247E6406C6
:1052B000240E174D2C72FF2491346C8101242C7321
:1052C0002C46247A6D896D1C6C43114D2C612C1F6A
:1052D0006168104B002214E0002005E01C780C707F
:1052E000491C5B1C441CA0B20428F7DB002004E02E
:1052F00000240C70491C441CA0B20428F8DB541C88
:10530000A2B2024C247E9442E6DC70BDF51100206E
:10531000240B0020480B0020F1B584B0052104982F
:10532000FFF7EEF9C0B202900298022801DC0220D9
:1053300002900298642801DB642002905C48008A95
:1053400080B201905B4A1146029B00F022FD584A50
:105350005289511C574A143A908AFFF7D1F9C5B2C5
:10536000534A5289511C534A143A908AFFF7C8F99C
:1053700088B20390681CC6B24D48007AB04200DC87
:10538000002664210398FFF7BBF9C7B2002F5CD059
:10539000002455E0781EA04228D14548001F4068EF
:1053A000B100415C16206043424A143A115440480F
:1053B000001F4068B10040184178162060438018F3
:1053C00081703B48001F4068B1004018817816206A
:1053D0006043801801713648001F4068B1004018D2
:1053E000C178162060438018817127E03048001F83
:1053F0004068A900415C162060432E4A143A1154BB
:105400002B48001F4068A9004018417816206043CF
:10541000801881702648001F4068A90040188178D4
:1054200016206043801801712148001F4068A900C0
:105430004018C1781620604380188171601CC4B286
:105440001D484078A042A5DA2FE0002429E0184842
:10545000001F4068A900415C16206043154A143AB9
:1054600011541348001F4068A900401841781620C5
:105470006043801881700E48001F4068A9004018E2
:10548000817816206043801801710948001F406828
:10549000A9004018C1781620604380188171601CF3
:1054A000C4B205484078A042D1DA05B0F0BD000092
:1054B000240B0020380400202007002070B5154C74
:1054C000247E154D2C72154C6478641C64256C4345
:1054D000114D6C8101242C732C46247A6D896D1C2E
:1054E0006C430D4D2C612C1F63680D4A00200BE0AE
:1054F000002105E014781C705B1C521C4C1CA1B2EE
:105500000429F7DB441CA0B2034C247A8442EFDC6C
:1055100070BD0000F5110020240B002020070020A2
:10552000480B0020FEB507463846F917490F091801
:105530004905090E01910198012801DC0120019023
:105540000198642801DB642001903F48008A80B202
:1055500000903E4A1146019B00F01BFC3A4A5289DA
:10556000511C3A4A143A908AFFF7CAF8C5B2364A33
:105570005289511C354A143A908AFFF7C1F888B213
:105580000290681CC6B23048007AB04200DC0026A7
:10559000002429E02C48001F4068A900415C162027
:1055A00060432A4A143A11542748001F4068A90052
:1055B0004018417816206043801881702248001FEF
:1055C0004068A90040188178162060438018017156
:1055D0001D48001F4068A9004018C178162060438C
:1055E00080188171601CC4B219484078A042D1DA99
:1055F00015494889C10F09184A1002998A4222DACE
:105600001148001F4068B100405C1049143908700F
:105610000D48001F4068B100401840780B4914390C
:1056200088700948001F4068B10040188078074919
:10563000143908710448001F4068B1004018C07850
:10564000024914398871FEBD240B00203804002063
:105650002007002070B5124C247E124D2C72FA24C3
:105660006C8101242C732C46247A6D896D1C6C434B
:105670000C4D2C612C1F63680B4A00200BE00021AD
:1056800005E014781C705B1C521C4C1CA1B2042950
:10569000F7DB441CA0B2034C247A8442EFDC70BDDB
:1056A000F5110020240B0020480B0020F1B586B036
:1056B0000698C117490F09184905090E019101986B
:1056C000032801DC0320019001980A2801DB0A204D
:1056D00001904548008A80B20090444A1146019BDF
:1056E00000F057FB404A5289511C404A143A908AB4
:1056F000FFF706F8C6B23C4A5289511C3B4A143A9D
:10570000908AFEF7FDFF8FB2374948890A21FEF7DC
:10571000F7FF85B2A804000C03900620684380B20E
:105720000290A800281880B20590E800401B80B2C3
:1057300004900398874202DD0598874205DD0298B0
:1057400087420ADD0498874207DC00202749143984
:10575000087088700871887122E02348001F406833
:10576000B100405C2149143908701F48001F40688F
:10577000B100401840781D49143988701A48001F3C
:105780004068B100401880781849143908711648EB
:10579000001F4068B1004018C0781449143988715E
:1057A00001241BE0114814380178162060430F4A89
:1057B000143A115410468178162060438018817085
:1057C00010460179162060438018017110468179D6
:1057D0001620604380188171601CC4B20448407870
:1057E000A042DFDA07B0F0BD240B0020380400200F
:1057F0002007002070B5154C247E154D2C722C46C8
:10580000247AFF252D356C43114D6C8101242C73B6
:105810002C46247A6D896D1C6C430D4D2C612C1F18
:1058200063680C4A00200BE0002105E014781C702E
:105830005B1C521C4C1CA1B20429F7DB441CA0B217
:10584000034C247A8442EFDC70BD0000F511002087
:10585000240B0020480B0020F8B507466420C01B2D
:105860001930C6B2012E00DC0126C82E00DBC82686
:105870002E4800782E4948702E480068401C2D495B
:105880000860B04251D300200860002432E004F0E8
:10589000E9F800902848017E0098FEF731FFCDB26C
:1058A000A8002918244819300818417816206043A8
:1058B000224A1154A80029181F4819300818817865
:1058C0001620604380188170A80029181A481930E2
:1058D0000818C1781620604380180171A8002918A3
:1058E0001548193008180179162060438018817115
:1058F000601CC4B20D480078A042C8DC002410E04F
:1059000004F0B0F800900A4841780098FEF7F8FEDD
:10591000CAB20A2060430549891C40180272601C03
:10592000C4B202480078A042EADCF8BDBC120020F4
:10593000200700201C040020F51100202404002072
:1059400070B52248007822494870002438E00A20C7
:1059500060431E49891C4018047204F083F806460F
:105960001C48017E3046FEF7CBFECDB2A8002918B8
:10597000184819300818417816206043164A115407
:10598000A800291813481930081881781620604398
:1059900080188170A80029180E4819300818C1789D
:1059A0001620604380180171A80029180948193091
:1059B000081801791620604380188171601CC4B2F8
:1059C00002480078A042C2DC70BD0000BC1200207A
:1059D00020070020F511002024040020F8B505461A
:1059E000002D00D1012507212846FEF789FE401C25
:1059F000C6B21949098A88B23346184A114600F0DE
:105A0000C8F9002215491439134801F0E1F90124BD
:105A10001CE0631E16277B43104F143FDB191A4608
:105A2000143216236343DB19194614310A4B1B8ABF
:105A300098B23C2300F0ADF9162060433A46811835
:105A40000022054801F0C4F9601CC4B20448407843
:105A5000A042DEDAF8BD0000240B0020380400204C
:105A60002007002070B5234C247E6400641E224D64
:105A70002C72FF2491346C8101242C732C46247ADF
:105A80006D896D1C6C431C4D2C612C1F63681B4879
:105A900000210BE0002205E004781C705B1C401C18
:105AA000541CA2B2042AF7DB4C1CA1B2114C247E78
:105AB0008C42EFDC0F4C247E012C19DD0F480D4C7D
:105AC000247EA41EA400001900210CE0002205E0A1
:105AD00004781C705B1C401C541CA2B2042AF7DB27
:105AE00008384C1CA1B2034C247E641E8C42EDDCB1
:105AF00070BD0000F5110020240B0020480B002091
:105B000030B54C4B1B784C4C63704C4B1B7E012BBF
:105B10002ED14A4B5B7E002B03D0484B5B7EFF2B84
:105B200026D100201FE00A234343424CA41C1B192A
:105B30001872424B9C7E16234343414DEC543F4B1D
:105B4000DC7E162343435B199C703C4B1C7F162361
:105B500043435B191C71394B5C7F162343435B192C
:105B60009C71431CD8B2334B1B788342DBDC60E072
:105B700000205AE00A2343432E4CA41C1B19187220
:105B80000022002137E00A2343432A4CA41CE45C92
:105B90008B00CD18294B19335B5D9C4229D18B00BA
:105BA000CC18264B1933E3185C7816234343244D55
:105BB000EC548B00CC18214B1933E3189C78162336
:105BC00043435B199C708B00CC181C4B1933E318B2
:105BD000DC78162343435B191C718B00CC18174BE0
:105BE0001933E3181C79162343435B199C71012276
:105BF00005E04B1CD9B2114B1B7E8B42C3DC00BFAE
:105C0000002A10D10024162343430D4DEC541623D3
:105C100043435B199C70162343435B191C71162385
:105C200043435B199C71431CD8B2024B1B788342DF
:105C3000A0DC30BDBC12002020070020F5110020A0
:105C400024040020F8B50546002D00D101250721C8
:105C50002846FEF755FD401CC6B21949098A88B28C
:105C60003346184A114600F094F8002215491439B9
:105C7000134801F0ADF801241CE0631E16277B4396
:105C8000104F143FDB191A46143216236343DB19F5
:105C9000194614310A4B1B8A98B23C2300F079F85C
:105CA000162060433A4681180022054801F090F81A
:105CB000601CC4B204484078A042DEDAF8BD00009F
:105CC000240B0020380400202007002070B5134C5E
:105CD000247E134D2C72FF2491346C8101242C738B
:105CE0002C46247A6D896D1C6C430D4D2C612C1F44
:105CF00063680C4A00200BE0002105E014781C705A
:105D00005B1C521C4C1CA1B20429F7DB441CA0B242
:105D1000034C247A8442EFDC70BD0000F5110020B2
:105D2000240B0020480B0020FFB581B004460D462F
:105D300016460A98002801D1347028E0AC4211DAE6
:105D4000281B009004990098484307460A99491C6B
:105D50003846FEF7CBFC0746AF4200D92F46E01984
:105D6000307014E0AC4211DD601B00900499009883
:105D7000484307460A99491C3846FEF7B7FC0746D0
:105D8000A74200D92746E01B307000E0347005B010
:105D9000F0BDFFB581B00C4615461E46002E07D05B
:105DA0002888871938460199FEF7A0FC218001E078
:105DB0002888208005B0F0BD10B503220021022004
:105DC00001F05EF800221146042001F059F800228B
:105DD00007210D2001F054F8042202210C2001F0CB
:105DE0004FF8002201210C2001F04AF8032206217D
:105DF0000D2001F045F8002206210D2001F040F8A9
:105E000001221146022001F03BF80322022108463C
:105E100001F036F800220321022001F031F80422BB
:105E20000021012001F02CF800220121084601F098
:105E300027F804220221012001F022F80422032184
:105E4000012001F01DF804221146012001F018F88C
:105E5000042211460C2001F013F8042203210C2027
:105E600001F00EF810BD30B513460C780578AC4241
:105E700009DD0478E2180C78944202D20C780470A0
:105E800017E0027015E004780D78AC420FDD04785D
:105E90009C4209DD0478E21A0C78944202D90C780D
:105EA000047006E0027004E00C78047001E00C78E5
:105EB000047030BD70B505460A212846FEF720FC67
:105EC000C6B20A212846FEF71BFCCCB230010019ED
:105ED000C4B2204670BD00007FB51A4D00201A499B
:105EE000087000240DE029782D1DC8B269460855B8
:105EF0006846005D14490978401813490870601C11
:105F0000C4B2102CEFDB10480078FA2804DD0E48EC
:105F100000780A300C49087000200C4908700024F1
:105F200008E06846005D094909784018074908708B
:105F3000A01CC4B2102CF4DB04480078FEF7C2FAAF
:105F40007FBD0000940850002E0200203302002084
:105F50000121054801770548808808430349888066
:105F60000020034908777047006100406015044035
:105F70000060004008B50020164908701648808867
:105F80000121084314498880084640891349084084
:105F90001149488108460089104908400E49088186
:105FA00008460089891508430B49088100200090A4
:105FB00005E000BF68460078401CC1B20091684609
:105FC00000780E28F5D904480089012108430249C8
:105FD000088108BD6403002060150440FEFF000036
:105FE00001210648017006488088022108430449BF
:105FF000888000200349087070470000206100403D
:10600000601504402060004008B5164880880221D1
:1060100008431449888008464089134908401149BB
:10602000488108460089104908400E490881084601
:106030000089491508430B4908810020009005E0BC
:1060400000BF68460078401CC1B2009168460078E5
:106050000E28F5D903480089022108430149088127
:1060600008BD000060150440FDFF000010B5564853
:10607000008802210840022807D1544800880028DF
:1060800003D0022003F00AFE9AE04F480088C007C0
:10609000C00F002807D04D480088002803D00520F5
:1060A00003F0FCFD8CE04A480078C007C00F0028D0
:1060B00018D04648008800280FD04648006800786D
:1060C0004549087243480068401C424908603F48FF
:1060D0000088401E3D49088072E0FFF74BFF03F047
:1060E000E9FD6DE03A48007804210840002832D1EB
:1060F0003548203080880121084333492031888089
:106100003148008B8004800C2F4908830846008B9F
:106110000121890308432C4908832B4820304088FB
:10612000012108432849203148802948007804216A
:1061300008432749087029480088012807D12248C8
:1061400020304089264908401F4920314881FF20DE
:106150002149087234E02348008820490988884290
:106160002EDA1D48007A2049096808701E48006828
:10617000401C1D4908601B480088401C19490880C4
:1061800016480088401E098888420BD10E482030EE
:106190004089134908400C4920314881FF200E49AD
:1061A00008720DE00F4800880C490988884204D124
:1061B000FFF7E0FE03F074FD02E0FF2006490872DD
:1061C00000200A49087710BD401504406C030020E8
:1061D0006403002068030020401704407603002079
:1061E000FEFF0000740300207003002000600040E8
:1061F00010B55648408802210840022807D154486B
:106200000088002803D0022003F05EFD9AE04F488A
:106210004088C007C00F002807D04D4800880028DC
:1062200003D0052003F050FD8CE04A480078C007F9
:10623000C00F002818D04648008800280FD04648D4
:10624000006800784549887243480068401C42490C
:1062500008603F480088401E3D49088072E0FFF713
:10626000D3FE03F03DFD6DE03A480078042108407C
:10627000002832D135482030808802210843334934
:10628000203188803148408B8004800C2F4948831E
:106290000846408B0121890308432C4948832B4839
:1062A000203040880221084328492031488029486D
:1062B00000780421084327490870294800880128EC
:1062C00007D1224820304089264908401F49203103
:1062D0004881FF202149887234E023480088204902
:1062E000098888422EDA1D48807A2049096808709A
:1062F0001E480068401C1D4908601B480088401C5F
:106300001949088016480088401E098888420BD128
:106310000E4820304089134908400C4920314881FB
:10632000FF200E4988720DE00F4800880C4909884B
:10633000884204D1FFF768FE03F0C8FC02E0FF20AA
:106340000649887200200A49087010BD40150440B3
:1063500080030020780300207C03002040170440C5
:106360008A030020FDFF0000880300208403002032
:106370002060004010B500200E4908710E480068EA
:10638000401C0D4908600D480088C007C00F002858
:1063900008D00B48008B401C012109044018094912
:1063A000086004E00648008B401C0649086001F0C4
:1063B00091F810BD40600040B4030020A01D0440CF
:1063C000001F0440A403002000200E4908720E485C
:1063D0000068401C0C4908600C484088C007C00F8A
:1063E000002808D00A48408B401C012109044018AD
:1063F0000849086004E00648408B401C05490860D5
:106400007047000040600040B8030020A01D044019
:10641000001F0440A803002000200E4908730E4806
:106420000068401C0C4908600C488088C007C00FF9
:10643000002808D00A488088401C0121090440181F
:106440000849086004E006488088401C0549086047
:106450007047000040600040BC030020A01D0440C5
:10646000601F0440AC03002000200E4908740E4851
:106470000068401C0C4908600C48C088C007C00F69
:10648000002808D00A48C088401C0121090440188F
:106490000849086004E00648C088401C05490860B7
:1064A0007047000040600040C0030020A01D044071
:1064B000601F0440B003002000200E4908730E48FE
:1064C0000068401C0C4908600C480088C007C00FD9
:1064D000002808D00A48008B401C012109044018FC
:1064E0000849086004E00648008B401C0549086024
:1064F0007047000060600040D4030020A0210440E9
:1065000000230440C403002000200E4908740E48F4
:106510000068401C0C4908600C484088C007C00F48
:10652000002808D00A48408B401C0121090440186B
:106530000849086004E00648408B401C0549086093
:106540007047000060600040D8030020A021044094
:1065500000230440C803002000200E4908750E489F
:106560000068401C0C4908600C488088C007C00FB8
:10657000002808D00A488088401C012109044018DE
:106580000849086004E006488088401C0549086006
:106590007047000060600040DC030020A021044040
:1065A00060230440CC03002000200E4908760E48EA
:1065B0000068401C0C4908600C48C088C007C00F28
:1065C000002808D00A48C088401C0121090440184E
:1065D0000849086004E00648C088401C0549086076
:1065E0007047000060600040E0030020A0210440EC
:1065F00060230440D00300201D4A127880231A43F0
:106600001B4B1A70002802D100221A4B1A7701285E
:1066100008D10122174B1A77154AD27810231A4352
:10662000134BDA70022802D1A222124B1A770328E8
:1066300002D182220F4B1A77042802D1C2220D4BBD
:106640001A77052802D103220A4B1A77062802D1AD
:106650004322084B1A770022074B1A820123074A6C
:1066600013770022064B1A77034A11827047000005
:106670002004024060040440404F04404061004058
:106680004060004010B500200B490877172001F04A
:106690004DFA0021094801770948008A0121C90300
:1066A00008430749088200BF0548008A0121C90341
:1066B00008400028F8D010BD406000404061004014
:1066C000404F0440114841891148814201DD0020BA
:1066D00070471048814201DD0520F9E70D48AC38CC
:1066E000814201DD0420F3E70B48814201DD0320F4
:1066F000EEE70A48814201DD0220E9E708488142CD
:1067000001DD0120E4E70020E2E70000381000206E
:10671000AC0E0000110D0000540B000054090000E5
:10672000FF03000010B54948007802210840002806
:106730000ED047480079012803D100204449087150
:1067400002E001204249087104F0FEFBFEF754FC10
:106750004048007802210840002804D0012005F0BC
:10676000D3FAFEF74BFC3C48007802210840002891
:1067700004D0FEF744FC002005F0C6FA3748007844
:106780000221084000280CD001F0F2FF0523344A12
:106790002F49C91D481D00F0C2FA2D49087B05F09C
:1067A00013F93048007802210840002803D001F096
:1067B000E0FF01F0B5FC25480078402108400028A2
:1067C00007D0FEF71AFC04F057F802F0EBFD00F0DA
:1067D00009FE1E480078DD2108401C4908701D484C
:1067E0000078DD2108401B4908701B480078DD2136
:1067F00008401949087019480078DD2108401749F8
:10680000087018480078DD210840164908700F48C4
:106810000078B32108400D4908700E480078B32174
:1068200008400C4908700C480078B32108400A4918
:1068300008700A480078B3210840084908700948E0
:106840000078B32108400749087010BDE406002015
:1068500078110020F0060020FC0600200807002028
:1068600023CF0000140700203EB5FFF72BFF04469E
:1068700000200121FA2202230092019102900A468F
:1068800021461A4800F03CF8002001213222022360
:106890000092019102901A462146154800F030F806
:1068A0000020012132220223009201910290032252
:1068B0002146104800F024F8002001213222022352
:1068C000009201910290042221460B4800F018F832
:1068D0000020012132220223009201910290052220
:1068E0002146064800F00CF83EBD0000E4060020FA
:1068F000F0060020FC0600200807002014070020F6
:10690000FFB50C46099D00210023504F4668BE424A
:1069100002D24668761C46604668AE4217D30A9E8D
:10692000002E08D047680A9EAE19B74203D96E1CE4
:106930004660042631434668AE4201D144263143C5
:10694000944213D00C263143002646600EE047687F
:10695000039EB74206D9944208D00226314300264E
:10696000466003E0944201D000264660944201D183
:10697000012631430B9E002E54D002260E40002EDD
:1069800003D0FD26314010263143067810273E40C3
:10699000002E34D02D4F8668BE4202D28668761C07
:1069A000866087680B9EB7421BD910260E40002ECA
:1069B00008D0EF263140202631430678EF273E40AD
:1069C000067007E002263143EF2631400678EF27B4
:1069D0003E400670002686600678EF273E4006702F
:1069E0000DE010260E40002E09D020263143EF2660
:1069F00031400678EF273E40067000268660067814
:106A00003E273E4033460678F607360E0670067877
:106A10001E4306700678BE273E40067006780E4379
:106A2000067011E006780E273E4033460678F607DA
:106A3000360E067006781E43067006788E273E4096
:106A4000067006780E430670FFBD0000FFFF0000D1
:106A500010B59A480078401CC0B298490870322896
:106A600001DD0120087000209549887103204871DC
:106A700008460078002802D00120487010E09048B5
:106A80004078032803D08E484078022805D18C48EE
:106A90008068FF212D31884202D300208849487048
:106AA00003F0E4FE8649887008468078022803D007
:106AB0000846807803280CD182480088401C80B2A8
:106AC00080490880002807D108460088401E0880B9
:106AD00002E000207B49088079488078030000F0BC
:106AE000F3FF0705090D1A273435390002207449D0
:106AF000887133E00220724988712FE07148008864
:106B00007149884203DD01206D49487102E001208E
:106B10006B49887122E06B4800886B49884203DD2D
:106B200001206749487102E001206549887115E03C
:106B30006648807A012803D100206149887103E00A
:106B400003205F498871487108E007E002205C4932
:106B5000887103E001205A49487100BF00BF5848BE
:106B60000079002805D05948807A012801D154497C
:106B7000487153484078032802D100205049887159
:106B80004F484078022804D100204D4988710220E6
:106B900048714B484078012803D104204849887146
:106BA000487147484079012803D045484079022878
:106BB00002D10320424988710C2140480078FDF73A
:106BC0009FFD002934D13E488079022807D100BFBB
:106BD0003F48007B082148403D49087300BF3848C2
:106BE0004079022807D100BF3948007B1021484076
:106BF0003749087300BF32488079042818D100BF94
:106C00003348007B082148403149087300BF0846DB
:106C1000007B08210840002805D000BF10212C4827
:106C20007030017304E000BF10212948017700BFD4
:106C3000322122480078FDF763FD002917D1204852
:106C40008079012807D100BF2148007B08214840F6
:106C50001F49087300BF1A484079012807D100BFB7
:106C60001B48007B102148401949087300BF144895
:106C70008079002805D100BF0821154870300173C4
:106C800000BF0F488079032804D100BF08211048B5
:106C9000017700BF0A484079002805D100BF1021C4
:106CA0000B487030017300BF05484079032804D1B8
:106CB00000BF10210648017700BF10BD140400205A
:106CC0006C0F002016040020B80B00007811002083
:106CD0000000044000200849487100BF1021074807
:106CE000017300BF03200449887100BF08210348D5
:106CF0007038017700BF70476C0F002070000440AF
:106D000030B50346002006E01C780D5CAC4200DC88
:106D100003E0441CE0B29042F6DB00BF30BDFFB59B
:106D20000D4617461E46701EC2B239460098FFF740
:106D3000E7FF04462878002809DD601CC1B20C4634
:106D4000701E81420BDBC4B20020287007E0002CCB
:106D500001D0601EC4B2002C01D101202870395D21
:106D600000980170FFBD000010B517480079012898
:106D700021D115487D30007D022804D11348C17A05
:106D8000114841711FE01048007A01280AD101F032
:106D9000F7F801460C4801738179007B814201D0EC
:106DA00003F0B0FD0848017B81710A22811D401D5E
:106DB000FFF759F807E00021034881710A22811D7D
:106DC000401DFFF750F810BD781100207816002004
:106DD000F0B585B004460E4615466289511CB08A4E
:106DE000FDF78EFC87B26289511CB08AFDF788FCE2
:106DF00088B20290781C80B20390217A0398814275
:106E000001DC0020039060890090226803988000D4
:106E10001018AA00815CBA0020688018AA00805C63
:106E200001903246029BFEF77FFF60890090226846
:106E3000039880001018AA0080184178BA002068D2
:106E40008018AA00801840780190B21C029BFEF7BF
:106E50006BFF608900902268039880001018AA00D8
:106E600080188178BA0020688018AA00801880787D
:106E70000190321D029BFEF757FF05B0F0BD0000E8
:106E800070B50C4615460123A340D9B22A462B0003
:106E900000F01AFE070527435F65788CAA00534B64
:106EA0001B5C8B43514E3354504B403B1B5C0B439C
:106EB0004E4E403E33544D4B103B1B5C8B434B4E70
:106EC000103E3354494B303B1B5C8B43474E303EA6
:106ED0003354464B203B1B5C8B43444E203E335483
:106EE00082E0424B1B5C8B43404E33543F4B403B54
:106EF0001E5C0E431E543D4B103B1E5C8E431E54C5
:106F00003A4B303B1B5C0B43384E303E3354374BCF
:106F1000203B1E5C8E431E5466E0344B1B5C8B434F
:106F2000324E3354314B403B1E5C0E431E542F4BAC
:106F3000103B1B5C8B432D4E103E33542B4B303B90
:106F40001E5C8E431E54294B203B1E5C8E431E54F8
:106F50004AE0264B1B5C0B43244E335444E0234B46
:106F60001E5C8E431E54214B403B1B5C8B431F4ECB
:106F7000403E33541D4B103B1B5C8B431B4E103E5D
:106F8000335431E0194B1B5C8B43184E3354174B71
:106F9000403B1B5C8B43154E403E3354134B103B20
:106FA0001B5C0B43114E103E33541DE00F4B1B5C1A
:106FB0008B430E4E33540D4B403B1E5C0E431E5410
:106FC0000A4B103B1B5C8B43084E103E3354074B5F
:106FD000303B1E5C8E431E54044B203B1B5C0B431A
:106FE000024E203E335400BF00BF70BD600004401D
:106FF00010B504462078FDF7B5FD20706078FDF7E8
:10700000B1FD6070A078FDF7ADFDA070E078FDF7F0
:10701000A9FDE0702079FDF7A5FD20716079FDF7ED
:10702000A1FD6071A079FDF79DFDA07110BD00006C
:107030001749897F01221143154A917700BF1449EE
:10704000897F022211400029F9D01149897C017001
:107050000F49C97C41700E49097D81700C49897DB9
:10706000C1700B49497D01710949C97D41710849C8
:10707000097E81710649897F49084900044A917750
:1070800000BF0349897F022211400029F9D17047CE
:10709000404F044010B504462078FEF70BFF2070E7
:1070A0006078FEF707FF6070A078FEF703FFA0701E
:1070B000E078FEF7FFFEE0702079FEF7FBFE20711E
:1070C0006079FEF7F7FE6071A079FEF7F3FEA0711C
:1070D00010BD00001F490978802211431D4A11701C
:1070E000002808D100211C4A11771A49C9781022BA
:1070F0009143184AD170012808D10121164A11770D
:107100001449C97810221143124AD170022802D1C1
:10711000A221114A1177032802D182210E4A117748
:10712000042802D1C2210C4A1177052802D103217B
:10713000094A1177062802D14321074A1177002115
:10714000064A51771146497F08221143034A517775
:10715000704700002004024060040440404F044097
:107160001449897F01221143124A917700BF1149C6
:10717000897F022211400029F9D001780D4A9174CB
:107180004178D17481781175C17891750179517503
:107190004179D175817911761146897F4908490075
:1071A000917700BF0349897F022211400029F9D15C
:1071B00070470000404F044010B500201449087685
:1071C000162000F0B3FC0021124801761248407FDF
:1071D00080210843104948770846807F01210843F1
:1071E0000D49887700BF0C48807F022108400028A5
:1071F000F9D00948807F400840000749887700BFE0
:107200000548807F022108400028F9D110BD000008
:107210004060004040610040404F0440002804D0DE
:1072200000BF082204494A7405E000BF0822024951
:1072300070314A7000BF70470000044010B5012251
:1072400011461046FFF71CFE042202210120FFF721
:1072500017FE042203210120FFF712FE042211462B
:107260000120FFF70DFE012000F018FC0020FFF7C1
:10727000D5FF10BD002804D000BF042204494A7481
:1072800005E000BF0422024970314A7000BF704718
:107290000000044070B5034600250026FF2400BF0F
:1072A0001FE080201840C6095806030E6006040E31
:1072B0000020FFF7B3FF3046FFF7DCFF012005F0A9
:1072C000AFF80120FFF7AAFF012005F0A9F8084850
:1072D000407802210840002801D0601CC4B2681C1C
:1072E000C5B2082DDDDB0020FFF798FF204670BDFA
:1072F0000000044010B538480068401C364908605A
:1073000036480078012108433449087004F06AF8CF
:1073100031480078C007C00F002805D12F480078F9
:10732000022108432D49087005212B480068FDF70C
:10733000DDF9002905D129480078042108432749AF
:107340000870072124480068FDF7D0F9002905D10D
:1073500022480078082108432049087019211E4856
:107360000068FDF7C3F9002905D11C4800781021F9
:1073700008431A490870322117480068FDF7B6F92A
:10738000002905D1154800782021084313490870C9
:107390007D2111480068FDF7A9F9002905D10F48A2
:1073A0000078402108430D490870FA210A48006816
:1073B000FDF79CF9002905D1084800788021084391
:1073C00006490870044800680549884202D3002035
:1073D0000149086010BD00005C0200202B02002063
:1073E000AC0D000010B500200849087004F01CFD29
:1073F000FEF772FD03F022FE04F082FB02F090FB28
:1074000003F0EAFE03F012FF10BD0000100400209C
:1074100000B5FDF7BBFB0149086000BD200400205A
:1074200000B580201B4948711A201A492039087379
:107430002B2048733C2088734D20C87300201649C8
:107440004860FDF7A3FB154908600020C0431449BC
:10745000086014490860144814490860114903225F
:107460001202891848600F49891888600D498918E7
:10747000C8600C49891808610A4989184861094996
:107480008918886107498918C861AC200849487083
:1074900000BD00002004024000B001402004002094
:1074A00080E200E000E100E0C0C0C0C000E400E015
:1074B000001002400249498A0143014A5182704743
:1074C000A01D04400249898A0143014A9182704704
:1074D000A01D044010B505F0A9F8FFF70BFF10BD83
:1074E000F8B505460E466A463146284600F0FEF9D4
:1074F0000446002C1FD10320104988800846C0880C
:1075000000090001C8800846C08869460978084318
:107510000A49C880684640784006000C084908823D
:10752000684640784006000C4882044840880321A1
:107530000843024948802046F8BD0000201104405D
:107540000013044070B505460E463C4800780421FF
:1075500008433A49087003203949C8802220384935
:10756000203908823748088367204002364908825C
:107570003648007C0121084334490874072030490B
:1075800020394881FF2023304882314848836720D2
:1075900040022D4948822A48008901210843284990
:1075A00008810846808A2B49084025498882084678
:1075B0004089012108432249488100BF052026490E
:1075C000087226484078012108432449487023481E
:1075D00020304078400840002049203148701F4842
:1075E0004030407C400840001C49403148741B48F2
:1075F000603040784008400018496031487000BF52
:1076000000BF0E2014496031087214482030807881
:107610000821084311492031887010486030807873
:10762000082188430D496031887000BF31462846E3
:10763000FFF756FF0446204670BD000020040240BC
:1076400020110440978000000013044060040440AF
:1076500097400000FEFF00000008044000000440C6
:107660000449087400BF04490988602211400029B8
:10767000F9D170470013044000110440F8B50546E5
:107680000E466A463146284600F030F90446002C82
:1076900019D10C200D498880684600785021084394
:1076A0000A49C880684640784006000C084988802E
:1076B000684640784006000CC880044840880C2189
:1076C0000843024948802046F8BD000020110440CC
:1076D0004013044070B505460E4643480078042127
:1076E000084341490870414880880C2108433F49BC
:1076F000888001213E4801750176017700203D49CF
:107700000875087608773C483849203988823A4815
:107710007530888367204002384988803848007C6B
:107720000421084336490874072030492039C881AC
:107730003448C8823448C883672040022F49C88033
:107740002A48008904210843284908810846808A7C
:107750002E4908402549888208464089042108436B
:107760002249488100BF0A20294988702948007BA6
:10777000042108432749087326482030007B042150
:10778000884324492031087322484030007F042177
:1077900088432049403108771E486030007B04212F
:1077A00088431C496031087300BF00BF0C20184992
:1077B0002031C873174820308078022108431549CA
:1077C0002031887013486030807802218843114945
:1077D0006031887000BF31462846FFF74FFF0446EE
:1077E00000F05CF8204670BD2004024020110440E7
:1077F00020610040206000402280000040130440CF
:10780000600404402281000097400000FBFF00005C
:10781000400804400000044010B502460020002942
:1078200001D1812006E00023034C2380034B198003
:10783000034B1A6010BD0000E8020020EA0200209D
:10784000E402002010B502460020002901D1812069
:107850001AE00E4B1A600E4B198001230D4C237059
:107860000A4B1B681B780C4C2371084B1B685B1C74
:10787000064C2360064B1B885B1E054C238000BF13
:10788000044B1B78002BFBD110BD0000DC02002054
:10789000E0020020260200204013044010B51048EA
:1078A0000089042108430E490881084640890421C3
:1078B00008430B494881084640880C210843084981
:1078C000488000200749087508760D2000F016F959
:1078D0000E2000F013F9002103480175017610BD58
:1078E000201104402060004020610040F7B584B0C2
:1078F00014468020039000263DE07000204A115A73
:107900000498FCF7F3FE0190022730E0791C0198FF
:10791000FCF7ECFE410802911A4A029951430846CD
:107920000599FCF7E3FE1749451AE121490205983C
:1079300088420DD1281E01DB014600E04142462964
:1079400013DA2670677000200390039807B0F0BD2B
:10795000281E01DB014600E04142142905DA2670A9
:107960006770002003900398F0E7781CC7B2802F5F
:10797000CCDB701CC6B2102EBFDB0398E6E700001C
:10798000E2CA00001027000070B505460C463E48CC
:107990000078012108433C49087082203B49C88295
:1079A0002846FFF78FFD012D06D0022D1CD0042D97
:1079B00032D0082D62D148E00020354908711120ED
:1079C00000F090F80120C003304920390882601E81
:1079D000304908832D48408B400840002B4948839C
:1079E00000212D4801714AE0002029490872122027
:1079F00000F078F80120C003244920394882601E35
:107A0000244948832148408B022188431F494883E9
:107A100000212148017232E000201D490873132023
:107A200000F060F80120C003184920398882601EE8
:107A30001849603188801548408B042188431349D8
:107A4000488300211448017319E00020104908748C
:107A5000142000F047F80120C0030C492039C882E7
:107A6000601E0C496031C8800848408B082188435B
:107A70000649488300210848017400E000BF00BFA8
:107A80002846FFF717FD70BD20040240A01D0440EA
:107A900040600040001F044040610040002804D0C6
:107AA00000BF102204494A7405E000BF10220249B9
:107AB00070314A7000BF704700000440AC2001499B
:107AC000487070470010024030B47446641E257838
:107AD000641CAB4204D3635D5B00E31830BC184701
:107AE0001D46F8E7002805DBC206D20E01219140B1
:107AF000014A11607047000080E200E0002805DBC9
:107B0000C206D20E01219140014A11607047000067
:107B100080E200E0002805DBC206D20E0121914080
:107B2000014A11607047000080E200E0002805DB98
:107B3000C206D20E01219140014A11607047000037
:107B400080E200E010B5002819DB1A4A03231B026B
:107B5000D21883089B00D2588307DC0EFF23A34072
:107B60009A438B071B0E8407E40EA3401A43114B64
:107B7000032424021B198408A4001A5118E00E4A99
:107B800003071B0F083B9B089B00D2588307DC0EA2
:107B9000FF23A3409A438B071B0E8407E40EA340E8
:107BA0001A43054B0407240F083CA408A4001A51EB
:107BB00010BD000000E100E01CED00E030380A28B4
:107BC00001D201207047002070470000002803D038
:107BD0000449054A116202E00121034A116200BF13
:107BE000FEE70000AD0B0000008002400EB5FCF780
:107BF000A1FF0520FDF7B6F81B480078002802D049
:107C0000012828D113E00120174908702420FCF72F
:107C100071FF1548CC30154901221346009201919D
:107C2000029000220E210520FDF712F81AE0022032
:107C30000D4908700020FCF75DFF0B48801C0B49C4
:107C40006422012300920191029000220E2105205E
:107C5000FCF7FEFF06E00320034908700520FDF74E
:107C600081F800BF00BF0EBD780F00200E50044009
:107C70000EB500200A490870FCF75CFF0220FCF7F3
:107C800039FF0748CA300749012213460092019183
:107C9000029000220E210520FCF7DAFF0EBD000045
:107CA000780F00200E50044010B5002004490875DC
:107CB00004480068401C03490860FFF797FF10BDA7
:107CC00040600040EC03002070B5FFB0BDB0064638
:107CD0000C46684601F066FD68460078002809D029
:107CE00068460078A04201DB1E2C03DB00207FB039
:107CF0003DB070BD002517E01920684300A901318F
:107D00004018007D317D88420CD11920684300A9BC
:107D100001314018417D707D814203D1A54201D0DF
:107D20000020E4E7681CC5B268460078A842E3DC9E
:107D300068460078A04206D168460078401CC1B26F
:107D40006846017005E068460078A04201DC00202A
:107D5000CDE71921614300AA013288181922314662
:107D6000FCF716FC684603F091FC0120BFE710B554
:107D7000C0B00446214601A801F07CFD01206946FF
:107D80004876214601A803F0AFFC30A801F08AFD37
:107D9000214630A800F008F830A803F0BDFC03F03D
:107DA0006CFA012040B010BD70B590B004460E468C
:107DB00040216846FCF754FC002069460870207892
:107DC0003C2806D9217819A0FCF734FA002010B01D
:107DD00070BD00250FE0601C405DB04209D0601C02
:107DE000415D68460278501CC3B268460370401C6F
:107DF0008154681CC5B22078A842ECDC6846007843
:107E00002178884210D168460178401C4654684663
:107E10000078401CC1B2684601703D226946204688
:107E2000FCF7B6FB0120D2E70120D0E75B6E756D51
:107E30003A25645D0D0000007FB504460E46002023
:107E400000900190029003906946087020780D28F8
:107E500006D9217819A0FCF7EDF9002004B070BD17
:107E600000250FE0601C405DB04209D0601C415D00
:107E700068460278501CC3B268460370401C8154A7
:107E8000681CC5B22078A842ECDC684600782178EE
:107E9000884210D168460178401C465468460078F4
:107EA000401CC1B2684601700E2269462046FCF7AC
:107EB0006FFB0120D2E70120D0E700005B6E756DFB
:107EC0003A25645D0D00000030B591B005460C46C2
:107ED000802C02DA002011B030BD002068752146E8
:107EE000284603F001FC01A801F068FC214601A826
:107EF000FFF75AFF01A803F0E1FB01A801F07AFDAA
:107F0000214601A8FFF750FF01A803F021FC2046FD
:107F100003F0B2F90120DEE77FB505460C460D2CD3
:107F200002D3002004B070BD2146284603F01AFC9D
:107F3000684601F08DFD21466846FFF77DFF6846E3
:107F400003F022FC0120EDE710B50549CA7F087F48
:107F5000213103F009F8002101481B30417110BDA7
:107F60007811002010B502F0CDFC02F0EDFF02F018
:107F7000E1FF02F0BDFC02F0B1FC02F0CDFC10BD4F
:107F80000C4A9289521C91B264224A4311135F2910
:107F900001DD642102E0052900DA0521064A527A52
:107FA000002A03D16422521AD0B27047C8B200BF6F
:107FB000FBE70000381000207811002010B51648AB
:107FC0000078002826D114480079012822D11248CF
:107FD000807E01281ED110480069401C002804D072
:107FE0000D480069401C0C4908610B484078002886
:107FF00010D10948407F3C21484304460648807F11
:10800000041905480069A04204D900210248016111
:1080100003F046FE10BD000078110020F7B582B0D5
:1080200004460F46002569E0681CC6B262E0049869
:1080300000281BD1E80000194088F100091949887F
:10804000884255DDE800011908226846FCF7A0FACD
:10805000F2001119EA0010190822FCF799FAF10050
:10806000081908226946FCF793FA41E004980128B0
:108070001BD1E80000198088F1000919898888421D
:1080800036DDE800011908226846FCF781FAF200A3
:108090001119EA0010190822FCF77AFAF100081900
:1080A00008226946FCF774FA22E0E80000194088CB
:1080B000F10009194988884207DCE8000019808826
:1080C000F10009198988884212DDE80001190822A7
:1080D0006846FCF75DFAF2001119EA00101908224F
:1080E000FCF756FAF100081908226946FCF750FA25
:1080F000701CC6B2BE429ADB681CC5B2BD4293DB9F
:1081000005B0F0BD01460020087800024A7810430F
:1081100000028A7810430002CA78104370470000BA
:1081200010B50D48007D01280AD100210A480175CB
:108130007D30007D02280DD1002003F0E5FD09E02F
:108140000121054801757D30007D022802D0002004
:1081500003F0DAFD10BD00007811002030B50246B2
:108160000020002303E01578521C28185B1C8B426A
:10817000F9D330BD00B591B0402101A8FCF770FAE9
:1081800001A803F09BFA01A803F0E2FA01A803F0AA
:10819000C3FA11B000BD00B5C1B002206946087035
:1081A000C10100A80130FCF759FA684603F090FAC3
:1081B00041B000BD00B589B0202101A8FCF750FAFC
:1081C0000349202201A8FCF76BFF09B000BD0000A5
:1081D0000002500000B585B014216846FCF740FA53
:1081E000142291046846FCF75BFF05B000BD1FB583
:1081F00000200090019002900390684603F0C4FABA
:108200001FBD000010B5FFB0BFB0BCA8FEF710FF47
:10821000BCA8FEF7EDFE2C48C078002803D0B8A813
:10822000807D002802D102F019FB45E0B8A8407C0F
:108230002649097888423FD0684601F0B3FA68467B
:108240000078002838D0002432E01920604300A9CB
:1082500001314018007C012828D1192060434018C2
:10826000017EB8A8027D01209040014000291DD068
:108270001920604300A901314018007DB8A9897C0C
:10828000884213D11920604300A901314018407D74
:10829000B8A9497C884209D11921614300AA013259
:1082A0008818BCA903F036FC00F012F8601CC4B2B8
:1082B00068460078A042C8DCB8A8407C0349087032
:1082C0007FB03FB010BD00006C0F002018040020EC
:1082D00000210148817570479812002070B505464D
:1082E0000C46611E2846FFF739FFC1B22819203815
:1082F000C07F814205D02146284602F0C6FF0020FB
:1083000070BD0120FCE770B502460B461878167860
:10831000B04222D1107800281DD00025002110E0A5
:10832000002409E0501C065D581C405C864201D1C7
:10833000681CC5B2601CC4B21078A042F2DC481CB4
:10834000C1B210788842EBDC1078A84201D101203C
:1083500070BD0020FCE70120FAE70020F8E7F7B540
:108360000C461546AC420BDD601BC6B2009971434A
:1083700008466421FCF7C4F9C7B2E819C0B2FEBDD3
:10838000281BC6B20099714308466421FCF7B8F96E
:10839000C7B2E019C0B2F2E70146002906D00129B0
:1083A00006D0022906D0032908D105E00220704733
:1083B0000320FCE70420FAE70120F8E70020F6E7B5
:1083C00010B5A0B0002404E0204603F09BF8601C28
:1083D000C4B21E2CF8DB40216846FCF741F910A816
:1083E00001F008FB10A800781E30C1B26846017089
:1083F00010A80278411C2138FCF7CAF8002404E0D8
:1084000000A801300455601CC4B21E2CF8DB68467D
:1084100003F054F9684602F02DFF20B010BD70B58E
:1084200005460C461022691C2046FCF7B1F8687C12
:108430002074A87C6074E87CA074287DE074687D5A
:108440002075A97D6175E87DA075297EE175687E3E
:10845000207670BD70B504460D4610222146681C7A
:10846000FCF796F8207C6874607CA874A07CE874A3
:10847000E07C2875207D6875617DA975A07DE87513
:10848000E17D2976207E687670BD0000F0B587B06A
:108490000446002006909E49E01C085C0390039867
:1084A00008285ED007DC0300FFF70EFB0716191C37
:1084B0001F2A2E3288000E287ED006DC0A2853D0D0
:1084C0000B287AD00C2879D1EFE01C2877D02B2804
:1084D00076D03428F7D108E101F0C4FB15E102F0B1
:1084E00007FF12E101F058FA0FE18949A01D085C6D
:1084F0008849087000220321084604F065F904E168
:1085000001208549087000E1012084490870FCE0E1
:108510007F49201D085C06020A46611D515C0E431E
:108520000020049019E0A01D04994018801C78498F
:10853000085C0502A01D04994018C01C7449085C21
:1085400045190919891D049A881800F0F1F80746A1
:10855000291D0498401880B204900498B042E2DBD0
:10856000D3E0FFF7FFFCD0E000200590059800283D
:1085700004D1FF2001306A4908800CE005980128E9
:1085800003D140026649088005E00598022802D11F
:108590004002634908805E49A01D085C614908608B
:1085A00008460068000208605949E01D085C5D4902
:1085B000096808435B4904E083E024E0A4E07AE032
:1085C0008BE00860084600680002086050492046B9
:1085D0000830085C53490968084352490860084656
:1085E0000068000208604A4920460930085C4D498D
:1085F000096808434B490860002003F003FF0A2084
:108600004949087081E0484800780A284CD1012087
:10861000464908703E49201D085C06020A46611D55
:10862000515C0E431146A01D0D5C2D02E01D085C3F
:1086300005432D0220460830085C05432D022046E4
:108640000930085C05430846069020460A30069922
:1086500008180690042E0DD132480068854209D1D1
:1086600000222946069802F09BF8074600202E4972
:1086700008700FE0301F2A490988884206DC82B260
:108680002946069802F08CF8074603E000202649A8
:1086900008700027012F04D1002203210B2004F0D1
:1086A00093F80020214908702FE019490919881D05
:1086B00002F0D3F829E016490919881D02F04EFC92
:1086C00023E01349A01D085C0290E01D085C0190A6
:1086D0000199029803F0E2FF17E00D49A01D085C24
:1086E0000290029801F008FA0FE00949201D085C89
:1086F00006020A46611D515C0E4311460919881D88
:10870000314602F0B4FC00E000BF00BF07B0F0BD8E
:10871000D00B00206F0200206D0200206E020020AE
:108720007202002074020020780200206C020020F7
:10873000FEB5044626786778A0780502E0784019EF
:1087400085B2304601F07EF801900198400007495B
:1087500040184078B84201D00020FEBD2A46211DB5
:10876000304600F0A4FA00900098F6E78CCA0000AA
:10877000704770470349086000BF02490968002933
:10878000FBD170471802002010B5C0B00446214646
:1087900001A801F06FF8002069464876214601A83B
:1087A00002F0A2FF30A801F07DF8214630A800F0C9
:1087B00009F830A802F0B0FF02F05FFD012040B0E0
:1087C00010BD0000F0B591B004460F46402101A84D
:1087D000FBF746FF20783C2806D9217815A0FBF747
:1087E00029FD002011B0F0BD2078002800D1F9E764
:1087F000002600250DE0601C405DB84207D0601CDB
:10880000425D3046711CCEB201A901310A54681C88
:10881000C5B22078A842EEDC2078B04201D1002019
:10882000E0E7684606713D2201A92046FBF7B0FE4D
:108830000120D7E75B6E756D3A25645D0D00000081
:10884000F0B585B004460F460020009001900290DC
:10885000039020780D2806D9217816A0FBF7EAFCB2
:10886000002005B0F0BD2078002800D1F9E70026EF
:1088700000250DE0601C405DB84207D0601C425DE1
:108880003046711CCEB200A901310A54681CC5B231
:108890002078A842EEDC2078B04201D10020E0E749
:1088A000684606700E2269462046FBF771FE0120DD
:1088B000D7E700005B6E756D3A25645D0D00000022
:1088C00010B5C0B00446802C02DA002040B010BDC4
:1088D000214601A801F072F8022069464876214637
:1088E00001A802F001FF30A800F068FF30A802F0F4
:1088F000C1FC214630A8FFF765FF30A802F0DEFE7C
:1089000030A800F05BFF30A802F0B4FC30A801F002
:1089100071F830A802F0AEFC214630A8FFF752FFF4
:1089200030A802F015FF30A801F064F830A802F07A
:10893000A1FC30A800F0B6FF30A802F09BFC214655
:1089400030A8FFF73FFF30A802F0E6FE30A800F0A5
:10895000A9FF30A802F08EFC00BFB7E71FB50446A0
:10896000684601F075F821466846FFF769FF6846DA
:1089700002F00AFF04484079A04201D100F0DEFC79
:10898000012004B010BD00009311002030B5FFB0ED
:10899000FFB0FBB00546BDA800F004FFB8A8017DFC
:1089A000A94204DB1E2D02DA007D002804D100203C
:1089B0007FB07FB07BB030BD2F21090101A8FBF74C
:1089C0004FFE002418E0AC4214D019226243BDAB24
:1089D0000133D1186A46127919235A4301AB013386
:1089E000D0181922FBF7D4FD68460079401CC1B2AB
:1089F00068460171601CC4B2B8A8007DA042E2DCE8
:108A000001A802F043FE0120D2E7000070B5054640
:108A10000C462146FF2201322846FCF76EFA6421FB
:108A20006143084603218903FBF76AFE0646214697
:108A3000324602A0FBF7FEFB70BD0000646F776E4C
:108A40006C6F61643A204F7825303478205B256460
:108A500025255D0D0000000070B504460D462A4630
:108A60002146782001F0F0FD0646012E00D170BDB0
:108A70000020FCE7F8B504460D462946204601F0E3
:108A8000E2FE0746384601F061FB3946832001F0DB
:108A9000AFFD0646012E00D1F8BD0020FCE7F8B579
:108AA00006460F463946304601F0CAFE0546002DFF
:108AB00002D101F05DFB02E0012001F059FB2946E3
:108AC000822001F061FD0446012C00D1F8BD002098
:108AD000FCE7F8B505460E463146284601F0B6FEDD
:108AE0000446E0B201F056FB21466A2001F01CFE6C
:108AF0000746012F00D1F8BD0020FCE7F8B5054678
:108B00000E463146284601F0A1FE0446E0B201F0CF
:108B10004DFB21466F2001F007FE0746012F00D1D3
:108B2000F8BD0020FCE770B504460D4629462046F6
:108B300001F046FB2A4621467F2001F085FD0646CE
:108B4000012E00D170BD0020FCE770B504460D4633
:108B50002946204601F049FB2A4621467E2001F0A5
:108B600073FD0646012E00D170BD0020FCE770B5F4
:108B700004460D462A462146182001F09DFD064672
:108B8000012E00D170BD0020FCE770B504460D46F3
:108B90002946204601F057FB2A462146812001F054
:108BA00053FD0646012E00D170BD0020FCE770B5D4
:108BB00004460D462946204601F050FB2A46214630
:108BC000802001F041FD0646012E00D170BD00203D
:108BD000FCE770B504460D462946204601F079FBB6
:108BE0002A462146682001F02FFD0646012E00D1BD
:108BF00070BD0020FCE770B504460D462A462146AC
:108C0000672001F021FD0646012E00D170BD002035
:108C1000FCE7F8B504460D462946204601F016FE4D
:108C2000074639466D2001F07FFD0646012E00D132
:108C3000F8BD0020FCE770B504460D4629462046E5
:108C400001F068FB2A462146772001F0FDFC06462C
:108C5000012E00D170BD0020FCE770B504460D4622
:108C60002A4621467C2001F0EFFC0646012E00D169
:108C700070BD0020FCE770B504460D462A4621462B
:108C80007A2001F0E1FC0646012E00D170BD0020E3
:108C9000FCE770B504460D462A462146752001F0D2
:108CA000D3FC0646012E00D170BD0020FCE7F8B5CC
:108CB00005460E461746762D6ED026DC6B2D73D0FA
:108CC00018DC662D50D00CDC172D3BD004DC142DA5
:108CD0002CD0152D6ED12FE0182D39D0652DF9D15E
:108CE0003CE0672D46D0682D4AD0692D4ED06A2DC4
:108CF000F0D153E028466C380300FEF7E5FE0A5C2D
:108D000062686E747A80868C925B2846773803009E
:108D1000FEF7DAFE1593999FA5ABB1B7BDC3C9CFD6
:108D2000D5DBE1E7F3F9FFEFEEED500039463046D1
:108D300000F047FA044605E13946304600F0A2FA51
:108D40000446FFE03946304600F07CFA0446F9E07C
:108D500039463046FFF70BFF0446F3E0394630460C
:108D600000F061F90446EDE03946304600F029F99B
:108D70000446E7E039463046FFF73DFF0446E1E0B0
:108D800039463046FFF725FF0446DBE039463046DA
:108D900000F06AFA0446D5E049E005E0394630467D
:108DA000FFF797FE0446CDE03946304600F01EFA44
:108DB0000446C7E0C5E03946304600F0E8F904460D
:108DC000C0E039463046FFF724FF0446BAE0394692
:108DD000304600F036F90446B4E039463046FFF735
:108DE0008DFE0446AEE03946304600F019FA0446DE
:108DF000A8E03946304600F0B8F90446A2E039460A
:108E0000304600F002F904469CE03946304600F056
:108E1000EAF8044696E03946304600F0A8F80446E1
:108E200090E039463046FFF734FF04468AE0394681
:108E3000304600F08AF8044684E039463046FFF7B1
:108E4000FAFE04467EE039463046FFF705FE04464A
:108E500078E03946304600F098F8044672E039462A
:108E60003046FFF708FF04466CE03946304600F014
:108E7000FAF8044666E039463046FFF7EEFE04464F
:108E800060E03946304600F08EF804465AE0394634
:108E90003046FFF75AFE044654E039463046FFF7A5
:108EA00042FE04464EE039463046FFF780FE044657
:108EB00048E039463046FFF768FE044642E039464E
:108EC0003046FFF7ECFD04463CE039463046FFF7FC
:108ED000D1FD044636E03946304600F0E0F804465D
:108EE00030E03946304600F0ECF804462AE022E053
:108EF0001BE014E00DE006E0FFE73946304600F0E5
:108F0000EEF804461EE03946304600F0F6F8044616
:108F100018E03946304600F0FEF8044612E03946C3
:108F2000304600F006F904460CE03946304600F0C1
:108F30000EF9044606E03946304600F0A2F8044631
:108F400000E000BF00BF2046F8BD70B504460D46E6
:108F50002946204601F0E8F92A462146762001F00C
:108F600073FB0646012E00D170BD0020FCE770B5F2
:108F700004460D462A462146742001F065FB06464C
:108F8000012E00D170BD0020FCE770B504460D46EF
:108F90002A462146792001F057FB0646012E00D1D2
:108FA00070BD0020FCE770B504460D462A462146F8
:108FB0007D2001F049FB0646012E00D170BD002046
:108FC000FCE770B504460D462946204601F04EFAEE
:108FD0002A462146662001F037FB0646012E00D1C5
:108FE00070BD0020FCE770B504460D4629462046BA
:108FF00001F074FA2A462146732001F025FB06464B
:10900000012E00D170BD0020FCE770B504460D466E
:109010002A462146722001F017FB0646012E00D198
:1090200070BD0020FCE770B504460D462A46214677
:10903000652001F009FB0646012E00D170BD00201D
:10904000FCE7F8B504460D462946204601F0FEFB34
:10905000074639466E2001F067FB0646012E00D117
:10906000F8BD0020FCE770B504460D462A462146AF
:109070007B2001F0E9FA0646012E00D170BD0020E8
:10908000FCE770B504460D462A4621468B2001F0C8
:10909000DBFA0646012E00D170BD0020FCE770B55A
:1090A00004460D462946204601F036FA2A46214656
:1090B000842001F0C9FA0646012E00D170BD0020BF
:1090C000FCE770B504460D462A462146852001F08E
:1090D000BBFA0646012E00D170BD0020FCE770B53A
:1090E00004460D462A462146862001F0ADFA064682
:1090F000012E00D170BD0020FCE770B504460D467E
:109100002A462146872001F09FFA0646012E00D10B
:1091100070BD0020FCE770B504460D462A46214686
:10912000882001F091FA0646012E00D170BD002082
:10913000FCE770B504460D462A462146892001F019
:1091400083FA0646012E00D170BD0020FCE770B501
:1091500004460D462A4621468A2001F075FA064645
:10916000012E00D170BD0020FCE7F8B504460D4685
:109170002946204601F06AFB07463946712001F076
:10918000D3FA0646012E00D1F8BD0020FCE7F8B561
:1091900006460F463946304601F052FB0546002D83
:1091A00002D101F0C1F902E0012001F0BDF9294628
:1091B0006C2001F0E9F90446012C00D1F8BD002033
:1091C000FCE7F8B504460D462946204601F038FB79
:1091D0000746384601F0BAF93946142001F0D4F9AF
:1091E0000646012E00D1F8BD0020FCE7F8B5064682
:1091F0000F463946304601F023FB0546002D02D1CB
:1092000001F0B0F902E0012001F0ACF929466B2031
:1092100001F0BAF90446012C00D1F8BD0020FCE7AA
:10922000F8B504460D462946204601F00FFB0746D7
:109230003946702001F078FA0646012E00D1F8BDBB
:109240000020FCE7F8B504460D462946204601F00B
:10925000FDFA07463946172001F066FA0646012E48
:1092600000D1F8BD0020FCE770B504460D462A4643
:109270002146692001F0E8F90646012E00D170BDB3
:109280000020FCE7F8B506460F463946304601F0A7
:10929000DAFA0546002D06D0012D05D0022D04D0A6
:1092A000032D04D102E003E002E001E000E000BF92
:1092B00000BF2946152001F09BF90446012C00D17E
:1092C000F8BD0020FCE7000010B51648047CC07D06
:1092D0000300FEF7F9FB0805080C1014181C2024E5
:1092E000FCF70EFC1CE02046FBF79CFF18E0204634
:1092F000FCF7A8FC14E02046FCF770FB10E02046C9
:10930000FCF70AF80CE02046FCF7D0F908E020460C
:10931000FCF708F904E02046FCF79EFA00E000BFE5
:1093200000BF10BDF511002010B5FFF7CDFF10BD37
:1093300000200149887670477811002001200149FA
:10934000487070477811002000B505480078012862
:1093500001D0FFF7EDFF01200149087000BD0000BA
:109360007811002000B500200249087002F056F97B
:1093700000BD00007811002010B50446022003490A
:109380000870204601F04AFF10BD0000781100204F
:1093900010B50020FBF71CFD10BD10B50020FBF739
:1093A00017FD10BD00B5C1B001F050FEFEF7F3FE91
:1093B00002F0F4F9FEF7DEFE00F0AAFCFF21013115
:1093C00001A8FBF74DF906A101A8FAF741FFFEF746
:1093D000F7FF00F08FFC01A802F095F941B000BD45
:1093E000656666656374206461746120323032336F
:1093F0002F31312F323220343939363420000000F9
:1094000001460020C0437047F0B5C1B005460024B6
:1094100024E079480078694608700A20604376495C
:10942000891C095CE20000A8023081540A206043D4
:109430007149891C40188188E20000A80230101888
:1094400041800A2060436C49891C4018C188E200B1
:1094500000A8023010188180601CC4B266480078F1
:10946000A042D6DC002D01D0012D24D16846007821
:1094700062494870684601780122801CFEF7CEFDE3
:10948000002413E0002D05D1E10000A802300818E7
:10949000847109E068460078001B401EC1B2E200FA
:1094A00000A8023010188171601CC4B268460078B0
:1094B000A042E7DC6FE0022D01D0032D24D16846E5
:1094C00000784E494870684601780022801CFEF7FB
:1094D000A5FD002413E0022D05D1E10000A8023013
:1094E0000818847109E068460078001B401EC1B26C
:1094F000E20000A8023010188171601CC4B26846F6
:109500000078A042E7DC46E0052D01D0042D42D1D1
:1095100069460978481CC10F0918C905090E374A60
:109520005170684601780222801CFEF777FD69467B
:109530000878C10F09184E10002412E0B44207DA6F
:10954000301BC1B2E20000A802301018817106E0A1
:10955000A01BC1B2E20000A8023010188171601C8B
:10956000C4B268460078A042E8DC042D13D1002480
:109570000DE0E10000A8023008188079301AC1B26D
:10958000E20000A8023010188171601CC4B2684665
:109590000078A042EDDC002421E0002718E00A203A
:1095A00060431549891C095CFA0000A80230805C00
:1095B00081420BD1F90000A80230081882790A20F4
:1095C00060430D49891C4018027205E0781CC7B23F
:1095D00068460078B842E2DC00BF601CC4B20648AE
:1095E0000078A042D9DC284601F043FE684601F02D
:1095F00046FE41B0F0BD0000BC1200202007002054
:1096000070B504460D46E0B2FEF72AF80A2C02D1E6
:109610000D20FEF725F8204670BD000010B5164855
:10962000007D002802D100211348C1751248C07D79
:109630000300FEF749FA0805080B0E1114171A1D4E
:10964000FBF7CDFC15E0FBF72FFE12E0FCF73EFB2D
:109650000FE0FCF707FA0CE0FBF730FF09E0FCF73E
:10966000C9F806E0FBF7F6FF03E0FCF769F900E054
:1096700000BF00BF10BD0000F511002010B53B4831
:109680000078002800D010BD3948FAF7D3FD39A082
:10969000FAF7D0FD3648FAF7CDFD092033490870B6
:1096A0006C20887002213148C170002181807D21A9
:1096B000C900C18001811021017302214173002181
:1096C000C1817D210901018241825E2181750221D2
:1096D000C175002101832E4941838183CC21801CE7
:1096E00081770221C1770021801E41847D214901BB
:1096F0008184C184EE212230017201210830417041
:1097000000212A3881852349C185018644212230E0
:1097100081740021123041703438C1861E4901879E
:1097200041878C212230017700211C3041703C3868
:10973000C1871A493C308180C180FC21001D8171A4
:109740000221801D4170002141807D21890181809D
:10975000C1807021801F01740321103041700021ED
:1097600041800F498180C18000BF8CE7BC1200207E
:10977000A0D0000067656E65726174655F7669727E
:109780007475616C5F646576696365200D00000027
:10979000B80B00008813000070170000581B000071
:1097A0002823000010B50446024A03492046FBF76F
:1097B00036FB10BDEF020000060C020010B5044697
:1097C0003D2202492046FBF72AFB10BDFF0802009C
:1097D000F8B506460F460024002504E06800305A1C
:1097E0000419681C85B2BD42F8DB39462046FAF7F9
:1097F0007DFF0446A0B2F8BD30B50246002000232C
:1098000005E01578521C2C18E0B25C1CA3B28B4208
:10981000F7DB30BD30B502460020002303E01578A9
:10982000521C28185B1C8B42F9D330BD10B504467E
:10983000FF22023202492046FBF7F1FA10BD000078
:10984000FA0E020070B5054600F012F80646002434
:1098500007E060000549085CA84200D103E0601CF5
:10986000C4B2B442F5DB00BF204670BD8CCA000014
:109870002B20704770B505460C4601221204D01DFE
:10988000F830B92262438118B9222846FBF7C7FA9B
:1098900070BD10B50446FF22012109042046FBF7E4
:1098A000BEFA10BD10B504463D2202492046FBF722
:1098B000B6FA10BD7909020030B5C1B00025002408
:1098C0000EE0FF220132214601A8FBF7A8FAFF2192
:1098D000013101A8FEF742FC4519E01DF93084B2C0
:1098E000032080038442ECDB284641B030BD0000F9
:1098F0001FB517A11B4801F081FB002817D11021CB
:10990000684600F051F81849684601F077FB0028D6
:1099100005D0FFF73DFD02201449487004E0FFF731
:1099200037FD032011494870FEF744FC0EE010A1FA
:109930000C48FAF797FE002805D102200B49487021
:10994000FEF738FC02E00020084948701FBD000007
:109950004649524D5741524520494E20464C4153AD
:109960004800000000025000205000006C0F002052
:109970004649524D5741524520444F574E4C4F4156
:109980004400000010B50446052202492046FBF7BA
:1099900046FA10BDF50E020010B500242246032140
:1099A000022002F011FF10BD70B505460C4622469C
:1099B000812149012846FBF732FA70BD70B5054692
:1099C0000C46802C05DA214608A0FAF733FC00206B
:1099D00070BD01221204D01DF830B92262438118F3
:1099E000B9222846FBF71BFA0120F1E76E756D3AA4
:1099F00025640D0010B504463D2202492046FBF7C0
:109A00000EFA10BD3C09020070B505460C46012255
:109A100012041046044A82184F20604311184F2246
:109A20002846FBF7FCF970BDFFB9000070B505468C
:109A30000C46012212041046044A82184F2060434B
:109A4000111810222846FBF7EAF970BDFFB9000093
:109A500010B504460E2202492046FBF7E0F910BD7E
:109A6000B609020000B501F0BDFC0148007800BD58
:109A70000C04002010B50022064B002105E01C88D4
:109A80009B1CA01882B2481CC1B20829F7DBD0B2D7
:109A900010BD00009408500070B505460C461E2C01
:109AA00000DB70BD064A1046064A8018401C192289
:109AB0006243811819222846FBF7B1F900BFF0E78D
:109AC000C409020042020000F8B506460D46642DA6
:109AD00001DD6420F8BD6420401B8000001D87B2BA
