:020000040000FA
:10400000981D0020B9410000ADCD000065410000C1
:1040100000000000000000000000000000000000A0
:10402000000000000000000000000000CB41000084
:104030000000000000000000CF41000045740000B7
:10404000D3410000D5410000D7410000D941000014
:10405000DB410000DD410000DF4100008D60000019
:1040600011620000E5410000FDC80000C1C8000069
:10407000EB41000005CA000079C90000F1410000D1
:10408000F341000095630000E9630000396400001B
:1040900089640000217D00002DBD00007DA000008E
:1040A000034200000542000007420000D9640000FE
:1040B0002965000079650000C965000011D1000084
:1040C00000F002F800F03FF80CA030C808382418BF
:1040D0002D18A246671EAB4654465D46AC4201D140
:1040E00000F031F87E460F3E0FCCB6460126334233
:1040F00000D0FB1AA246AB4633431847089800008D
:10410000289800000023002400250026103A01D33F
:1041100078C1FBD8520700D330C100D50B6070477F
:1041200010B5642902D100F0CFF810BD782902D172
:1041300000F000F910BD002010BD1FB500F000FA1E
:104140001FBD10B510BD00F04BFC1146FFF7F5FF89
:1041500006F076F800F063FC03B4FFF7F2FF03BC4F
:1041600003F070FD04207146084202D0EFF309808D
:1041700001E0EFF308807146004A1047F19D00000E
:1041800070B505460C46164602E00FCC0FC5103E32
:10419000102EFAD2082E02D303CC03C5083E042EFB
:1041A00007D301CC01C5361F03E021782970641CB8
:1041B0006D1C761EF9D270BD19488047194800471A
:1041C000FEE7FEE7FEE7FEE7FEE7FEE7FEE7FEE7C7
:1041D000FEE7FEE7FEE7FEE7FEE7FEE7FEE7FEE7B7
:1041E000FEE7FEE7FEE7FEE7FEE7FEE7FEE7FEE7A7
:1041F000FEE7FEE7FEE7FEE7FEE7FEE7FEE7FEE797
:10420000FEE7FEE7FEE7FEE7FEE7FEE7FEE7FEE786
:10421000FEE7000004480549034A054B70470000CB
:1042200065740000C140000098170020981D002010
:10423000981700200FB4054910B503AA029800F0A2
:10424000A3FB10BC08BC04B0184700007C0200208F
:104250000FB41CB5074B06AA7B446946009005982D
:1042600000F079FB0020694600F088FB1CBC08BC0C
:1042700004B018472107000070B50446856900683E
:10428000C10601D5302600E02026C00707D070BD4A
:1042900062683046A1689047206A401C20626D1E0B
:1042A000F6D570BD70B5044685690078C00707D1A2
:1042B00070BD6268A16820209047206A401C20627F
:1042C0006D1EF6D570BD0000F7B500257529106884
:1042D000009914A611D0C046C046002802DA404218
:1042E00011A608E0009909688A0701D50FA602E027
:1042F000490704D50EA6012501E0C046C046009F2F
:104300000024243704E000F053FB30313955641C9D
:104310000028F8D12B4632462146009800F0BEFA1C
:10432000FEBD0000000000002D0000002B0000007A
:104330002000000070B504460D4621461068C046B6
:10434000C0462188090502D50F4A7A4402E00E4A88
:104350007A440E3223460021243305E00607000983
:10436000360F965D5E54491C0028F7D12078002353
:10437000000705D5702D03D0002901D0022311328A
:10438000204600F08BFA70BDFA930000F3B50446A6
:10439000002081B020622046E1688847002872D062
:1043A000252802D06268A168ABE0594F00267F44FF
:1043B0002046E16888472028054608DB312D06D2D3
:1043C000781920380078002801D00643F0E7B007BC
:1043D00001D5042086430020E0610746A0612A2D14
:1043E0000AD0284603F026FC002827D0B800001980
:1043F000303D0090856119E00298BA00121902C898
:10440000916102902046E1688847012F054617D147
:10441000E06900281FDA202086431CE000980A216A
:104420008069484300994019303888612046E16826
:104430008847054603F0FEFB0028EFD1012F0AD084
:104440002E2D08D12046E1688847054620200643E6
:104450007F1C022FC3DBA069002803DA4042A06161
:1044600001200643F00701D0102086436C2D0BD0AD
:10447000682D09D04C2D3CD06A2D38D0742D38D001
:104480007A2D36D016E040E0E1682F462046884776
:10449000B842054609D16C2F29D001208002E1687D
:1044A000064320468847054604E06C2F1DD0FF20B8
:1044B00001300643002D28D028464138192803D85A
:1044C0000120C00206432035204626602946029A74
:1044D0001646FFF725FE002810D001280BD0F61D48
:1044E000F008C0000830029055E74020E1E7802046
:1044F000D5E70020D3E7361D02964CE762682846D0
:10450000A1689047206A401C44E7206AFEBD000075
:10451000BE9300000B4A30B511460B4C60310B4680
:10452000DC3B0CC1372106E0020C8D0012185A51F9
:10453000064A504300190A46491E002AF4DC30BDE1
:104540000120E7E7CC160020E119D666CD0D010069
:10455000034670B502460B439B070FD10E4CE60194
:1045600000E008C208C91D1B9D433542F9D0D9B2ED
:104570001170521C00290DD01B0AF8E70B78491C5A
:104580001370521C002B05D00B78491C1370521C61
:10459000002BF3D170BD00000101010130B5441CB6
:1045A00003E00178401C00290DD08107F9D10B4BA5
:1045B000DD0104C8D11A91432940FAD0001B0A0634
:1045C00003D0C01E30BD001B30BD0A0401D0801EC8
:1045D00030BD0902FCD0401E30BD000001010101C8
:1045E000F8B5042A2CD3830712D00B78491C03702A
:1045F000401C521E83070BD00B78491C0370401CD3
:10460000521E830704D00B78491C0370401C521EB5
:104610008B079B0F05D0C91ADF002023DE1B08C9BA
:104620000AE0FFF7ADFDF8BD1D4608C9FD401C4678
:10463000B4402C4310C0121F042AF5D2F308C91A43
:10464000521EF0D40B78491C0370401C521EEAD451
:104650000B78491C0370401C012AE4D409780170CE
:10466000F8BDD2B210B513029A1813049A1800F0CC
:104670000EF810BD01E004C0091F0429FBD28B070E
:1046800001D50280801CC90700D002707047002944
:104690000BD0C30702D00270401C491E022904D36C
:1046A000830702D50280801C891EE3E70022EEE723
:1046B0000022DFE7024670B50A4392072AD11E4D59
:1046C000EE0104C808C9541B9443344017D0D0B23B
:1046D000D9B2401A2106014310D190B299B2401AC2
:1046E000210401430AD110021902000A090A401AE2
:1046F0002102014302D1100E190E401A70BD9A42D8
:10470000DFD010BA19BA884201D9012070BD00204B
:10471000C04370BD02780B78401C491C002A09D0A8
:104720009A4207D102780B78401C491C002A01D01C
:104730009A42EFD0D01A70BD010101010022030995
:104740008B422CD3030A8B4211D300239C464EE0AC
:1047500003460B433CD4002243088B4231D3030968
:104760008B421CD3030A8B4201D394463FE0C3091A
:104770008B4201D3CB01C01A524183098B4201D332
:104780008B01C01A524143098B4201D34B01C01A1D
:10479000524103098B4201D30B01C01A5241C30895
:1047A0008B4201D3CB00C01A524183088B4201D304
:1047B0008B00C01A524143088B4201D34B00C01AF0
:1047C0005241411A00D201465241104670475DE005
:1047D000CA0F00D04942031000D340425340002288
:1047E0009C4603098B422DD3030A8B4212D3FC2231
:1047F000890112BA030A8B420CD3890192118B42B0
:1048000008D3890192118B4204D389013AD09211C5
:1048100000E08909C3098B4201D3CB01C01A524180
:1048200083098B4201D38B01C01A524143098B4249
:1048300001D34B01C01A524103098B4201D30B0132
:10484000C01A5241C3088B4201D3CB00C01A524157
:1048500083088B4201D38B00C01A5241D9D243083E
:104860008B4201D34B00C01A5241411A00D201467B
:10487000634652415B10104601D34042002B00D5E5
:104880004942704763465B1000D3404201B50020A7
:10489000C046C04602BD704770477047FFB504462A
:1048A0000D4681B0243000902168880604D510227E
:1048B000E0699143216000E00120A84201DD471B2F
:1048C00000E000270498A1697A191018081AA0615D
:1048D0002078C00602D42046FFF7CEFC002608E070
:1048E00003986268A168805D9047206A401C761C2E
:1048F000206204988642F3DB2078C0060AD5204661
:10490000FFF7BAFC06E06268A16830209047206A91
:10491000401C206238467F1E0028F4DC07E0009827
:104920006268A168405D9047206A401C206228466A
:104930006D1E0028F3DC2046FFF7B4FC207800064B
:1049400002D5022005B0F0BD0120FBE701694A1C39
:1049500002610878704700B58FB00291002105917F
:104960000549019379440391114604906846FFF785
:104970000DFD0FB000BD0000E5FFFFFF0A681070DD
:10498000521C0A6070470000084B70B50D467B440E
:10499000FFF7E1FF0446284604F0C8FD002802D0D6
:1049A0000020C04370BD204670BD0000934D000044
:1049B00001468008081A02091018020A1018020C91
:1049C0001018C008820012185200891A01E0401C19
:1049D0000A390A29FBD27047004870473417002073
:1049E0007546FFF7F9FFAE46050069465346C00815
:1049F000C000854618B020B5FFF70CFC60BC00274E
:104A00004908B6460026C0C5C0C5C0C5C0C5C0C59A
:104A1000C0C5C0C5C0C5403D49008D46704710B5F2
:104A20000446C046C0462046FFF796FB10BD70B551
:104A30008C180578401C6B075B0F01D10378401C74
:104A40002A1106D10278401C03E00678401C0E7043
:104A5000491C5B1EF9D12B0705D40023521E0DD42F
:104A60000B70491CFAE70378401CCB1A921C03E038
:104A70001D780D70491C5B1C521EF9D5A142D8D37C
:104A8000002070BD10B5012115480175154800784A
:104A90002021084313490870002013490870134966
:104AA0000875152003F072F810200F4908700020D7
:104AB0008870084680788870084680780821084306
:104AC00009498870002008718871FF20C872002091
:104AD000887208460078012108430349087010BD18
:104AE000406100402004024000500440406000400B
:104AF000064A127838239A43044B1A701A461278E1
:104B0000C3001A43014B1A70704700000050044064
:104B10000B4A127852085200094B1A70002803D130
:104B200080220A439A7103E0C0220A43044B9A711F
:104B3000034A127801231A43014B1A707047000090
:104B40000050044010B504460B48047200200B4985
:104B50000875152003F01AF8002109480175064868
:104B600080798011032805D003480078802108430C
:104B70000149087010BD0000005004404060004032
:104B80004061004010B508480078802188430649FC
:104B90000870012105480175002005490875152098
:104BA00002F0F4FF10BD00000050044040610040DE
:104BB0004060004010B50146CC17240F6418231143
:104BC0000846CC17240F2418241124010A1B0A209C
:104BD00058438018C2B2104610BD000000B5C02274
:104BE0009178F8221140144A1278114313480A466A
:104BF000E03A130002F0A4FF0E0A0E12161A1E1E4F
:104C00001E080C1014181C1E0D4813E00D4811E06E
:104C10000D480FE00D480DE00D480BE00D4809E090
:104C20000D4807E00D4805E00D4803E00D4801E0A0
:104C30000D4800BF00BF00BD201C024040420F00D5
:104C40000090D003006CDC020048E80100366E01E1
:104C50000024F400001BB70000127A00808D5B0076
:104C600000093D00C0C62D0080841E0070B50B4BAE
:104C70000146C417640F6418E4101C5D0246C51792
:104C80006D0FAD18ED10ED00461B0125B5402C430E
:104C9000C5176D0F6D18ED105C5570BD00500040CC
:104CA000FFB583B00D9A120F120701239B079A429A
:104CB00002D10022009201E0012200920E9A120F0E
:104CC000120701239B079A4201D1002400E001242E
:104CD000009A002A01D1012200E000222240002A8D
:104CE00002D0002201920DE0002C01D1012200E04F
:104CF0000022009B1A40002A02D00122019201E00A
:104D0000002201920122520782181170069A920124
:104D10002032E3001A43009B9B001A43019B5B0077
:104D20001A43059B1A43204B0D015A5301231E4A77
:104D30000D01521953801C4B0D015B190C9A9A807E
:104D4000194B0D015B190C9ADA80174A0D015219A3
:104D50000D9B9360144A0D0152190E9BD360134AA8
:104D6000927E08231A43114B9A769A04104B9A604C
:104D70001A4602920246C5176D0FAD18EE10029D3D
:104D8000AD5D0346C617760FF618F610F600871BC2
:104D90000126BE403543C617760FB618F710029E9F
:104DA000F55507B0F0BD00002000002000080240CB
:104DB0000050004070B50B4B0146C417640F6418D7
:104DC000E4101C5D0246C5176D0FAD18ED10ED0027
:104DD000461B0125B540AC43C5176D0F6D18ED108E
:104DE0005C5570BD0050004030B5F1210B4AD160D8
:104DF0000A4B10330146C417640F6418E410E40032
:104E0000051B0124AC400246C5176D0FAD18ED100F
:104E10005C550021014AD16030BD000000500040C7
:104E200010B5044600F00BFA00F0C7F8002002F0BD
:104E300071FE0A2007F0CEFED82002F045FAFF21CD
:104E400009042140080C02F03FFAFF210902214029
:104E5000080A02F039FAE0B202F036FA012002F054
:104E600059FE0A2007F0B6FE00F0A7F810BD70B595
:104E700005460C46164602F05DFE002002F04AFE92
:104E80000A2007F0A7FE032002F01EFAFF21090402
:104E90002140080C02F018FAFF2109022140080AFB
:104EA00002F012FAE0B202F00FFA04E0552002F02C
:104EB0000BFA28706D1C3046711E8EB20028F5D199
:104EC000012002F027FE0A2007F084FE70BD10B515
:104ED00000F0B5F9002002F01DFE0A2007F07AFE6E
:104EE000C72002F0F1F9012002F014FE0A2007F0B9
:104EF00071FE00F062F810BD10B5044602F01AFE13
:104F000000F09DF900F059F8002002F003FE0A209D
:104F100007F060FE812002F0D7F9FF21090421404B
:104F2000080C02F0D1F9FF2109022140080A02F021
:104F3000CBF9E0B202F0C8F9012002F0EBFD0A2043
:104F400007F048FE00F039F810BD70B505460C4674
:104F5000164602F0EFFD00F072F9002002F0DAFDD3
:104F60000A2007F037FE022002F0AEF9FF21090403
:104F70002140080C02F0A8F9FF2109022140080A8B
:104F800002F0A2F9E0B202F09FF9FF200130864260
:104F900000DD064603E0287802F096F96D1C3046E5
:104FA000711E8EB20028F6D1012002F0B3FD0A2056
:104FB00007F010FE00F001F870BD10B500240020CD
:104FC00002F0A8FD0A2007F005FE052002F07CF99A
:104FD00000BF552002F078F90446E007C00F002812
:104FE000F7D1012002F096FD0A2007F0F3FD10BD75
:104FF00000B500F0A3FD00BD7047704770477047D3
:105000004C31303031000000000000000000000092
:105010004150505F4D415354455200000000000084
:10502000312E322E3333000000000000000000005B
:105030004465632020352032303233000000000008
:1050400031363A33353A32390000000000000000B2
:105050004A4F454C2E4348454E00000000000000DA
:105060000000000000000000000000000000000040
:105070000000000000000000000000000000000030
:105080000000000000000000000000000000000020
:105090000000000000000000000000000000000010
:1050A000F8B504460D46164602F044FD2F4600941E
:1050B000324639460098FFF793FAF8BDF7B5FFB0CE
:1050C00085B085988390002754E002F033FD8398E3
:1050D000C505ED0D8398401B809001204002441BC4
:1050E0008698C01B86B28498C01982906846401981
:1050F0008190B4421FDB002D03D101204002864283
:1051000005D00122520268468099FFF7C9FF324656
:1051100082998198FFF764FA809807F0A4FF6A46A5
:1051200001214902809807F0C8FF83988019839075
:10513000B81987B21EE0002D03D10120400284423D
:1051400005D00122520268468099FFF7A9FF224646
:1051500082998198FFF744FA809807F084FF6A46A5
:1051600001214902809807F0A8FF839800198390D5
:10517000381987B286988742A7DB7FB008B0F0BDA8
:10518000F7B5C4B045984390002753E002F0D2FC35
:105190004398C5B24398401B4090FF200130441B08
:1051A0004698C01B86B24498C01942906846401980
:1051B0004190B4421FDB002D03D1FF200130864215
:1051C00005D0FF22013268464099FFF750FE324673
:1051D00042994198FFF704FA4098FFF78DFEFF22AD
:1051E000013268464099FFF7B0FE4398801943901A
:1051F000B81987B21EE0002D03D1FF200130844290
:1052000005D0FF22013268464099FFF730FE224662
:1052100042994198FFF7E4F94098FFF76DFEFF22AD
:10522000013268464099FFF790FE43980019439079
:10523000381987B246988742A8DB47B0F0BD10B551
:10524000002002F067FC0A2007F0C4FC062002F0F0
:105250003BF8012002F05EFC0A2007F0BBFC10BD09
:1052600070B50546002D00D1012507212846FFF71E
:105270006FFA401CC6B21849098A88B23346174AE9
:10528000114600F06AFD002214491439124801F059
:10529000B9FD01241BE01148143801781620604341
:1052A0000E4A143A11541046817816206043801833
:1052B00081701046017916206043801801711046F4
:1052C00081791620604380188171601CC4B2044843
:1052D0004078A042DFDA70BD300B0020440400208B
:1052E0002C07002070B5184C247E6406240E174D40
:1052F0002C72FF2491346C8101242C732C46247A67
:105300006D896D1C6C43114D2C612C1F6168104B15
:10531000002214E0002005E01C780C70491C5B1C86
:10532000441CA0B20428F7DB002004E000240C7029
:10533000491C441CA0B20428F8DB541CA2B2024C45
:10534000247E9442E6DC70BDBD110020300B0020AD
:10535000540B0020F1B584B005210498FFF7F8F94B
:10536000C0B202900298022801DC0220029002984A
:10537000642801DB642002905C48008A80B20190BE
:105380005B4A1146029B00F0E8FC584A5289511CC6
:10539000574A143A908AFFF7DBF9C5B2534A52894B
:1053A000511C534A143A908AFFF7D2F988B20390FD
:1053B000681CC6B24D48007AB04200DC0026642169
:1053C0000398FFF7C5F9C7B2002F5CD0002455E061
:1053D000781EA04228D14548001F4068B100415CBA
:1053E00016206043424A143A11544048001F406856
:1053F000B1004018417816206043801881703B4806
:10540000001F4068B1004018817816206043801862
:1054100001713648001F4068B1004018C17816205D
:1054200060438018817127E03048001F4068A90060
:10543000415C162060432E4A143A11542B48001F39
:105440004068A90040184178162060438018817098
:105450002648001F4068A900401881781620604344
:10546000801801712148001F4068A9004018C178C8
:105470001620604380188171601CC4B21D484078BA
:10548000A042A5DA2FE0002429E01848001F406858
:10549000A900415C16206043154A143A1154134880
:1054A000001F4068A900401841781620604380180A
:1054B00081700E48001F4068A900401881781620AE
:1054C0006043801801710948001F4068A900401816
:1054D000C1781620604380188171601CC4B20548F1
:1054E0004078A042D1DA05B0F0BD0000300B0020BA
:1054F000440400202C07002070B5154C247E154D67
:105500002C72154C6478641C64256C43114D6C81BD
:1055100001242C732C46247A6D896D1C6C430D4D2F
:105520002C612C1F63680D4A00200BE0002105E070
:1055300014781C705B1C521C4C1CA1B20429F7DBB4
:10554000441CA0B2034C247A8442EFDC70BD0000FE
:10555000BD110020300B00202C070020540B002030
:10556000FEB507463846F917490F09184905090ECF
:1055700001910198012801DC012001900198642823
:1055800001DB642001903F48008A80B200903E4ACF
:105590001146019B00F0E1FB3A4A5289511C3A4AFC
:1055A000143A908AFFF7D4F8C5B2364A5289511C92
:1055B000354A143A908AFFF7CBF888B20290681CFB
:1055C000C6B23048007AB04200DC0026002429E050
:1055D0002C48001F4068A900415C162060432A4AFD
:1055E000143A11542748001F4068A9004018417818
:1055F00016206043801881702248001F4068A9006F
:105600004018817816206043801801711D48001FE2
:105610004068A9004018C178162060438018817145
:10562000601CC4B219484078A042D1DA15494889B3
:10563000C10F09184A1002998A4222DA1148001F44
:105640004068B100405C1049143908700D48001FD3
:105650004068B100401840780B49143988700948F7
:10566000001F4068B100401880780749143908715C
:105670000448001F4068B1004018C078024914393E
:105680008871FEBD300B0020440400202C07002050
:1056900070B5124C247E124D2C72FA246C810124B8
:1056A0002C732C46247A6D896D1C6C430C4D2C6137
:1056B0002C1F63680B4A00200BE0002105E01478E2
:1056C0001C705B1C521C4C1CA1B20429F7DB441C4F
:1056D000A0B2034C247A8442EFDC70BDBD110020DF
:1056E000300B0020540B0020F1B586B00321069842
:1056F000FFF72EF8C0B201900198032801DC0320C7
:1057000001900198642801DB642001904548008ADB
:1057100080B20090444A1146019B00F01EFB414AB2
:105720005289511C404A143A908AFFF711F8C6B2C8
:105730003C4A5289511C3C4A143A908AFFF708F8B7
:105740008FB2384948890A21FFF702F885B2A804C8
:10575000000C03900620684380B20290A80028182D
:1057600080B20590E800401B80B204900398874205
:1057700002DD0598874205DD029887420ADD04981C
:10578000874207DC002028491439087088700871A6
:10579000887122E02348001F4068B100405C224924
:1057A000143908701F48001F4068B1004018407845
:1057B0001D49143988701B48001F4068B10040180B
:1057C00080781949143908711648001F4068B100E3
:1057D0004018C07814491439887101241BE012481C
:1057E00014380178162060430F4A143A11541046B9
:1057F0008178162060438018817010460179162048
:10580000604380180171104681791620604380182A
:105810008171601CC4B205484078A042DFDA07B04D
:10582000F0BD0000300B0020440400202C070020B5
:1058300070B5154C247E154D2C722C46247AFF250C
:105840002D356C43114D6C8101242C732C46247A28
:105850006D896D1C6C430D4D2C612C1F63680C4AC7
:1058600000200BE0002105E014781C705B1C521C2A
:105870004C1CA1B20429F7DB441CA0B2034C247ACF
:105880008442EFDC70BD0000BD110020300B002011
:10589000540B0020F8B507466420C01B1930C6B26F
:1058A000012E00DC0126C82E00DBC8262E48007819
:1058B0002E4948702E480068401C2D490860B042AF
:1058C00051D300200860002432E004F083F90090F6
:1058D0002848017E0098FEF73BFFCDB2A8002918AA
:1058E000244819300818417816206043224A115480
:1058F000A80029181F48193008188178162060431D
:1059000080188170A80029181A4819300818C17821
:105910001620604380180171A80029181548193015
:10592000081801791620604380188171601CC4B288
:105930000D480078A042C8DC002410E004F04AF9C9
:1059400000900A4841780098FEF702FFCAB20A2088
:1059500060430549891C40180272601CC4B20248A9
:105960000078A042EADCF8BD841200202C07002059
:1059700028040020BD1100203004002070B522480A
:10598000007822494870002438E00A2060431E490C
:10599000891C4018047204F01DF906461C48017E5B
:1059A0003046FEF7D5FECDB2A800291818481930A8
:1059B0000818417816206043164A1154A800291887
:1059C00013481930081881781620604380188170B8
:1059D000A80029180E4819300818C178162060430D
:1059E00080180171A8002918094819300818017990
:1059F0001620604380188171601CC4B20248007890
:105A0000A042C2DC70BD0000841200202C070020E0
:105A1000BD11002030040020F8B50546002D00D14E
:105A2000012507212846FEF793FE401CC6B21949FE
:105A3000098A88B23346184A114600F08EF90022CE
:105A400015491439134801F0DDF901241CE0631EE7
:105A500016277B43104F143FDB191A4614321623C6
:105A60006343DB19194614310A4B1B8A98B23C2355
:105A700000F073F9162060433A4681180022054869
:105A800001F0C0F9601CC4B204484078A042DEDADC
:105A9000F8BD0000300B0020440400202C0700203B
:105AA00070B5234C247E6400641E224D2C72FF24AA
:105AB00091346C8101242C732C46247A6D896D1CE1
:105AC0006C431C4D2C612C1F63681B4800210BE0AC
:105AD000002205E004781C705B1C401C541CA2B220
:105AE000042AF7DB4C1CA1B2114C247E8C42EFDC63
:105AF0000F4C247E012C19DD0F480D4C247EA41E72
:105B0000A400001900210CE0002205E004781C70BC
:105B10005B1C401C541CA2B2042AF7DB08384C1C46
:105B2000A1B2034C247E641E8C42EDDC70BD0000EB
:105B3000BD110020300B0020540B002010B52F4A5F
:105B400012782F4B5A70002052E00A2242432B4B0E
:105B50009B1CD2181072002316224243294CA354D6
:105B600016224243121993701622424312191371DE
:105B70001622424312199371002131E00A22424356
:105B80001E4B9B1C9B5C8A008C181F4A125D934223
:105B900024D18A008B181C4A9A1853781622424343
:105BA000184CA3548A008B18174A9A189378162217
:105BB0004243121993708A008B18134A9A18D378AB
:105BC00016224243121913718A008B180E4A9A1832
:105BD0001379162242431219937106E04A1CD1B27E
:105BE000094A193A127E8A42C8DC00BF421CD0B270
:105BF000024A12788242A8DC10BD00008412002004
:105C00002C07002030040020D6110020F8B50546EE
:105C1000002D00D1012507212846FEF799FD401CE3
:105C2000C6B21949098A88B23346184A114600F0AB
:105C300094F8002215491439134801F0E3F80124BF
:105C40001CE0631E16277B43104F143FDB191A46D6
:105C5000143216236343DB19194614310A4B1B8A8D
:105C600098B23C2300F079F8162060433A46811838
:105C70000022054801F0C6F8601CC4B20448407810
:105C8000A042DEDAF8BD0000300B00204404002002
:105C90002C07002070B5134C247E134D2C72FF246A
:105CA00091346C8101242C732C46247A6D896D1CEF
:105CB0006C430D4D2C612C1F63680C4A00200BE0D7
:105CC000002105E014781C705B1C521C4C1CA1B216
:105CD0000429F7DB441CA0B2034C247A8442EFDC95
:105CE00070BD0000BD110020300B0020540B0020BF
:105CF000FFB581B004460D4616460A98002801D12A
:105D0000347028E0AC4211DA281B00900499009806
:105D1000484307460A99491C3846FEF70FFD0746D7
:105D2000AF4200D92F46E019307014E0AC4211DDCB
:105D3000601B009004990098484307460A99491C43
:105D40003846FEF7FBFC0746A74200D92746E01B72
:105D5000307000E0347005B0F0BDFFB581B00C4686
:105D600015461E46002E07D0288887193846019907
:105D7000FEF7E4FC218001E02888208005B0F0BD1A
:105D80008278012A03D1C278024B1A7000E0704772
:105D900000BFFCE72304002030B502469378012BB6
:105DA00016D100200EE0D5780A234343094CE35C6A
:105DB0009D4205D115790A2343431B195D7006E006
:105DC000431CD8B2034B9B1E1B788342EBDC00BF05
:105DD00030BD00008612002010B5032200210220F1
:105DE00001F068F800221146042001F063F8002257
:105DF00007210D2001F05EF8042202210C2001F0A1
:105E000059F8002201210C2001F054F80322062148
:105E10000D2001F04FF8002206210D2001F04AF874
:105E200001221146022001F045F803220221084612
:105E300001F040F800220321022001F03BF8042287
:105E40000021012001F036F800220121084601F06E
:105E500031F804220221012001F02CF80422032150
:105E6000012001F027F804221146012001F022F858
:105E7000042211460C2001F01DF8042203210C20FD
:105E800001F018F810BD30B513460C780578AC4217
:105E900009DD0478E2180C78944202D20C78047080
:105EA00017E0027015E004780D78AC420FDD04783D
:105EB0009C4209DD0478E21A0C78944202D90C78ED
:105EC000047006E0027004E00C78047001E00C78C5
:105ED000047030BD70B505460A212846FEF738FC2F
:105EE000C6B20A212846FEF733FCCCB230010019B5
:105EF000C4B2204670BD00007FB51A4D00201A497B
:105F0000087000240DE029782D1DC8B26946085597
:105F10006846005D14490978401813490870601CF0
:105F2000C4B2102CEFDB10480078FA2804DD0E48CC
:105F300000780A300C49087000200C4908700024D1
:105F400008E06846005D094909784018074908706B
:105F5000A01CC4B2102CF4DB04480078FEF7DAFA77
:105F60007FBD0000940850002E0200203302002064
:105F70000121054801770548808808430349888046
:105F80000020034908777047006100406015044015
:105F90000060004008B50020164908701648808847
:105FA0000121084314498880084640891349084064
:105FB0001149488108460089104908400E49088166
:105FC00008460089891508430B4908810020009084
:105FD00005E000BF68460078401CC1B200916846E9
:105FE00000780E28F5D904480089012108430249A8
:105FF000088108BD6403002060150440FEFF000016
:10600000012106480170064880880221084304499E
:10601000888000200349087070470000206100401C
:10602000601504402060004008B5164880880221B1
:10603000084314498880084640891349084011499B
:10604000488108460089104908400E4908810846E1
:106050000089491508430B4908810020009005E09C
:1060600000BF68460078401CC1B2009168460078C5
:106070000E28F5D903480089022108430149088107
:1060800008BD000060150440FDFF000010B5564833
:10609000008802210840022807D1544800880028BF
:1060A00003D0022003F05AFF9AE04F480088C0074F
:1060B000C00F002807D04D480088002803D00520D5
:1060C00003F04CFF8CE04A480078C007C00F00285E
:1060D00018D04648008800280FD04648006800784D
:1060E0004549087243480068401C424908603F48DF
:1060F0000088401E3D49088072E0FFF74BFF03F027
:1061000039FF6DE03A48007804210840002832D178
:106110003548203080880121084333492031888068
:106120003148008B8004800C2F4908830846008B7F
:106130000121890308432C4908832B4820304088DB
:10614000012108432849203148802948007804214A
:1061500008432749087029480088012807D12248A8
:1061600020304089264908401F4920314881FF20BE
:106170002149087234E02348008820490988884270
:106180002EDA1D48007A2049096808701E48006808
:10619000401C1D4908601B480088401C19490880A4
:1061A00016480088401E098888420BD10E482030CE
:1061B0004089134908400C4920314881FF200E498D
:1061C00008720DE00F4800880C490988884204D104
:1061D000FFF7E0FE03F0C4FE02E0FF20064908726C
:1061E00000200A49087710BD401504406C030020C8
:1061F0006403002068030020401704407603002059
:10620000FEFF0000740300207003002000600040C7
:1062100010B55648408802210840022807D154484A
:106220000088002803D0022003F0AEFE9AE04F4819
:106230004088C007C00F002807D04D4800880028BC
:1062400003D0052003F0A0FE8CE04A480078C00788
:10625000C00F002818D04648008800280FD04648B4
:10626000006800784549887243480068401C4249EC
:1062700008603F480088401E3D49088072E0FFF7F3
:10628000D3FE03F08DFE6DE03A480078042108400B
:10629000002832D135482030808802210843334914
:1062A000203188803148408B8004800C2F494883FE
:1062B0000846408B0121890308432C4948832B4819
:1062C000203040880221084328492031488029484D
:1062D00000780421084327490870294800880128CC
:1062E00007D1224820304089264908401F492031E3
:1062F0004881FF202149887234E0234800882049E2
:10630000098888422EDA1D48807A20490968087079
:106310001E480068401C1D4908601B480088401C3E
:106320001949088016480088401E098888420BD108
:106330000E4820304089134908400C4920314881DB
:10634000FF200E4988720DE00F4800880C4909882B
:10635000884204D1FFF768FE03F018FE02E0FF2038
:106360000649887200200A49087010BD4015044093
:1063700080030020780300207C03002040170440A5
:106380008A030020FDFF0000880300208403002012
:106390002060004010B500200E4908710E480068CA
:1063A000401C0D4908600D480088C007C00F002838
:1063B00008D00B48008B401C0121090440180949F2
:1063C000086004E00648008B401C0649086001F0A4
:1063D000A3F810BD40600040B4030020A01D04409D
:1063E000001F0440A403002000200E4908720E483C
:1063F0000068401C0C4908600C484088C007C00F6A
:10640000002808D00A48408B401C0121090440188C
:106410000849086004E00648408B401C05490860B4
:106420007047000040600040B8030020A01D0440F9
:10643000001F0440A803002000200E4908730E48E6
:106440000068401C0C4908600C488088C007C00FD9
:10645000002808D00A488088401C012109044018FF
:106460000849086004E006488088401C0549086027
:106470007047000040600040BC030020A01D0440A5
:10648000601F0440AC03002000200E4908740E4831
:106490000068401C0C4908600C48C088C007C00F49
:1064A000002808D00A48C088401C0121090440186F
:1064B0000849086004E00648C088401C0549086097
:1064C0007047000040600040C0030020A01D044051
:1064D000601F0440B003002000200E4908730E48DE
:1064E0000068401C0C4908600C480088C007C00FB9
:1064F000002808D00A48008B401C012109044018DC
:106500000849086004E00648008B401C0549086003
:106510007047000060600040D4030020A0210440C8
:1065200000230440C403002000200E4908740E48D4
:106530000068401C0C4908600C484088C007C00F28
:10654000002808D00A48408B401C0121090440184B
:106550000849086004E00648408B401C0549086073
:106560007047000060600040D8030020A021044074
:1065700000230440C803002000200E4908750E487F
:106580000068401C0C4908600C488088C007C00F98
:10659000002808D00A488088401C012109044018BE
:1065A0000849086004E006488088401C05490860E6
:1065B0007047000060600040DC030020A021044020
:1065C00060230440CC03002000200E4908760E48CA
:1065D0000068401C0C4908600C48C088C007C00F08
:1065E000002808D00A48C088401C0121090440182E
:1065F0000849086004E00648C088401C0549086056
:106600007047000060600040E0030020A0210440CB
:1066100060230440D00300201D4A127880231A43CF
:106620001B4B1A70002802D100221A4B1A7701283E
:1066300008D10122174B1A77154AD27810231A4332
:10664000134BDA70022802D1A222124B1A770328C8
:1066500002D182220F4B1A77042802D1C2220D4B9D
:106660001A77052802D103220A4B1A77062802D18D
:106670004322084B1A770022074B1A820123074A4C
:1066800013770022064B1A77034A118270470000E5
:106690002004024060040440404F04404061004038
:1066A0004060004010B500200B490877172001F02A
:1066B00079FA0021094801770948008A0121C903B4
:1066C00008430749088200BF0548008A0121C90321
:1066D00008400028F8D010BD4060004040610040F4
:1066E000404F0440114881881148814201DD00205B
:1066F00070471048814201DD0520F9E70D48AC38AC
:10670000814201DD0420F3E70B48814201DD0320D3
:10671000EEE70A48814201DD0220E9E708488142AC
:1067200001DD0120E4E70020E2E700000410002082
:10673000AC0E0000110D0000540B000054090000C5
:10674000FF03000010B54B480078022108400028E4
:106750000ED049480079012803D10020464908712C
:1067600002E001204449087104F0AAFDFEF746FC4E
:106770004248007802210840002804D0012005F09A
:1067800055FE02F075F83E480078022108400028C6
:1067900004D002F06EF8002005F048FE3948007879
:1067A00002210840002803D002F064F804F098FDAC
:1067B0003548007802210840002803D002F05BF839
:1067C00001F03AFD2B48007840210840002807D00E
:1067D000FEF715FC04F0EAF902F080FE00F01CFE62
:1067E0002848007804210840002806D02549097867
:1067F00008221140084604F087FD1E480078DD217C
:1068000008401C4908701D480078DD2108401B49DC
:1068100008701B480078DD210840194908701948A4
:106820000078DD2108401749087017480078DD21FD
:106830000840154908700F480078B32108400D49F9
:1068400008700E480078B32108400C4908700C48C5
:106850000078B32108400A4908700A480078B3213B
:1068600008400849087008480078B32108400649E4
:10687000087010BDF006002040110020FC0600202A
:106880000807002014070020200700203EB5FFF76E
:1068900029FF044600200121FA22022300920191DF
:1068A00002900A4621461A4800F03CF800200121D7
:1068B000322202230092019102901A462146154885
:1068C00000F030F8002001213222022300920191D1
:1068D000029003222146104800F024F800200121F4
:1068E00032220223009201910290042221460B4899
:1068F00000F018F8002001213222022300920191B9
:10690000029005222146064800F00CF83EBD00002A
:10691000F0060020FC0600200807002014070020D5
:1069200020070020FFB50C46099D00210023504F91
:106930004668BE4202D24668761C46604668AE4251
:1069400017D30A9E002E08D047680A9EAE19B74298
:1069500003D96E1C4660042631434668AE4201D11D
:1069600044263143944213D00C263143002646601E
:106970000EE04768039EB74206D9944208D002262B
:1069800031430026466003E0944201D00026466071
:10699000944201D1012631430B9E002E54D0022691
:1069A0000E40002E03D0FD263140102631430678DC
:1069B00010273E40002E34D02D4F8668BE4202D2B2
:1069C0008668761C866087680B9EB7421BD91026A6
:1069D0000E40002E08D0EF263140202631430678A5
:1069E000EF273E40067007E002263143EF26314094
:1069F0000678EF273E400670002686600678EF276F
:106A00003E4006700DE010260E40002E09D02026D4
:106A10003143EF2631400678EF273E4006700026CE
:106A2000866006783E273E4033460678F607360EE7
:106A3000067006781E4306700678BE273E40067034
:106A400006780E43067011E006780E273E40334666
:106A50000678F607360E067006781E43067006782E
:106A60008E273E40067006780E430670FFBD00007C
:106A7000FFFF000010B59A480078401CC0B298494A
:106A80000870322801DD01200870002095498871C6
:106A90000320487108460078002802D00120487081
:106AA00010E090484078032803D08E4840780228B0
:106AB00005D18C488068FF212D31884202D3002007
:106AC0008849487004F06CF88649887008468078D8
:106AD000022803D00846807803280CD18248008819
:106AE000401C80B280490880002807D108460088F1
:106AF000401E088002E000207B49088079488078A9
:106B0000030001F01DF80705090D1A273435390077
:106B100002207449887133E00220724988712FE0A5
:106B2000714800887149884203DD01206D49487130
:106B300002E001206B49887122E06B4800886B49B4
:106B4000884203DD01206749487102E00120654960
:106B5000887115E06648C07A012803D10020614998
:106B6000887103E003205F498871487108E007E0FD
:106B700002205C49887103E001205A49487100BF36
:106B800000BF58480079002805D05948C07A01282C
:106B900001D15449487153484078032802D100205C
:106BA000504988714F484078022804D100204D494F
:106BB0008871022048714B484078012803D1042095
:106BC00048498871487147484079012803D04548B1
:106BD0004079022802D10320424988710C214048A3
:106BE0000078FDF7B5FD002934D13E4880790228B0
:106BF00007D100BF3F48007B082148403D4908734A
:106C000000BF38484079022807D100BF3948007BCF
:106C1000102148403749087300BF32488079042862
:106C200018D100BF3348007B082148403149087320
:106C300000BF0846007B08210840002805D000BF9F
:106C400010212C487030017304E000BF1021294846
:106C5000017700BF322122480078FDF779FD002935
:106C600017D120488079012807D100BF2148007B37
:106C7000082148401F49087300BF1A48407901287D
:106C800007D100BF1B48007B1021484019490873F9
:106C900000BF14488079002805D100BF082115489D
:106CA0007030017300BF0F488079032804D100BF02
:106CB00008211048017700BF0A484079002805D113
:106CC00000BF10210B487030017300BF05484079A8
:106CD000032804D100BF10210648017700BF10BD72
:106CE0001A040020780F00201C040020B80B0000BC
:106CF000401100200000044000200849487100BFF6
:106D000010210748017300BF03200449887100BFA8
:106D1000082103487038017700BF7047780F0020C2
:106D20007000044030B50346002006E01C780D5C7E
:106D3000AC4200DC03E0441CE0B29042F6DB00BF52
:106D400030BDFFB50D4617461E46701EC2B239460D
:106D50000098FFF7E7FF04462878002809DD601C4B
:106D6000C1B20C46701E81420BDBC4B200202870F9
:106D700007E0002C01D0601EC4B2002C01D101201C
:106D80002870395D00980170FFBD000010B51A48E9
:106D90000079012821D118487D30007D022804D1D6
:106DA0001648417B144841711FE01348407A01287E
:106DB00005D101F031F901460F48817102E00E481A
:106DC000C17981710E48007900280ED103220A4949
:106DD000891D481EFFF757F807E00021064881711A
:106DE0000322811D401DFFF74EF80349891D481EEF
:106DF00005F016FD10BD00004011002040160020D7
:106E000014040020F0B585B004460E46154662898C
:106E1000511CB08AFDF79CFC87B26289511CB08A74
:106E2000FDF796FC88B20290781C80B20390217A1C
:106E30000398814201DC0020039060890090226861
:106E4000039880001018AA00815CBA00206880189E
:106E5000AA00805C01903246029BFEF749FF6089E0
:106E600000902268039880001018AA0080184178CA
:106E7000BA0020688018AA00801840780190B21CDF
:106E8000029BFEF735FF608900902268039880001E
:106E90001018AA0080188178BA0020688018AA000B
:106EA000801880780190321D029BFEF721FF05B00B
:106EB000F0BD000070B50C4615460123A340D9B2C1
:106EC0002A462B0000F03CFE070527435F65788CBF
:106ED000AA00534B1B5C8B43514E3354504B403BE9
:106EE0001B5C0B434E4E403E33544D4B103B1B5CE2
:106EF0008B434B4E103E3354494B303B1B5C8B4312
:106F0000474E303E3354464B203B1B5C8B43444E34
:106F1000203E335482E0424B1B5C8B43404E335443
:106F20003F4B403B1E5C0E431E543D4B103B1E5CD2
:106F30008E431E543A4B303B1B5C0B43384E303E65
:106F40003354374B203B1E5C8E431E5466E0344B5B
:106F50001B5C8B43324E3354314B403B1E5C0E4323
:106F60001E542F4B103B1B5C8B432D4E103E335455
:106F70002B4B303B1E5C8E431E54294B203B1E5C2A
:106F80008E431E544AE0264B1B5C0B43244E335465
:106F900044E0234B1E5C8E431E54214B403B1B5C44
:106FA0008B431F4E403E33541D4B103B1B5C8B43A9
:106FB0001B4E103E335431E0194B1B5C8B43184E73
:106FC0003354174B403B1B5C8B43154E403E3354B0
:106FD000134B103B1B5C0B43114E103E33541DE012
:106FE0000F4B1B5C8B430E4E33540D4B403B1E5CD2
:106FF0000E431E540A4B103B1B5C8B43084E103E45
:107000003354074B303B1E5C8E431E54044B203BD5
:107010001B5C0B43024E203E335400BF00BF70BDCB
:107020006000044010B504462078FDF7C3FD2070D1
:107030006078FDF7BFFD6070A078FDF7BBFDA07024
:10704000E078FDF7B7FDE0702079FDF7B3FD207122
:107050006079FDF7AFFD6071A079FDF7ABFDA07120
:1070600010BD00001749897F01221143154A91770D
:1070700000BF1449897F022211400029F9D011492B
:10708000897C01700F49C97C41700E49097D81706E
:107090000C49897DC1700B49497D01710949C97D40
:1070A00041710849097E81710649897F4908490073
:1070B000044A917700BF0349897F022211400029C9
:1070C000F9D17047404F044010B504462078FEF7D0
:1070D00001FF20706078FEF7FDFE6070A078FEF77B
:1070E000F9FEA070E078FEF7F5FEE0702079FEF77B
:1070F000F1FE20716079FEF7EDFE6071A079FEF778
:10710000E9FEA07110BD00001F49097880221143DB
:107110001D4A1170002808D100211C4A11771A4914
:10712000C97810229143184AD170012808D1012151
:10713000164A11771449C97810221143124AD170A6
:10714000022802D1A221114A1177032802D18221FB
:107150000E4A1177042802D1C2210C4A1177052862
:1071600002D10321094A1177062802D14321074A97
:1071700011770021064A51771146497F08221143B1
:10718000034A517770470000200402406004044025
:10719000404F04401449897F01221143124A9177DC
:1071A00000BF1149897F022211400029F9D00178DE
:1071B0000D4A91744178D17481781175C1789175B7
:1071C000017951754179D175817911761146897F9F
:1071D00049084900917700BF0349897F0222114085
:1071E0000029F9D170470000404F044010B500203D
:1071F00014490876162000F0D5FC002112480176CB
:107200001248407F80210843104948770846807F14
:10721000012108430D49887700BF0C48807F022177
:1072200008400028F9D00948807F400840000749FD
:10723000887700BF0548807F022108400028F9D1E7
:1072400010BD00004060004040610040404F0440DD
:10725000002804D000BF082204494A7405E000BF9A
:107260000822024970314A7000BF70470000044094
:1072700010B5012211461046FFF71CFE0422022120
:107280000120FFF717FE042203210120FFF712FE61
:10729000042211460120FFF70DFE012000F03AFC08
:1072A0000020FFF7D5FF10BD002804D000BF042246
:1072B00004494A7405E000BF0422024970314A7053
:1072C00000BF70470000044070B50346002500264B
:1072D000FF2400BF1FE080201840C6095806030E97
:1072E0006006040E0020FFF7B3FF3046FFF7DCFF17
:1072F000012005F06FFC0120FFF7AAFF012005F037
:1073000069FC0848407802210840002801D0601C30
:10731000C4B2681CC5B2082DDDDB0020FFF798FF62
:10732000204670BD0000044010B538480068401C7D
:10733000364908603648007801210843344908700E
:1073400004F038FB31480078C007C00F002805D191
:107350002F480078022108432D49087005212B4849
:107360000068FDF7EBF9002905D1294800780421D0
:10737000084327490870072124480068FDF7DEF913
:10738000002905D1224800780821084320490870C7
:1073900019211E480068FDF7D1F9002905D11C48C4
:1073A0000078102108431A490870322117480068F4
:1073B000FDF7C4F9002905D11548007820210843BC
:1073C000134908707D2111480068FDF7B7F90029BD
:1073D00005D10F480078402108430D490870FA2173
:1073E0000A480068FDF7AAF9002905D10848007885
:1073F000802108430649087004480068054988420E
:1074000002D300200149086010BD00005C0200208A
:107410002B020020AC0D000010B5002008490870B8
:1074200005F098F8FEF768FD04F032F804F0F0FE7D
:1074300002F0D6FC04F068F904F09CF910BD0000DD
:107440001004002002480068401E0149086070478F
:107450001802002000B5FDF7C1FB0149086000BD1E
:107460002C04002000B580201B4948711A201A49BD
:10747000203908732B2048733C2088734D20C87333
:10748000002016494860FDF7A9FB15490860002057
:10749000C04314490860144908601448144908603E
:1074A000114903221202891848600F49891888601F
:1074B0000D498918C8600C49891808610A4989185A
:1074C000486109498918886107498918C861AC2051
:1074D0000849487000BD00002004024000B001408F
:1074E0002C04002080E200E000E100E0C0C0C0C049
:1074F00000E400E0001002400249498A0143014AC9
:1075000051827047A01D04400249898A0143014A03
:1075100091827047A01D044010B505F05BFCFFF799
:1075200003FF10BDF8B505460E466A4631462846AB
:1075300000F0FEF90446002C1FD10320104988807A
:107540000846C08800090001C8800846C08869460E
:10755000097808430A49C880684640784006000C0C
:1075600008490882684640784006000C4882044872
:10757000408803210843024948802046F8BD0000A6
:10758000201104400013044070B505460E463C48E7
:107590000078042108433A49087003203949C8801B
:1075A0002220384920390882374808836720400262
:1075B000364908823648007C012108433449087462
:1075C0000720304920394881FF2023304882314844
:1075D0004883672040022D4948822A4800890121BA
:1075E0000843284908810846808A2B4908402549D4
:1075F000888208464089012108432249488100BF0A
:10760000052026490872264840780121084324496C
:1076100048702348203040784008400020492031FD
:1076200048701F484030407C400840001C494031B1
:1076300048741B4860304078400840001849603169
:10764000487000BF00BF0E20144960310872144812
:107650002030807808210843114920318870104873
:1076600060308078082188430D496031887000BF00
:1076700031462846FFF756FF0446204670BD0000FD
:1076800020040240201104409780000000130440B1
:107690006004044097400000FEFF00000008044022
:1076A000000004400449087400BF044909886022AE
:1076B00011400029F9D17047001304400011044023
:1076C000F8B505460E466A463146284600F030F9C0
:1076D0000446002C19D10C200D498880684600789A
:1076E000502108430A49C880684640784006000C8B
:1076F00008498880684640784006000CC8800448E5
:1077000040880C210843024948802046F8BD00000B
:10771000201104404013044070B505460E4643480E
:1077200000780421084341490870414880880C21B1
:1077300008433F49888001213E4801750176017761
:1077400000203D490875087608773C4838492039BB
:1077500088823A487530888367204002384988809B
:107760003848007C04210843364908740720304912
:107770002039C8813448C8823448C8836720400211
:107780002F49C8802A4800890421084328490881D4
:107790000846808A2E490840254988820846408943
:1077A000042108432249488100BF0A2029498870E2
:1077B0002948007B042108432749087326482030C4
:1077C000007B04218843244920310873224840303B
:1077D000007F042188432049403108771E486030EB
:1077E000007B042188431C496031087300BF00BF3F
:1077F0000C2018492031C8731748203080780221A6
:107800000843154920318870134860308078022180
:10781000884311496031887000BF31462846FFF720
:107820004FFF044600F05CF8204670BD2004024083
:1078300020110440206100402060004022800000B0
:10784000401304406004044022810000974000007F
:10785000FBFF0000400804400000044010B5024651
:107860000020002901D1812006E00023034C238061
:10787000034B1980034B1A6010BD0000E802002082
:10788000EA020020E402002010B502460020002990
:1078900001D181201AE00E4B1A600E4B1980012392
:1078A0000D4C23700A4B1B681B780C4C2371084B42
:1078B0001B685B1C064C2360064B1B885B1E054C3B
:1078C000238000BF044B1B78002BFBD110BD0000B0
:1078D000DC020020E00200202602002040130440C9
:1078E00010B510480089042108430E490881084654
:1078F0004089042108430B494881084640880C21EF
:1079000008430849488000200749087508760D207B
:1079100000F030F90E2000F02DF900210348017528
:10792000017610BD2011044020600040206100401D
:10793000F7B584B014468020039000263DE0700027
:10794000204A115A0498FCF7F9FE0190022730E012
:10795000791C0198FCF7F2FE410802911A4A02993B
:10796000514308460599FCF7E9FE1749451AE121FC
:107970004902059888420DD1281E01DB014600E02E
:107980004142462913DA267067700020039003985D
:1079900007B0F0BD281E01DB014600E0414214297A
:1079A00005DA26706770002003900398F0E7781CD2
:1079B000C7B2802FCCDB701CC6B2102EBFDB039881
:1079C000E6E700008AD200001027000070B50546E7
:1079D0000C463E480078012108433C49087082204B
:1079E0003B49C8822846FFF78FFD012D06D0022DA6
:1079F0001CD0042D32D0082D62D148E0002035493A
:107A00000871112000F0AAF80120C0033049203984
:107A10000882601E304908832D48408B4008400092
:107A20002B49488300212D4801714AE00020294953
:107A30000872122000F092F80120C0032449203976
:107A40004882601E244948832148408B0221884394
:107A50001F49488300212148017232E000201D495E
:107A60000873132000F07AF80120C0031849203968
:107A70008882601E1849603188801548408B042137
:107A800088431349488300211448017319E00020FA
:107A900010490874142000F061F80120C0030C495B
:107AA0002039C882601E0C496031C8800848408B6C
:107AB000082188430649488300210848017400E0F2
:107AC00000BF00BF2846FFF717FD70BD200402402D
:107AD000A01D044040600040001F04404061004081
:107AE00070B5049C0D78002D09D00578161BB542A1
:107AF00003DA05782D1905700AE0027008E00578B0
:107B00001E19B54203DD05782D1B057000E00370DA
:107B100070BD0000002804D000BF102204494A7440
:107B200005E000BF1022024970314A7000BF704763
:107B300000000440AC20014948707047001002402A
:107B400030B47446641E2578641CAB4204D3635D74
:107B50005B00E31830BC18471D46F8E7002805DB3A
:107B6000C206D20E01219140014A11607047000007
:107B700080E200E0002805DBC206D20E0121914020
:107B8000014A11607047000080E200E0002805DB38
:107B9000C206D20E01219140014A116070470000D7
:107BA00080E200E0002805DBC206D20E01219140F0
:107BB000014A11607047000080E200E010B5002823
:107BC00019DB1A4A03231B02D21883089B00D258E0
:107BD0008307DC0EFF23A3409A438B071B0E840709
:107BE000E40EA3401A43114B032424021B198408FA
:107BF000A4001A5118E00E4A03071B0F083B9B080C
:107C00009B00D2588307DC0EFF23A3409A438B07C7
:107C10001B0E8407E40EA3401A43054B0407240FF0
:107C2000083CA408A4001A5110BD000000E100E0C7
:107C30001CED00E030380A2801D2012070470020F6
:107C400070470000002803D00449054A116202E091
:107C50000121034A116200BFFEE70000AD0B0000E6
:107C6000008002400EB5FCF78DFF0520FDF7A2F85D
:107C70001B480078002802D0012828D113E00120F9
:107C8000174908702420FCF75DFF15488630154918
:107C90000122134600920191029000220E2105203C
:107CA000FCF7FEFF1AE002200D4908700020FCF7E7
:107CB00049FF0B48801C0B4941220123009201918E
:107CC000029000220E210520FCF7EAFF06E00320C7
:107CD000034908700520FDF76DF800BF00BF0EBD19
:107CE000840F00200E5004400EB500200A49087091
:107CF000FCF748FF0220FCF725FF074884300749BE
:107D00000122134600920191029000220E210520CB
:107D1000FCF7C6FF0EBD0000840F00200E5004408B
:107D200010B500200449087504480068401C034948
:107D30000860FFF797FF10BD40600040EC03002093
:107D400070B5FFB0BDB006460C46684601F0BCFDFC
:107D500068460078002809D068460078A04201DB18
:107D60001E2C03DB00207FB03DB070BD002517E066
:107D70001920684300A901314018007D317D8842F7
:107D80000CD11920684300A901314018417D707D54
:107D9000814203D1A54201D00020E4E7681CC5B2AE
:107DA00068460078A842E3DC68460078A04206D125
:107DB00068460078401CC1B26846017005E068461C
:107DC0000078A04201DC0020CDE71921614300AA20
:107DD0000132881819223146FCF702FC684603F08C
:107DE000CDFF0120BFE710B5C0B00446214601A871
:107DF00001F0F8FD012069464876214601A803F00C
:107E0000EBFF30A801F006FE214630A800F008F88C
:107E100030A803F0F9FF03F03DFD012040B010BD94
:107E200070B590B004460E4640216846FCF740FC11
:107E300000206946087020783C2806D9217819A0CE
:107E4000FCF7F8F9002010B070BD00250FE0601CB1
:107E5000405DB04209D0601C415D68460278501C0C
:107E6000C3B268460370401C8154681CC5B22078B8
:107E7000A842ECDC684600782178884210D1684638
:107E80000178401C465468460078401CC1B26846E0
:107E900001703D2269462046FCF7A2FB0120D2E793
:107EA0000120D0E75B6E756D3A25645D0D00000022
:107EB0007FB504460E46002000900190029003908A
:107EC0006946087020780D2806D9217819A0FCF79A
:107ED000B1F9002004B070BD00250FE0601C405DCA
:107EE000B04209D0601C415D68460278501CC3B2A4
:107EF00068460370401C8154681CC5B22078A842B3
:107F0000ECDC684600782178884210D16846017818
:107F1000401C465468460078401CC1B26846017057
:107F20000E2269462046FCF75BFB0120D2E70120C8
:107F3000D0E700005B6E756D3A25645D0D000000B2
:107F400030B591B005460C46802C02DA002011B005
:107F500030BD002068752146284603F03DFF01A88A
:107F600001F0CAFC214601A8FFF75AFF01A803F05F
:107F70001DFF01A801F0F6FD214601A8FFF750FF03
:107F800001A803F055FF204603F083FC0120DEE743
:107F90007FB505460C460D2C02D3002004B070BD01
:107FA0002146284603F04EFF684601F009FE2146AF
:107FB0006846FFF77DFF684603F056FF02F014FFA6
:107FC0000120EBE710B50549CA7F087F213103F096
:107FD000F5F9002101481B30417110BD401100200E
:107FE00010B502F029FE03F06BF903F05FF902F01F
:107FF00019FE02F00DFE10BD3EB504466846047041
:1080000079214170002181700321024A04F0D6FBDE
:108010003EBD00000C1500200C4AD288521C91B2C3
:1080200064224A4311135F2901DD642102E005291E
:1080300000DA0521064A927A002A03D16422521AF4
:10804000D0B27047C8B200BFFBE7000004100020A8
:108050004011002010B504461B48007D022802D1C3
:1080600000201A490870002C02D00020174908701F
:1080700015487D38C07916490978884203D0002018
:108080001249087008E011480078FF2804DA0F4808
:108090000078401C0D4908700C480078B2280DD1BA
:1080A00009487D38C1797D30407C814206D0064A3E
:1080B0007D3AD179107F012203F054F902487D38CE
:1080C000C0790349087010BDBD11002021040020B3
:1080D0002004002010B516480078002826D1144846
:1080E0000079012822D11248807E01281ED1104833
:1080F0000069401C002804D00D480069401C0C4950
:1081000008610B484078002810D10948407F3C2185
:10811000484304460648807F041905480069A04288
:1081200004D900210248016104F04CF910BD00009F
:1081300040110020F7B582B004460F46002569E0E3
:10814000681CC6B262E0049800281BD1E800001940
:108150004088F10009194988884255DDE800011975
:1081600008226846FCF73CFAF2001119EA001019DF
:108170000822FCF735FAF100081908226946FCF7D5
:108180002FFA41E0049801281BD1E80000198088EB
:10819000F10009198988884236DDE80001190822B2
:1081A0006846FCF71DFAF2001119EA0010190822BE
:1081B000FCF716FAF100081908226946FCF710FAD4
:1081C00022E0E80000194088F10009194988884236
:1081D00007DCE80000198088F100091989888842C5
:1081E00012DDE800011908226846FCF7F9F9F200EF
:1081F0001119EA0010190822FCF7F2F9F100081928
:1082000008226946FCF7ECF9701CC6B2BE429ADB44
:10821000681CC5B2BD4293DB05B0F0BD014600202D
:10822000087800024A78104300028A78104300025E
:10823000CA7810437047000010B50D48007D012832
:108240000AD100210A4801757D30007D02280DD138
:10825000002004F0EBF809E00121054801757D30AC
:10826000007D022802D0002004F0E0F810BD0000DC
:108270004011002030B502460020002303E01578AD
:10828000521C28185B1C8B42F9D330BD00B591B04D
:10829000402101A8FCF70CFA01A803F087FD01A812
:1082A00003F0C6FD01A803F0AFFD11B000BD00B59D
:1082B000C1B0022069460870C10100A80130FCF776
:1082C000F5F9684603F07CFD41B000BD00B589B00A
:1082D000202101A8FCF7ECF90349202201A8FCF7B2
:1082E000EDFE09B000BD00000002500000B585B0F1
:1082F00014216846FCF7DCF9142291046846FCF767
:10830000DDFE05B000BD1FB5002000900190029079
:108310000390684603F0A8FD1FBD000010B5FFB034
:10832000BFB0BCA8FEF79EFEBCA8FEF77BFE2C48A3
:10833000C078002803D0B8A8807D002802D102F0C0
:1083400027FC45E0B8A8407C2649097888423FD000
:10835000684601F0B9FA68460078002838D0002451
:1083600032E01920604300A901314018007C012847
:1083700028D1192060434018017EB8A8027D012051
:108380009040014000291DD01920604300A901310F
:108390004018007DB8A9897C884213D11920604318
:1083A00000A901314018407DB8A9497C884209D113
:1083B0001921614300AA01328818BCA903F03AFFD1
:1083C00000F012F8601CC4B268460078A042C8DC15
:1083D000B8A8407C034908707FB03FB010BD0000D2
:1083E000780F00201E04002000210148817570478D
:1083F0006012002070B505460C46611E2846FFF746
:1084000039FFC1B228192038C07F814205D02146EA
:10841000284603F046FA002070BD0120FCE770B545
:1084200002460B4618781678B04222D11078002800
:108430001DD00025002110E0002409E0501C065D3D
:10844000581C405C864201D1681CC5B2601CC4B295
:108450001078A042F2DC481CC1B210788842EBDCF4
:108460001078A84201D1012070BD0020FCE7012056
:10847000FAE70020F8E700001CB5044668460470DF
:108480007421417000218170C4700421014A04F0FC
:1084900095F91CBD0C1500200146002906D00129C4
:1084A00006D0022906D0032908D105E00220704732
:1084B0000320FCE70420FAE70120F8E70020F6E7B4
:1084C00010B5A0B0002404E0204603F027FB601C98
:1084D000C4B21E2CF8DB40216846FCF7E9F810A86E
:1084E00001F040FB10A800781E30C1B26846017050
:1084F00010A80278411C2138FCF772F8002404E02F
:1085000000A801300455601CC4B21E2CF8DB68467C
:1085100003F04CFC684603F0BAF920B010BD70B50A
:1085200005460C461022691C2046FCF759F8687C69
:108530002074A87C6074E87CA074287DE074687D59
:108540002075A97D6175E87DA075297EE175687E3D
:10855000207670BD70B504460D4610222146681C79
:10856000FCF73EF8207C6874607CA874A07CE874FA
:10857000E07C2875207D6875617DA975A07DE87512
:10858000E17D2976207E687670BD0000F0B587B069
:108590000446002006909E49E01C085C0390039866
:1085A00008285ED007DC0300FFF7CAFA0716191C7B
:1085B0001F2A2E3288000E287ED006DC0A2853D0CF
:1085C0000B287AD00C2879D1EFE01C2877D02B2803
:1085D00076D03428F7D108E101F0A4FC15E103F0CE
:1085E00061F912E101F090FA0FE18949A01D085CE0
:1085F0008849087000220321084604F0B9FC04E110
:1086000001208549087000E1012084490870FCE0E0
:108610007F49201D085C06020A46611D515C0E431D
:108620000020049019E0A01D04994018801C78498E
:10863000085C0502A01D04994018C01C7449085C20
:1086400045190919891D049A881800F0F1F80746A0
:10865000291D0498401880B204900498B042E2DBCF
:10866000D3E0FFF7BDFCD0E000200590059800287E
:1086700004D1FF2001306A4908800CE005980128E8
:1086800003D140026649088005E00598022802D11E
:108690004002634908805E49A01D085C614908608A
:1086A00008460068000208605949E01D085C5D4901
:1086B000096808435B4904E083E024E0A4E07AE031
:1086C0008BE00860084600680002086050492046B8
:1086D0000830085C53490968084352490860084655
:1086E0000068000208604A4920460930085C4D498C
:1086F000096808434B490860002004F05DFA0A202D
:108700004949087081E0484800780A284CD1012086
:10871000464908703E49201D085C06020A46611D54
:10872000515C0E431146A01D0D5C2D02E01D085C3E
:1087300005432D0220460830085C05432D022046E3
:108740000930085C05430846069020460A30069921
:1087500008180690042E0DD132480068854209D1D0
:1087600000222946069802F0B5F9074600202E4956
:1087700008700FE0301F2A490988884206DC82B25F
:108780002946069802F0A6F9074603E0002026498C
:1087900008700027012F04D1002203210B2004F0D0
:1087A000E7FB0020214908702FE019490919881DAD
:1087B00002F0EDF929E016490919881D02F08AFD39
:1087C00023E01349A01D085C0290E01D085C0190A5
:1087D0000199029804F036FB17E00D49A01D085CD2
:1087E0000290029801F0E8FA0FE00949201D085CA8
:1087F00006020A46611D515C0E4311460919881D87
:10880000314602F05EFE00E000BF00BF07B0F0BDE1
:10881000DC0B00206F0200206D0200206E020020A1
:108820007202002074020020780200206C020020F6
:10883000FEB5044626786778A0780502E0784019EE
:1088400085B2304601F094F8019001984000074944
:1088500040184078B84201D00020FEBD2A46211DB4
:10886000304600F0B2FA00900098F6E734D20000EB
:1088700070477047704770470349086000BF02495E
:1088800009680029FBD1704718020020044800E065
:1088900000BF0146421E90B20029F9D17047000086
:1088A000E84E000010B5C0B00446214601A801F012
:1088B00099F8002069464876214601A803F08CFA11
:1088C00030A801F0A7F8214630A800F009F830A838
:1088D00003F09AFA02F0DEFF012040B010BD000064
:1088E000F0B591B004460F46402101A8FBF7E0FE29
:1088F00020783C2806D9217815A0FBF79BFC0020A6
:1089000011B0F0BD2078002800D1F9E7002600253D
:108910000DE0601C405DB84207D0601C425D3046EF
:10892000711CCEB201A901310A54681CC5B220786D
:10893000A842EEDC2078B04201D10020E0E7684692
:1089400006713D2201A92046FBF74AFE0120D7E728
:108950005B6E756D3A25645D0D000000F0B585B065
:1089600004460F460020009001900290039020786A
:108970000D2806D9217816A0FBF75CFC002005B075
:10898000F0BD2078002800D1F9E7002600250DE091
:10899000601C405DB84207D0601C425D3046711CCF
:1089A000CEB200A901310A54681CC5B22078A84291
:1089B000EEDC2078B04201D10020E0E76846067086
:1089C0000E2269462046FBF70BFE0120D7E7000088
:1089D0005B6E756D3A25645D0D00000010B5C0B08A
:1089E0000446802C02DA002040B010BD214601A8C8
:1089F00001F09CF8022069464876214601A803F060
:108A0000EBF930A800F078FF30A802F040FF2146D3
:108A100030A8FFF765FF30A803F0C8F930A800F0D0
:108A20006BFF30A802F033FF30A801F09BF830A8AC
:108A300002F02DFF214630A8FFF752FF30A803F0C7
:108A4000F7F930A801F08EF830A802F020FF30A826
:108A500000F0E0FF30A802F01AFF214630A8FFF72F
:108A60003FFF30A803F0D0F930A800F0D3FF30A8C2
:108A700002F00DFF00BFB7E710B598B0044614A888
:108A800001F09EF8214614A8FFF768FF14A803F030
:108A9000EBF950216846FBF70BFE2146684603F0D0
:108AA000D1F9012018B010BD30B5FFB0FFB0FBB058
:108AB0000546BDA800F008FFB8A8017DA94204DB67
:108AC0001E2D02DA007D002804D100207FB07FB087
:108AD0007BB030BD2F21090101A8FBF7E9FD00247F
:108AE00018E0AC4214D019226243BDAB0133D11857
:108AF0006A46127919235A4301AB0133D01819225F
:108B0000FBF76EFD68460079401CC1B268460171F2
:108B1000601CC4B2B8A8007DA042E2DC01A803F04A
:108B20002DF90120D2E7000070B505460C4621461C
:108B3000FF2201322846FCF708FA64216143084607
:108B400003218903FBF704FE06462146324602A0B4
:108B5000FBF770FB70BD0000646F776E6C6F616433
:108B60003A204F7825303478205B256425255D0D2B
:108B70000000000070B504460D462A4621467820C4
:108B800001F0FCFE0646012E00D170BD0020FCE77E
:108B9000F8B504460D462946204601F0EEFF07468B
:108BA000384601F051FC3946832001F0BBFE0646F1
:108BB000012E00D1F8BD0020FCE7F8B506460F46AF
:108BC0003946304601F0D6FF0546002D02D101F0AE
:108BD0004DFC02E0012001F049FC2946822001F011
:108BE0006DFE0446012C00D1F8BD0020FCE7F8B56D
:108BF00005460E463146284601F0C2FF0446E0B263
:108C000001F046FC21466A2001F028FF0746012FAB
:108C100000D1F8BD0020FCE7F8B505460E46314608
:108C2000284601F0ADFF0446E0B201F032FC2146D7
:108C30006F2001F013FF0746012F00D1F8BD00207F
:108C4000FCE770B504460D462946204601F022FC9B
:108C50002A4621467F2001F091FE0646012E00D1D2
:108C600070BD0020FCE770B504460D46294620463D
:108C700001F023FC2A4621467E2001F07FFE0646B5
:108C8000012E00D170BD0020FCE770B504460D46F2
:108C90002A462146182001F0A9FE0646012E00D1E1
:108CA00070BD0020FCE770B504460D4629462046FD
:108CB00001F031FC2A462146812001F05FFE064684
:108CC000012E00D170BD0020FCE770B504460D46B2
:108CD0002946204601F02AFC2A462146802001F040
:108CE0004DFE0646012E00D170BD0020FCE770B598
:108CF00004460D462946204601F074FC2A462146CA
:108D0000682001F03BFE0646012E00D170BD002018
:108D1000FCE770B504460D462A462146672001F05F
:108D20002DFE0646012E00D170BD0020FCE7F8B5EF
:108D300004460D462946204601F022FF07463946E3
:108D40006D2001F08BFE0646012E00D1F8BD0020FB
:108D5000FCE770B504460D462946204601F06CFC40
:108D60002A462146772001F009FE0646012E00D151
:108D700070BD0020FCE770B504460D462A4621462A
:108D80007C2001F0FBFD0646012E00D170BD0020C5
:108D9000FCE770B504460D462A4621467A2001F0CC
:108DA000EDFD0646012E00D170BD0020FCE770B538
:108DB00004460D462A462146752001F0DFFD064691
:108DC000012E00D170BD0020FCE7F8B505460E4627
:108DD0001746762D6ED026DC6B2D73D018DC662DF1
:108DE00050D00CDC172D3BD004DC142D2CD0152DCD
:108DF0006ED12FE0182D39D0652DF9D13CE0672DCB
:108E000046D0682D4AD0692D4ED06A2DF0D153E05E
:108E100028466C380300FEF793FE0A5C62686E74A5
:108E20007A80868C925B284677380300FEF788FEAE
:108E30001593999FA5ABB1B7BDC3C9CFD5DBE1E70A
:108E4000F3F9FFEFEEED50003946304600F04BFAF3
:108E5000044605E13946304600F0A6FA0446FFE034
:108E60003946304600F080FA0446F9E0394630468B
:108E7000FFF70BFF0446F3E03946304600F061F996
:108E80000446EDE03946304600F029F90446E7E0B3
:108E900039463046FFF73DFF0446E1E039463046AB
:108EA000FFF725FF0446DBE03946304600F06EFA56
:108EB0000446D5E049E005E039463046FFF797FE25
:108EC0000446CDE03946304600F022FA0446C7E0B9
:108ED000C5E03946304600F0ECF90446C0E03946BA
:108EE0003046FFF724FF0446BAE03946304600F02A
:108EF00036F90446B4E039463046FFF78DFE0446A5
:108F0000AEE03946304600F01DFA0446A8E0394686
:108F1000304600F0BCF90446A2E03946304600F085
:108F200002F904469CE03946304600F0EAF804466F
:108F300096E03946304600F0A8F8044690E03946FD
:108F40003046FFF734FF04468AE03946304600F0E9
:108F50008AF8044684E039463046FFF7FAFE0446B4
:108F60007EE039463046FFF705FE044678E0394694
:108F7000304600F098F8044672E039463046FFF774
:108F800008FF04466CE03946304600F0FAF8044623
:108F900066E039463046FFF7EEFE044660E03946AB
:108FA000304600F08EF804465AE039463046FFF766
:108FB0005AFE044654E039463046FFF742FE044666
:108FC0004EE039463046FFF780FE044648E0394619
:108FD0003046FFF768FE044642E039463046FFF768
:108FE000ECFD04463CE039463046FFF7D1FD04462F
:108FF00036E03946304600F0E0F8044630E03946C5
:10900000304600F0ECF804462AE022E01BE014E0D1
:109010000DE006E0FFE73946304600F0EEF8044682
:109020001EE03946304600F0FAF8044618E03946AA
:10903000304600F002F9044612E03946304600F0AE
:109040000AF904460CE03946304600F012F90446AD
:1090500006E03946304600F0A2F8044600E000BFC2
:1090600000BF2046F8BD70B504460D46294620468F
:1090700001F0ECFA2A462146762001F07FFC0646F4
:10908000012E00D170BD0020FCE770B504460D46EE
:109090002A462146742001F071FC0646012E00D1BB
:1090A00070BD0020FCE770B504460D462A462146F7
:1090B000792001F063FC0646012E00D170BD00202E
:1090C000FCE770B504460D462A4621467D2001F096
:1090D00055FC0646012E00D170BD0020FCE770B59E
:1090E00004460D462946204601F052FB2A462146F9
:1090F000662001F043FC0646012E00D170BD002021
:10910000FCE770B504460D462946204601F078FB81
:109110002A462146732001F031FC0646012E00D17B
:1091200070BD0020FCE770B504460D462A46214676
:10913000722001F023FC0646012E00D170BD0020F4
:10914000FCE770B504460D462A462146652001F02D
:1091500015FC0646012E00D170BD0020FCE7F8B5D5
:1091600004460D462946204601F00AFD07463946C9
:109170006E2001F073FC0646012E00D1F8BD0020E0
:10918000FCE770B504460D462A4621467B2001F0D7
:10919000F5FB0646012E00D170BD0020FCE770B53E
:1091A00004460D462A4621468B2001F0E7FB064681
:1091B000012E00D170BD0020FCE770B504460D46BD
:1091C0002946204601F03AFB2A462146842001F038
:1091D000D5FB0646012E00D170BD0020FCE770B51E
:1091E00004460D462A462146852001F0C7FB064667
:1091F000012E00D170BD0020FCE770B504460D467D
:109200002946204601F022FB2A462146862001F00D
:10921000B5FB0646012E00D170BD0020FCE770B5FD
:1092200004460D462A462146872001F0A7FB064644
:10923000012E00D170BD0020FCE770B504460D463C
:109240002A462146882001F099FB0646012E00D1CE
:1092500070BD0020FCE770B504460D462A46214645
:10926000892001F08BFB0646012E00D170BD002045
:10927000FCE770B504460D462A4621468A2001F0D7
:109280007DFB0646012E00D170BD0020FCE7F8B53D
:1092900004460D462946204601F072FC0746394631
:1092A000712001F0DBFB0646012E00D1F8BD002045
:1092B000FCE7F8B506460F463946304601F05AFC41
:1092C0000546002D02D101F0C9FA02E0012001F0AB
:1092D000C5FA29466C2001F0F1FA0446012C00D1B0
:1092E000F8BD0020FCE7F8B504460D4629462046A7
:1092F00001F040FC0746384601F0C2FA3946142016
:1093000001F0DCFA0646012E00D1F8BD0020FCE792
:10931000F8B506460F463946304601F02BFC0546A7
:10932000002D02D101F0B8FA02E0012001F0B4FAF8
:1093300029466B2001F0C2FA0446012C00D1F8BD89
:109340000020FCE7F8B504460D462946204601F00A
:1093500017FC07463946702001F080FB0646012EB7
:1093600000D1F8BD0020FCE7F8B504460D462946BB
:10937000204601F005FC07463946172001F06EFB38
:109380000646012E00D1F8BD0020FCE770B504466A
:109390000D462A462146692001F0F0FA0646012EC4
:1093A00000D170BD0020FCE7F8B506460F463946EF
:1093B000304601F0E2FB0546002D06D0012D05D018
:1093C000022D04D0032D04D102E003E002E001E00D
:1093D00000E000BF00BF2946152001F0A3FA0446B3
:1093E000012C00D1F8BD0020FCE7000010B51A48A0
:1093F000007D022802D11948C47A01E01648047C95
:109400001548C07D0300FEF79BFB0805080C1014EF
:10941000181C2024FCF792FB1CE02046FBF720FFE1
:1094200018E02046FCF7F2FB14E02046FCF7F4FAC3
:1094300010E02046FBF78EFF0CE02046FCF754F9C5
:1094400008E02046FCF78CF804E02046FCF722FAFE
:1094500000E000BF00BF10BDBD110020401600207D
:1094600010B5FFF7C3FF10BD002001498876704793
:109470004011002010B5012001F090FF10BD000048
:1094800000B505480078012801D0FFF7EDFF012065
:109490000149087000BD00004011002000B5002007
:1094A0000249087002F032FC00BD000040110020AB
:1094B00010B50446022003490870204602F048F91E
:1094C00010BD00004011002010B50020FBF7A8FCE3
:1094D00010BD10B50020FBF7A3FC10BD00B5C1B056
:1094E00001F0DEFFFEF7E3FE02F0C8FCFEF7CEFE61
:1094F00000F06EFDFEF7E4FF00F05CFDFF2101319E
:1095000001A8FBF7D5F804A101A8FAF7A1FE01A86C
:1095100002F071FC41B000BD65666665637420644D
:109520006174612056302E31000000000146002099
:10953000C0437047F0B5C1B00546002424E0774829
:109540000078694608700A2060437449891C095CE8
:10955000E20000A8023081540A2060436F49891C50
:1095600040188188E20000A80230101841800A20CB
:1095700060436A49891C4018C188E20000A8023093
:1095800010188180601CC4B264480078A042D6DC08
:10959000002D01D0012D24D1684600786049487023
:1095A000684601780122801CFEF7C4FD002413E008
:1095B000002D05D1E10000A802300818847109E0EF
:1095C00068460078001B401EC1B2E20000A80230CD
:1095D00010188171601CC4B268460078A042E7DCB4
:1095E0006FE0022D01D0032D24D1684600784C494C
:1095F0004870684601780022801CFEF79BFD00241D
:1096000013E0022D05D1E10000A802300818847192
:1096100009E068460078001B401EC1B2E20000A8C5
:10962000023010188171601CC4B268460078A042F4
:10963000E7DC46E0052D01D0042D42D169460978CA
:10964000481CC10F0918C905090E354A51706846F2
:1096500001780222801CFEF76DFD69460878C10F73
:1096600009184E10002412E0B44207DA301BC1B2D0
:10967000E20000A802301018817106E0A01BC1B200
:10968000E20000A8023010188171601CC4B2684664
:109690000078A042E8DC042D13D100240DE0E100A5
:1096A00000A8023008188079301AC1B2E20000A880
:1096B000023010188171601CC4B268460078A04264
:1096C000EDDC002421E0002718E00A206043134964
:1096D000891C095CFA0000A80230805C81420BD131
:1096E000F90000A80230081882790A2060430B496B
:1096F000891C4018027205E0781CC7B268460078E1
:10970000B842E2DC00BF601CC4B204480078A0424A
:10971000D9DC284602F0BAF841B0F0BD841200202E
:109720002C07002070B504460D46E0B2FDF7BAFFE5
:109730000A2C02D10D20FDF7B5FF204670BD0000B8
:1097400010B51648007D002802D100211348C175CC
:109750001248C07D0300FEF7F3F90805080B0E114F
:1097600014171A1DFBF744FC15E0FBF7BBFD12E0D4
:10977000FCF790FA0FE0FCF793F90CE0FBF7BCFE66
:1097800009E0FCF755F806E0FBF782FF03E0FCF781
:10979000F5F800E000BF00BF10BD0000BD110020C3
:1097A00010B53B480078002800D010BD3948FAF7C2
:1097B00041FD39A0FAF73EFD3648FAF73BFD092096
:1097C000334908706C20887002213148C170002133
:1097D00081807D21C900C180018110210173022196
:1097E00041730021C1817D210901018241825E21F5
:1097F00081750221C175002101832E494183818336
:10980000CC21801C81770221C1770021801E4184F8
:109810007D2149018184C184EE2122300172012120
:109820000830417000212A3881852349C18501868D
:109830004421223081740021123041703438C186B5
:109840001E49018741878C212230017700211C307D
:1098500041703C38C1871A493C308180C180FC216D
:10986000001D81710221801D4170002141807D21F8
:1098700089018180C1807021801F01740321103013
:109880004170002141800F498180C18000BF8CE779
:1098900084120020C0D8000067656E65726174652F
:1098A0005F7669727475616C5F6465766963652063
:1098B0000D000000B80B00008813000070170000B6
:1098C000581B00002823000010B50446024A034933
:1098D0002046FBF7CCFA10BDEF020000060C020098
:1098E00010B50446FF22433202492046FBF7BFFA77
:1098F00010BD0000C40A020010B504463D22024912
:109900002046FBF7B4FA10BDFF08020030B504464C
:10991000154628884018C21A00E0521A8A42FCD222
:10992000A05C30BD30B502460020002305E015786C
:10993000521C2C18E0B25C1CA3B28B42F7DB30BD8A
:1099400030B502460020002303E01578521C281889
:109950005B1C8B42F9D330BD10B50446FF220232A6
:1099600002492046FBF783FA10BD0000FA0E020000
:1099700070B5054600F012F80646002407E06000C6
:109980000549085CA84200D103E0601CC4B2B4429F
:10999000F5DB00BF204670BD34D200002B2070479D
:1099A00070B504460D4601221204D01DF830B922CC
:1099B000624380180146113101222846FBF757FA0D
:1099C00070BD70B504460D4601221204D01DF8305A
:1099D000B922624380180146123101222846FBF762
:1099E00046FA70BD70B505460C4601221204D01D22
:1099F000F830B92262438118B9222846FBF737FABA
:109A000070BD10B50446FF22012109042046FBF772
:109A10002EFA10BD10B504463D2202492046FBF740
:109A200026FA10BD7909020030B5C1B00025002426
:109A30000EE0FF220132214601A8FBF718FAFF21B0
:109A4000013101A8FEF716FC4519E01DF93084B27A
:109A5000032080038442ECDB284641B030BD000087
:109A60001FB517A11B4801F0F3FC002817D11021E6
:109A7000684600F051F81849684601F0E9FC0028F2
:109A800005D0FFF721FD02201449487004E0FFF7DC
:109A90001BFD032011494870FEF718FC0EE010A1D1
:109AA0000C48FAF707FE002805D102200B49487040
:109AB000FEF70CFC02E00020084948701FBD0000C2
:109AC0004649524D5741524520494E20464C41533C
:109AD000480000000002500020500000780F0020D5
