:020000040000FA
:10400000C81E0020054200009DDE0000794100002E
:1040100000000000000000000000000000000000A0
:104020000000000000000000000000001742000037
:1040300000000000000000001B420000816A000038
:104040001F420000214200002342000025420000E0
:1040500027420000294200002B4200009159000035
:10406000155B0000314200001DD80000E1D70000C0
:10407000374200001DD9000091D800003D420000E9
:104080003F420000995C0000ED5C00003D5D0000D7
:104090008D5D00003D71000041CE0000ED9C0000F0
:1040A0004F4200005142000053420000DD5D00001D
:1040B0002D5E00007D5E0000CD5E00005DE1000031
:1040C00000F002F800F049F80CA030C808382418B5
:1040D0002D18A246671EAB4654465D46AC4201D140
:1040E00000F03BF87E460F3E0FCCB6460126334229
:1040F00000D0FB1AA246AB463343184730A8000055
:1041000050A800000023002400250026103A01D307
:1041100078C1FBD8520700D330C100D50B6070477F
:1041200010B5642902D100F01DF910BD782902D123
:1041300000F04EF910BD632902D100F055FC10BD0E
:10414000732902D100F058FC10BD002010BD1FB52E
:1041500000F01CFA1FBD10B510BD00F07DFC11462B
:10416000FFF7F5FF05F08EFE00F095FC03B4FFF7B6
:10417000F2FF03BC02F0CAFF04207146084202D0DD
:10418000EFF3098001E0EFF308807146004A104721
:10419000859A000030B40C490C684A68236810689E
:1041A000C0181060241D121D8C4207D28A4208D20A
:1041B0000C604A6030BC4000400870470C00DC3C9A
:1041C000F6E70A00DC3AF3E76018002070B5054610
:1041D0000C46164602E00FCC0FC5103E102EFAD248
:1041E000082E02D303CC03C5083E042E07D301CC0E
:1041F00001C5361F03E021782970641C6D1C761EF2
:10420000F9D270BD1948804719480047FEE7FEE71C
:10421000FEE7FEE7FEE7FEE7FEE7FEE7FEE7FEE776
:10422000FEE7FEE7FEE7FEE7FEE7FEE7FEE7FEE766
:10423000FEE7FEE7FEE7FEE7FEE7FEE7FEE7FEE756
:10424000FEE7FEE7FEE7FEE7FEE7FEE7FEE7FEE746
:10425000FEE7FEE7FEE7FEE7FEE7FEE7FEE700001B
:1042600004480549034A054B70470000A16A000055
:10427000C1400000C8180020C81E0020C818002037
:104280000FB4054910B503AA029800F0B9FB10BCA1
:1042900008BC04B018470000840200200FB41CB50D
:1042A000074B06AA7B4469460090059800F079FB0D
:1042B0000020694600F088FB1CBC08BC04B018470D
:1042C0002107000070B5044685690068C10601D564
:1042D000302600E02026C00707D070BD6268304657
:1042E000A1689047206A401C20626D1EF6D570BD03
:1042F00070B5044685690078C00707D170BD626853
:10430000A16820209047206A401C20626D1EF6D5CF
:1043100070BD70B50C460546012A05D02878800688
:1043200000D5EA69002302E0012305E05B1C93420B
:1043300002D2E05C0028F9D1A869E618C01AA86189
:10434000286AC01828622846FFF7BCFF04E06A68A4
:104350002078A968641C9047B442F8D32846FFF738
:10436000C7FF70BDF7B5002575291068009914A620
:1043700011D0C046C046002802DA404211A608E02B
:10438000009909688A0701D50FA602E0490704D5FC
:104390000EA6012501E0C046C046009F0024243738
:1043A00004E000F041FB30313955641C0028F8D19D
:1043B0002B4632462146009800F096FAFEBD0000DA
:1043C000000000002D0000002B0000002000000075
:1043D00070B504460D4621461068C046C046218887
:1043E000090502D50F4A7A4402E00E4A7A440E3299
:1043F00023460021243305E006070009360F965DA9
:104400005E54491C0028F7D120780023000705D509
:10441000702D03D0002901D002231132204600F074
:1044200063FA70BD32A30000F3B50446002081B0EA
:1044300020622046E168884700287DD0252802D0E8
:104440006268A16883E0454F00257F442046E1680B
:1044500088472028064608DB312E06D2B8192038B6
:104460000078002801D00543F0E7A80701D5042013
:1044700085430020E0610746A0612A2E0AD030461D
:1044800002F03CFE002827D0B8000019303E009012
:10449000866119E00298BA00121902C8916102906F
:1044A0002046E1688847012F064617D1E0690028B9
:1044B0001FDA202085431CE000980A2180694843C8
:1044C00000998019303888612046E168884706469F
:1044D00002F014FE0028EFD1012F0AD02E2E08D1B1
:1044E0002046E16888470646202005437F1C022FAE
:1044F000C3DBA069002803DA4042A0610120054324
:10450000E80701D010208543002E24D030464138E2
:10451000192803D80120C002054320362046256013
:104520003146029A1546FFF7FBFD00280CD0012802
:1045300007D0ED1DE80800E00DE0C0000830029053
:1045400077E72D1D029574E762683046A1689047B1
:10455000206A401C6CE7206AFEBD0000F6A2000045
:104560000B4A30B511460B4C60310B46DC3B0CC19D
:10457000372106E0020C8D0012185A51064A5043AA
:1045800000190A46491E002AF4DC30BD0120E7E785
:1045900000180020E119D666CD0D0100034670B564
:1045A00002460B439B070FD10E4CE60100E008C208
:1045B00008C91D1B9D433542F9D0D9B21170521C58
:1045C00000290DD01B0AF8E70B78491C1370521C08
:1045D000002B05D00B78491C1370521C002BF3D113
:1045E00070BD00000101010130B5441C03E00178F9
:1045F000401C00290DD08107F9D10B4BDD0104C807
:10460000D11A91432940FAD0001B0A0603D0C01EDC
:1046100030BD001B30BD0A0401D0801E30BD090230
:10462000FCD0401E30BD000001010101F8B5042A94
:104630002CD3830712D00B78491C0370401C521EE8
:1046400083070BD00B78491C0370401C521E830754
:1046500004D00B78491C0370401C521E8B079B0F23
:1046600005D0C91ADF002023DE1B08C90AE0FFF7C6
:10467000ADFDF8BD1D4608C9FD401C46B4402C43A5
:1046800010C0121F042AF5D2F308C91A521EF0D422
:104690000B78491C0370401C521EEAD40B78491C4D
:1046A0000370401C012AE4D409780170F8BDD2B22D
:1046B00010B513029A1813049A1800F00EF810BDE2
:1046C00001E004C0091F0429FBD28B0701D5028039
:1046D000801CC90700D00270704700290BD0C307A7
:1046E00002D00270401C491E022904D3830702D560
:1046F0000280801C891EE3E70022EEE70022DFE74C
:10470000024670B50A4392072AD11E4DEE0104C835
:1047100008C9541B9443344017D0D0B2D9B2401AC0
:104720002106014310D190B299B2401A21040143ED
:104730000AD110021902000A090A401A2102014393
:1047400002D1100E190E401A70BD9A42DFD010BA75
:1047500019BA884201D9012070BD0020C04370BD44
:1047600002780B78401C491C002A09D09A4207D1D4
:1047700002780B78401C491C002A01D09A42EFD0E5
:10478000D01A70BD01010101002203098B422CD314
:10479000030A8B4211D300239C464EE003460B4391
:1047A0003CD4002243088B4231D303098B421CD3F3
:1047B000030A8B4201D394463FE0C3098B4201D3E5
:1047C000CB01C01A524183098B4201D38B01C01A1D
:1047D000524143098B4201D34B01C01A5241030994
:1047E0008B4201D30B01C01A5241C3088B4201D343
:1047F000CB00C01A524183088B4201D38B00C01AF0
:10480000524143088B4201D34B00C01A5241411A16
:1048100000D201465241104670475DE0CA0F00D0F9
:104820004942031000D34042534000229C460309F2
:104830008B422DD3030A8B4212D3FC22890112BA78
:10484000030A8B420CD3890192118B4208D3890150
:1048500092118B4204D389013AD0921100E0890968
:10486000C3098B4201D3CB01C01A524183098B4249
:1048700001D38B01C01A524143098B4201D34B0132
:10488000C01A524103098B4201D30B01C01A524195
:10489000C3088B4201D3CB00C01A524183088B421C
:1048A00001D38B00C01A5241D9D243088B4201D3A5
:1048B0004B00C01A5241411A00D201466346524190
:1048C0005B10104601D34042002B00D5494270478F
:1048D00063465B1000D3404201B50020C046C0468D
:1048E00002BD704770477047FFB504460D4681B062
:1048F000243000902168880604D51022E069914395
:10490000216000E00120A84201DD471B00E00027F4
:104910000498A1697A191018081AA0612078C006B5
:1049200002D42046FFF7CEFC002608E00398626818
:10493000A168805D9047206A401C761C2062049824
:104940008642F3DB2078C0060AD52046FFF7BAFC82
:1049500006E06268A16830209047206A401C20620F
:1049600038467F1E0028F4DC07E000986268A168E2
:10497000405D9047206A401C206228466D1E00283A
:10498000F3DC2046FFF7B4FC2078000602D50220B5
:1049900005B0F0BD0120FBE701694A1C02610878FF
:1049A000704700B58FB00291002105910549019330
:1049B00079440391114604906846FFF735FD0FB026
:1049C00000BD0000E5FFFFFF0A681070521C0A607E
:1049D000704710B54369002B02D0C046C04601E0C5
:1049E000FFF797FC012010BD1278014624310A70B0
:1049F00000224A700122ECE711680022D243E8E766
:104A0000084B70B50D467B44FFF7CBFF04462846A4
:104A100004F068FB002802D00020C04370BD20468F
:104A200070BD0000074A000001468008081A02090C
:104A30001018020A1018020C1018C0088200121870
:104A40005200891A01E0401C0A390A29FBD270473A
:104A500000487047681800207546FFF7F9FFAE461A
:104A6000050069465346C008C000854618B020B509
:104A7000FFF7F6FB60BC00274908B6460026C0C514
:104A8000C0C5C0C5C0C5C0C5C0C5C0C5C0C5403D06
:104A900049008D46704710B50446C046C0462046C2
:104AA000FFF764FB10BD70B58C180578401C6B07D0
:104AB0005B0F01D10378401C2A1106D10278401CFB
:104AC00003E00678401C0E70491C5B1EF9D12B07D1
:104AD00005D40023521E0DD40B70491CFAE703784D
:104AE000401CCB1A921C03E01D780D70491C5B1C06
:104AF000521EF9D5A142D8D3002070BD10B50121B6
:104B0000154801751548007820210843134908709D
:104B100000201349087013490875152002F09AFA0D
:104B200010200F490870002088700846807888702F
:104B300008468078082108430949887000200871D8
:104B40008871FF20C8720020887208460078012111
:104B500008430349087010BD406100402004024032
:104B60000050044040600040064A127838239A43BF
:104B7000044B1A701A461278C3001A43014B1A707C
:104B800070470000005004400B4A1278520852004F
:104B9000094B1A70002803D180220A439A7103E05E
:104BA000C0220A43044B9A71034A127801231A4324
:104BB000014B1A70704700000050044010B50446C5
:104BC0000B48047200200B490875152002F042FAC8
:104BD000002109480175064880798011032805D015
:104BE00003480078802108430149087010BD000087
:104BF00000500440406000404061004000B5C022C9
:104C00009178F8221140144A1278114313480A4649
:104C1000E03A130002F0F8F90E0A0E12161A1E1EE0
:104C20001E080C1014181C1E0D4813E00D4811E04E
:104C30000D480FE00D480DE00D480BE00D4809E070
:104C40000D4807E00D4805E00D4803E00D4801E080
:104C50000D4800BF00BF00BD201C024040420F00B5
:104C60000090D003006CDC020048E80100366E01C1
:104C70000024F400001BB70000127A00808D5B0056
:104C800000093D00C0C62D0080841E0070B50B4B8E
:104C90000146C417640F6418E4101C5D0246C51772
:104CA0006D0FAD18ED10ED00461B0125B5402C43EE
:104CB000C5176D0F6D18ED105C5570BD00500040AC
:104CC000FFB583B00D9A120F120701239B079A427A
:104CD00002D10022009201E0012200920E9A120FEE
:104CE000120701239B079A4201D1002400E001240E
:104CF000009A002A01D1012200E000222240002A6D
:104D000002D0002201920DE0002C01D1012200E02E
:104D10000022009B1A40002A02D00122019201E0E9
:104D2000002201920122520782181170069A920104
:104D30002032E3001A43009B9B001A43019B5B0057
:104D40001A43059B1A43204B0D015A5301231E4A57
:104D50000D01521953801C4B0D015B190C9A9A805E
:104D6000194B0D015B190C9ADA80174A0D01521983
:104D70000D9B9360144A0D0152190E9BD360134A88
:104D8000927E08231A43114B9A769A04104B9A602C
:104D90001A4602920246C5176D0FAD18EE10029D1D
:104DA000AD5D0346C617760FF618F610F600871BA2
:104DB0000126BE403543C617760FB618F710029E7F
:104DC000F55507B0F0BD00002000002000080240AB
:104DD0000050004070B50B4B0146C417640F6418B7
:104DE000E4101C5D0246C5176D0FAD18ED10ED0007
:104DF000461B0125B540AC43C5176D0F6D18ED106E
:104E00005C5570BD0050004030B5F1210B4AD160B7
:104E10000A4B10330146C417640F6418E410E40011
:104E2000051B0124AC400246C5176D0FAD18ED10EF
:104E30005C550021014AD16030BD000000500040A7
:104E400010B5044600F008FA00F02AF9002002F03C
:104E5000C5F80A2008F058FED82001F053FDFF21C4
:104E600009042140080C01F04DFDFF2109022140F9
:104E7000080A01F047FDE0B201F044FD012002F014
:104E8000ADF80A2008F040FE00F00AF910BD70B538
:104E900005460C46164602F0B1F8002002F09EF8D6
:104EA0000A2008F031FE032001F02CFDFF21090447
:104EB0002140080C01F026FDFF2109022140080ACB
:104EC00001F020FDE0B201F01DFD04E0552001F0ED
:104ED00019FD28706D1C3046711E8EB20028F5D168
:104EE000012002F07BF80A2008F00EFE70BD10B51C
:104EF00000F0B2F9002002F071F80A2008F004FE78
:104F0000C72001F0FFFC012002F068F80A2008F039
:104F1000FBFD00F0C5F810BD10B5044602F06EF8B8
:104F200000F09AF900F0BCF8002002F057F80A20CF
:104F300008F0EAFD812001F0E5FCFF210904214091
:104F4000080C01F0DFFCFF2109022140080A01F0F2
:104F5000D9FCE0B201F0D6FC012002F03FF80A20B3
:104F600008F0D2FD00F09CF810BD70B505460C4667
:104F7000164602F043F800F06FF9002002F02EF818
:104F80000A2008F0C1FD022001F0BCFCFF21090449
:104F90002140080C01F0B6FCFF2109022140080A5B
:104FA00001F0B0FCE0B201F0ADFCFF200130864220
:104FB00000DD064603E0287801F0A4FC6D1C3046B5
:104FC000711E8EB20028F6D1012002F007F80A20E7
:104FD00008F09AFD00F064F870BDF8B504460D467F
:104FE000164602F00BF82F460094324639460098D8
:104FF000FFF71CFBF8BD704770477047704770475C
:105000004C31303031000000000000000000000092
:105010004150505F4D415354455200000000000084
:10502000312E302E3035000000000000000000005E
:105030004F637420333120323032330000000000DF
:1050400031373A35363A34340000000000000000B1
:105050004A4F454C2E4348454E00000000000000DA
:105060000000000000000000000000000000000040
:105070000000000000000000000000000000000030
:105080000000000000000000000000000000000020
:105090000000000000000000000000000000000010
:1050A00010B50024002001F099FF0A2008F02CFD23
:1050B000052001F027FC00BF552001F023FC044629
:1050C000E007C00F0028F7D1012001F087FF0A2078
:1050D00008F01AFD10BDF7B5FFB085B08598839034
:1050E000002754E001F08AFF8398C505ED0D8398F1
:1050F000401B809001204002441B8698C01B86B252
:105100008498C0198290684640198190B4421FDB90
:10511000002D03D101204002864205D00122520217
:1051200068468099FFF759FF324682998198FFF7C8
:105130007DFA809808F0BDFF6A46012149028098F7
:1051400008F0E1FF839880198390B81987B21EE0B8
:10515000002D03D101204002844205D001225202D9
:1051600068468099FFF739FF224682998198FFF7B8
:105170005DFA809808F09DFF6A46012149028098F7
:1051800008F0C1FF839800198390381987B2869878
:105190008742A7DB7FB008B0F0BDF7B5C4B0459833
:1051A0004390002753E001F029FF4398C5B243988C
:1051B000401B4090FF200130441B4698C01B86B224
:1051C0004498C0194290684640194190B4421FDB90
:1051D000002D03D1FF200130864205D0FF2201328D
:1051E00068464099FFF753FE324642994198FFF7CF
:1051F0001DFA4098FFF790FEFF2201326846409961
:10520000FFF7B3FE439880194390B81987B21EE0A8
:10521000002D03D1FF200130844205D0FF2201324E
:1052200068464099FFF733FE224642994198FFF7BE
:10523000FDF94098FFF770FEFF2201326846409961
:10524000FFF793FE439800194390381987B24698A8
:105250008742A8DB47B0F0BD10B5002001F0BEFECC
:105260000A2008F051FC062001F04CFB012001F05F
:10527000B5FE0A2008F048FC10BD000070B5184CBF
:10528000247E6406240E174D2C72FF246C810124A9
:105290002C732C46247A6D896D1C6C43114D2C6146
:1052A0002C1F6168104B002214E0002005E01C78E0
:1052B0000C70491C5B1C441CA0B20428F7DB0020C6
:1052C00004E000240C70491C441CA0B20428F8DB44
:1052D000541CA2B2024C247E9442E6DC70BD000055
:1052E00078110020200B0020440B002070B5154CD5
:1052F000247E154D2C72154C6478641C25022C1BE1
:10530000114D6C8101242C732C46247A6D896D1CFF
:105310006C430D4D2C612C1F63680D4A00200BE07F
:10532000002105E014781C705B1C521C4C1CA1B2BF
:105330000429F7DB441CA0B2034C247A8442EFDC3E
:1053400070BD000078110020200B00201C070020F9
:10535000440B002070B5134C247E134D2C72FF2497
:10536000F5346C8101242C732C46247A6D896D1CD4
:105370006C430D4D2C612C1F63680C4A00200BE020
:10538000002105E014781C705B1C521C4C1CA1B25F
:105390000429F7DB441CA0B2034C247A8442EFDCDE
:1053A00070BD000078110020200B0020440B00206D
:1053B00070B5144C247E144D2C722C46247A250290
:1053C0002C1B114D6C8101242C732C46247A6D8981
:1053D0006D1C6C430C4D2C612C1F63680B4A002024
:1053E0000BE0002105E014781C705B1C521C4C1C67
:1053F000A1B20429F7DB441CA0B2034C247A8442F6
:10540000EFDC70BD78110020200B0020440B002041
:1054100070B52248007822494870002438E00A20FC
:1054200060431E49891C4018047201F019FA0646AF
:105430001C48017E3046FFF7B1F9CDB2A80029180B
:10544000184819300818417816206043164A11543C
:10545000A8002918134819300818817816206043CD
:1054600080188170A80029180E4819300818C178D2
:105470001620604380180171A800291809481930C6
:10548000081801791620604380188171601CC4B22D
:1054900002480078A042C2DC70BD00003212002039
:1054A0001C070020781100202004002070B5224C39
:1054B000247E6400641E214D2C72FF246C81012423
:1054C0002C732C46247A6D896D1C6C431B4D2C610A
:1054D0002C1F63681A4800210BE0002205E00478C5
:1054E0001C705B1C401C541CA2B2042AF7DB4C1C31
:1054F000A1B2114C247E8C42EFDC0F4C247E012C97
:1055000019DD0F480C4C247EA41EA40000190021B4
:105510000CE0002205E004781C705B1C401C541C4D
:10552000A2B2042AF7DB08384C1CA1B2024C247E3C
:10553000641E8C42EDDC70BD78110020200B002031
:10554000440B0020F8B53E4800783E4948700024DE
:1055500071E00A2060433A49891C40180472002611
:10556000002531E00A2060433549891C095CA80008
:105570002A183548805C814224D1A8002918324875
:105580000818417816206043304A1154A8002918A1
:105590002D48081881781620604380188170A80073
:1055A000291829480818C17816206043801801710D
:1055B000A80029182448081801791620604380188B
:1055C00081710126681CC5B21F481938007EA842A7
:1055D000C8DC002E2DD101F043F907461A481938CE
:1055E000017E3846FFF7DAF8CEB2B000311816481F
:1055F0000818417816206043144A1154B00031183D
:105600001148081881781620604380188170B00016
:1056100031180D480818C1781620604380180171B0
:10562000B000311808480818017916206043801826
:105630008171601CC4B202480078A04289DCF8BDC8
:10564000321200201C0700209111002020040020AD
:1056500070B5124C247E124D2C72FF246C810124F3
:105660002C732C46247A6D896D1C6C430C4D2C6177
:105670002C1F63680B4A00200BE0002105E0147822
:105680001C705B1C521C4C1CA1B20429F7DB441C8F
:10569000A0B2034C247A8442EFDC70BD7811002064
:1056A000200B0020440B00208278012A03D1C2780D
:1056B000024B1A7000E0704700BFFCE7180400209E
:1056C00030B502469378012B16D100200EE0D57834
:1056D0000A234343094CE35C9D4205D115790A2313
:1056E00043431B195D7006E0431CD8B2034B9B1E5D
:1056F0001B788342EBDC00BF30BD00003412002079
:1057000010B503220021022000F0F2FF0022114612
:10571000042000F0EDFF002207210D2000F0E8FF3B
:10572000042202210C2000F0E3FF002201210C20C2
:1057300000F0DEFF032206210D2000F0D9FF002239
:1057400006210D2000F0D4FF01221146022000F0B6
:10575000CFFF03220221084600F0CAFF00220321E6
:10576000022000F0C5FF04220021012000F0C0FF4C
:1057700000220121084600F0BBFF04220221012083
:1057800000F0B6FF04220321012000F0B1FF042243
:105790001146012000F0ACFF042211460C2000F05D
:1057A000A7FF042203210C2000F0A2FF10BD30B59A
:1057B00013460C780578AC4209DD0478E2180C78C1
:1057C000944202D20C78047017E0027015E004785D
:1057D0000D78AC420FDD04789C4209DD0478E21AB2
:1057E0000C78944202D90C78047006E0027004E050
:1057F0000C78047001E00C78047030BD7FB51A4D50
:1058000000201A49087000240DE029782D1DC8B227
:10581000694608556846005D1449097840181349DF
:105820000870601CC4B2102CEFDB10480078FA2816
:1058300004DD0E4800780A300C49087000200C493D
:105840000870002408E06846005D0949097840189E
:1058500007490870A01CC4B2102CF4DB044800787F
:10586000FEF77EFE7FBD0000940850003602002047
:105870003B02002001210548017705488088084344
:105880000349888000200349087770470061004081
:10589000601504400060004008B5002016490870FB
:1058A00016488088012108431449888008464089A9
:1058B00013490840114948810846008910490840A9
:1058C0000E49088108460089891508430B4908815B
:1058D0000020009005E000BF68460078401CC1B27F
:1058E0000091684600780E28F5D904480089012106
:1058F00008430249088108BD6C030020601504407C
:10590000FEFF000001210648017006488088022140
:10591000084304498880002003490870704700004C
:1059200020610040601504402060004008B5164822
:105930008088022108431449888008464089134919
:1059400008401149488108460089104908400E491D
:10595000088108460089491508430B490881002041
:10596000009005E000BF68460078401CC1B200917D
:10597000684600780E28F5D90348008902210843BB
:105980000149088108BD000060150440FDFF0000CA
:1059900010B55648008802210840022807D1544813
:1059A0000088002803D0022004F014F99AE04F4840
:1059B0000088C007C00F002807D04D480088002885
:1059C00003D0052004F006F98CE04A480078C007AF
:1059D000C00F002818D04648008800280FD046483D
:1059E000006800784549087243480068401C4249F5
:1059F00008603F480088401E3D49088072E0FFF77C
:105A00004BFF04F0F3F86DE03A48007804210840B9
:105A1000002832D13548203080880121084333499D
:105A2000203188803148008B8004800C2F49088306
:105A30000846008B0121890308432C4908832B4821
:105A400020304088012108432849203148802948D6
:105A50000078042108432749087029480088012854
:105A600007D1224820304089264908401F4920316B
:105A70004881FF202149087234E0234800882049EA
:105A8000098888422EDA1D48007A20490968087082
:105A90001E480068401C1D4908601B480088401CC7
:105AA0001949088016480088401E098888420BD191
:105AB0000E4820304089134908400C492031488164
:105AC000FF200E4908720DE00F4800880C49098834
:105AD000884204D1FFF7E0FE04F07EF802E0FF20E8
:105AE0000649087200200A49087710BD4015044095
:105AF000740300206C030020700300204017044052
:105B00007E030020FEFF00007C03002078030020BD
:105B10000060004010B55648408802210840022825
:105B200007D154480088002803D0022004F068F808
:105B30009AE04F484088C007C00F002807D04D4862
:105B40000088002803D0052004F05AF88CE04A4869
:105B50000078C007C00F002818D0464800880028E9
:105B60000FD046480068007845498872434800686D
:105B7000401C424908603F480088401E3D4908805B
:105B800072E0FFF7D3FE04F047F86DE03A48007882
:105B900004210840002832D1354820308088022175
:105BA00008433349203188803148408B8004800C81
:105BB0002F4948830846408B0121890308432C491B
:105BC00048832B482030408802210843284920314F
:105BD000488029480078042108432749087029484B
:105BE0000088012807D122482030408926490840F2
:105BF0001F4920314881FF202149887234E0234821
:105C000000882049098888422EDA1D48807A204978
:105C1000096808701E480068401C1D4908601B4840
:105C20000088401C1949088016480088401E0988D1
:105C300088420BD10E4820304089134908400C4956
:105C400020314881FF200E4988720DE00F480088FE
:105C50000C490988884204D1FFF768FE03F0D2FF9F
:105C600002E0FF200649887200200A49087010BD32
:105C70004015044088030020800300208403002096
:105C80004017044092030020FDFF00009003002015
:105C90008C0300202060004010B500200E490871E0
:105CA0000E480068401C0D4908600D480088C00778
:105CB000C00F002808D00B48008B401C01210904AC
:105CC00040180949086004E00648008B401C06495A
:105CD0000860FFF793F910BD40600040BC0300204E
:105CE000A01D0440001F0440AC03002000200E490A
:105CF00008720E480068401C0C4908600C48408837
:105D0000C007C00F002808D00A48408B401C012162
:105D1000090440180849086004E00648408B401C0C
:105D2000054908607047000040600040C003002043
:105D3000A01D0440001F0440B003002000200E49B5
:105D400008730E480068401C0C4908600C488088A5
:105D5000C007C00F002808D00A488088401C0121D5
:105D6000090440180849086004E006488088401C7F
:105D7000054908607047000040600040C4030020EF
:105D8000A01D0440601F0440B403002000200E4901
:105D900008740E480068401C0C4908600C48C08814
:105DA000C007C00F002808D00A48C088401C012145
:105DB000090440180849086004E00648C088401CEF
:105DC000054908607047000040600040C80300209B
:105DD000A01D0440601F0440B803002000200E49AD
:105DE00008730E480068401C0C4908600C48008885
:105DF000C007C00F002808D00A48008B401C0121B2
:105E0000090440180849086004E00648008B401C5B
:105E1000054908607047000060600040DC03002016
:105E2000A021044000230440CC03002000200E49A0
:105E300008740E480068401C0C4908600C484088F3
:105E4000C007C00F002808D00A48408B401C012121
:105E5000090440180849086004E00648408B401CCB
:105E6000054908607047000060600040E0030020C2
:105E7000A021044000230440D003002000200E494C
:105E800008750E480068401C0C4908600C48808862
:105E9000C007C00F002808D00A488088401C012194
:105EA000090440180849086004E006488088401C3E
:105EB000054908607047000060600040E40300206E
:105EC000A021044060230440D403002000200E4998
:105ED00008760E480068401C0C4908600C48C088D1
:105EE000C007C00F002808D00A48C088401C012104
:105EF000090440180849086004E00648C088401CAE
:105F0000054908607047000060600040E803002019
:105F1000A021044060230440D80300201D4A1278C9
:105F200080231A431B4B1A70002802D100221A4BFF
:105F30001A77012808D10122174B1A77154AD2780F
:105F400010231A43134BDA70022802D1A222124BFB
:105F50001A77032802D182220F4B1A77042802D124
:105F6000C2220D4B1A77052802D103220A4B1A7759
:105F7000062802D14322084B1A770022074B1A82C7
:105F80000123074A13770022064B1A77034A11822E
:105F9000704700002004024060040440404F044069
:105FA000406100404060004010B500200B49087778
:105FB000172001F05BF80021094801770948008AA1
:105FC0000121C90308430749088200BF0548008A28
:105FD0000121C90308400028F8D010BD40600040EE
:105FE00040610040404F04401FB50520FEF7F2FE1F
:105FF0000220FEF7E3FD03A91E480122134600928A
:106000000291019000220E210520FEF759FE00BFEB
:10601000194880880028FBD1684680891749884242
:1060200002DD002004B010BD684680891449884212
:1060300001DD0520F6E7684680891149AC398842C0
:1060400001DD0420EEE7684680890E49884201DDC3
:106050000320E7E7684680890B49884201DD02207A
:10606000E0E7684680890949884201DD0120D9E7D7
:106070000020D7E70E50044000010020AC0E0000C5
:10608000110D0000540B000054090000FF03000034
:1060900010B5454800780221084000280ED043483A
:1060A0008078012803D100204049887002E0012057
:1060B0003E49887005F086FA01F0A2FD3C48007860
:1060C00002210840002801D001F09CFD39480078E9
:1060D00002210840002801D001F098FD36480078E0
:1060E0000221084000280CD001F094FD0523334A1A
:1060F0002E49491D481D00F0B0FA06F029FF04F0B2
:1061000065FE2F48007802210840002801D001F0E8
:1061100085FD2548007840210840002806D001F080
:1061200070FD04F0BBFD27A0FEF7AAF81E4800781A
:10613000DD2108401C4908701D480078DD21084019
:106140001B4908701B480078DD2108401949087078
:1061500019480078DD210840174908701848007870
:10616000DD210840164908700F480078B321084027
:106170000D4908700E480078B32108400C4908709A
:106180000C480078B32108400A4908700A48007892
:10619000B32108400849087009480078B321084035
:1061A0000749087010BD0000E00600200A11002019
:1061B000EC060020F80600200407002017E7000086
:1061C00010070020726573657420776966690D0A8F
:1061D000000000003EB5FFF707FF04460020012144
:1061E000322202230092019102900A4621461A4867
:1061F00000F03CF80020012132220223009201919C
:1062000002901A462146154800F030F8002001217E
:10621000322202230092019102900322214610486B
:1062200000F024F800200121322202230092019183
:106230000290042221460B4800F018F800200121AA
:106240003222022300920191029005222146064843
:1062500000F00CF83EBD0000E0060020EC06002037
:10626000F80600200407002010070020FFB50C46A8
:10627000099D00210023504F4668BE4202D2466865
:10628000761C46604668AE4217D30A9E002E08D0A0
:1062900047680A9EAE19B74203D96E1C46600426B1
:1062A00031434668AE4201D144263143944213D073
:1062B0000C263143002646600EE04768039EB74235
:1062C00006D9944208D0022631430026466003E0F6
:1062D000944201D000264660944201D10126314308
:1062E0000B9E002E54D002260E40002E03D0FD2619
:1062F000314010263143067810273E40002E34D01E
:106300002D4F8668BE4202D28668761C86608768FA
:106310000B9EB7421BD910260E40002E08D0EF2648
:106320003140202631430678EF273E40067007E0D3
:1063300002263143EF2631400678EF273E400670B3
:10634000002686600678EF273E4006700DE0102696
:106350000E40002E09D020263143EF26314006782A
:10636000EF273E4006700026866006783E273E40B6
:1063700033460678F607360E067006781E4306701A
:106380000678BE273E40067006780E43067011E080
:1063900006780E273E4033460678F607360E06701E
:1063A00006781E43067006788E273E4006700678F3
:1063B0000E430670FFBD0000FFFF000010B58E48C1
:1063C0000078401CC0B28C490870322801DD0120E1
:1063D0000870032089494871087108460078002830
:1063E00002D00120487010E084484078032803D090
:1063F00082484078022805D180488068FF212D31ED
:10640000884202D300207D49487004F041FC7B495A
:10641000887008468078022803D0084680780328D0
:106420000CD177480088401C80B27549088000284C
:1064300007D108460088401E088002E0002070490D
:1064400008806F4800886F49884202DD01206B494F
:1064500008716A488078030000F0D6FD0705090D31
:106460001115222327000220644948711EE00220F2
:10647000624948711AE001206049487116E0012024
:106480005E49487112E06048007A012803D100207B
:106490005A49487103E0032058494871087105E0E2
:1064A00004E002205549487100E000BF00BF534896
:1064B000C078002805D05448007A012801D14F49FE
:1064C00008714E484078032802D100204B4948719A
:1064D0004A484078022804D10020484948710220E7
:1064E000087146484078012803D104204349487187
:1064F00008710C2140480078FEF750F9002934D18A
:106500003E484079022807D100BF4048007B08215F
:1065100048403E49087300BF38480079022807D137
:1065200000BF3A48007B102148403849087300BF3B
:1065300032484079042818D100BF3448007B082134
:1065400048403249087300BF0846007B08210840D4
:10655000002805D000BF10212C487030017304E0E2
:1065600000BF10212948017700BF3221224800785E
:10657000FEF714F9002917D120484079012807D1E6
:1065800000BF2248007B082148402049087300BF13
:106590001A480079012807D100BF1C48007B102150
:1065A00048401A49087300BF14484079002805D1B3
:1065B00000BF082115487030017300BF0F484079B3
:1065C000032804D100BF08211048017700BF0B4801
:1065D0000079002805D100BF10210C4870300173EC
:1065E00000BF06480079032804D100BF10210748E6
:1065F000017700BF10BD000014040020680F0020C8
:1066000016040020B80B00000A110020000004400E
:1066100000200849087100BF10210748017300BF1E
:1066200003200449487100BF0821034870380177EE
:1066300000BF7047680F00207000044030B503466B
:10664000002006E01C780D5CAC4200DC03E0441C3A
:10665000E0B29042F6DB00BF30BDFFB50D461746F5
:106660001E46701EC2B239460098FFF7E7FF044687
:106670002878002809DD601CC1B20C46701E8142DA
:106680000BDBC4B20020287007E0002C01D0601E94
:10669000C4B2002C01D101202870395D009801702E
:1066A000FFBD000010B510488078012812D10E48B7
:1066B0006E30007D022804D10C48017D0A48C1706B
:1066C00010E00948817A01710A22011DC01CFFF700
:1066D0006EF807E00021044801710A22011DC01C68
:1066E000FFF765F810BD00000A1100206E170020AA
:1066F00070B50C4615460123A340D9B22A462B009B
:1067000000F082FC070527435F65788CAA00534B95
:106710001B5C8B43514E3354504B403B1B5C0B4333
:106720004E4E403E33544D4B103B1B5C8B434B4E07
:10673000103E3354494B303B1B5C8B43474E303E3D
:106740003354464B203B1B5C8B43444E203E33541A
:1067500082E0424B1B5C8B43404E33543F4B403BEB
:106760001E5C0E431E543D4B103B1E5C8E431E545C
:106770003A4B303B1B5C0B43384E303E3354374B67
:10678000203B1E5C8E431E5466E0344B1B5C8B43E7
:10679000324E3354314B403B1E5C0E431E542F4B44
:1067A000103B1B5C8B432D4E103E33542B4B303B28
:1067B0001E5C8E431E54294B203B1E5C8E431E5490
:1067C0004AE0264B1B5C0B43244E335444E0234BDE
:1067D0001E5C8E431E54214B403B1B5C8B431F4E63
:1067E000403E33541D4B103B1B5C8B431B4E103EF5
:1067F000335431E0194B1B5C8B43184E3354174B09
:10680000403B1B5C8B43154E403E3354134B103BB7
:106810001B5C0B43114E103E33541DE00F4B1B5CB1
:106820008B430E4E33540D4B403B1E5C0E431E54A7
:106830000A4B103B1B5C8B43084E103E3354074BF6
:10684000303B1E5C8E431E54044B203B1B5C0B43B1
:10685000024E203E335400BF00BF70BD60000440B4
:1068600010B50848007808490978401805490870AB
:10687000FDF790FC03490978401802490870084662
:10688000007810BD3A0200203B020020002804D00E
:1068900000BF082204494A7405E000BF08220249EB
:1068A00070314A7000BF70470000044010B50122EB
:1068B00011461046FFF71CFF042202210120FFF7BA
:1068C00017FF042203210120FFF712FF04221146C3
:1068D0000120FFF70DFF012000F080FB0020FFF7F3
:1068E000D5FF10BD002804D000BF042204494A741B
:1068F00005E000BF0422024970314A7000BF7047B2
:106900000000044070B5034600250026FF2400BFA8
:106910001FE080201840C6095806030E6006040ECA
:106920000020FFF7B3FF3046FFF7DCFF012007F040
:10693000EBF80120FFF7AAFF012007F0E5F808486F
:10694000407802210840002801D0601CC4B2681CB5
:10695000C5B2082DDDDB0020FFF798FF204670BD93
:106960000000044010B538480068401C36490860F3
:1069700036480078012108433449087006F0FEF8D3
:1069800031480078C007C00F002805D12F48007893
:10699000022108432D49087005212B480068FDF7A6
:1069A000F3FE002905D1294800780421084327492E
:1069B0000870072124480068FDF7E6FE002905D18C
:1069C00022480078082108432049087019211E48F0
:1069D0000068FDF7D9FE002905D11C480078102178
:1069E00008431A490870322117480068FDF7CCFEA9
:1069F000002905D115480078202108431349087063
:106A00007D2111480068FDF7BFFE002905D10F4820
:106A10000078402108430D490870FA210A480068AF
:106A2000FDF7B2FE002905D108480078802108430F
:106A300006490870044800680549884202D30020CE
:106A40000149086010BD00006402002033020020EC
:106A5000AC0D000010B500200849087006F00AFED1
:106A6000FEF7CCFE04F010FE04F062FF06F09AFC84
:106A700004F0A6FF02F0FEFF10BD0000200200207F
:106A800002480068401E0149086070471802002053
:106A900000B5FEF7B3F80149086000BD1C040020F2
:106AA00000B580201B4948711A201A492039087303
:106AB0002B2048733C2088734D20C8730020164952
:106AC0004860FEF79BF8154908600020C043144950
:106AD00008601449086014481449086011490322E9
:106AE0001202891848600F49891888600D49891871
:106AF000C8600C49891808610A4989184861094920
:106B00008918886107498918C861AC20084948700C
:106B100000BD00002004024000B001401C04002021
:106B200080E200E000E100E0C0C0C0C000E400E09E
:106B300000100240F8B505460E466A463146284622
:106B400000F0FEF90446002C1FD103201049888074
:106B50000846C08800090001C8800846C088694608
:106B6000097808430A49C880684640784006000C06
:106B700008490882684640784006000C488204486C
:106B8000408803210843024948802046F8BD0000A0
:106B9000201104400013044070B505460E463C48E1
:106BA0000078042108433A49087003203949C88015
:106BB000222038492039088237480883672040025C
:106BC000364908823648007C01210843344908745C
:106BD0000720304920394881FF202330488231483E
:106BE0004883672040022D4948822A4800890121B4
:106BF0000843284908810846808A2B4908402549CE
:106C0000888208464089012108432249488100BF03
:106C10000520264908722648407801210843244966
:106C200048702348203040784008400020492031F7
:106C300048701F484030407C400840001C494031AB
:106C400048741B4860304078400840001849603163
:106C5000487000BF00BF0E2014496031087214480C
:106C6000203080780821084311492031887010486D
:106C700060308078082188430D496031887000BFFA
:106C800031462846FFF756FF0446204670BD0000F7
:106C900020040240201104409780000000130440AB
:106CA0006004044097400000FEFF0000000804401C
:106CB000000004400449087400BF044909886022A8
:106CC00011400029F9D1704700130440001104401D
:106CD000F8B505460E466A463146284600F030F9BA
:106CE0000446002C19D10C200D4988806846007894
:106CF000502108430A49C880684640784006000C85
:106D000008498880684640784006000CC8800448DE
:106D100040880C210843024948802046F8BD000005
:106D2000201104404013044070B505460E46434808
:106D300000780421084341490870414880880C21AB
:106D400008433F49888001213E480175017601775B
:106D500000203D490875087608773C4838492039B5
:106D600088823A4875308883672040023849888095
:106D70003848007C0421084336490874072030490C
:106D80002039C8813448C8823448C883672040020B
:106D90002F49C8802A4800890421084328490881CE
:106DA0000846808A2E49084025498882084640893D
:106DB000042108432249488100BF0A2029498870DC
:106DC0002948007B042108432749087326482030BE
:106DD000007B042188432449203108732248403035
:106DE000007F042188432049403108771E486030E5
:106DF000007B042188431C496031087300BF00BF39
:106E00000C2018492031C87317482030807802219F
:106E1000084315492031887013486030807802217A
:106E2000884311496031887000BF31462846FFF71A
:106E30004FFF044600F05CF8204670BD200402407D
:106E400020110440206100402060004022800000AA
:106E50004013044060040440228100009740000079
:106E6000FBFF0000400804400000044010B502464B
:106E70000020002901D1812006E00023034C23805B
:106E8000034B1980034B1A6010BD0000F002002074
:106E9000F2020020EC02002010B50246002000297A
:106EA00001D181201AE00E4B1A600E4B198001238C
:106EB0000D4C23700A4B1B681B780C4C2371084B3C
:106EC0001B685B1C064C2360064B1B885B1E054C35
:106ED000238000BF044B1B78002BFBD110BD0000AA
:106EE000E4020020E80200202E02002040130440AB
:106EF00010B510480089042108430E49088108464E
:106F00004089042108430B494881084640880C21E8
:106F100008430849488000200749087508760D2075
:106F200000F08CF80E2000F089F80021034801756C
:106F3000017610BD20110440206000402061004017
:106F4000F7B584B014468020039000263DE0700021
:106F5000204A115A0498FDF717FC0190022730E0EF
:106F6000791C0198FDF710FC410802911A4A029918
:106F7000514308460599FDF707FC1749451AE121D9
:106F80004902059888420DD1281E01DB014600E028
:106F90004142462913DA2670677000200390039857
:106FA00007B0F0BD281E01DB014600E04142142974
:106FB00005DA26706770002003900398F0E7781CCC
:106FC000C7B2802FCCDB701CC6B2102EBFDB03987B
:106FD000E6E70000D6E2000010270000002804D0F9
:106FE00000BF102204494A7405E000BF1022024984
:106FF00070314A7000BF704700000440AC20014966
:10700000487070470010024030B47446641E257802
:10701000641CAB4204D3635D5B00E31830BC1847CB
:107020001D46F8E7002805DBC206D20E012191407B
:10703000014A11607047000080E200E0002805DB93
:10704000C206D20E01219140014A11607047000032
:1070500080E200E0002805DBC206D20E012191404B
:10706000014A11607047000080E200E0002805DB63
:10707000C206D20E01219140014A11607047000002
:1070800080E200E010B5002819DB1A4A03231B0236
:10709000D21883089B00D2588307DC0EFF23A3403D
:1070A0009A438B071B0E8407E40EA3401A43114B2F
:1070B000032424021B198408A4001A5118E00E4A64
:1070C00003071B0F083B9B089B00D2588307DC0E6D
:1070D000FF23A3409A438B071B0E8407E40EA340B3
:1070E0001A43054B0407240F083CA408A4001A51B6
:1070F00010BD000000E100E01CED00E030380A287F
:1071000001D201207047002070470000002803D002
:107110000449054A116202E00121034A116200BFDD
:10712000FEE70000AD0B0000008002400020024995
:107130000870487070470000740F00200020044958
:10714000087504480068401C024908607047000048
:1071500040600040F403002030B5FFB0BEB00546EB
:107160000C46214626A0FDF78BF801A802F086F90F
:1071700068460079002812D068460079A04201DBF9
:107180001E2C0CDB214624A0FDF77AF82B4A2CA1FB
:1071900035A0FDF775F800207FB03EB030BD192155
:1071A000614301AA0132881819222946FDF73EFAE7
:1071B00068460079A04209D168460079401CC1B2F6
:1071C000684601712CA0FDF75BF813E06846007972
:1071D000A04203DD2EA0FDF753F80BE021460EA0E0
:1071E000FDF74EF8154A103215A11FA0FDF748F81B
:1071F0000020D1E701A805F04BFE0120CCE70000FC
:107200006164645F636C6F636B5F7363686564750F
:107210006C652025640D00005B6572726F725D20E5
:107220006164642077726F6E67207363686564754C
:107230006C65206E756D203A25640D00EF0300002B
:107240002E2E5C555345525C65787465726E616C88
:107250005F6D656D6F72795C757365725F6D656D7D
:107260006F72792E630000004572726F723A257357
:107270002C25640D0A000000616464206E6577208F
:10728000636C6F636B207363686564756C650D0078
:10729000757064617465206F6C6420636C6F636BE0
:1072A000207363686564756C650D000010B5C0B02F
:1072B0000446214601A802F051F9012069464876AA
:1072C000214601A805F006FE30A802F05FF907A0EC
:1072D000FCF7D6FF214630A800F01CF830A805F0D6
:1072E0002DFE05F001F8012040B010BD616464205E
:1072F00065666E756D20696E206661766F72697461
:107300006573206566666563742072616E6B6C6977
:1073100073740D0070B590B004460E464021684667
:10732000FDF7ECF900206946087020783C2809D95F
:107330001FA0FCF7A5FF217827A0FCF7A1FF0020E4
:1073400010B070BD00250FE0601C405DB04209D058
:10735000601C415D68460278501CC3B268460370E9
:10736000401C8154681CC5B22078A842ECDC6846F9
:1073700000782178884214D168460178401C465430
:1073800068460078401CC1B2684601703D226946DB
:107390002046FDF74BF9314612A0FCF771FF0120A2
:1073A000CEE731461BA0FCF76BFF0120C8E70000C9
:1073B000616464206E756D62657220696E20656619
:1073C000666563742072616E6B206C6973742065EE
:1073D00072726F720D0000005B6E756D3A25645D10
:1073E0000D000000616464206E756D626572206935
:1073F0006E206566666563742072616E6B206C69D1
:107400007374207375636365737366756C203A25B6
:10741000640D00004572726F723A206164642065E9
:1074200078697374696E67206E756D626572206924
:107430006E2072616E6B206C6973743A25640D0066
:107440007FB504460E460020009001900290039004
:107450006946087020780D2809D91FA0FCF710FF95
:10746000217825A0FCF70CFF002004B070BD00259A
:107470000FE0601C405DB04209D0601C415D684671
:107480000278501CC3B268460370401C8154681CCB
:10749000C5B22078A842ECDC6846007821788842A2
:1074A00013D168460178401C465468460078401C59
:1074B000C1B2684601700E2269462046FDF7B6F853
:1074C00010A0FCF7DDFE0120CFE7314616A0FCF747
:1074D000D7FE0120C9E70000616464206E756D620B
:1074E000657220696E2072616E6B206C6973742006
:1074F0006572726F720D00005B6E756D3A25645D8A
:107500000D000000616464206E756D626572206913
:107510006E2072616E6B206C697374207375636387
:1075200065737366756C0D006164642065786973BA
:1075300074696E67206E756D62657220696E207267
:10754000616E6B206C6973743A25640D0000000055
:1075500030B591B005460C46802C05DA15A0FCF735
:107560008FFE002011B030BD0020687521462846EE
:1075700005F0B0FC15A0FCF783FE01A801F096FF12
:10758000214601A8FFF7C6FE01A805F099FC16A048
:10759000FCF776FE01A802F0CDF8214601A8FFF71E
:1075A000B9FE01A805F0E6FC204604F07DFE0120AE
:1075B000D8E700006164645F6F726967696E616C2F
:1075C0005F6566206572726F720D000061646420F1
:1075D000696E20616C6C20656666656374207261FB
:1075E0006E6B6C6973740D0061646420696E206F4A
:1075F000726967696E616C20656666656374207286
:10760000616E6B6C6973740D000000007FB50546F8
:107610000C460D2C06D321460AA0FCF731FE0020B3
:1076200004B070BD2146284605F0AEFC684602F065
:10763000AFF821466846FFF703FF684605F0B6FC41
:107640000120EDE74572726F723A20616464206533
:1076500078697374696E67206E756D6265722069F2
:107660006E20706C61796C697374203A25640D002A
:1076700010B503F0ABFB03F0A5FF03F085FF03F0AB
:1076800083FB03F05FFB10BD3EB504466846047003
:1076900079214170002181700321024A06F06CF8C3
:1076A0003EBD0000BC140020014600200878000206
:1076B0004A78104300028A7810430002CA781043C7
:1076C000704730B502460020002303E01578521CB5
:1076D00028185B1C8B42F9D330BD00B591B0402116
:1076E00001A8FDF70BF801A805F0EAFB01A805F0D9
:1076F00041FC01A805F022FC11B000BD00B585B029
:1077000006A0FCF7BDFD14216846FCF7F7FF142224
:1077100091046846FDF7DFFC05B000BD636C656150
:10772000725F6669726D776172655F7570646174AE
:10773000655F666C61670D001FB5002000900190C9
:1077400002900390684605F031FC1FBD70B50546F8
:107750000C46611E2846FFF7B4FFC1B22819203835
:10776000C07F814208D02146284605F0EDF803A0ED
:10777000FCF786FD002070BD0120FCE7636F6D20E3
:107780006461746120766572696679206572726FD2
:10779000720D0A0070B502460B4618781678B04292
:1077A00022D1107800281DD00025002110E00024EF
:1077B00009E0501C065D581C405C864201D1681CE3
:1077C000C5B2601CC4B21078A042F2DC481CC1B241
:1077D00010788842EBDC1078A84201D1012070BDFE
:1077E0000020FCE70120FAE70020F8E71CB504467A
:1077F000684604707421417000218170C4700421B6
:10780000014A05F0B9FF1CBDBC14002010B50246AA
:10781000002008E04300D35A322B02DA1923440037
:107820001353431C98B28842F4DB10BD10B5A0B0CE
:10783000002404E0204605F029FA601CC4B21E2C86
:10784000F8DB15A0FCF71CFD40216846FCF756FF4D
:1078500010A801F06FFF10A800781E30C1B2684672
:10786000017010A80278411C2138FCF7DFFE0024CB
:1078700004E000A801300455601CC4B21E2CF8DBE3
:10788000684605F01DFB0CA0FCF7FAFC684604F006
:1078900041FB20B010BD0000636F70795F627569B5
:1078A0006C745F696E5F65665F746F5F6E6F726642
:1078B0006C6173680D000000736176655F616C6CCC
:1078C00065665F72616E6B6C6973740D0000000019
:1078D00070B505460C461022691C2046FCF7A6FE32
:1078E000687C2074A87C6074E87CA074287DE074B7
:1078F000687D2075A97D6175EA7DA275297EE17597
:10790000687E207670BD70B504460D461022214673
:10791000681CFCF78BFE207C6874607CA874A07CDB
:10792000E874E07C2875207D6875617DA975A27D6D
:10793000EA75E17D2976217E697670BDF0B587B064
:107940000446002006909649E01C085C03900398CA
:10795000062832D006DC0300FFF756FB0613161983
:107960001C272B850E287DD006DC08284ED00A283F
:107970004FD00B2877D199E02B2875D03428F9D136
:10798000FAE002F00BF907E105F048F804E101F034
:107990008FFE01E18249A01D085C82490870002227
:1079A0000321084606F038FBF6E001207E49087006
:1079B000F2E001207D490870EEE07949201D085C65
:1079C00006020A46611D515C0E430020049019E036
:1079D000A01D04994018801C7149085C0502A01D77
:1079E00004994018C01C6E49085C45190919891D85
:1079F000049A881800F0E4F80746291D04984018F6
:107A000080B204900498B042E2DBC5E0FFF730FE9C
:107A1000C2E0002005900598002804D1FF20013025
:107A2000634908800CE00598012803D140026049B1
:107A3000088005E00598022802D140025C490880D0
:107A40005749A01D085C5B490860084600680002B1
:107A500008605349E01D085C5649096808435549C8
:107A6000086002E074E096E07EE0084600680002EC
:107A700008604B4920460830085C4E4909680843B5
:107A80004C490860084600680002086044492046E6
:107A90000930085C474909680843464908600020E6
:107AA00006F024F80A204449087075E0424800783E
:107AB0000A284CD10120414908703949201D085C31
:107AC00006020A46611D515C0E431146A01D0D5C65
:107AD0002D02E01D085C05432D0220460830085C9D
:107AE00005432D0220460930085C054308460690F0
:107AF00020460A30069908180690042E0DD12D480C
:107B00000068854209D100222946069803F026F82C
:107B100007460020284908700FE0301F24490988D3
:107B2000884206DC82B22946069803F017F8074619
:107B300003E00020204908700027012F04D1002213
:107B400003210B2006F068FA00201C49087023E08E
:107B50001349A01D085C0290E01D085C019001998A
:107B6000029806F0C3F917E00D49A01D085C0290C9
:107B7000029801F06BFF0FE00949201D085C060226
:107B80000A46611D515C0E4311460919881D314694
:107B900003F0C0FD00E000BF00BF07B0F0BD000073
:107BA000CC0B002077020020750200207602002016
:107BB0007A0200207C020020800200207402002053
:107BC000FEB5044626786778A0780502E07840196B
:107BD00085B2304601F0AAFC0190019840000749A7
:107BE00040184078B84201D00020FEBD2A46211D31
:107BF000304600F015FD00900098F6E780E20000A6
:107C00007047704710B504F01DFB10BD10B505F0AE
:107C1000E5F910BD10B501F027FA10BD10B5064802
:107C2000FCF72EFB04F094FB04F00CFB04F05CFB6F
:107C30000148FCF725FB10BD94E8000003490860EB
:107C400000BF024909680029FBD1704718020020D3
:107C5000044800E000BF0146421E90B20029F9D15D
:107C600070470000E84E000010B5C0B00446214641
:107C700001A801F073FC002069464876214601A85E
:107C800005F028F908A0FCF7FBFA30A801F07EFC0B
:107C9000214630A800F018F830A805F04FF904F09C
:107CA00023FB012040B010BD64656C6574652066DF
:107CB000726F6D206661766F7269746520656666A5
:107CC0006563740A00000000F0B591B004460F46E9
:107CD000394622A0FCF7D4FA402101A8FCF70EFD9A
:107CE00020783C2809D926A0FCF7CAFA217830A0D0
:107CF000FCF7C6FA002011B0F0BD2078002804D1AE
:107D00002EA0FCF7BDFA0020F5E7002600250DE0C7
:107D1000601C405DB84207D0601C425D3046711C5B
:107D2000CEB201A901310A54681CC5B22078A8421C
:107D3000EEDC2078B04204D12AA0FCF7A1FA0020A2
:107D4000D9E7684606713D2201A92046FCF76EFC82
:107D500031A0FCF795FA0120CDE7000064656C6561
:107D600074655F6E756D5F66726F6D5F6566666583
:107D700063745F72616E6B6C6973743A25640A0098
:107D80006572726F723A64656C6574652077726FA4
:107D90006E67206E756D62657220696E206566661D
:107DA0006563742072616E6B206C6973740D0000E2
:107DB0005B6E756D3A25645D0D0000007761726E33
:107DC000696E673A64656C65746520656D70747979
:107DD000206566666563742072616E6B206C6973E2
:107DE000740D00007761726E696E673A2064656C8D
:107DF0006574652077726F6E67206E756D6265724F
:107E000020696E206566666563742072616E6B2002
:107E10006C6973740D00000064656C657465206E98
:107E2000756D62657220696E206566666563742093
:107E300072616E6B206C6973742073756363657314
:107E40007366756C0D000000F0B585B004460F46F2
:107E50000020009001900290039020780D2809D90D
:107E60001CA0FCF70DFA217825A0FCF709FA0020E8
:107E700005B0F0BD2078002804D124A0FCF700FA5A
:107E80000020F5E7002600250DE0601C405DB842AB
:107E900007D0601C425D3046711CCEB200A9013192
:107EA0000A54681CC5B22078A842EEDC2078B042A3
:107EB00004D11FA0FCF7E4F90020D9E7684606705A
:107EC0000E2269462046FCF7B1FB26A0FCF7D8F944
:107ED0000120CDE764656C657465206E756D626523
:107EE0007220696E20706C61796C697374207261A4
:107EF0006E6B206C697374206572726F720D000076
:107F00005B6E756D3A25645D0D00000064656C65FF
:107F1000746520656D70747920706C61796C69731B
:107F2000742072616E6B206C6973740D0000000028
:107F30007761726E696E673A64656C657465207707
:107F4000726F6E67206E756D62657220696E20704B
:107F50006C61796C69737472616E6B206C69737497
:107F60000D00000064656C657465206E756D62655A
:107F70007220696E20706C61796C69737420726113
:107F80006E6B206C697374207375636365737366BD
:107F9000756C0D0010B5C0B00446802C06DA214681
:107FA0002CA0FCF76DF9002040B010BD214632A096
:107FB000FCF766F9214601A801F08CFB0220694616
:107FC0004876214601A804F085FF32A0FCF758F955
:107FD00030A801F06BFA30A803F09CFF214630A8CE
:107FE000FFF772FE30A804F06BFF30A801F05EFAD4
:107FF00030A803F08FFF2DA0FCF742F930A801F064
:1080000099FB30A803F086FF214630A8FFF75CFEFD
:1080100030A804F0AFFF30A801F08CFB30A803F0CB
:1080200079FF2AA0FCF72CF930A801F0AFFA30A8AC
:1080300003F070FF214630A8FFF746FE30A804F099
:108040007DFF30A801F0A2FA30A803F063FF00BF63
:10805000AAE700006572726F723A64656C657465B8
:10806000206F726967696E616C206566206E756D40
:10807000203A25640A00000064656C6574655F6FD2
:10808000726967696E616C5F6566206E756D203A16
:1080900025640A0064656C6574652066726F6D20E6
:1080A000616C6C206566666563740A0064656C6566
:1080B00074652066726F6D206F726967696E616C9E
:1080C000206566666563740A0000000064656C657F
:1080D00074652066726F6D206661766F7269746573
:1080E000206566666563740A000000001FB50446DB
:1080F000684601F04DFB21466846FFF7A5FE68463D
:1081000004F054FF012004B010BD000030B5FFB0F2
:10811000FFB0FBB0044623A0FCF7B2F8BDA801F005
:10812000ADF9B8A8017DA14204DB1E2C02DA007D66
:1081300000280DD1214620A0FCF7A2F8284A29A149
:1081400032A0FCF79DF800207FB07FB07BB030BD3F
:108150002F21090101A8FCF7D1FA002518E0A5425A
:1081600014D019226A43BDAB0133D1186A46127983
:1081700019235A4301AB0133D0181922FCF756FAE0
:1081800068460079401CC1B268460171681CC5B2DE
:10819000B8A8007DA842E2DC01A804F079FE012025
:1081A000D2E7000064656C6574655F73636865643D
:1081B000756C650D000000005B6572726F725D206A
:1081C00064656C6574652077726F6E672073636891
:1081D0006564756C65206E756D203A25640D000030
:1081E000110400002E2E5C555345525C6578746571
:1081F000726E616C5F6D656D6F72795C75736572BF
:108200005F6D656D6F72792E630000004572726F4D
:10821000723A25732C25640D0A00000002468A423A
:1082200002DD501AC0B27047881AC0B2FBE70000E6
:1082300070B505460C462146FF2201322846FCF760
:1082400094FE64216143084603218903FCF7A6FAE2
:1082500006462146324602A0FCF712F870BD000027
:10826000646F776E6C6F61643A204F782530347894
:10827000205B256425255D0D0000000070B50446D7
:108280000D4607A0FBF7FCFF2A462146782002F0A6
:10829000B9FB0646012E00D170BD0020FCE70000AE
:1082A0003C64705F646F776E6C6F61645F616C6C6F
:1082B0005F6566666563745F72616E6B6C6973742B
:1082C0005F68616E646C653E0D000000F8B50446A1
:1082D0000D462946204602F0D0FC0746384601F0FC
:1082E000C9FE3946832002F061FB0646012E00D10B
:1082F000F8BD0020FCE7F8B506460F463946304683
:1083000002F0B8FC0546002D02D101F0DDFE02E0CE
:10831000012001F0D9FE2946822002F013FB044619
:10832000012C00D1F8BD0020FCE7F8B505460E464B
:108330003146284602F0A4FC0446E0B201F0EEFE0D
:1083400021466A2002F0CEFB0746012F00D1F8BD7E
:108350000020FCE7F8B504460D462946204602F009
:108360008FFC074608A0FBF78BFF2946204604F048
:10837000EBFA39466F2002F0B5FB0646012E00D11C
:10838000F8BD0020FCE700003C64705F646F776E0E
:108390006C6F61645F6272696768746E6573735F46
:1083A0006175746F5F68616E646C653E0D000000FE
:1083B00070B504460D462946204601F0CBFE2A46FC
:1083C00021467F2002F01EFB0646012E00D170BD23
:1083D0000020FCE770B504460D462946204601F012
:1083E000E5FE2A4621467E2002F00CFB0646012EC1
:1083F00000D170BD0020FCE770B504460D462A464A
:108400002146182002F036FB0646012E00D170BD31
:108410000020FCE770B504460D462946204601F0D1
:10842000F5FE2A462146812002F0ECFA0646012E8E
:1084300000D170BD0020FCE770B504460D4629460A
:10844000204601F001FF2A462146802002F0DAFA98
:108450000646012E00D170BD0020FCE770B5044631
:108460000D462946204601F02FFF2A462146682066
:1084700002F0C8FA0646012E00D170BD0020FCE7CC
:1084800070B504460D4607A0FBF7FAFE2A462146C2
:10849000672002F0B7FA0646012E00D170BD002019
:1084A000FCE700003C64705F646F776E6C6F616422
:1084B0005F6566666563745F6C6973745F68616E3F
:1084C000646C653E0D000000F8B504460D46294673
:1084D000204602F0D5FB074606A0FBF7D1FE394641
:1084E0006D2002F0FFFA0646012E00D1F8BD0020F3
:1084F000FCE700003C64705F646F776E6C6F6164D2
:108500005F6566666563745F6E756D5F68616E64F6
:108510006C653E0D0000000070B504460D4629460E
:10852000204601F009FF2A462146772002F06AFA28
:108530000646012E00D170BD0020FCE770B5044650
:108540000D4607A0FBF79CFE2A4621467C2002F040
:1085500059FA0646012E00D170BD0020FCE700004C
:108560003C64705F646F776E6C6F61645F656666B4
:108570006563745F736B657463685F68616E646C78
:10858000653E0D0070B504460D4607A0FBF778FE6A
:108590002A4621467A2002F035FA0646012E00D1FD
:1085A00070BD0020FCE700003C64705F646F776E74
:1085B0006C6F61645F6661766F72697465735F6525
:1085C00066666563745F72616E6B6C6973745F6815
:1085D000616E646C653E0D0070B504460D4607A0E3
:1085E000FBF74EFE2A462146752002F00BFA06469E
:1085F000012E00D170BD0020FCE700003C64705FDC
:10860000646F776E6C6F61645F676C6F62616C5FE3
:108610007374617475735F68616E646C653E0D00A0
:10862000F8B505460E461746762D6ED026DC6B2D26
:1086300073D018DC662D50D00CDC172D3BD004DC39
:10864000142D2CD0152D6ED12FE0182D39D0652D7D
:10865000F9D13CE0672D46D0682D4AD0692D4ED027
:108660006A2DF0D153E028466C380300FEF7CCFCAD
:108670000A5C62686E747A80868C925B28467738D2
:108680000300FEF7C1FC1593999FA5ABB1B7BDC31D
:10869000C9CFD5DBE1E7F3F9FFEFEEED5000394646
:1086A000304600F0A5FB044605E13946304600F0AF
:1086B0002DFC0446FFE03946304600F0F1FB04464D
:1086C000F9E039463046FFF797FE0446F3E03946B5
:1086D000304600F0C1F90446EDE03946304600F07E
:1086E00075F90446E7E039463046FFF7C9FE04460F
:1086F000E1E039463046FFF7B1FE0446DBE039469B
:10870000304600F0DFFB0446D5E049E005E039469D
:108710003046FFF70AFE0446CDE03946304600F009
:108720007CFB0446C7E0C5E03946304600F046FB16
:108730000446C0E039463046FFF7C6FE0446BAE0BC
:108740003946304600F0B2F90446B4E039463046C6
:10875000FFF700FE0446AEE03946304600F078FBF5
:108760000446A8E03946304600F000FB0446A2E08B
:108770003946304600F04EF904469CE03946304612
:1087800000F036F9044696E03946304600F0A8F885
:10879000044690E039463046FFF71EFF04468AE063
:1087A0003946304600F08AF8044684E039463046BF
:1087B000FFF7B2FE04467EE039463046FFF75EFD25
:1087C000044678E03946304600F0AEF8044672E0E0
:1087D00039463046FFF7D6FE04466CE0394630464F
:1087E00000F08CF9044666E039463046FFF7A6FEF5
:1087F000044660E03946304600F0C0F804465AE0CE
:1088000039463046FFF7E6FD044654E03946304627
:10881000FFF7CEFD04464EE039463046FFF70CFE2A
:10882000044648E039463046FFF7F4FD044642E08E
:1088300039463046FFF75FFD04463CE03946304696
:10884000FFF744FD044636E03946304600F0A0F913
:10885000044630E03946304600F0BCF904462AE0D0
:1088600022E01BE014E00DE006E0FFE73946304669
:1088700000F0D2F904461EE03946304600F0EEF929
:10888000044618E03946304600F00AFA044612E081
:108890003946304600F026FA04460CE039463046A8
:1088A00000F042FA044606E03946304600F04CF942
:1088B000044600E000BF00BF2046F8BD70B5044686
:1088C0000D462946204601F04FFD2A4621467620D6
:1088D00002F098F80646012E00D170BD0020FCE79A
:1088E00070B504460D4607A0FBF7CAFC2A46214690
:1088F000742002F087F80646012E00D170BD0020DA
:10890000FCE700003C64705F646F776E6C6F6164BD
:108910005F6C696E6B5F7374617475735F68616EB1
:10892000646C653E0D00000070B504460D4607A05E
:10893000FBF7A6FC2A462146792002F063F806469A
:10894000012E00D170BD0020FCE700003C64705F88
:10895000646F776E6C6F61645F6F726967696E6177
:108960006C5F6566666563745F72616E6B6C69737C
:10897000745F68616E646C653E0D000070B50446FE
:108980000D4607A0FBF77CFC2A4621467D2002F01D
:1089900039F80646012E00D170BD0020FCE700002A
:1089A0003C64705F646F776E6C6F61645F706C6164
:1089B000795F636F6E74726F6C5F64657469616C0C
:1089C0005F68616E646C653E0D00000070B5044622
:1089D0000D462946204601F0ADFE2A462146662076
:1089E00002F010F80646012E00D170BD0020FCE711
:1089F00070B504460D462946204601F011FF2A466F
:108A00002146732001F0FEFF0646012E00D170BD05
:108A10000020FCE770B504460D4607A0FBF730FCCC
:108A20002A462146722001F0EDFF0646012E00D1B4
:108A300070BD0020FCE700003C64705F646F776EDF
:108A40006C6F61645F706C61795F6C6973745F688F
:108A5000616E646C653E0D0070B504460D4607A05E
:108A6000FBF70EFC2A462146652001F0CBFF0646A7
:108A7000012E00D170BD0020FCE700003C64705F57
:108A8000646F776E6C6F61645F706C61796C697331
:108A9000745F6566666563745F736B657463685F56
:108AA00068616E646C653E0A00000000F8B504461B
:108AB0000D462946204602F0E3F8074606A0FBF7DC
:108AC000DFFB39466E2002F00DF80646012E00D17C
:108AD000F8BD0020FCE700003C64705F646F776EB7
:108AE0006C6F61645F6566666563745F6E756D5F0C
:108AF00068616E646C653E0D0000000070B5044650
:108B00000D4607A0FBF7BCFB2A4621467B2001F05F
:108B100079FF0646012E00D170BD0020FCE7000061
:108B20003C64705F646F776E6C6F61645F706C61E2
:108B3000796C6973745F72616E6B6C6973745F6872
:108B4000616E646C653E0D0070B504460D4607A06D
:108B5000FBF796FB2A4621468B2001F053FF064681
:108B6000012E00D170BD0020FCE700003C64705F66
:108B7000646F776E6C6F61645F7265736572766542
:108B80006431305F68616E646C653E0D000000000A
:108B900070B504460D4607A0FBF772FB2A46214636
:108BA000842001F02FFF0646012E00D170BD002069
:108BB000FCE700003C64705F646F776E6C6F61640B
:108BC0005F7265736572766564335F68616E646C4D
:108BD000653E0D0070B504460D4607A0FBF750FB3F
:108BE0002A462146852001F00DFF0646012E00D1C0
:108BF00070BD0020FCE700003C64705F646F776E1E
:108C00006C6F61645F7265736572766564345F680A
:108C1000616E646C653E0D0070B504460D4607A09C
:108C2000FBF72EFB2A462146862001F0EBFE064686
:108C3000012E00D170BD0020FCE700003C64705F95
:108C4000646F776E6C6F61645F7265736572766571
:108C500064355F68616E646C653E0D0070B50446F6
:108C60000D4607A0FBF70CFB2A462146872001F0A2
:108C7000C9FE0646012E00D170BD0020FCE70000B1
:108C80003C64705F646F776E6C6F61645F72657374
:108C90006572766564365F68616E646C653E0D0072
:108CA00070B504460D4607A0FBF7EAFA2A462146AE
:108CB000882001F0A7FE0646012E00D170BD0020DD
:108CC000FCE700003C64705F646F776E6C6F6164FA
:108CD0005F7265736572766564375F68616E646C38
:108CE000653E0D0070B504460D4607A0FBF7C8FAB7
:108CF0002A462146892001F085FE0646012E00D134
:108D000070BD0020FCE700003C64705F646F776E0C
:108D10006C6F61645F7265736572766564385F68F5
:108D2000616E646C653E0D0070B504460D4607A08B
:108D3000FBF7A6FA2A4621468A2001F063FE064682
:108D4000012E00D170BD0020FCE700003C64705F84
:108D5000646F776E6C6F61645F7265736572766560
:108D600064395F68616E646C653E0D00F8B5044659
:108D70000D462946204601F083FF074606A0FBF773
:108D80007FFA3946712001F0ADFE0646012E00D172
:108D9000F8BD0020FCE700003C64705F646F776EF4
:108DA0006C6F61645F72756E6E696E675F7374611C
:108DB00074655F68616E646C653E0D00F8B50646CB
:108DC0000F463946304601F055FF0546002D02D1C9
:108DD00001F04CFD02E0012001F048FD29466C2025
:108DE00001F0B0FD0446012C00D1F8BD0020FCE7E5
:108DF000F8B504460D462946204601F03BFF0746DC
:108E0000384601F05BFD3946142001F09BFD064613
:108E1000012E00D1F8BD0020FCE7F8B506460F464C
:108E20003946304601F026FF0546002D02D101F0FB
:108E300065FD02E0012001F061FD29466B2001F093
:108E400081FD0446012C00D1F8BD0020FCE70000A4
:108E5000F8B504460D462946204601F011FF0746A5
:108E600006A0FBF70DFA3946702001F03BFE0646DE
:108E7000012E00D1F8BD0020FCE700003C64705FCB
:108E8000646F776E6C6F61645F73797374656D5F27
:108E900073746174655F68616E646C653E0D00009B
:108EA000F8B504460D462946204601F0E9FE07467E
:108EB0003946172001F016FE0646012E00D1F8BDF6
:108EC0000020FCE770B504460D4607A0FBF7D8F973
:108ED0002A462146692001F095FD0646012E00D163
:108EE00070BD0020FCE700003C64705F646F776E2B
:108EF0006C6F61645F757365725F70726F746F63BE
:108F00006F6C5F68616E646C653E0D00F8B5064677
:108F10000F463946304601F0B0FE0546002D06D01A
:108F2000012D05D0022D04D0032D04D102E003E071
:108F300002E001E000E000BF00BF2946152001F07B
:108F400035FD0446012C00D1F8BD0020FCE70000EF
:108F500010B501200249087302A0FBF791F910BD7A
:108F60000A1100206566666563745F706C61795FE5
:108F700070617573650D000010B506480078012812
:108F800004D0FFF7E5FF04A0FBF77AF901200149BF
:108F9000087010BD0A110020656E7465725F64650B
:108FA000766963655F70616972696E675F6D6F6432
:108FB000650D000010B506480078002802D005A015
:108FC000FBF75EF900200249087003F01BFF10BD9B
:108FD0000A110020656E7465725F706C6179696E4C
:108FE000675F6566666563745F6D6F64650D00003D
:108FF00010B5044604A0FBF743F9022009490870A4
:10900000204602F0C5FC10BD656E7465725F70721B
:1090100065766965775F6566666563745F6D6F64C5
:10902000650D00000A11002010B50020FBF708FFB5
:1090300010BD000010B50020FBF702FF01A0FBF7F8
:109040001FF910BD6572617365206669726D776185
:10905000726520626C6F636B20696E206E6F726642
:109060006C6173680D00000000B5C1B002F032FB06
:109070000DA0FBF705F903F0A3FFFEF72EFB00F0B0
:10908000E3FDFF21013101A8FBF738FB0DA101A889
:10909000FBF704F9FEF7CAFB00F0C8FD01A803F0D6
:1090A00037FF41B000BD0000457261736520656601
:1090B00066656374206461746120626C6F636B2EFB
:1090C0002E2E0D00656666656374206461746120F0
:1090D000323032332F31302F33312035343834367B
:1090E0003936200001460020C0437047F0B58BB0F0
:1090F00000200890BD48079000200690BB480590CE
:1091000006460A9000200190029000245AE00A20AE
:109110006043B74940188088B04203D00298401C91
:1091200080B202900A206043B1494018C1880A9871
:10913000814203D00198401C80B201900A20604314
:10914000AB49401881880898814205DD0A206043B8
:10915000A7494018808808900A206043A449401815
:10916000C1880698814205DD0A206043A049401865
:10917000C08806900A2060439D494018818807985E
:10918000814205DA0A206043994940188088079097
:109190000A20604396494018C1880598814205DA43
:1091A0000A20604392494018C08805900A20604315
:1091B0008F49401886880A2060434018C0880A906A
:1091C000601C84B28A48801E0078A0429FDC8948D7
:1091D000807D002803D08748807D012837D18649CB
:1091E00001984870002600200A9000252CE00024F9
:1091F0001CE00A2060437E494018C088A84213D171
:1092000001200A907B48807D002804D10A20604319
:109210004018067208E00198801B401EC2B20A2066
:109220006043734940180272601C84B27048801E0B
:109230000078A042DDDC0A98002803D0701C86B2BA
:1092400000200A90681C85B2102DD0DBC7E0694869
:10925000807D022803D06748807D032837D1664986
:1092600002984870002600200A9000252CE0002477
:109270001CE00A2060435E4940188088A84213D150
:1092800001200A905B48807D022804D10A206043B7
:109290004018067208E00298801B401EC2B20A20E5
:1092A0006043534940180272601C84B25048801ECB
:1092B0000078A042DDDC0A98002803D0701C86B23A
:1092C00000200A90681C85B2102DD0DB87E0494849
:1092D000807D052803D04748807D04287FD1079AE8
:1092E00008998818C10F0918C903090C0491059A37
:1092F00006998818C10F0918C903090C03910027A2
:1093000000253BE00020099000242BE00A20604368
:10931000374A801881880498FEF780FF86B20A20B9
:109320006043334A8018C1880398FEF777FF80B204
:109330000A900A98864209DDAE4211D101200990B7
:109340000A2060432A494018077209E00A98A84297
:1093500006D1012009900A20604325494018077270
:10936000601C84B22248801E0078A042CEDC09989E
:10937000002801D0781C87B2681C85B2102DC1DB93
:10938000002700240CE00A20604319494018007AA5
:10939000B84203DD0A2060434018077A601C84B29B
:1093A0001348801E0078A042EDDC13494F7011482D
:1093B000807D042813D100240CE00A2060430C496E
:1093C0004018067AB81BC2B20A20604340180272E5
:1093D000601C84B20648801E0078A042EDDC06487E
:1093E000417806A0FAF74CFF0BB0F0BDFFFF00007C
:1093F00034120020781100201C0700204D6F647586
:109400006C655F576F726B4E756D3A25640D000089
:1094100070B504460D46E0B2FDF74CFC0A2C02D1B3
:109420000D20FDF747FC204670BD000010B5124826
:10943000C07D0300FDF7E8FD0805080B0E111417A9
:109440001A1DFCF77FF815E0FBF718FF12E0FCF798
:10945000FFF80FE0FCF72AF80CE0FBF747FF09E004
:10946000FBF7A6FF06E0FBF775FF03E0FBF7D0FF75
:1094700000E000BF00BF10BD7811002010B5044609
:10948000024A03492046FBF702FD10BDEF0200002F
:10949000060C020010B50446FF2243320249204662
:1094A000FBF7F5FC10BD0000C40A020010B504462D
:1094B0003D2202492046FBF7EAFC10BDFF080200EE
:1094C00010B502460C461188012305E05800105AD9
:1094D00041184908581C83B2A342F7DB88B210BD7B
:1094E00030B50446154628884018C21A00E0521AC2
:1094F0008A42FCD2A05C30BD30B502460020002379
:1095000005E01578521C2C18E0B25C1CA3B28B420B
:10951000F7DB30BD30B502460020002303E01578AC
:10952000521C28185B1C8B42F9D330BD70B5054620
:1095300000F012F80646002407E060000549085CC8
:10954000A84200D103E0601CC4B2B442F5DB00BF06
:10955000204670BD80E200002B20704770B50546A4
:109560000C4601221204D01DF830B9226243811842
:10957000B9222846FBF78BFC70BD10B50446FF22CC
:10958000012109042046FBF782FC10BD10B50446FA
:109590003D2202492046FBF77AFC10BD7909020002
:1095A00030B5C1B000250DA0FAF76AFE00240EE028
:1095B000FF220132214601A8FBF769FCFF2101319E
:1095C00001A8FEF77EF84519E01DF93084B20320AA
:1095D00080038442ECDB284641B030BD6765745F90
:1095E0006669726D776172655F63686563687375DC
:1095F0006D5F6E6F72666C6173680D001FB5102130
:10960000684600F05DF868460078302803DB68465D
:109610000078392803DD00200F4948701AE00F490F
:10962000684602F011F800280AD0FFF7FDFCFEF7AB
:1096300065F802200849487009A0FAF721FE09E000
:10964000FFF7F2FCFEF75AF80320034948700BA01D
:10965000FAF716FE1FBD0000680F00202050000022
:109660000D4669726D77617265207570646174650D
:10967000206661696C65640D0A0000000D46697220
:109680006D776172652075706461746520737563B0
:109690006365737366756C0D0A00000010B50446AF
:1096A000052202492046FBF7F2FB10BDF50E020031
:1096B00010B5002422460321022004F0ADFC10BDA9
:1096C00070B505460C462246012109032846FBF7E2
:1096D000DEFB70BD70B505460C46802C08DA2146CD
:1096E0000AA0FAF7CDFD0BA0FAF7CAFD002070BD65
:1096F00001221204D01DF830B92262438118B92228
:109700002846FBF7C4FB0120F1E700006E756D3AB7
:1097100025640D006765745F6F726967696E616CBF
:109720005F656666656374206E756D206572726F25
:10973000720A000010B504463D2202492046FBF79C
:10974000A6FB10BD3C09020070B505460C4601227F
:1097500012041046044A82184F20604311184F2209
:109760002846FBF794FB70BDFFB9000070B50546B5
:109770000C46012212041046044A82184F2060430E
:10978000111810222846FBF782FB70BDFFB90000BC
:1097900010B504460E2202492046FBF778FB10BDA7
:1097A000B609020010B50022064B002105E01C8816
:1097B0009B1CA01882B2481CC1B20829F7DBD0B2AA
:1097C00010BD00009408500070B505460C461E2CD4
:1097D00009DB21460BA0FAF753FD134A13A11DA084
:1097E000FAF74EFD70BD1F4A10460F4A35328018F9
:1097F000401C19226243811819222846FBF747FBB7
:1098000000BFEFE75B6572726F725D206765742061
:1098100077726F6E67207363686564756C65206E20
:10982000756D203A25640D000D0200002E2E5C554A
:109830005345525C65787465726E616C5F6D656DE1
:109840006F72795C757365725F6D656D6F72792E7D
:10985000630000004572726F723A25732C25640D07
:109860000A000000C4090200FFB581B00C460B9D40
:1098700001E0281B85B2A542FBDC03980088011992
:109880000498081A401B461C00E0361BA642FCD276
:10989000A71BAF4206D3019881192A460A98FAF706
:1098A000C5FE0BE0019881193A460A98FAF7BEFE08
:1098B000EA1B0A99C8190199FAF7B8FE05B0F0BD7C
:1098C00030B5D1B0FF2145316846FAF717FF684639
:1098D000FFF7E0FD68460078202806DD684601783D
:1098E00020A0FAF7CDFC51B030BD002433E00025B4
:1098F0002BE00A20604323490A5C0A20684300A940
:109900000231085C82421ED10A2068434018428816
:109910000A2060431B49401842800A20684300A97E
:109920000231401882880A2060431649401882801C
:109930000A20684300A902314018C2880A20604307
:1099400010494018C280681CC5B268460078A84219
:10995000CFDC601CC4B20B48801E0078A042C6DC7D
:1099600000BFC0E75B6572726F725D2077726F6EC9
:109970006720646576696365206E756D6265723A0D
:1099800025640000341200207CB51F480078202890
:1099900000DD7CBD002430E01C48808C6421081A66
:1099A00081B201916846808819494880FF220A20C7
:1099B00060431549891C401842700A216143124ACC
:1099C000921C505CFDF760FEFEF742F9FEF740F98D
:1099D000FEF73EF90D48808C6421081A81B201918E
:1099E0000B48683001AB0246663A64210090643847
:1099F00001F01EFF0546601CC4B203480078A04277
:109A0000CADC00BFC5E700003212002020000020A1
:109A10001414002002460B4619110E2048439042B0
:109A200001DA052070470B204843904201DA0420F8
:109A3000F8E7C800904201DA0320F3E7880008182D
:109A4000904201DA0220EDE70120EBE700B50300C8
:109A5000FDF7DAFA0705060708090A0B0C0006E00D
:109A600005E004E003E002E001E000E000BF00BF29
:109A700000BD000010B50248FFF710FE10BD000049
:109A80001011002086B004460D4626686768A0685D
:109A90000590E06804902069039060690290A069D5
:109AA0000190E069009014A0FAF7EAFB314618A093
:109AB000FAF7E6FB394619A0FAF7E2FB1AA0059976
:109AC000FAF7DEFB1BA00499FAF7DAFB1CA0039956
:109AD000FAF7D6FB1DA00299FAF7D2FB20A0019954
