:020000040000FA
:10400000C81D0020CD41000079EF0000794100007B
:1040100000000000000000000000000000000000A0
:10402000000000000000000000000000DF41000070
:104030000000000000000000E3410000156D0000DA
:10404000E7410000E9410000EB410000ED410000C4
:10405000EF410000F1410000F3410000115A00005F
:10406000955B0000F9410000B9E800007DE8000020
:10407000FF410000C1E9000035E9000005420000F1
:1040800007420000195D00006D5D0000BD5D00008D
:104090000D5E0000BD75000089DB00000DA600006C
:1040A00017420000194200001B4200005D5E000044
:1040B000AD5E0000FD5E00004D5F000005F30000F6
:1040C00000F002F800F049F80CA030C808382418B5
:1040D0002D18A246671EAB4654465D46AC4201D140
:1040E00000F03BF87E460F3E0FCCB6460126334229
:1040F00000D0FB1AA246AB4633431847C8B90000AC
:10410000E8B900000023002400250026103A01D35E
:1041100078C1FBD8520700D330C100D50B6070477F
:1041200010B5642902D100F001F910BD782902D13F
:1041300000F032F910BD632902D100F039FC10BD46
:10414000732902D100F03CFC10BD002010BD1FB54A
:1041500000F000FA1FBD10B510BD00F061FC114663
:10416000FFF7F5FF06F020FB00F079FC03B4FFF742
:10417000F2FF03BC03F0B4F904207146084202D0F8
:10418000EFF3098001E0EFF308807146004A104721
:104190005DA3000070B505460C46164602E00FCC44
:1041A0000FC5103E102EFAD2082E02D303CC03C541
:1041B000083E042E07D301CC01C5361F03E0217849
:1041C0002970641C6D1C761EF9D270BD1948804799
:1041D00019480047FEE7FEE7FEE7FEE7FEE7FEE7D9
:1041E000FEE7FEE7FEE7FEE7FEE7FEE7FEE7FEE7A7
:1041F000FEE7FEE7FEE7FEE7FEE7FEE7FEE7FEE797
:10420000FEE7FEE7FEE7FEE7FEE7FEE7FEE7FEE786
:10421000FEE7FEE7FEE7FEE7FEE7FEE7FEE7FEE776
:10422000FEE7FEE7FEE7000004480549034A054BA8
:1042300070470000356D0000C1400000C817002025
:10424000C81D0020C81700200FB4054910B503AAE7
:10425000029800F0B9FB10BC08BC04B0184700007D
:104260007C0200200FB41CB5074B06AA7B446946AC
:104270000090059800F079FB0020694600F088FB6B
:104280001CBC08BC04B018472107000070B50446E8
:1042900085690068C10601D5302600E02026C007E8
:1042A00007D070BD62683046A1689047206A401C04
:1042B00020626D1EF6D570BD70B504468569007824
:1042C000C00707D170BD6268A16820209047206AAE
:1042D000401C20626D1EF6D570BD70B50C460546BB
:1042E000012A05D02878800600D5EA69002302E07B
:1042F000012305E05B1C934202D2E05C0028F9D167
:10430000A869E618C01AA861286AC0182862284659
:10431000FFF7BCFF04E06A682078A968641C904736
:10432000B442F8D32846FFF7C7FF70BDF7B50025A4
:1043300075291068009914A611D0C046C0460028FF
:1043400002DA404211A608E0009909688A0701D5FF
:104350000FA602E0490704D50EA6012501E0C046DC
:10436000C046009F0024243704E000F041FB3031B8
:104370003955641C0028F8D12B4632462146009856
:1043800000F096FAFEBD0000000000002D000000C5
:104390002B0000002000000070B504460D462146A9
:1043A0001068C046C0462188090502D50F4A7A44E4
:1043B00002E00E4A7A440E3223460021243305E0FF
:1043C00006070009360F965D5E54491C0028F7D198
:1043D00020780023000705D5702D03D0002901D0D7
:1043E00002231132204600F063FA70BD12B50000BE
:1043F000F3B50446002081B020622046E16888477A
:1044000000287DD0252802D06268A16883E0454F4E
:1044100000257F442046E16888472028064608DBBF
:10442000312E06D2B81920380078002801D0054373
:10443000F0E7A80701D5042085430020E061074686
:10444000A0612A2E0AD0304603F042F8002827D077
:10445000B8000019303E0090866119E00298BA0059
:10446000121902C8916102902046E1688847012F25
:10447000064617D1E06900281FDA202085431CE09A
:1044800000980A2180694843009980193038886172
:104490002046E1688847064603F01AF80028EFD165
:1044A000012F0AD02E2E08D12046E1688847064603
:1044B000202005437F1C022FC3DBA069002803DAFC
:1044C0004042A06101200543E80701D01020854348
:1044D000002E24D030464138192803D80120C002CC
:1044E00005432036204625603146029A1546FFF7DF
:1044F00017FE00280CD0012807D0ED1DE80800E0C9
:104500000DE0C0000830029077E72D1D029574E79A
:1045100062683046A1689047206A401C6CE7206AB8
:10452000FEBD0000D6B400000B4A30B511460B4C5E
:1045300060310B46DC3B0CC1372106E0020C8D00DC
:1045400012185A51064A504300190A46491E002AB9
:10455000F4DC30BD0120E7E7FC160020E119D66647
:10456000CD0D0100034670B502460B439B070FD1EA
:104570000E4CE60100E008C208C91D1B9D433542F0
:10458000F9D0D9B21170521C00290DD01B0AF8E7DE
:104590000B78491C1370521C002B05D00B78491C5A
:1045A0001370521C002BF3D170BD000001010101FA
:1045B00030B5441C03E00178401C00290DD0810770
:1045C000F9D10B4BDD0104C8D11A91432940FAD02F
:1045D000001B0A0603D0C01E30BD001B30BD0A04FC
:1045E00001D0801E30BD0902FCD0401E30BD00004D
:1045F00001010101F8B5042A2CD3830712D00B78EE
:10460000491C0370401C521E83070BD00B78491CB9
:104610000370401C521E830704D00B78491C0370A2
:10462000401C521E8B079B0F05D0C91ADF002023A8
:10463000DE1B08C90AE0FFF7ADFDF8BD1D4608C93D
:10464000FD401C46B4402C4310C0121F042AF5D272
:10465000F308C91A521EF0D40B78491C0370401C91
:10466000521EEAD40B78491C0370401C012AE4D482
:1046700009780170F8BDD2B210B513029A1813046C
:104680009A1800F00EF810BD01E004C0091F0429BB
:10469000FBD28B0701D50280801CC90700D00270B5
:1046A000704700290BD0C30702D00270401C491E7E
:1046B000022904D3830702D50280801C891EE3E708
:1046C0000022EEE70022DFE7024670B50A439207B8
:1046D0002AD11E4DEE0104C808C9541B944334402E
:1046E00017D0D0B2D9B2401A2106014310D190B2EE
:1046F00099B2401A210401430AD110021902000A9A
:10470000090A401A2102014302D1100E190E401A63
:1047100070BD9A42DFD010BA19BA884201D901207F
:1047200070BD0020C04370BD02780B78401C491C4E
:10473000002A09D09A4207D102780B78401C491C04
:10474000002A01D09A42EFD0D01A70BD01010101B8
:10475000002203098B422CD3030A8B4211D300237E
:104760009C464EE003460B433CD4002243088B4258
:1047700031D303098B421CD3030A8B4201D39446E5
:104780003FE0C3098B4201D3CB01C01A52418309D8
:104790008B4201D38B01C01A524143098B4201D392
:1047A0004B01C01A524103098B4201D30B01C01ABD
:1047B0005241C3088B4201D3CB00C01A5241830837
:1047C0008B4201D38B00C01A524143088B4201D364
:1047D0004B00C01A5241411A00D2014652411046C4
:1047E00070475DE0CA0F00D04942031000D3404239
:1047F000534000229C4603098B422DD3030A8B426F
:1048000012D3FC22890112BA030A8B420CD389010C
:1048100092118B4208D3890192118B4204D38901F2
:104820003AD0921100E08909C3098B4201D3CB0130
:10483000C01A524183098B4201D38B01C01A5241E5
:1048400043098B4201D34B01C01A524103098B42E9
:1048500001D30B01C01A5241C3088B4201D3CB00D4
:10486000C01A524183088B4201D38B00C01A5241B7
:10487000D9D243088B4201D34B00C01A5241411A8E
:1048800000D20146634652415B10104601D34042BC
:10489000002B00D54942704763465B1000D340426D
:1048A00001B50020C046C04602BD70477047704742
:1048B000FFB504460D4681B024300090216888067B
:1048C00004D51022E0699143216000E00120A84254
:1048D00001DD471B00E000270498A1697A19101830
:1048E000081AA0612078C00602D42046FFF7CEFC4B
:1048F000002608E003986268A168805D9047206AFE
:10490000401C761C206204988642F3DB2078C006A7
:104910000AD52046FFF7BAFC06E06268A16830209D
:104920009047206A401C206238467F1E0028F4DC35
:1049300007E000986268A168405D9047206A401CCB
:10494000206228466D1E0028F3DC2046FFF7B4FCE9
:104950002078000602D5022005B0F0BD0120FBE75B
:1049600001694A1C02610878704700B58FB0029156
:104970000021059105490193794403911146049062
:104980006846FFF735FD0FB000BD0000E5FFFFFFF3
:104990000A681070521C0A60704710B54369002BFA
:1049A00002D0C046C04601E0FFF797FC012010BDD1
:1049B0001278014624310A7000224A700122ECE785
:1049C00011680022D243E8E7084B70B50D467B44DE
:1049D000FFF7CBFF0446284604F008FF002802D06A
:1049E0000020C04370BD204670BD00002B51000068
:1049F00001468008081A02091018020A1018020C51
:104A00001018C008820012185200891A01E0401CD8
:104A10000A390A29FBD27047004870476417002002
:104A20007546FFF7F9FFAE46050069465346C008D4
:104A3000C000854618B020B5FFF7F6FB60BC002724
:104A40004908B6460026C0C5C0C5C0C5C0C5C0C55A
:104A5000C0C5C0C5C0C5403D49008D46704710B5B2
:104A60000446C046C0462046FFF780FB10BD70B527
:104A70008C180578401C6B075B0F01D10378401C34
:104A80002A1106D10278401C03E00678401C0E7003
:104A9000491C5B1EF9D12B0705D40023521E0DD4EF
:104AA0000B70491CFAE70378401CCB1A921C03E0F8
:104AB0001D780D70491C5B1C521EF9D5A142D8D33C
:104AC000002070BD10B5012115480175154800780A
:104AD0002021084313490870002013490870134926
:104AE0000875152002F0A0FC10200F490870002066
:104AF00088700846807888700846807808210843C6
:104B000009498870002008718871FF20C872002050
:104B1000887208460078012108430349087010BDD7
:104B200040610040200402400050044040600040CA
:104B3000064A127838239A43044B1A701A461278A0
:104B4000C3001A43014B1A70704700000050044024
:104B50000B4A127852085200094B1A70002803D1F0
:104B600080220A439A7103E0C0220A43044B9A71DF
:104B7000034A127801231A43014B1A707047000050
:104B80000050044010B504460B48047200200B4945
:104B90000875152002F048FC0021094801750648F7
:104BA00080798011032805D00348007880210843CC
:104BB0000149087010BD00000050044040600040F2
:104BC0004061004010B508480078802188430649BC
:104BD0000870012105480175002005490875152058
:104BE00002F022FC10BD0000005004404061004073
:104BF0004060004010B50146CC17240F6418231103
:104C00000846CC17240F2418241124010A1B0A205B
:104C100058438018C2B2104610BD000000B5C02233
:104C20009178F8221140144A1278114313480A4629
:104C3000E03A130002F0D2FB0E0A0E12161A1E1EE4
:104C40001E080C1014181C1E0D4813E00D4811E02E
:104C50000D480FE00D480DE00D480BE00D4809E050
:104C60000D4807E00D4805E00D4803E00D4801E060
:104C70000D4800BF00BF00BD201C024040420F0095
:104C80000090D003006CDC020048E80100366E01A1
:104C90000024F400001BB70000127A00808D5B0036
:104CA00000093D00C0C62D0080841E0070B50B4B6E
:104CB0000146C417640F6418E4101C5D0246C51752
:104CC0006D0FAD18ED10ED00461B0125B5402C43CE
:104CD000C5176D0F6D18ED105C5570BD005000408C
:104CE000FFB583B00D9A120F120701239B079A425A
:104CF00002D10022009201E0012200920E9A120FCE
:104D0000120701239B079A4201D1002400E00124ED
:104D1000009A002A01D1012200E000222240002A4C
:104D200002D0002201920DE0002C01D1012200E00E
:104D30000022009B1A40002A02D00122019201E0C9
:104D4000002201920122520782181170069A9201E4
:104D50002032E3001A43009B9B001A43019B5B0037
:104D60001A43059B1A43204B0D015A5301231E4A37
:104D70000D01521953801C4B0D015B190C9A9A803E
:104D8000194B0D015B190C9ADA80174A0D01521963
:104D90000D9B9360144A0D0152190E9BD360134A68
:104DA000927E08231A43114B9A769A04104B9A600C
:104DB0001A4602920246C5176D0FAD18EE10029DFD
:104DC000AD5D0346C617760FF618F610F600871B82
:104DD0000126BE403543C617760FB618F710029E5F
:104DE000F55507B0F0BD000020000020000802408B
:104DF0000050004070B50B4B0146C417640F641897
:104E0000E4101C5D0246C5176D0FAD18ED10ED00E6
:104E1000461B0125B540AC43C5176D0F6D18ED104D
:104E20005C5570BD0050004030B5F1210B4AD16097
:104E30000A4B10330146C417640F6418E410E400F1
:104E4000051B0124AC400246C5176D0FAD18ED10CF
:104E50005C550021014AD16030BD00000050004087
:104E600010B5044600F006FA00F01AF9002002F02E
:104E70009FFA0A2009F0B4FED82001F08DFEFF2130
:104E800009042140080C01F087FEFF21090221409E
:104E9000080A01F081FEE0B201F07EFE012002F07E
:104EA00087FA0A2009F09CFE00F0FAF810BD70B5F0
:104EB00005460C46164602F08BFA002002F078FAFE
:104EC0000A2009F08DFE032001F066FEFF2109048F
:104ED0002140080C01F060FEFF2109022140080A70
:104EE00001F05AFEE0B201F057FE04E0552001F057
:104EF00053FE28706D1C3046711E8EB20028F5D10D
:104F0000012002F055FA0A2009F06AFE70BD10B5C2
:104F100000F0B0F9002002F04BFA0A2009F060FE20
:104F2000C72001F039FE012002F042FA0A2009F000
:104F300057FE00F0B5F810BD10B5044602F048FA6F
:104F400000F098F900F0ACF8002002F031FA0A20E5
:104F500009F046FE812001F01FFEFF2109042140D7
:104F6000080C01F019FEFF2109022140080A01F096
:104F700013FEE0B201F010FE012002F019FA0A203F
:104F800009F02EFE00F08CF810BD70B505460C46F9
:104F9000164602F01DFA00F06DF9002002F008FA42
:104FA0000A2009F01DFE022001F0F6FDFF21090490
:104FB0002140080C01F0F0FDFF2109022140080A00
:104FC00001F0EAFDE0B201F0E7FDFF20013086428A
:104FD00000DD064603E0287801F0DEFD6D1C30465A
:104FE000711E8EB20028F6D1012002F0E1F90A20EC
:104FF00009F0F6FD00F054F870BD70477047704737
:105000004C31303031000000000000000000000092
:105010004150505F4D415354455200000000000084
:10502000312E302E31390000000000000000000059
:105030004E6F7620323020323032330000000000D4
:1050400031303A33363A33370000000000000000B8
:105050004A4F454C2E4348454E00000000000000DA
:105060000000000000000000000000000000000040
:105070000000000000000000000000000000000030
:105080000000000000000000000000000000000020
:105090000000000000000000000000000000000010
:1050A00010B50024002002F083F90A2009F098FDD1
:1050B000052001F071FD00BF552001F06DFD044693
:1050C000E007C00F0028F7D1012002F071F90A2093
:1050D00009F086FD10BDF8B504460D46164602F0EF
:1050E00077F92F460094324639460098FFF782FA46
:1050F000F8BDF7B5FFB085B085988390002754E0E0
:1051000002F066F98398C505ED0D8398401B8090E9
:1051100001204002441B8698C01B86B28498C019A7
:105120008290684640198190B4421FDB002D03D164
:1051300001204002864205D0012252026846809931
:10514000FFF7C9FF324682998198FFF753FA80989A
:105150000AF083F86A460121490280980AF0A7F80C
:10516000839880198390B81987B21EE0002D03D16F
:1051700001204002844205D00122520268468099F3
:10518000FFF7A9FF224682998198FFF733FA8098AA
:105190000AF063F86A460121490280980AF087F80C
:1051A000839800198390381987B286988742A7DBC5
:1051B0007FB008B0F0BDF7B5C4B045984390002764
:1051C00053E002F005F94398C5B24398401B409064
:1051D000FF200130441B4698C01B86B24498C0197A
:1051E0004290684640194190B4421FDB002D03D124
:1051F000FF200130864205D0FF22013268464099E7
:10520000FFF755FE324642994198FFF7F3F940986F
:10521000FFF792FEFF22013268464099FFF7B5FE84
:10522000439880194390B81987B21EE0002D03D12E
:10523000FF200130844205D0FF22013268464099A8
:10524000FFF735FE224642994198FFF7D3F940987F
:10525000FFF772FEFF22013268464099FFF795FE84
:10526000439800194390381987B246988742A8DBC3
:1052700047B0F0BD10B5002002F09AF80A2009F0FE
:10528000AFFC062001F088FC012002F091F80A2012
:1052900009F0A6FC10BD000070B5184C247E640611
:1052A000240E174D2C72FF246C8101242C732C4684
:1052B000247A6D896D1C6C43114D2C612C1F616823
:1052C000104B002214E0002005E01C780C70491CF3
:1052D0005B1C441CA0B20428F7DB002004E000247F
:1052E0000C70491C441CA0B20428F8DB541CA2B268
:1052F000024C247E9442E6DC70BD0000F1110020D7
:10530000200B0020440B002070B5154C247E154D59
:105310002C72154C6478641C25022C1B114D6C8179
:1053200001242C732C46247A6D896D1C6C430D4D21
:105330002C612C1F63680D4A00200BE0002105E062
:1053400014781C705B1C521C4C1CA1B20429F7DBA6
:10535000441CA0B2034C247A8442EFDC70BD0000F0
:10536000F1110020200B00201C070020440B00201E
:1053700070B5134C247E134D2C72FF24F5346C81D0
:1053800001242C732C46247A6D896D1C6C430D4DC1
:105390002C612C1F63680C4A00200BE0002105E003
:1053A00014781C705B1C521C4C1CA1B20429F7DB46
:1053B000441CA0B2034C247A8442EFDC70BD000090
:1053C000F1110020200B0020440B002070B5144C7C
:1053D000247E144D2C722C46247A25022C1B114D50
:1053E0006C8101242C732C46247A6D896D1C6C43CE
:1053F0000C4D2C612C1F63680B4A00200BE0002130
:1054000005E014781C705B1C521C4C1CA1B20429D2
:10541000F7DB441CA0B2034C247A8442EFDC70BD5D
:10542000F1110020200B0020440B002070B5224811
:10543000007822494870002438E00A2060431E4961
:10544000891C4018047204F003FE06461C48017EC5
:105450003046FFF787F9CDB2A8002918184819304F
:105460000818417816206043164A1154A8002918DC
:10547000134819300818817816206043801881700D
:10548000A80029180E4819300818C1781620604362
:1054900080180171A80029180948193008180179E5
:1054A0001620604380188171601CC4B202480078E5
:1054B000A042C2DC70BD0000B81200201C07002012
:1054C000F11100202004002070B5224C247E6400DD
:1054D000641E214D2C72FF246C8101242C732C46F8
:1054E000247A6D896D1C6C431B4D2C612C1F6368E5
:1054F0001A4800210BE0002205E004781C705B1CB8
:10550000401C541CA2B2042AF7DB4C1CA1B2114C63
:10551000247E8C42EFDC0F4C247E012C19DD0F48D9
:105520000C4C247EA41EA400001900210CE00022D3
:1055300005E004781C705B1C401C541CA2B2042AB9
:10554000F7DB08384C1CA1B2024C247E641E8C424E
:10555000EDDC70BDF1110020200B0020440B002079
:1055600030B54C4B1B784C4C63704C4B1B7E012B65
:105570002ED14A4B5B7E002B03D0484B5B7EFF2B2A
:1055800026D100201FE00A234343424CA41C1B19D0
:105590001872424B9C7E16234343414DEC543F4BC3
:1055A000DC7E162343435B199C703C4B1C7F162307
:1055B00043435B191C71394B5C7F162343435B19D2
:1055C0009C71431CD8B2334B1B788342DBDC60E018
:1055D00000205AE00A2343432E4CA41C1B191872C6
:1055E0000022002137E00A2343432A4CA41CE45C38
:1055F0008B00CD18294B19335B5D9C4229D18B0060
:10560000CC18264B1933E3185C7816234343244DFA
:10561000EC548B00CC18214B1933E3189C781623DB
:1056200043435B199C708B00CC181C4B1933E31857
:10563000DC78162343435B191C718B00CC18174B85
:105640001933E3181C79162343435B199C7101221B
:1056500005E04B1CD9B2114B1B7E8B42C3DC00BF53
:10566000002A10D10024162343430D4DEC54162379
:1056700043435B199C70162343435B191C7116232B
:1056800043435B199C71431CD8B2024B1B78834285
:10569000A0DC30BDB81200201C070020F111002052
:1056A0002004002000B5FFF75BFF00BD70B5124C71
:1056B000247E124D2C72FF246C8101242C732C4605
:1056C000247A6D896D1C6C430C4D2C612C1F636812
:1056D0000B4A00200BE0002105E014781C705B1CD5
:1056E000521C4C1CA1B20429F7DB441CA0B2034C91
:1056F000247A8442EFDC70BDF1110020200B0020E1
:10570000440B00208278012A03D1C278024B1A7020
:1057100000E0704700BFFCE71A04002030B50246E5
:105720009378012B16D100200EE0D5780A2343434D
:10573000094CE35C9D4205D115790A2343431B19AB
:105740005D7006E0431CD8B2034B9B1E1B7883425E
:10575000EBDC00BF30BD0000BA12002010B5032200
:105760000021022001F00EF800221146042001F071
:1057700009F8002207210D2001F004F8042202217B
:105780000C2000F0FFFF002201210C2000F0FAFFA6
:10579000032206210D2000F0F5FF002206210D2036
:1057A00000F0F0FF01221146022000F0EBFF03227F
:1057B0000221084600F0E6FF00220321022000F04B
:1057C000E1FF04220021012000F0DCFF0022012182
:1057D000084600F0D7FF04220221012000F0D2FF8A
:1057E00004220321012000F0CDFF042211460120F4
:1057F00000F0C8FF042211460C2000F0C3FF042271
:1058000003210C2000F0BEFF10BD30B513460C780C
:105810000578AC4209DD0478E2180C78944202D293
:105820000C78047017E0027015E004780D78AC4233
:105830000FDD04789C4209DD0478E21A0C7894426A
:1058400002D90C78047006E0027004E00C78047051
:1058500001E00C78047030BD70B505460A21284679
:10586000FEF780FFC6B20A212846FEF77BFFCCB2C6
:1058700030010019C4B2204670BD00007FB51A4D3A
:1058800000201A49087000240DE029782D1DC8B2A7
:10589000694608556846005D14490978401813495F
:1058A0000870601CC4B2102CEFDB10480078FA2896
:1058B00004DD0E4800780A300C49087000200C49BD
:1058C0000870002408E06846005D0949097840181E
:1058D00007490870A01CC4B2102CF4DB04480078FF
:1058E000FEF722FE7FBD0000940850002E0200202B
:1058F00033020020012105480177054880880843CC
:105900000349888000200349087770470061004000
:10591000601504400060004008B50020164908707A
:105920001648808801210843144988800846408928
:105930001349084011494881084600891049084028
:105940000E49088108460089891508430B490881DA
:105950000020009005E000BF68460078401CC1B2FE
:105960000091684600780E28F5D904480089012185
:1059700008430249088108BD640300206015044003
:10598000FEFF0000012106480170064880880221C0
:1059900008430449888000200349087070470000CC
:1059A00020610040601504402060004008B51648A2
:1059B0008088022108431449888008464089134999
:1059C00008401149488108460089104908400E499D
:1059D000088108460089491508430B4908810020C1
:1059E000009005E000BF68460078401CC1B20091FD
:1059F000684600780E28F5D903480089022108433B
:105A00000149088108BD000060150440FDFF000049
:105A100010B55648008802210840022807D1544892
:105A20000088002803D0022004F04EFD9AE04F4881
:105A30000088C007C00F002807D04D480088002804
:105A400003D0052004F040FD8CE04A480078C007F0
:105A5000C00F002818D04648008800280FD04648BC
:105A6000006800784549087243480068401C424974
:105A700008603F480088401E3D49088072E0FFF7FB
:105A80004BFF04F02DFD6DE03A48007804210840FA
:105A9000002832D13548203080880121084333491D
:105AA000203188803148008B8004800C2F49088386
:105AB0000846008B0121890308432C4908832B48A1
:105AC0002030408801210843284920314880294856
:105AD00000780421084327490870294800880128D4
:105AE00007D1224820304089264908401F492031EB
:105AF0004881FF202149087234E02348008820496A
:105B0000098888422EDA1D48007A20490968087001
:105B10001E480068401C1D4908601B480088401C46
:105B20001949088016480088401E098888420BD110
:105B30000E4820304089134908400C4920314881E3
:105B4000FF200E4908720DE00F4800880C490988B3
:105B5000884204D1FFF7E0FE04F0B8FC02E0FF2029
:105B60000649087200200A49087710BD4015044014
:105B70006C030020640300206803002040170440E9
:105B800076030020FEFF0000740300207003002055
:105B90000060004010B556484088022108400228A5
:105BA00007D154480088002803D0022004F0A2FC4A
:105BB0009AE04F484088C007C00F002807D04D48E2
:105BC0000088002803D0052004F094FC8CE04A48AB
:105BD0000078C007C00F002818D046480088002869
:105BE0000FD04648006800784549887243480068ED
:105BF000401C424908603F480088401E3D490880DB
:105C000072E0FFF7D3FE04F081FC6DE03A480078C3
:105C100004210840002832D13548203080880221F4
:105C200008433349203188803148408B8004800C00
:105C30002F4948830846408B0121890308432C499A
:105C400048832B48203040880221084328492031CE
:105C500048802948007804210843274908702948CA
:105C60000088012807D12248203040892649084071
:105C70001F4920314881FF202149887234E02348A0
:105C800000882049098888422EDA1D48807A2049F8
:105C9000096808701E480068401C1D4908601B48C0
:105CA0000088401C1949088016480088401E098851
:105CB00088420BD10E4820304089134908400C49D6
:105CC00020314881FF200E4988720DE00F4800887E
:105CD0000C490988884204D1FFF768FE04F00CFCE7
:105CE00002E0FF200649887200200A49087010BDB2
:105CF0004015044080030020780300207C0300202E
:105D0000401704408A030020FDFF000088030020A4
:105D1000840300202060004010B500200E49087167
:105D20000E480068401C0D4908600D480088C007F7
:105D3000C00F002808D00B48008B401C012109042B
:105D400040180949086004E00648008B401C0649D9
:105D5000086001F049F810BD40600040B403002025
:105D6000A01D0440001F0440A403002000200E4991
:105D700008720E480068401C0C4908600C484088B6
:105D8000C007C00F002808D00A48408B401C0121E2
:105D9000090440180849086004E00648408B401C8C
:105DA000054908607047000040600040B8030020CB
:105DB000A01D0440001F0440A803002000200E493D
:105DC00008730E480068401C0C4908600C48808825
:105DD000C007C00F002808D00A488088401C012155
:105DE000090440180849086004E006488088401CFF
:105DF000054908607047000040600040BC03002077
:105E0000A01D0440601F0440AC03002000200E4988
:105E100008740E480068401C0C4908600C48C08893
:105E2000C007C00F002808D00A48C088401C0121C4
:105E3000090440180849086004E00648C088401C6E
:105E4000054908607047000040600040C003002022
:105E5000A01D0440601F0440B003002000200E4934
:105E600008730E480068401C0C4908600C48008804
:105E7000C007C00F002808D00A48008B401C012131
:105E8000090440180849086004E00648008B401CDB
:105E9000054908607047000060600040D40300209E
:105EA000A021044000230440C403002000200E4928
:105EB00008740E480068401C0C4908600C48408873
:105EC000C007C00F002808D00A48408B401C0121A1
:105ED000090440180849086004E00648408B401C4B
:105EE000054908607047000060600040D80300204A
:105EF000A021044000230440C803002000200E49D4
:105F000008750E480068401C0C4908600C488088E1
:105F1000C007C00F002808D00A488088401C012113
:105F2000090440180849086004E006488088401CBD
:105F3000054908607047000060600040DC030020F5
:105F4000A021044060230440CC03002000200E491F
:105F500008760E480068401C0C4908600C48C08850
:105F6000C007C00F002808D00A48C088401C012183
:105F7000090440180849086004E00648C088401C2D
:105F8000054908607047000060600040E0030020A1
:105F9000A021044060230440D00300201D4A127851
:105FA00080231A431B4B1A70002802D100221A4B7F
:105FB0001A77012808D10122174B1A77154AD2788F
:105FC00010231A43134BDA70022802D1A222124B7B
:105FD0001A77032802D182220F4B1A77042802D1A4
:105FE000C2220D4B1A77052802D103220A4B1A77D9
:105FF000062802D14322084B1A770022074B1A8247
:106000000123074A13770022064B1A77034A1182AD
:10601000704700002004024060040440404F0440E8
:10602000406100404060004010B500200B490877F7
:10603000172001F005FA0021094801770948008A74
:106040000121C90308430749088200BF0548008AA7
:106050000121C90308400028F8D010BD406000406D
:1060600040610040404F044011484189114881423D
:1060700001DD002070471048814201DD0520F9E76D
:106080000D48AC38814201DD0420F3E70B48814222
:1060900001DD0320EEE70A48814201DD0220E9E745
:1060A0000848814201DD0120E4E70020E2E700002A
:1060B00034100020AC0E0000110D0000540B000045
:1060C00054090000FF03000010B549480078022180
:1060D000084000280ED047480079012803D100204D
:1060E0004449087102E001204249087106F06AF84B
:1060F000FEF785FF4048007802210840002804D0C0
:10610000012008F045FA02F020F93C48007802210D
:106110000840002804D002F019F9002008F038FAED
:10612000374800780221084000280CD002F00FF90F
:106130000523344A2F49C91D481D00F0CAFA2D49CC
:10614000087B07F095FF30480078022108400028BE
:1061500003D002F0FDF801F089FD254800784021C8
:106160000840002806D002F0EFF828A0FEF76CF8EF
:1061700005F04CFB1E480078DD2108401C490870E2
:106180001D480078DD2108401B4908701B48007835
:10619000DD2108401949087019480078DD210840C0
:1061A0001749087018480078DD2108401649087022
:1061B0000F480078B32108400D4908700E48007858
:1061C000B32108400C4908700C480078B3210840FE
:1061D0000A4908700A480078B32108400849087045
:1061E00009480078B32108400749087010BD000035
:1061F000E006002074110020EC060020F8060020C4
:1062000004070020BFF800001007002072657365C6
:106210007420776966690D0A000000003EB5FFF73B
:1062200023FF044600200121FA220223009201915B
:1062300002900A4621461A4800F03CF8002001214D
:10624000322202230092019102901A4621461548FB
:1062500000F030F800200121322202230092019147
:10626000029003222146104800F024F8002001216A
:1062700032220223009201910290042221460B480F
:1062800000F018F80020012132220223009201912F
:10629000029005222146064800F00CF83EBD0000A1
:1062A000E0060020EC060020F8060020040700208D
:1062B00010070020FFB50C46099D00210023504F18
:1062C0004668BE4202D24668761C46604668AE42C8
:1062D00017D30A9E002E08D047680A9EAE19B7420F
:1062E00003D96E1C4660042631434668AE4201D194
:1062F00044263143944213D00C2631430026466095
:106300000EE04768039EB74206D9944208D00226A1
:1063100031430026466003E0944201D000264660E7
:10632000944201D1012631430B9E002E54D0022607
:106330000E40002E03D0FD26314010263143067852
:1063400010273E40002E34D02D4F8668BE4202D228
:106350008668761C866087680B9EB7421BD910261C
:106360000E40002E08D0EF2631402026314306781B
:10637000EF273E40067007E002263143EF2631400A
:106380000678EF273E400670002686600678EF27E5
:106390003E4006700DE010260E40002E09D020264B
:1063A0003143EF2631400678EF273E400670002645
:1063B000866006783E273E4033460678F607360E5E
:1063C000067006781E4306700678BE273E400670AB
:1063D00006780E43067011E006780E273E403346DD
:1063E0000678F607360E067006781E4306700678A5
:1063F0008E273E40067006780E430670FFBD0000F3
:10640000FFFF000010B59A480078401CC0B29849C0
:106410000870322801DD012008700020954988713C
:106420000320487108460078002802D001204870F7
:1064300010E090484078032803D08E484078022826
:1064400005D18C488068FF212D31884202D300207D
:106450008849487005F0D4F98649887008468078E4
:10646000022803D00846807803280CD1824800888F
:10647000401C80B280490880002807D10846008867
:10648000401E088002E000207B490880794880781F
:10649000030000F0A3FF0705090D1A273435390062
:1064A00002207449887133E00220724988712FE01C
:1064B000714800887149884203DD01206D494871A7
:1064C00002E001206B49887122E06B4800886B492B
:1064D000884203DD01206749487102E001206549D7
:1064E000887115E06648807A012803D1002061494F
:1064F000887103E003205F498871487108E007E074
:1065000002205C49887103E001205A49487100BFAC
:1065100000BF58480079002805D05948807A0128E2
:1065200001D15449487153484078032802D10020D2
:10653000504988714F484078022804D100204D49C5
:106540008871022048714B484078012803D104200B
:1065500048498871487147484079012803D0454827
:106560004079022802D10320424988710C21404819
:106570000078FEF7F7F8002934D13E4880790228E8
:1065800007D100BF3F48007B082148403D490873C0
:1065900000BF38484079022807D100BF3948007B46
:1065A000102148403749087300BF324880790428D9
:1065B00018D100BF3348007B082148403149087397
:1065C00000BF0846007B08210840002805D000BF16
:1065D00010212C487030017304E000BF10212948BD
:1065E000017700BF322122480078FEF7BBF800296E
:1065F00017D120488079012807D100BF2148007BAE
:10660000082148401F49087300BF1A4840790128F3
:1066100007D100BF1B48007B10214840194908736F
:1066200000BF14488079002805D100BF0821154813
:106630007030017300BF0F488079032804D100BF78
:1066400008211048017700BF0A484079002805D189
:1066500000BF10210B487030017300BF054840791E
:10666000032804D100BF10210648017700BF10BDE8
:1066700014040020680F002016040020B80B00004E
:10668000741100200000044000200849487100BF38
:1066900010210748017300BF03200449887100BF1F
:1066A000082103487038017700BF7047680F002049
:1066B0007000044030B50346002006E01C780D5CF5
:1066C000AC4200DC03E0441CE0B29042F6DB00BFC9
:1066D00030BDFFB50D4617461E46701EC2B2394684
:1066E0000098FFF7E7FF04462878002809DD601CC2
:1066F000C1B20C46701E81420BDBC4B20020287070
:1067000007E0002C01D0601EC4B2002C01D1012092
:106710002870395D00980170FFBD000010B5174862
:106720000079012821D115487D30007D022804D14F
:106730001348817A114841711FE01048007A0128FE
:106740000AD101F037FA01460C4801738179007BC8
:10675000814201D005F0F8F80848017B81710A22D6
:10676000811D401DFFF751F807E0002103488171AA
:106770000A22811D401DFFF748F810BD741100204A
:106780007416002070B50C4615460123A340D9B2FB
:106790002A462B0000F022FE070527435F65788C10
:1067A000AA00534B1B5C8B43514E3354504B403B20
:1067B0001B5C0B434E4E403E33544D4B103B1B5C19
:1067C0008B434B4E103E3354494B303B1B5C8B4349
:1067D000474E303E3354464B203B1B5C8B43444E6C
:1067E000203E335482E0424B1B5C8B43404E33547B
:1067F0003F4B403B1E5C0E431E543D4B103B1E5C0A
:106800008E431E543A4B303B1B5C0B43384E303E9C
:106810003354374B203B1E5C8E431E5466E0344B92
:106820001B5C8B43324E3354314B403B1E5C0E435A
:106830001E542F4B103B1B5C8B432D4E103E33548C
:106840002B4B303B1E5C8E431E54294B203B1E5C61
:106850008E431E544AE0264B1B5C0B43244E33549C
:1068600044E0234B1E5C8E431E54214B403B1B5C7B
:106870008B431F4E403E33541D4B103B1B5C8B43E0
:106880001B4E103E335431E0194B1B5C8B43184EAA
:106890003354174B403B1B5C8B43154E403E3354E7
:1068A000134B103B1B5C0B43114E103E33541DE049
:1068B0000F4B1B5C8B430E4E33540D4B403B1E5C09
:1068C0000E431E540A4B103B1B5C8B43084E103E7C
:1068D0003354074B303B1E5C8E431E54044B203B0D
:1068E0001B5C0B43024E203E335400BF00BF70BD03
:1068F0006000044010B504462078FEF77BF9207054
:106900006078FEF777F96070A078FEF773F9A070F1
:10691000E078FEF76FF9E0702079FEF76BF92071EF
:106920006079FEF767F96071A079FEF763F9A071ED
:1069300010BD00001749897F01221143154A917744
:1069400000BF1449897F022211400029F9D0114962
:10695000897C01700F49C97C41700E49097D8170A5
:106960000C49897DC1700B49497D01710949C97D77
:1069700041710849097E81710649897F49084900AA
:10698000044A917700BF0349897F02221140002900
:10699000F9D17047404F044010B504462078FEF707
:1069A0005BFF20706078FEF757FF6070A078FEF7FD
:1069B00053FFA070E078FEF74FFFE0702079FEF7FC
:1069C0004BFF20716079FEF747FF6071A079FEF7F9
:1069D00043FFA07110BD00001F49097880221143B8
:1069E0001D4A1170002808D100211C4A11771A494C
:1069F000C97810229143184AD170012808D1012189
:106A0000164A11771449C97810221143124AD170DD
:106A1000022802D1A221114A1177032802D1822132
:106A20000E4A1177042802D1C2210C4A1177052899
:106A300002D10321094A1177062802D14321074ACE
:106A400011770021064A51771146497F08221143E8
:106A5000034A51777047000020040240600404405C
:106A6000404F04401449897F01221143124A917713
:106A700000BF1149897F022211400029F9D0017815
:106A80000D4A91744178D17481781175C1789175EE
:106A9000017951754179D175817911761146897FD6
:106AA00049084900917700BF0349897F02221140BC
:106AB0000029F9D170470000404F044010B5002074
:106AC00014490876162000F0BBFC0021124801761C
:106AD0001248407F80210843104948770846807F4C
:106AE000012108430D49887700BF0C48807F0221AF
:106AF00008400028F9D00948807F40084000074935
:106B0000887700BF0548807F022108400028F9D11E
:106B100010BD00004060004040610040404F044014
:106B2000002804D000BF082204494A7405E000BFD1
:106B30000822024970314A7000BF704700000440CB
:106B400010B5012211461046FFF71CFE0422022157
:106B50000120FFF717FE042203210120FFF712FE98
:106B6000042211460120FFF70DFE012000F020FC59
:106B70000020FFF7D5FF10BD002804D000BF04227D
:106B800004494A7405E000BF0422024970314A708A
:106B900000BF70470000044070B503460025002682
:106BA000FF2400BF1FE080201840C6095806030ECE
:106BB0006006040E0020FFF7B3FF3046FFF7DCFF4E
:106BC000012008F00DF80120FFF7AAFF012008F0CE
:106BD00007F80848407802210840002801D0601CCE
:106BE000C4B2681CC5B2082DDDDB0020FFF798FF9A
:106BF000204670BD0000044010B538480068401CB5
:106C00003649086036480078012108433449087045
:106C100006F0E4FD31480078C007C00F002805D118
:106C20002F480078022108432D49087005212B4880
:106C30000068FDF78DFD002905D129480078042161
:106C4000084327490870072124480068FDF780FDA4
:106C5000002905D1224800780821084320490870FE
:106C600019211E480068FDF773FD002905D11C4855
:106C70000078102108431A4908703221174800682B
:106C8000FDF766FD002905D115480078202108434D
:106C9000134908707D2111480068FDF759FD00294E
:106CA00005D10F480078402108430D490870FA21AA
:106CB0000A480068FDF74CFD002905D10848007816
:106CC0008021084306490870044800680549884245
:106CD00002D300200149086010BD00005C020020C2
:106CE0002B020020AC0D000010B5002008490870F0
:106CF00007F006FDFEF7C2FD05F0F0FA05F06EFCA8
:106D000007F076FA05F0B0FC03F020FB10BD0000A0
:106D10001004002002480068401E014908607047C6
:106D20001802002000B5FDF779FF0149086000BD99
:106D30001C04002000B580201B4948711A201A4904
:106D4000203908732B2048733C2088734D20C8736A
:106D5000002016494860FDF761FF154908600020D2
:106D6000C043144908601449086014481449086075
:106D7000114903221202891848600F498918886056
:106D80000D498918C8600C49891808610A49891891
:106D9000486109498918886107498918C861AC2088
:106DA0000849487000BD00002004024000B00140C6
:106DB0001C04002080E200E000E100E0C0C0C0C090
:106DC00000E400E0001002400249498A0143014A00
:106DD00051827047A01D04400249898A0143014A3B
:106DE00091827047A01D044010B508F0D9F8FFF754
:106DF00003FF10BDF8B505460E466A4631462846E3
:106E000000F0FEF90446002C1FD1032010498880B1
:106E10000846C08800090001C8800846C088694645
:106E2000097808430A49C880684640784006000C43
:106E300008490882684640784006000C48820448A9
:106E4000408803210843024948802046F8BD0000DD
:106E5000201104400013044070B505460E463C481E
:106E60000078042108433A49087003203949C88052
:106E70002220384920390882374808836720400299
:106E8000364908823648007C012108433449087499
:106E90000720304920394881FF202330488231487B
:106EA0004883672040022D4948822A4800890121F1
:106EB0000843284908810846808A2B49084025490B
:106EC000888208464089012108432249488100BF41
:106ED00005202649087226484078012108432449A4
:106EE0004870234820304078400840002049203135
:106EF00048701F484030407C400840001C494031E9
:106F000048741B48603040784008400018496031A0
:106F1000487000BF00BF0E20144960310872144849
:106F200020308078082108431149203188701048AA
:106F300060308078082188430D496031887000BF37
:106F400031462846FFF756FF0446204670BD000034
:106F500020040240201104409780000000130440E8
:106F60006004044097400000FEFF00000008044059
:106F7000000004400449087400BF044909886022E5
:106F800011400029F9D1704700130440001104405A
:106F9000F8B505460E466A463146284600F030F9F7
:106FA0000446002C19D10C200D49888068460078D1
:106FB000502108430A49C880684640784006000CC2
:106FC00008498880684640784006000CC88004481C
:106FD00040880C210843024948802046F8BD000043
:106FE000201104404013044070B505460E46434846
:106FF00000780421084341490870414880880C21E9
:1070000008433F49888001213E4801750176017798
:1070100000203D490875087608773C4838492039F2
:1070200088823A48753088836720400238498880D2
:107030003848007C04210843364908740720304949
:107040002039C8813448C8823448C8836720400248
:107050002F49C8802A48008904210843284908810B
:107060000846808A2E49084025498882084640897A
:10707000042108432249488100BF0A202949887019
:107080002948007B042108432749087326482030FB
:10709000007B042188432449203108732248403072
:1070A000007F042188432049403108771E48603022
:1070B000007B042188431C496031087300BF00BF76
:1070C0000C2018492031C8731748203080780221DD
:1070D00008431549203188701348603080780221B8
:1070E000884311496031887000BF31462846FFF758
:1070F0004FFF044600F05CF8204670BD20040240BB
:1071000020110440206100402060004022800000E7
:1071100040130440600404402281000097400000B6
:10712000FBFF0000400804400000044010B5024688
:107130000020002901D1812006E00023034C238098
:10714000034B1980034B1A6010BD0000E8020020B9
:10715000EA020020E402002010B5024600200029C7
:1071600001D181201AE00E4B1A600E4B19800123C9
:107170000D4C23700A4B1B681B780C4C2371084B79
:107180001B685B1C064C2360064B1B885B1E054C72
:10719000238000BF044B1B78002BFBD110BD0000E7
:1071A000DC020020E0020020260200204013044000
:1071B00010B510480089042108430E49088108468B
:1071C0004089042108430B494881084640880C2126
:1071D00008430849488000200749087508760D20B3
:1071E00000F016F90E2000F013F900210348017594
:1071F000017610BD20110440206000402061004055
:10720000F7B584B014468020039000263DE070005E
:10721000204A115A0498FDF79BFA0190022730E0AA
:10722000791C0198FDF794FA410802911A4A0299D3
:10723000514308460599FDF78BFA1749451AE12194
:107240004902059888420DD1281E01DB014600E065
:107250004142462913DA2670677000200390039894
:1072600007B0F0BD281E01DB014600E041421429B1
:1072700005DA26706770002003900398F0E7781C09
:10728000C7B2802FCCDB701CC6B2102EBFDB0398B8
:10729000E6E700007EF400001027000070B5054608
:1072A0000C463E480078012108433C490870822082
:1072B0003B49C8822846FFF78FFD012D06D0022DDD
:1072C0001CD0042D32D0082D62D148E00020354971
:1072D0000871112000F090F80120C00330492039D6
:1072E0000882601E304908832D48408B40084000CA
:1072F0002B49488300212D4801714AE0002029498B
:107300000872122000F078F80120C00324492039C7
:107310004882601E244948832148408B02218843CB
:107320001F49488300212148017232E000201D4995
:107330000873132000F060F80120C00318492039B9
:107340008882601E1849603188801548408B04216E
:1073500088431349488300211448017319E0002031
:1073600010490874142000F047F80120C0030C49AC
:107370002039C882601E0C496031C8800848408BA3
:10738000082188430649488300210848017400E029
:1073900000BF00BF2846FFF717FD70BD2004024064
:1073A000A01D044040600040001F044040610040B8
:1073B000002804D000BF102204494A7405E000BF31
:1073C0001022024970314A7000BF7047000004402B
:1073D000AC200149487070470010024030B4744638
:1073E000641E2578641CAB4204D3635D5B00E31824
:1073F00030BC18471D46F8E7002805DBC206D20E50
:1074000001219140014A11607047000080E200E0D4
:10741000002805DBC206D20E01219140014A11600D
:107420007047000080E200E0002805DBC206D20EB3
:1074300001219140014A11607047000080E200E0A4
:10744000002805DBC206D20E01219140014A1160DD
:107450007047000080E200E010B5002819DB1A4AEE
:1074600003231B02D21883089B00D2588307DC0E2B
:10747000FF23A3409A438B071B0E8407E40EA3400F
:107480001A43114B032424021B198408A4001A5127
:1074900018E00E4A03071B0F083B9B089B00D258BD
:1074A0008307DC0EFF23A3409A438B071B0E840740
:1074B000E40EA3401A43054B0407240F083CA4081C
:1074C000A4001A5110BD000000E100E01CED00E036
:1074D00030380A2801D20120704700207047000090
:1074E000002803D00449054A116202E00121034A41
:1074F000116200BFFEE70000AD0B000000800240FB
:107500000EB5FDF75FFB0520FDF774FC1B48007806
:10751000002802D0012828D113E001201749087063
:107520002420FDF72FFB1548CC30154901221346C6
:1075300000920191029000220E210520FDF7D0FB60
:107540001AE002200D4908700020FDF71BFB0B48D4
:10755000801C0B49642201230092019102900022B9
:107560000E210520FDF7BCFB06E00320034908704F
:107570000520FDF73FFC00BF00BF0EBD740F0020CB
:107580000E5004400EB500200A490870FDF71AFBA2
:107590000220FDF7F7FA0748CA30074901221346CF
:1075A00000920191029000220E210520FDF798FB28
:1075B0000EBD0000740F00200E50044010B50020D6
:1075C0000449087504480068401C03490860FFF737
:1075D00097FF10BD40600040EC03002070B5FFB085
:1075E000BDB006460C46214637A0FCF72DFE684686
:1075F00002F03EFB68460078002812D0684600780A
:10760000A04201DB1E2C0CDB214635A0FCF71CFE42
:107610003C4A3DA146A0FCF717FE00207FB03DB0DC
:1076200070BD00251BE01920684300A901314018F6
:10763000007D317D884210D11920684300A90131B5
:107640004018417D707D814207D1A54205D0214679
:107650003BA0FCF7F9FD0020E0E7681CC5B26846D6
:107660000078A842DFDC68460078A04209D168466D
:107670000078401CC1B2684601703AA0FCF7E4FDF6
:1076800013E068460078A04203DD3CA0FCF7DCFD77
:107690000BE0214612A0FCF7D7FD1A4A1C321AA1B2
:1076A00023A0FCF7D1FD0020B8E71921614300AA0F
:1076B0000132881819223146FCF79CFF684606F013
:1076C0008BFA0120AAE700006164645F636C6F635A
:1076D0006B5F7363686564756C652025640D0000DD
:1076E0005B6572726F725D206164642077726F6E89
:1076F00067207363686564756C65206E756D203AEC
:1077000025640D00F90300002E2E5C555345525C94
:1077100065787465726E616C5F6D656D6F72795CB2
:10772000757365725F6D656D6F72792E6300000011
:107730004572726F723A25732C25640D0A000000A1
:107740005B6572726F725D20726566757365207419
:107750006F207361766520636C6F636B3A202564DC
:107760000D000000616464206E657720636C6F63B8
:107770006B207363686564756C650D00757064617A
:107780007465206F6C6420636C6F636B2073636837
:107790006564756C650D000010B5C0B004462146E7
:1077A00001A802F0E5FA012069464876214601A8C1
:1077B00006F040FA30A802F0F3FA07A0FCF744FD07
:1077C000214630A800F01CF830A806F067FA05F052
:1077D00091FB012040B010BD6164642065666E7548
:1077E0006D20696E206661766F72697465732065BD
:1077F00066666563742072616E6B6C6973740D00EC
:1078000070B590B004460E4640216846FCF75AFF1A
:1078100000206946087020783C2809D91FA0FCF791
:1078200013FD217827A0FCF70FFD002010B070BDDC
:1078300000250FE0601C405DB04209D0601C415D36
:1078400068460278501CC3B268460370401C8154DD
:10785000681CC5B22078A842ECDC68460078217824
:10786000884214D168460178401C46546846007826
:10787000401CC1B2684601703D2269462046FCF7B3
:10788000B9FE314612A0FCF7DFFC0120CEE73146FD
:107890001BA0FCF7D9FC0120C8E70000616464204C
:1078A0006E756D62657220696E20656666656374CB
:1078B0002072616E6B206C697374206572726F72D6
:1078C0000D0000005B6E756D3A25645D0D000000D3
:1078D000616464206E756D62657220696E206566F4
:1078E000666563742072616E6B206C6973742073BB
:1078F00075636365737366756C203A25640D0000CB
:107900004572726F723A206164642065786973749D
:10791000696E67206E756D62657220696E20726196
:107920006E6B206C6973743A25640D007FB5044654
:107930000E46002000900190029003906946087066
:1079400020780D2809D91FA0FCF77EFC217825A0FE
:10795000FCF77AFC002004B070BD00250FE0601C2D
:10796000405DB04209D0601C415D68460278501C01
:10797000C3B268460370401C8154681CC5B22078AD
:10798000A842ECDC684600782178884213D168462A
:107990000178401C465468460078401CC1B26846D5
:1079A00001700E2269462046FCF724FE10A0FCF769
:1079B0004BFC0120CFE7314616A0FCF745FC012027
:1079C000C9E70000616464206E756D6265722069AC
:1079D0006E2072616E6B206C697374206572726FB9
:1079E000720D00005B6E756D3A25645D0D00000040
:1079F000616464206E756D62657220696E207261CB
:107A00006E6B206C69737420737563636573736642
:107A1000756C0D00616464206578697374696E67C4
:107A2000206E756D62657220696E2072616E6B20CA
:107A30006C6973743A25640D0000000030B591B094
:107A400005460C46802C05DA15A0FCF7FDFB00204E
:107A500011B030BD002068752146284606F0EAF8CE
:107A600015A0FCF7F1FB01A802F01AF9214601A8C4
:107A7000FFF7C6FE01A806F0C7F816A0FCF7E4FB66
:107A800001A802F0ADFA214601A8FFF7B9FE01A84E
:107A900006F020F9204605F00FFA0120D8E7000093
:107AA0006164645F6F726967696E616C5F656620AF
:107AB0006572726F720D000061646420696E2061EE
:107AC0006C6C206566666563742072616E6B6C69B0
:107AD00073740D0061646420696E206F7269676958
:107AE0006E616C206566666563742072616E6B6C96
:107AF0006973740D000000007FB505460C460D2C1F
:107B000006D321460AA0FCF79FFB002004B070BDFD
:107B10002146284606F0E8F8684602F08FFA21462A
:107B20006846FFF703FF684606F0F0F80120EDE72E
:107B30004572726F723A206164642065786973746B
:107B4000696E67206E756D62657220696E20706C5B
:107B500061796C697374203A25640D0010B505498C
:107B6000CA7F087F213104F04FFB002101481B3000
:107B7000417110BD7411002010B503F0E5FE04F052
:107B800021FB04F001FB03F0BDFE03F099FE03F0BE
:107B9000F7FE10BD3EB50446684604707921417079
:107BA000002181700321024A06F034FE3EBD000030
:107BB000401500200C4A9289521C91B264224A431B
:107BC00011135F2901DD642102E0052900DA052196
:107BD000064A527A002A03D16422521AD0B2704760
:107BE000C8B200BFFBE70000341000207411002071
:107BF00010B516480078002826D1144800790128CD
:107C000022D11248807E01281ED110480069401CF4
:107C1000002804D00D480069401C0C4908610B483D
:107C20004078002810D10948407F3C214843044651
:107C30000648807F041905480069A04204D9002144
:107C40000248016106F056FC10BD000074110020CE
:107C500001460020087800024A78104300028A7822
:107C600010430002CA7810437047000010B5114855
:107C7000007D01280ED100210E4801750EA0FCF7F1
:107C8000E3FA0C487D30007D022811D1002006F077
:107C90007FFC0DE00121074801750AA0FCF7D4FA2A
:107CA00004487D30007D022802D0002006F070FCE0
:107CB00010BD00007411002052485954484D5F4FC8
:107CC00046460D0052485954484D5F4F4E0D000036
:107CD00030B502460020002303E01578521C281816
:107CE0005B1C8B42F9D330BD00B591B0402101A897
:107CF000FCF7E8FC01A805F087FF01A805F0EAFF02
:107D000001A805F0CBFF11B000BD00B5C1B0022045
:107D100069460870C10100A80130FCF7D1FC684633
:107D200005F07CFF41B000BD00B589B006A0FCF7AE
:107D30008BFA202101A8FCF7C5FC0B49202201A8E1
:107D4000FDF7D7F909B000BD636C6561725F6669C4
:107D5000726D776172655F646F776E6C6F61645F7F
:107D6000666C61670D0000000002500000B585B030
:107D700006A0FCF769FA14216846FCF7A3FC14225C
:107D800091046846FDF7B5F905B000BD636C656107
:107D9000725F6669726D776172655F757064617438
:107DA000655F666C61670D001FB500200090019053
:107DB00002900390684605F0A9FF1FBD10B5FFB003
:107DC000BFB0BCA8FEF7B6FDBCA8FEF793FD2C48DB
:107DD000C078002803D0B8A8807D002802D103F025
:107DE00007FD45E0B8A8407C2649097888423FD085
:107DF000684601F03DFF68460078002838D000242E
:107E000032E01920604300A901314018007C0128AC
:107E100028D1192060434018017EB8A8027D0120B6
:107E20009040014000291DD01920604300A9013174
:107E30004018007DB8A9897C884213D1192060437D
:107E400000A901314018407DB8A9497C884209D178
:107E50001921614300AA01328818BCA906F0DAF999
:107E600000F012F8601CC4B268460078A042C8DC7A
:107E7000B8A8407C034908707FB03FB010BD000037
:107E8000680F002018040020002101488175704708
:107E90009412002070B505460C46611E2846FFF777
:107EA00017FFC1B228192038C07F814208D021466F
:107EB000284605F07FFB03A0FCF7C6F9002070BD43
:107EC0000120FCE7636F6D20646174612076657248
:107ED000696679206572726F720D0A0070B502468C
:107EE0000B4618781678B04222D1107800281DD0A1
:107EF0000025002110E0002409E0501C065D581CFC
:107F0000405C864201D1681CC5B2601CC4B21078C6
:107F1000A042F2DC481CC1B210788842EBDC107839
:107F2000A84201D1012070BD0020FCE70120FAE742
:107F30000020F8E71CB504466846047074214170BF
:107F400000218170C4700421014A06F063FC1CBD4D
:107F50004015002010B5A0B0002404E0204605F034
:107F600033FD601CC4B21E2CF8DB15A0FCF76CF9C5
:107F700040216846FCF7A6FB10A802F031F810A8D3
:107F800000781E30C1B26846017010A80278411C0A
:107F90002138FCF72FFB002404E000A80130045531
:107FA000601CC4B21E2CF8DB684605F02DFE0CA048
:107FB000FCF74AF9684604F0E9FD20B010BD000066
:107FC000636F70795F6275696C745F696E5F656617
:107FD0005F746F5F6E6F72666C6173680D00000096
:107FE000736176655F616C6C65665F72616E6B6C08
:107FF0006973740D0000000070B505460C46102230
:10800000691C2046FCF7F6FA687C2074A87C607432
:10801000E87CA074287DE074687D2075A97D617579
:10802000E87DA075297EE175687E207670BD70B50B
:1080300004460D4610222146681CFCF7DBFA207C22
:108040006874607CA874A07CE874E07C2875207D4E
:108050006875617DA975A07DE875E17D2976207E32
:10806000687670BDF0B587B00446002006909E4942
:10807000E01C085C0390039808285ED007DC03002E
:10808000FFF7ACF90716191C1F2A2E3288000E289C
:108090007ED006DC0A2853D00B287AD00C2879D160
:1080A000EFE01C2877D02B2876D03428F7D108E1D0
:1080B00002F0EEF915E105F009FB12E101F04EFFC7
:1080C0000FE18949A01D085C88490870002203213E
:1080D000084607F033F804E101208549087000E103
:1080E000012084490870FCE07F49201D085C0602DD
:1080F0000A46611D515C0E430020049019E0A01D4A
:1081000004994018801C7849085C0502A01D049958
:108110004018C01C7449085C45190919891D049A46
:10812000881800F0F1F80746291D0498401880B21D
:1081300004900498B042E2DBD3E0FFF71DFDD0E0ED
:10814000002005900598002804D1FF2001306A49DD
:1081500008800CE00598012803D140026649088098
:1081600005E00598022802D14002634908805E4973
:10817000A01D085C614908600846006800020860AC
:108180005949E01D085C5D49096808435B4904E002
:1081900083E024E0A4E07AE08BE008600846006811
:1081A00000020860504920460830085C53490968BD
:1081B00008435249086008460068000208604A49BE
:1081C00020460930085C4D49096808434B4908605E
:1081D000002006F0F7FC0A204949087081E0484871
:1081E00000780A284CD10120464908703E49201DDC
:1081F000085C06020A46611D515C0E431146A01D33
:108200000D5C2D02E01D085C05432D022046083060
:10821000085C05432D0220460930085C05430846EA
:10822000069020460A30069908180690042E0DD1B3
:1082300032480068854209D100222946069803F099
:1082400011FA074600202E4908700FE0301F2A4916
:108250000988884206DC82B22946069803F002FAB1
:10826000074603E00020264908700027012F04D1AB
:10827000002203210B2006F061FF00202149087035
:108280002FE019490919881D03F08AFA29E01649D7
:108290000919881D03F0B2FF23E01349A01D085CF3
:1082A0000290E01D085C01900199029806F0B0FE72
:1082B00017E00D49A01D085C0290029802F032F808
:1082C0000FE00949201D085C06020A46611D515C49
:1082D0000E4311460919881D314604F045F800E0A7
:1082E00000BF00BF07B0F0BDCC0B00206F02002024
:1082F0006D0200206E020020720200207402002035
:10830000780200206C020020FEB5044626786778CB
:10831000A0780502E078401985B2304601F010FDE2
:10832000019001984000074940184078B84201D0B8
:108330000020FEBD2A46211D304600F0EBFC0090D7
:108340000098F6E728F400007047704770477047C0
:10835000704700000349086000BF0249096800290E
:10836000FBD1704718020020044800E000BF01461E
:10837000421E90B20029F9D170470000E84E00007B
:1083800010B5C0B00446214601A801F0F1FC002060
:1083900069464876214601A805F04CFC08A0FBF789
:1083A00053FF30A801F0FCFC214630A800F018F87B
:1083B00030A805F073FC04F09DFD012040B010BD15
:1083C00064656C6574652066726F6D206661766F9A
:1083D00072697465206566666563740A0000000052
:1083E000F0B591B004460F46394622A0FBF72CFFAA
:1083F000402101A8FCF766F920783C2809D926A07D
:10840000FBF722FF217830A0FBF71EFF002011B000
:10841000F0BD2078002804D12EA0FBF715FF002026
:10842000F5E7002600250DE0601C405DB84207D04E
:10843000601C425D3046711CCEB201A901310A5464
:10844000681CC5B22078A842EEDC2078B04204D186
:108450002AA0FBF7F9FE0020D9E7684606713D2205
:1084600001A92046FCF7C6F831A0FBF7EDFE01207C
:10847000CDE7000064656C6574655F6E756D5F6661
:10848000726F6D5F6566666563745F72616E6B6C5B
:108490006973743A25640A006572726F723A646592
:1084A0006C6574652077726F6E67206E756D62659E
:1084B0007220696E206566666563742072616E6BFA
:1084C000206C6973740D00005B6E756D3A25645DF8
:1084D0000D0000007761726E696E673A64656C65C5
:1084E000746520656D7074792065666665637420B7
:1084F00072616E6B206C6973740D00007761726E2F
:10850000696E673A2064656C6574652077726F6E7A
:1085100067206E756D62657220696E20656666659E
:1085200063742072616E6B206C6973740D000000BF
:1085300064656C657465206E756D62657220696E28
:10854000206566666563742072616E6B206C69736A
:1085500074207375636365737366756C0D0000003A
:10856000F0B585B004460F460020009001900290BF
:10857000039020780D2809D91CA0FBF765FE21780F
:1085800025A0FBF761FE002005B0F0BD2078002893
:1085900004D124A0FBF758FE0020F5E700260025B3
:1085A0000DE0601C405DB84207D0601C425D304663
:1085B000711CCEB200A901310A54681CC5B22078E2
:1085C000A842EEDC2078B04204D11FA0FBF73CFEAD
:1085D0000020D9E7684606700E2269462046FCF75F
:1085E00009F826A0FBF730FE0120CDE764656C6535
:1085F0007465206E756D62657220696E20706C61A5
:10860000796C6973742072616E6B206C697374206D
:108610006572726F720D00005B6E756D3A25645D58
:108620000D00000064656C65746520656D7074797B
:1086300020706C61796C6973742072616E6B206C50
:108640006973740D000000007761726E696E673A9D
:1086500064656C6574652077726F6E67206E756DEA
:1086600062657220696E20706C61796C69737472D6
:10867000616E6B206C6973740D00000064656C653D
:108680007465206E756D62657220696E20706C6114
:10869000796C6973742072616E6B206C69737420DD
:1086A0007375636365737366756C0D0010B5C0B048
:1086B0000446802C06DA21462CA0FBF7C5FD0020DD
:1086C00040B010BD214632A0FBF7BEFD214601A8F7
:1086D00001F056FC022069464876214601A805F0C3
:1086E000A9FA32A0FBF7B0FD30A801F0D9FA30A802
:1086F00004F04CFA214630A8FFF772FE30A805F0CE
:1087000083FA30A801F0CCFA30A804F03FFA2DA08B
:10871000FBF79AFD30A801F063FC30A804F036FAAC
:10872000214630A8FFF75CFE30A805F0D3FA30A848
:1087300001F056FC30A804F029FA2AA0FBF784FDCA
:1087400030A801F02DFB30A804F020FA214630A813
:10875000FFF746FE30A805F0A1FA30A801F020FB93
:1087600030A804F013FA00BFAAE700006572726F28
:10877000723A64656C657465206F726967696E61D1
:108780006C206566206E756D203A25640A00000035
:1087900064656C6574655F6F726967696E616C5F53
:1087A0006566206E756D203A25640A0064656C6507
:1087B00074652066726F6D20616C6C2065666665FD
:1087C00063740A0064656C6574652066726F6D2061
:1087D0006F726967696E616C206566666563740AAD
:1087E0000000000064656C6574652066726F6D2022
:1087F0006661766F72697465206566666563740A82
:10880000000000001FB50446684601F017FC214631
:108810006846FFF7A5FE684605F078FA04484079F7
:10882000A04201D100F012FF012004B010BD0000F1
:108830008F11002030B5FFB0FFB0FBB0044623A07D
:10884000FBF702FDBDA801F013FAB8A8017DA14213
:1088500004DB1E2C02DA007D00280ED1214620A068
:10886000FBF7F2FC8522D20027A131A0FBF7ECFC3C
:1088700000207FB07FB07BB030BD2F21090101A85F
:10888000FBF720FF002518E0A54214D019226A4307
:10889000BDAB0133D1186A46127919235A4301AB93
:1088A0000133D0181922FBF7A5FE68460079401C59
:1088B000C1B268460171681CC5B2B8A8007DA84263
:1088C000E2DC01A805F088F90120D2E764656C6557
:1088D00074655F7363686564756C650D0000000006
:1088E0005B6572726F725D2064656C65746520777C
:1088F000726F6E67207363686564756C65206E7552
:108900006D203A25640D00002E2E5C555345525CB7
:1089100065787465726E616C5F6D656D6F72795CA0
:10892000757365725F6D656D6F72792E63000000FF
:108930004572726F723A25732C25640D0A0000008F
:1089400002468A4202DD501AC0B27047881AC0B28D
:10895000FBE7000070B505460C462146FF220132B8
:108960002846FCF712FB6421614308460321890372
:10897000FBF7F8FE06462146324602A0FBF764FCF0
:1089800070BD0000646F776E6C6F61643A204F7841
:1089900025303478205B256425255D0D000000001E
:1089A00070B504460D4607A0FBF74EFC2A4621464B
:1089B000782002F0ABFD0646012E00D170BD0020EC
:1089C000FCE700003C64705F646F776E6C6F6164FD
:1089D0005F616C6C5F6566666563745F72616E6B28
:1089E0006C6973745F68616E646C653E0D000000B5
:1089F000F8B504460D462946204602F0C6FE074655
:108A0000384601F0C9FF3946832002F053FD06467F
:108A1000012E00D1F8BD0020FCE7F8B506460F4650
:108A20003946304602F0AEFE0546002D02D101F077
:108A3000DDFF02E0012001F0D9FF2946822002F08B
:108A400005FD0446012C00D1F8BD0020FCE7F8B577
:108A500005460E463146284602F09AFE0446E0B22C
:108A600001F0EEFF21466A2002F0C0FD0746012F0B
:108A700000D1F8BD0020FCE7F8B505460E463146AA
:108A8000284602F085FE0446E0B201F0F7FF2146D9
:108A90006F2002F0ABFD0746012F00D1F8BD00208A
:108AA000FCE770B504460D462946204602F006F85C
:108AB0002A4621467F2002F029FD0646012E00D1DC
:108AC00070BD0020FCE770B504460D4629462046DF
:108AD00002F01CF82A4621467E2002F017FD0646C9
:108AE000012E00D170BD0020FCE770B504460D4694
:108AF0002A462146182002F041FD0646012E00D1EB
:108B000070BD0020FCE770B504460D46294620469E
:108B100002F03CF82A462146812002F0F7FC064686
:108B2000012E00D170BD0020FCE770B504460D4653
:108B30002946204602F048F82A462146802002F0C5
:108B4000E5FC0646012E00D170BD0020FCE770B5A3
:108B500004460D462946204602F088F82A4621465A
:108B6000682002F0D3FC0646012E00D170BD002023
:108B7000FCE7000070B504460D4607A0FBF764FB58
:108B80002A462146672002F0C1FC0646012E00D18C
:108B900070BD0020FCE700003C64705F646F776E7E
:108BA0006C6F61645F6566666563745F6C6973743E
:108BB0005F68616E646C653E0D000000F8B50446A8
:108BC0000D462946204602F0E3FD074606A0FBF7C6
:108BD0003BFB39466D2002F009FD0646012E00D10F
:108BE000F8BD0020FCE700003C64705F646F776EA6
:108BF0006C6F61645F6566666563745F6E756D5FFB
:108C000068616E646C653E0D0000000070B504463E
:108C10000D462946204602F061F82A462146772073
:108C200002F074FC0646012E00D170BD0020FCE766
:108C300070B504460D4607A0FBF706FB2A46214601
:108C40007C2002F063FC0646012E00D170BD00209E
:108C5000FCE700003C64705F646F776E6C6F61646A
:108C60005F6566666563745F736B657463685F6890
:108C7000616E646C653E0D0070B504460D4607A03C
:108C8000FBF7E2FA2A4621467A2002F03FFC06462C
:108C9000012E00D170BD0020FCE700003C64705F35
:108CA000646F776E6C6F61645F6661766F72697412
:108CB00065735F6566666563745F72616E6B6C6930
:108CC00073745F68616E646C653E0D0070B5044638
:108CD0000D4607A0FBF7B8FA2A462146752002F098
:108CE00015FC0646012E00D170BD0020FCE70000F7
:108CF0003C64705F646F776E6C6F61645F676C6F0C
:108D000062616C5F7374617475735F68616E646CCB
:108D1000653E0D00F8B505460E461746762D6ED019
:108D200026DC6B2D73D018DC662D50D00CDC172D93
:108D30003BD004DC142D2CD0152D6ED12FE0182D36
:108D400039D0652DF9D13CE0672D46D0682D4AD049
:108D5000692D4ED06A2DF0D153E028466C380300BF
:108D6000FEF73CFB0A5C62686E747A80868C925BCC
:108D7000284677380300FEF731FB1593999FA5AB82
:108D8000B1B7BDC3C9CFD5DBE1E7F3F9FFEFEEED36
:108D900050003946304600F095FB044605E139465F
:108DA000304600F01DFC0446FFE03946304600F036
:108DB000E1FB0446F9E039463046FFF796FE0446EB
:108DC000F3E03946304600F0C1F90446EDE039469B
:108DD000304600F075F90446E7E039463046FFF7C3
:108DE000C9FE0446E1E039463046FFF7B0FE0446CE
:108DF000DBE03946304600F0CFFB0446D5E049E0E1
:108E000005E039463046FFF722FE0446CDE03946FC
:108E1000304600F06CFB0446C7E0C5E039463046FA
:108E200000F036FB0446C0E039463046FFF7C6FE88
:108E30000446BAE03946304600F0B2F90446B4E0E0
:108E400039463046FFF718FE0446AEE03946304654
:108E500000F068FB0446A8E03946304600F0F0FA1E
:108E60000446A2E03946304600F04EF904469CE044
:108E70003946304600F036F9044696E03946304629
:108E800000F0A8F8044690E039463046FFF71EFF90
:108E900004468AE03946304600F08AF8044684E009
:108EA00039463046FFF7B2FE04467EE0394630468A
:108EB000FFF776FD044678E03946304600F0AEF81C
:108EC000044672E039463046FFF7D6FE04466CE0B1
:108ED0003946304600F08CF9044666E039463046A3
:108EE000FFF7A6FE044660E03946304600F0C0F8C1
:108EF00004465AE039463046FFF7E5FD044654E0A3
:108F000039463046FFF7CDFD04464EE0394630463F
:108F1000FFF70BFE044648E039463046FFF7F3FD05
:108F2000044642E039463046FFF777FD04463CE010
:108F300039463046FFF75CFD044636E03946304698
:108F400000F0A0F9044630E03946304600F0ACF9B4
:108F500004462AE022E01BE014E00DE006E0FFE713
:108F60003946304600F0C2F904461EE03946304624
:108F700000F0DEF9044618E03946304600F0FAF910
:108F8000044612E03946304600F016FA04460CE07A
:108F90003946304600F032FA044606E0394630469B
:108FA00000F04CF9044600E000BF00BF2046F8BDC9
:108FB00070B504460D462946204601F0A7FE2A4614
:108FC0002146762002F0A2FA0646012E00D170BD9D
:108FD0000020FCE770B504460D4607A0FBF734F906
:108FE0002A462146742002F091FA0646012E00D14D
:108FF00070BD0020FCE700003C64705F646F776E1A
:109000006C6F61645F6C696E6B5F737461747573B0
:109010005F68616E646C653E0D00000070B50446CB
:109020000D4607A0FBF710F92A462146792002F0E9
:109030006DFA0646012E00D170BD0020FCE700004D
:109040003C64705F646F776E6C6F61645F6F7269B0
:1090500067696E616C5F6566666563745F72616E99
:109060006B6C6973745F68616E646C653E0D0000C3
:1090700070B504460D4607A0FBF7E6F82A462146E0
:109080007D2002F043FA0646012E00D170BD00207B
:10909000FCE700003C64705F646F776E6C6F616426
:1090A0005F706C61795F636F6E74726F6C5F646523
:1090B0007469616C5F68616E646C653E0D000000F0
:1090C00070B504460D462946204602F041F82A466E
:1090D0002146662002F01AFA0646012E00D170BD24
:1090E0000020FCE770B504460D462946204602F0F4
:1090F000F3F82A462146732002F008FA0646012EAC
:1091000000D170BD0020FCE770B504460D4607A0F5
:10911000FBF79AF82A462146722002F0F7F9064634
:10912000012E00D170BD0020FCE700003C64705FA0
:10913000646F776E6C6F61645F706C61795F6C698E
:1091400073745F68616E646C653E0D0070B50446B3
:109150000D4607A0FBF778F82A462146652002F065
:10916000D5F90646012E00D170BD0020FCE70000B5
:109170003C64705F646F776E6C6F61645F706C618C
:10918000796C6973745F6566666563745F736B653C
:109190007463685F68616E646C653E0A000000007D
:1091A000F8B504460D462946204602F0F1FA074676
:1091B00006A0FBF749F839466E2002F017FA06467A
:1091C000012E00D1F8BD0020FCE700003C64705F78
:1091D000646F776E6C6F61645F6566666563745F0C
:1091E0006E756D5F68616E646C653E0D0000000019
:1091F00070B504460D4607A0FBF726F82A4621461F
:109200007B2002F083F90646012E00D170BD0020BC
:10921000FCE700003C64705F646F776E6C6F6164A4
:109220005F706C61796C6973745F72616E6B6C698D
:1092300073745F68616E646C653E0D0070B50446C2
:109240000D4607A0FBF700F82A4621468B2002F0C6
:109250005DF90646012E00D170BD0020FCE700003C
:109260003C64705F646F776E6C6F61645F7265738E
:10927000657276656431305F68616E646C653E0D61
:109280000000000070B504460D462946204602F055
:1092900053F82A462146842002F038F90646012E6A
:1092A00000D170BD0020FCE770B504460D4607A054
:1092B000FAF7CAFF2A462146852002F027F906461A
:1092C000012E00D170BD0020FCE700003C64705FFF
:1092D000646F776E6C6F61645F72657365727665DB
:1092E00064345F68616E646C653E0D0070B5044661
:1092F0000D4607A0FAF7A8FF2A462146862002F06D
:1093000005F90646012E00D170BD0020FCE70000E3
:109310003C64705F646F776E6C6F61645F726573DD
:109320006572766564355F68616E646C653E0D00DC
:1093300070B504460D4607A0FAF786FF2A46214677
:10934000872002F0E3F80646012E00D170BD002010
:10935000FCE700003C64705F646F776E6C6F616463
:109360005F7265736572766564365F68616E646CA2
:10937000653E0D0070B504460D4607A0FAF764FF80
:109380002A462146882002F0C1F80646012E00D167
:1093900070BD0020FCE700003C64705F646F776E76
:1093A0006C6F61645F7265736572766564375F6860
:1093B000616E646C653E0D0070B504460D4607A0F5
:1093C000FAF742FF2A462146892002F09FF8064616
:1093D000012E00D170BD0020FCE700003C64705FEE
:1093E000646F776E6C6F61645F72657365727665CA
:1093F00064385F68616E646C653E0D0070B504464C
:109400000D4607A0FAF720FF2A4621468A2002F0DF
:109410007DF80646012E00D170BD0020FCE700005B
:109420003C64705F646F776E6C6F61645F726573CC
:109430006572766564395F68616E646C653E0D00C7
:10944000F8B504460D462946204602F0A1F9074624
:1094500006A0FAF7F9FE3946712002F0C7F8064671
:10946000012E00D1F8BD0020FCE700003C64705FD5
:10947000646F776E6C6F61645F72756E6E696E6734
:109480005F73746174655F68616E646C653E0D0046
:10949000F8B506460F463946304602F073F90546E0
:1094A000002D02D101F066FF02E0012001F062FF11
:1094B00029466C2001F0CAFF0446012C00D1F8BDFA
:1094C0000020FCE7F8B504460D462946204602F088
:1094D00059F90746384601F075FF3946142001F066
:1094E000B5FF0646012E00D1F8BD0020FCE7F8B517
:1094F00006460F463946304602F044F90546002D2F
:1095000002D101F07FFF02E0012001F07BFF29463C
:109510006B2001F09BFF0446012C00D1F8BD002018
:10952000FCE70000F8B504460D462946204602F047
:109530002FF9074606A0FAF787FE3946702002F099
:1095400055F80646012E00D1F8BD0020FCE70000CA
:109550003C64705F646F776E6C6F61645F73797386
:1095600074656D5F73746174655F68616E646C656A
:109570003E0D0000F8B504460D462946204602F08F
:1095800007F907463946172002F030F80646012E43
:1095900000D1F8BD0020FCE770B504460D4607A0D9
:1095A000FAF752FE2A462146692001F0AFFF06462F
:1095B000012E00D170BD0020FCE700003C64705F0C
:1095C000646F776E6C6F61645F757365725F7072E4
:1095D0006F746F636F6C5F68616E646C653E0D00E5
:1095E000F8B506460F463946304602F0CEF8054635
:1095F000002D06D0012D05D0022D04D0032D04D15D
:1096000002E003E002E001E000E000BF00BF294605
:10961000152001F04FFF0446012C00D1F8BD0020B9
:10962000FCE7000010B500200249887602A0FAF796
:109630000BFE10BD741100206566666563745F7073
:109640006C61795F70617573650D000010B5044839
:10965000C17E04A0FAF7F8FD01200149487010BD51
:1096600074110020656E645F706C61795F6C697362
:10967000743A25640D00000010B5064800780128F2
:1096800004D0FFF7CFFF04A0FAF7DEFD0120014967
:10969000087010BD74110020656E7465725F64659A
:1096A000766963655F70616972696E675F6D6F642B
:1096B000650D000010B506480078002802D005A00E
:1096C000FAF7C2FD00200249087004F03FFA10BD0D
:1096D00074110020656E7465725F706C6179696EDB
:1096E000675F6566666563745F6D6F64650D000036
:1096F00010B5044604A0FAF7A7FD02200949087036
:10970000204602F099FF10BD656E7465725F70723D
:1097100065766965775F6566666563745F6D6F64BE
:10972000650D00007411002010B50020FBF798FBB8
:1097300010BD000010B50020FBF792FB01A0FAF766
:1097400083FD10BD6572617365206669726D776116
:10975000726520626C6F636B20696E206E6F72663B
:109760006C6173680D00000000B5C1B002F0DCFD53
:10977000FEF7CBFA0DA0FAF767FD04F0D1FAFEF779
:10978000B3FA00F0DBFEFF21013101A8FAF79AFFDE
:109790000DA101A8FAF766FDFEF7DCFB00F0C0FEA4
:1097A00001A804F065FA41B000BD00004572617384
:1097B0006520656666656374206461746120626C0F
:1097C0006F636B2E2E2E0D006566666563742064D4
:1097D00061746120323032332F31312F31362071B4
:1097E00077657264717765200000000001460020F3
:1097F000C0437047F0B58BB000200890BB4807907D
:1098000000200690B948059006460A900020019075
:10981000029000245AE00A206043B549401880882D
:10982000B04203D00298401C80B202900A206043EC
:10983000AF494018C1880A98814203D00198401C62
:1098400080B201900A206043A94940188188089895
:10985000814205DD0A206043A549401880880890B0
:109860000A206043A2494018C1880698814205DD5C
:109870000A2060439E494018C08806900A20604331
:109880009B49401881880798814205DA0A20604385
:1098900097494018808807900A20604394494018EF
:1098A000C1880598814205DA0A2060439049401832
:1098B000C08805900A2060438D49401886880A2098
:1098C00060434018C0880A90601C84B28848801E9B
:1098D0000078A0429FDC8748807D002803D085481F
:1098E000807D012837D184490198487000260020E6
:1098F0000A9000252CE000241CE00A2060437C49EB
:109900004018C088A84213D101200A907948807D70
:10991000002804D10A2060434018067208E001982C
:10992000801B401EC2B20A20604371494018027277
:10993000601C84B26E48801E0078A042DDDC0A986C
:10994000002803D0701C86B200200A90681C85B2E3
:10995000102DD0DBC7E06748807D022803D0654822
:10996000807D032837D16449029848700026002082
:109970000A9000252CE000241CE00A2060435C498A
:1099800040188088A84213D101200A905948807D50
:10999000022804D10A2060434018067208E00298A9
:1099A000801B401EC2B20A20604351494018027217
:1099B000601C84B24E48801E0078A042DDDC0A980C
:1099C000002803D0701C86B200200A90681C85B263
:1099D000102DD0DB87E04748807D052803D045481F
:1099E000807D04287FD1079A08998818C10F09182B
:1099F000C903090C0491059A06998818C10F091822
:109A0000C903090C0391002700253BE000200990C1
:109A100000242BE00A206043354A8018818804988E
:109A2000FEF78EFF86B20A206043314A8018C18853
:109A30000398FEF785FF80B20A900A98864209DDF6
:109A4000AE4211D1012009900A20604328494018F4
:109A5000077209E00A98A84206D1012009900A205D
:109A60006043234940180772601C84B22048801E5E
:109A70000078A042CEDC0998002801D0781C87B27B
:109A8000681C85B2102DC1DB002700240CE00A20E1
:109A9000604317494018007AB84203DD0A2060434A
:109AA0004018077A601C84B21148801E0078A042DA
:109AB000EDDC11494F700F48807D042813D100243C
:109AC0000CE00A2060430A494018067AB81BC2B26B
:109AD0000A20604340180272601C84B20448801E51
