:020000040000FA
:10500000E01F0020115200001952000085510000DD
:105010000000000000000000000000000000000090
:10502000000000000000000000000000235200000B
:10503000000000000000000027520000CD8E00009C
:105040002B5200002D5200002F5200003152000060
:105050003352000035520000375200007D6E0000D0
:10506000017000003D520000EDDE0000A1DE0000F6
:1050700043520000EDDF000061DF000049520000F4
:105080004B52000085710000D971000029720000A8
:10509000797200009596000041D9000091BA000095
:1050A0005B5200005D5200005F520000C9720000B8
:1050B0001973000069730000B973000085E70000F0
:1050C000EFFFEAFF00F002F800F04DF80CA030C846
:1050D000083824182D18A246671EAB4654465D4674
:1050E000AC4201D100F03FF87E460F3E0FCCB646F1
:1050F0000126334200D0FB1AA246AB463343184781
:10510000A4A20000C4A20000002300240025002661
:10511000103A01D378C1FBD8520700D330C100D573
:105120000B60704710B5642902D100F07BF910BD07
:10513000782902D100F0ACF910BD632902D100F04A
:10514000E5FD10BD732902D100F0E8FD10BD00207F
:1051500010BD1FB50098019900F023FD00F076FA0C
:105160001FBD10B510BD00F029FE1146FFF7F1FF7D
:1051700006F098FC00F041FE03B4FFF7F2FF03BC19
:1051800004F072FA04207146084202D0EFF309805D
:1051900001E0EFF308807146004A10478DB200002D
:1051A00030B40C490C684A6823681068C018106055
:1051B000241D121D8C4207D28A4208D20C604A601C
:1051C00030BC4000400870470C00DC3CF6E70A00A9
:1051D000DC3AF3E77414002070B505460C46164619
:1051E00002E00FCC0FC5103E102EFAD2082E02D3CB
:1051F00003CC03C5083E042E07D301CC01C5361FDE
:1052000003E021782970641C6D1C761EF9D270BDF4
:105210001948804719480047FEE7FEE7FEE7FEE72A
:10522000FEE7FEE7FEE7FEE7FEE7FEE7FEE7FEE756
:10523000FEE7FEE7FEE7FEE7FEE7FEE7FEE7FEE746
:10524000FEE7FEE7FEE7FEE7FEE7FEE7FEE7FEE736
:10525000FEE7FEE7FEE7FEE7FEE7FEE7FEE7FEE726
:10526000FEE7FEE7FEE7FEE7FEE70000044805492B
:10527000054A064B70470000ED8E0000C550000047
:10528000E0140020E01F0020E0160020E0160020BF
:1052900070B5064600F068FC056830460B30C4085F
:1052A000E400B44201D8002070BD68682A46002896
:1052B00018D00168A14211D30B46214608318B4218
:1052C00008D3436801194B6003681B1B0B605160D6
:1052D000046001E041685160001D70BD02464068F5
:1052E0000028E6D12146284600F046FC0028DCD103
:1052F00070BD70B50446051F00F036FC0068002C38
:105300001AD0446801E020466468002C01D0AC4209
:10531000F9D301680A18AA4204D12A6805468918F7
:10532000016000E0456028684119A14205D161682B
:10533000696021684018286070BD6C6070BD000015
:105340000FB4054910B503AA029800F0EBFC10BC9D
:1053500008BC04B018470000340300200FB41CB58B
:10536000074B06AA7B4469460090059800F0ABFC09
:105370000020694600F0BAFC1CBC08BC04B0184709
:105380008509000070B5044685690068C10601D52D
:10539000302600E02026C00707D070BD6268304686
:1053A000A1689047206A401C20626D1EF6D570BD32
:1053B00070B5044685690078C00707D170BD626882
:1053C000A16820209047206A401C20626D1EF6D5FF
:1053D00070BD70B50C460546012A05D028788006B8
:1053E00000D5EA69002302E0012305E05B1C93423B
:1053F00002D2E05C0028F9D1A869E618C01AA861B9
:10540000286AC01828622846FFF7BCFF04E06A68D3
:105410002078A968641C9047B442F8D32846FFF767
:10542000C7FF70BDF7B5002575291068009914A64F
:1054300011D0C046C046002802DA404211A608E05A
:10544000009909688A0701D50FA602E0490704D52B
:105450000EA6012501E0C046C046009F0024243767
:1054600004E000F073FC30313955641C0028F8D199
:105470002B4632462146009800F0C7FBFEBD0000D7
:10548000000000002D0000002B00000020000000A4
:1054900070B504460D4621461068C046C0462188B6
:1054A000090502D50F4A7A4402E00E4A7A440E32C8
:1054B00023460021243305E006070009360F965DD8
:1054C0005E54491C0028F7D120780023000705D539
:1054D000702D03D0002901D002231132204600F0A4
:1054E00094FB70BD439D0000F3B50446002081B0DD
:1054F00020622046E168884700287DD0252802D018
:105500006268A16883E0454F00257F442046E1683A
:1055100088472028064608DB312E06D2B8192038E5
:105520000078002801D00543F0E7A80701D5042042
:1055300085430020E0610746A0612A2E0AD030464C
:1055400004F08AF8002827D0B8000019303E0090F7
:10555000866119E00298BA00121902C8916102909E
:105560002046E1688847012F064617D1E0690028E8
:105570001FDA202085431CE000980A2180694843F7
:1055800000998019303888612046E16888470646CE
:1055900004F062F80028EFD1012F0AD02E2E08D196
:1055A0002046E16888470646202005437F1C022FDD
:1055B000C3DBA069002803DA4042A0610120054353
:1055C000E80701D010208543002E24D03046413812
:1055D000192803D80120C002054320362046256043
:1055E0003146029A1546FFF79DFD00280CD0012890
:1055F00007D0ED1DE80800E00DE0C0000830029083
:1056000077E72D1D029574E762683046A1689047E0
:10561000206A401C6CE7206AFEBD0000079D000068
:105620000B4A30B511460B4C60310B46DC3B0CC1CC
:10563000372106E0020C8D0012185A51064A5043D9
:1056400000190A46491E002AF4DC30BD0120E7E7B4
:1056500014140020E119D666CD0D0100034670B583
:1056600002460B439B070FD10E4CE60100E008C237
:1056700008C91D1B9D433542F9D0D9B21170521C87
:1056800000290DD01B0AF8E70B78491C1370521C37
:10569000002B05D00B78491C1370521C002BF3D142
:1056A00070BD00000101010130B5441C03E0017828
:1056B000401C00290DD08107F9D10B4BDD0104C836
:1056C000D11A91432940FAD0001B0A0603D0C01E0C
:1056D00030BD001B30BD0A0401D0801E30BD090260
:1056E000FCD0401E30BD000001010101F8B5042AC4
:1056F0002CD3830712D00B78491C0370401C521E18
:1057000083070BD00B78491C0370401C521E830783
:1057100004D00B78491C0370401C521E8B079B0F52
:1057200005D0C91ADF002023DE1B08C90AE0FFF7F5
:1057300053FDF8BD1D4608C9FD401C46B4402C432E
:1057400010C0121F042AF5D2F308C91A521EF0D451
:105750000B78491C0370401C521EEAD40B78491C7C
:105760000370401C012AE4D409780170F8BDD2B25C
:1057700010B513029A1813049A1800F00EF810BD11
:1057800001E004C0091F0429FBD28B0701D5028068
:10579000801CC90700D00270704700290BD0C307D6
:1057A00002D00270401C491E022904D3830702D58F
:1057B0000280801C891EE3E70022EEE70022DFE77B
:1057C000024670B50A4392072AD11E4DEE0104C865
:1057D00008C9541B9443344017D0D0B2D9B2401AF0
:1057E0002106014310D190B299B2401A210401431D
:1057F0000AD110021902000A090A401A21020143C3
:1058000002D1100E190E401A70BD9A42DFD010BAA4
:1058100019BA884201D9012070BD0020C04370BD73
:1058200002780B78401C491C002A09D09A4207D103
:1058300002780B78401C491C002A01D09A42EFD014
:10584000D01A70BD01010101002203098B422CD343
:10585000030A8B4211D300239C464EE003460B43C0
:105860003CD4002243088B4231D303098B421CD322
:10587000030A8B4201D394463FE0C3098B4201D314
:10588000CB01C01A524183098B4201D38B01C01A4C
:10589000524143098B4201D34B01C01A52410309C3
:1058A0008B4201D30B01C01A5241C3088B4201D372
:1058B000CB00C01A524183088B4201D38B00C01A1F
:1058C000524143088B4201D34B00C01A5241411A46
:1058D00000D201465241104670475DE0CA0F00D029
:1058E0004942031000D34042534000229C46030922
:1058F0008B422DD3030A8B4212D3FC22890112BAA8
:10590000030A8B420CD3890192118B4208D389017F
:1059100092118B4204D389013AD0921100E0890997
:10592000C3098B4201D3CB01C01A524183098B4278
:1059300001D38B01C01A524143098B4201D34B0161
:10594000C01A524103098B4201D30B01C01A5241C4
:10595000C3088B4201D3CB00C01A524183088B424B
:1059600001D38B00C01A5241D9D243088B4201D3D4
:105970004B00C01A5241411A00D2014663465241BF
:105980005B10104601D34042002B00D549427047BE
:1059900063465B1000D3404201B50020C046C046BC
:1059A00002BD704770477047F0B5FF252D04C6094A
:1059B000C209FF2704462E400137CB093E43484029
:1059C0002A402B400746002A6BD0002B69D0AA4200
:1059D00067D0AB4265D0002800DA32460125ED05DC
:1059E00029432C4309022002090AD21A4B0C7F24B6
:1059F000E31A434C000A7C44E35C7D24240412191E
:105A000014145B00A218884201D3521C00E040002D
:105A100049420C465C4324115C43DB016415E318E6
:105A2000040A5C43C502200D0C4644436419250A50
:105A30005D432303EC0C0D46654300030019EB188E
:105A40004C42A34201D35B18401CD4052018002B04
:105A500007D05B00C91804D3401C002901D14008BD
:105A600040003F2189048A4209D3002A08DC11063C
:105A7000090F04D0032149074018C00FC007F0BD2B
:105A800001224100120689187F2252069142F6D265
:105A900005214907C84201D59010F0BDFF20C0057F
:105AA000F0BD002F00DA32461648AA4207D2AB42B8
:105AB00005D21902090E17D0F80FC007F0BDFF2557
:105AC00063002D06AB42F9D84900A942F6D8AB4293
:105AD00001D1A942F2D0A94201D1002101E0610027
:105AE0004908D0050843F0BD1102090EFBD0FF2084
:105AF0000243D005F0BD0A460146104654E70000B7
:105B00002C9800000000C07F1F22030C02D10F223E
:105B100000041CD0030E01D10002083A030F01D18A
:105B20000001121F830F01D18000921E002801DBAB
:105B30004000521ED20551180212511819229040ED
:105B400004D3491C002801D1490849000846704780
:105B5000C10FC90700D04042012292071143D3E789
:105B600001218907D0E70000004870478414002015
:105B7000704770477047704738B504460A460020A2
:105B80006946C046C046002805D002462046009916
:105B900000F0F4F8012038BD10B5012000F008F93C
:105BA00010BDF8B5C046C046054600200C46102082
:105BB000C0460646A819A0420DD9324669460020C3
:105BC000C046C046070001D100F0F2F80098A0429C
:105BD00000D00546C419FFF7C7FFF61D074605604C
:105BE000F008C0004619284600F008F8B44204D076
:105BF00031463868A21B00F0C1F8F8BD00210160F1
:105C000041608060704710207047FFB504460D4624
:105C100081B0243000902168880604D51022E06904
:105C20009143216000E00120A84201DD471B00E014
:105C300000270498A1697A191018081AA061207821
:105C4000C00602D42046FFF79DFB002608E003981B
:105C50006268A168805D9047206A401C761C2062C3
:105C600004988642F3DB2078C0060AD52046FFF769
:105C700089FB06E06268A16830209047206A401CDA
:105C8000206238467F1E0028F4DC07E00098626836
:105C9000A168405D9047206A401C206228466D1E26
:105CA0000028F3DC2046FFF783FB2078000602D5AE
:105CB000022005B0F0BD0120FBE7000001694A1C8D
:105CC00002610878704700B58FB0029100210591FC
:105CD0000549019379440391114604906846FFF702
:105CE00003FC0FB000BD0000E5FFFFFF0A68107065
:105CF000521C0A60704710B54369002B02D0C046A1
:105D0000C04601E0FFF765FB012010BD1278014697
:105D100024310A7000224A700122ECE71168002247
:105D2000D243E8E7084B70B50D467B44FFF7CBFF45
:105D30000446284605F038F8002802D00020C04369
:105D400070BD204670BD0000335100000146800840
:105D5000081A02091018020A1018020C1018C008BC
:105D6000820012185200891A01E0401C0A390A29DF
:105D7000FBD27047004870477C14002010B50346E2
:105D8000406801E003464068002801D08842F9D30A
:105D90001868C3188B4206D0CB1CD808C000001D61
:105DA000411A521A0146081D0A60FFF7A2FA10BDF7
:105DB00010B500F031F800F028F810BD7546FFF777
:105DC000D9FFAE46050069465346C008C000854667
:105DD00018B020B5FFF74AFA60BC00274908B6465C
:105DE0000026C0C5C0C5C0C5C0C5C0C5C0C5C0C5EA
:105DF000C0C5403D49008D46704710B50446C046B9
:105E0000C0462046FFF7B8F910BD10B5002801D0F4
:105E100003F02AFC10BD000010B5012805D00021B8
:105E200003A000F021F8012010BD09A1F8E700004F
:105E300053494752544D454D3A204F7574206F6673
:105E40002068656170206D656D6F727900000000DB
:105E50003A2048656170206D656D6F727920636FBF
:105E6000727275707465640070B505460C460A2040
:105E700000E06D1C03F008FC002D06D028780028F7
:105E8000F7D102E0641C03F0FFFB002C02D0207865
:105E90000028F7D10A2003F0F7FB70BD70B58C180D
:105EA0000578401C6B075B0F01D10378401C2A1159
:105EB00006D10278401C03E00678401C0E70491C95
:105EC0005B1EF9D12B0705D40023521E0DD40B7095
:105ED000491CFAE70378401CCB1A921C03E01D789A
:105EE0000D70491C5B1C521EF9D5A142D8D300206D
:105EF00070BD000010B501211548017515480078E6
:105F000020210843134908700020134908701349E1
:105F10000875152003F04CFB10200F490870002075
:105F20008870084680788870084680780821084381
:105F300009498870002008718871FF20C87200200C
:105F4000887208460078012108430349087010BD93
:105F50004061004020040240005004404060004086
:105F6000064A127838239A43044B1A701A4612785C
:105F7000C3001A43014B1A707047000000500440E0
:105F80000B4A127852085200094B1A70002803D1AC
:105F900080220A439A7103E0C0220A43044B9A719B
:105FA000034A127801231A43014B1A70704700000C
:105FB0000050044010B504460B48047200200B4901
:105FC0000875152003F0F4FA002109480175064808
:105FD00080798011032805D0034800788021084388
:105FE0000149087010BD00000050044040600040AE
:105FF00040610040704770477047212070477047EC
:106000004C31303031000000000000000000000082
:106010004D415354455200000000000000000000B4
:10602000312E312E3300000000000000000000007F
:10603000323032332F30362F31350000000000006F
:106040000000000000000000000000000000000050
:106050000000000000000000000000000000000040
:106060000000000000000000000000000000000030
:106070000000000000000000000000000000000020
:1060800000B5C0229178F8221140144A12781143C9
:1060900013480A46E03A130003F064FA0E0A0E129F
:1060A000161A1E1E1E080C1014181C1E0D4813E094
:1060B0000D4811E00D480FE00D480DE00D480BE0D4
:1060C0000D4809E00D4807E00D4805E00D4803E0E4
:1060D0000D4801E00D4800BF00BF00BD201C02407C
:1060E00040420F000090D003006CDC020048E80141
:1060F00000366E010024F400001BB70000127A0085
:10610000808D5B0000093D00C0C62D0080841E000C
:10611000FFB583B00D9A120F120701239B079A4215
:1061200002D10022009201E0012200920E9A120F89
:10613000120701239B079A4201D1002400E00124A9
:10614000009A002A01D1012200E000222240002A08
:1061500002D0002201920DE0002C01D1012200E0CA
:106160000022009B1A40002A02D00122019201E085
:10617000002201920122520782181170069A9201A0
:106180002032E3001A43009B9B001A43019B5B00F3
:106190001A43059B1A43204B0D015A5301231E4AF3
:1061A0000D01521953801C4B0D015B190C9A9A80FA
:1061B000194B0D015B190C9ADA80174A0D0152191F
:1061C0000D9B9360144A0D0152190E9BD360134A24
:1061D000927E08231A43114B9A769A04104B9A60C8
:1061E0001A4602920246C5176D0FAD18EE10029DB9
:1061F000AD5D0346C617760FF618F610F600871B3E
:106200000126BE403543C617760FB618F710029E1A
:10621000F55507B0F0BD0000200000200008024046
:106220000050004070B50B4B0146C417640F641852
:10623000E4101C5D0246C5176D0FAD18ED10ED00A2
:10624000461B0125B540AC43C5176D0F6D18ED1009
:106250005C5570BD0050004010B5044608488442AB
:1062600004D10178142006F0ADF808E00448001DC0
:10627000844204D1001F01796A2006F03BF910BD69
:106280001D020020F8B504460025002600272948F5
:10629000008884420EDD28480078002803D1254874
:1062A00000882649088001202349087000202449DD
:1062B000087006E01F480088844202DA0120204965
:1062C00008701D480078002808D01E480078FF2874
:1062D00004DA1C480078401C1A49087018480078F5
:1062E00000281CD0002016490870134800780028A8
:1062F00015D00020104908700E4800880F49098801
:10630000401A85B20F4800780F4908700846017896
:106310002846FFF7A3FA86B200200A490870C82D64
:1063200000DA0025FF2D00DDFF2502480480E8B2D9
:10633000F8BD000092020020970200209402002085
:10634000980200209602002099020020F0B58DB03E
:10635000F1A0FEF7F5FF00F0F7FA00F023FCEF489C
:1063600004780178EEA0FEF7EBFFEF484079EF49A3
:106370004873EA48001D091F486000200A90FF206A
:10638000099000200890FF2007900746064600204D
:1063900003900490002458E00C206043E449401826
:1063A000007AB04203D00498401CC0B204900C2084
:1063B0006043DF494018407AB84203D00398401C3C
:1063C000C0B203900C206043D9494018017A0A9862
:1063D000814205DD0C206043D5494018007A0A90BF
:1063E0000C206043D2494018417A0898814205DD6B
:1063F0000C206043CE494018407A08900C2060433E
:10640000CB494018017A0998814205DA0C20604393
:10641000C7494018007A09900C206043C4494018CD
:10642000417A0798814205DA0C206043C049401840
:10643000407A07900C206043BD494018067A0C2032
:1064400060434018477A601C84B2B948801E0078C7
:10645000A042A1DCB448C078002803D0B248C0787C
:10646000012833D1AD490398487000260027002544
:1064700029E000241BE00C206043AD494018407A1D
:10648000A84212D10127A848C078002804D10C20C6
:1064900060434018C67008E00398801B401EC2B2DB
:1064A0000C206043A2494018C270601C84B2A0480E
:1064B000801E0078A042DEDC002F02D0701CC6B225
:1064C0000027681C85B2102DD3DBC8E09648C07841
:1064D000022803D09448C078032833D18F49049808
:1064E000487000260027002529E000241BE00C202E
:1064F00060438F494018007AA84212D101278A4888
:10650000C078022804D10C2060434018C67008E00F
:106510000498801B401EC2B20C206043844940187E
:10652000C270601C84B28248801E0078A042DEDC0B
:10653000002F02D0701CC6B20027681C85B2102D37
:10654000D3DB8CE07848C078042803D07648C07844
:106550000528BAD1099A0A998818C10F0918C905DE
:10656000090E0691079A08998818C10F0918C905DC
:10657000090E059100200B9000253CE000200C90B6
:1065800000242AE00C206043694A8018017A0698AA
:1065900004F090F806460C206043654A8018417A62
:1065A000059804F087F80746BE420ADDAE4212D1D4
:1065B00001200C900C2161435D4A89180B98C8702A
:1065C00009E0AF4207D101200C900C216143584AE9
:1065D00089180B98C870601C84B25548801E0078DA
:1065E000A042CFDC0C98002803D00B98401CC0B20E
:1065F0000B90681C85B2102DC0DB00200B904A4820
:10660000C07805282BD100240FE00C2060434849B6
:106610004018C1780B98814205DD0C206043444945
:106620004018C0780B90601C84B24148801E0078EE
:10663000A042EADC00240DE00C2060433C494018F5
:10664000C6780B98801BC2B20C2060434018C27001
:10665000601C84B23648801E0078A042ECDC3248D0
:106660008078030002F07EFF0805080B0E11141756
:106670001A1D02F001F815E001F0B6FB12E002F07D
:10668000DDF80FE001F0ACFF0CE001F0A3FC09E045
:1066900001F016FE06E001F055FD03E001F024FFD5
:1066A00000E000BF00BF2148006900901F48037B45
:1066B0004289007A014602901EA0FEF741FE1C4866
:1066C000801E017822A0FEF73BFE1448417824A0EA
:1066D000FEF736FE002417E00C20604314494018F2
:1066E000C07800900C2060434018437A0C2060432F
:1066F0004018027A0C206043085C014602901DA0FD
:10670000FEF71EFE601C84B20948801E0078A0427D
:10671000E2DC0DB0F0BD00000D0A000038090020D9
:1067200045463A2532640D00A00D00203C0D0020A6
:10673000560600206B3A25642049733A25642049A7
:10674000743A256420416D3A25640D0A000000006A
:106750004465766963655F73756D3A25640D000065
:106760004D6F64756C655F576F726B4E756D3A2532
:10677000640D000049443A5B30782532785D205B37
:1067800025645D5B25645D6E756D3A202564200D82
:10679000000000000A78436EC254426E632A03D29E
:1067A000426E521C426601E000224266704710B5FC
:1067B000044600F0AEF900F0ACF8002002F0C2FE92
:1067C0000A2007F0A7FCD82002F076FAFF2109047E
:1067D0002140080C02F070FAFF2109022140080A4A
:1067E00002F06AFAE0B202F067FA012002F0AAFEB3
:1067F0000A2007F08FFC00F08CF810BD70B505463C
:106800000C461646002002F09DFE0A2007F082FC8E
:10681000032002F051FAFF2109042140080C02F084
:106820004BFAFF2109022140080A02F045FAE0B2C2
:1068300002F042FA04E0552002F03EFA28706D1C86
:106840003046711E8EB20028F5D1012002F07AFE8A
:106850000A2007F05FFC70BD10B5044600F059F93E
:1068600000F057F8002002F06DFE0A2007F052FCFD
:10687000812002F021FAFF2109042140080C02F0D6
:106880001BFAFF2109022140080A02F015FAE0B2C2
:1068900002F012FA012002F055FE0A2007F03AFC3D
:1068A00000F037F810BD70B505460C46164600F0EE
:1068B00030F9002002F046FE0A2007F02BFC0220EF
:1068C00002F0FAF9FF2109042140080C02F0F4F962
:1068D000FF2109022140080A02F0EEF9E0B202F0BD
:1068E000EBF9FF200130864200DD064603E0287800
:1068F00002F0E2F96D1C3046711E8EB20028F6D10E
:10690000012002F01FFE0A2007F004FC00F001F84D
:1069100070BD10B50024002002F014FE0A2007F01C
:10692000F9FB052002F0C8F900BF552002F0C4F9B8
:106930000446E007C00F0028F7D1012002F002FE54
:106940000A2007F0E7FB10BD00B593B00A490878AC
:1069500011A902F05FF90948129A11994264016481
:106960000549087801A902F01DF9402201A9034850
:10697000FEF732FC13B000BD38090020600D002086
:10698000F8B504460D4616462F4600943246394661
:106990000098FEF7ABFEF8BDF7B5FFB085B085985F
:1069A0008390002752E08398C505ED0D8398401B26
:1069B000809001204002441B8698C01B86B28498B8
:1069C000C0198290684640198190B4421FDB002DA7
:1069D00003D101204002864205D0012252026846BE
:1069E0008099FFF7CDFF324682998198FEF77EFEAF
:1069F000809807F078FE6A4601214902809807F0E6
:106A000099FE839880198390B81987B21EE0002DF3
:106A100003D101204002844205D00122520268467F
:106A20008099FFF7ADFF224682998198FEF75EFEBE
:106A3000809807F058FE6A4601214902809807F0C5
:106A400079FE839800198390381987B28698874217
:106A5000A9DB7FB008B0F0BDF7B5C4B0459843904E
:106A6000002751E04398C5B24398401B4090FF2057
:106A70000130441B4698C01B86B24498C01942900E
:106A8000684640194190B4421FDB002D03D1FF201E
:106A90000130864205D0FF22013268464099FFF757
:106AA000ADFE324642994198FEF720FE4098FFF72E
:106AB000D3FEFF22013268464099FFF7F4FE439867
:106AC00080194390B81987B21EE0002D03D1FF2032
:106AD0000130844205D0FF22013268464099FFF719
:106AE0008DFE224642994198FEF700FE4098FFF73E
:106AF000B3FEFF22013268464099FFF7D4FE439867
:106B000000194390381987B246988742AADB47B0EC
:106B1000F0BD10B5002002F015FD0A2007F0FAFACA
:106B2000062002F0C9F8012002F00CFD0A2007F04F
:106B3000F1FA10BDFFB581B004460D4616460A981D
:106B4000002801D134702AE0AC4212DA281BC0B20E
:106B5000009004990098484307460A99491C384612
:106B6000FEF772FE0746AF4200D92F46E01930709B
:106B700015E0AC4212DD601BC0B200900499009891
:106B8000484307460A99491C3846FEF75DFE07460A
:106B9000A74200D92746E01B307000E0347005B0F2
:106BA000F0BD0000002007E0002216214143044B05
:106BB000C9188A82411CC8B21028F5DB7047000052
:106BC0009C070020FFB581B00C4615461E46002EDE
:106BD00007D02888871938460199FEF735FE2180AD
:106BE00001E02888208005B0F0BD10B50322002107
:106BF000022001F04FFE00221146042001F04AFE5F
:106C0000002207210D2001F045FE042202210C2064
:106C100001F040FE002201210C2001F03BFE032286
:106C200006210D2001F036FE002206210D2001F084
:106C300031FE01221146022001F02CFE0322022126
:106C4000084601F027FE00220321022001F022FE67
:106C500004220021012001F01DFE0022012108462E
:106C600001F018FE05220221012001F013FE052289
:106C70000321012001F00EFE05220421012001F074
:106C800009FE042211460C2001F004FE0422032117
:106C90000C2001F0FFFD10BD30B513460C780578CF
:106CA000AC4209DD0478E2180C78944202D20C78E8
:106CB000047017E0027015E004780D78AC420FDD27
:106CC00004789C4209DD0478E21A0C78944202D9D7
:106CD0000C78047006E0027004E00C78047001E0A7
:106CE0000C78047030BD00007FB51A4D00201A49A1
:106CF000087000240DE029782D1DC8B2694608559A
:106D00006846005D14490978401813490870601CF2
:106D1000C4B2102CEFDB10480078FA2804DD0E48CE
:106D200000780A300C49087000200C4908700024D3
:106D300008E06846005D094909784018074908706D
:106D4000A01CC4B2102CF4DB04480078FEF768FCE9
:106D50007FBD000094085000350200203A02002058
:106D60000121054801770548808808430349888048
:106D70000020034908777047006100406015044017
:106D80000060004008B50020164908701648808849
:106D90000121084314498880084640891349084066
:106DA0001149488108460089104908400E49088168
:106DB00008460089891508430B4908810020009086
:106DC00005E000BF68460078401CC1B200916846EB
:106DD00000780E28F5D904480089012108430249AA
:106DE000088108BD1C04002060150440FEFF00005F
:106DF00001210648017006488088022108430449A1
:106E0000888000200349087070470000206100401E
:106E1000601504402060004008B5164880880221B3
:106E2000084314498880084640891349084011499D
:106E3000488108460089104908400E4908810846E3
:106E40000089491508430B4908810020009005E09E
:106E500000BF68460078401CC1B2009168460078C7
:106E60000E28F5D903480089022108430149088109
:106E700008BD000060150440FDFF000010B5564835
:106E8000008802210840022807D1544800880028C1
:106E900003D00220FFF7B3F89AE04F480088C007FC
:106EA000C00F002807D04D480088002803D00520D7
:106EB000FFF7A5F88CE04A480078C007C00F00280B
:106EC00018D04648008800280FD04648006800784F
:106ED0004549087243480068401C424908603F48E1
:106EE0000088401E3D49088072E0FFF74BFF04F028
:106EF0004DFD6DE03A48007804210840002832D169
:106F0000354820308088012108433349203188806A
:106F10003148008B8004800C2F4908830846008B81
:106F20000121890308432C4908832B4820304088DD
:106F3000012108432849203148802948007804214C
:106F400008432749087029480088012807D12248AA
:106F500020304089264908401F4920314881FF20C0
:106F60002149087234E02348008820490988884272
:106F70002EDA1D48007A2049096808701E4800680A
:106F8000401C1D4908601B480088401C19490880A6
:106F900016480088401E098888420BD10E482030D0
:106FA0004089134908400C4920314881FF200E498F
:106FB00008720DE00F4800880C490988884204D106
:106FC000FFF7E0FE04F0D8FC02E0FF20064908725B
:106FD00000200A49087710BD401504402404002011
:106FE0001C04002020040020401704402E04002030
:106FF000FEFF00002C040020280400200060004058
:1070000010B55648408802210840022807D154484C
:107010000088002803D0022004F0C2FC9AE04F4808
:107020004088C007C00F002807D04D4800880028BE
:1070300003D0052004F0B4FC8CE04A480078C00777
:10704000C00F002818D04648008800280FD04648B6
:10705000006800784549887243480068401C4249EE
:1070600008603F480088401E3D49088072E0FFF7F5
:10707000D3FE04F0A1FC6DE03A48007804210840FA
:10708000002832D135482030808802210843334916
:10709000203188803148408B8004800C2F49488300
:1070A0000846408B0121890308432C4948832B481B
:1070B000203040880221084328492031488029484F
:1070C00000780421084327490870294800880128CE
:1070D00007D1224820304089264908401F492031E5
:1070E0004881FF202149887234E0234800882049E4
:1070F000098888422EDA1D48807A2049096808707C
:107100001E480068401C1D4908601B480088401C40
:107110001949088016480088401E098888420BD10A
:107120000E4820304089134908400C4920314881DD
:10713000FF200E4988720DE00F4800880C4909882D
:10714000884204D1FFF768FE04F02CFC02E0FF2027
:107150000649887200200A49087010BD4015044095
:10716000380400203004002034040020401704407C
:1071700042040020FDFF0000400400203C040020E9
:107180002060004010B500200E4908710E480068CC
:10719000401C0D4908600D480088C007C00F00283A
:1071A00008D00B48008B401C0121090440180949F4
:1071B000086004E00648008B401C0649086001F0A6
:1071C000EFFE10BD406000406C040020A01D044094
:1071D000001F04405C04002000200E4908720E4885
:1071E0000068401C0C4908600C484088C007C00F6C
:1071F000002808D00A48408B401C0121090440188F
:107200000849086004E00648408B401C05490860B6
:10721000704700004060004070040020A01D044042
:10722000001F04406004002000200E4908730E482F
:107230000068401C0C4908600C488088C007C00FDB
:10724000002808D00A488088401C01210904401801
:107250000849086004E006488088401C0549086029
:10726000704700004060004074040020A01D0440EE
:10727000601F04406404002000200E4908740E487A
:107280000068401C0C4908600C48C088C007C00F4B
:10729000002808D00A48C088401C01210904401871
:1072A0000849086004E00648C088401C0549086099
:1072B000704700004060004078040020A01D04409A
:1072C000601F04406804002000200E4908730E4827
:1072D0000068401C0C4908600C480088C007C00FBB
:1072E000002808D00A48008B401C012109044018DE
:1072F0000849086004E00648008B401C0549086006
:1073000070470000606000408C040020A021044011
:10731000002304407C04002000200E4908740E481D
:107320000068401C0C4908600C484088C007C00F2A
:10733000002808D00A48408B401C0121090440184D
:107340000849086004E00648408B401C0549086075
:10735000704700006060004090040020A0210440BD
:10736000002304408004002000200E4908750E48C8
:107370000068401C0C4908600C488088C007C00F9A
:10738000002808D00A488088401C012109044018C0
:107390000849086004E006488088401C05490860E8
:1073A000704700006060004094040020A021044069
:1073B000602304408404002000200E4908760E4813
:1073C0000068401C0C4908600C48C088C007C00F0A
:1073D000002808D00A48C088401C01210904401830
:1073E0000849086004E00648C088401C0549086058
:1073F000704700006060004098040020A021044015
:1074000060230440880400204D48407B4021084010
:1074100000280CD04B480078FF2804DA494800784F
:10742000401C4849087001204749087087E04648D9
:107430000078012870D143480078042874DD414861
:1074400000780A281EDA41480078002871D04048A8
:107450000078401C3E4908703E48006840003D49A5
:1074600008603B480078202863DB084600683A49FA
:1074700008600120394908700020354908703349F7
:10748000087056E02F480078122847DD2D48007814
:10749000182824DA2D48007800284AD02C48007893
:1074A000401C2B4908702B4800684000294908609F
:1074B00008460068012108432649086024480078EE
:1074C000202836DB0846006823490860012023494C
:1074D000087000201E4908701C49087029E01948EE
:1074E0000078332812DD174800783C2808DA00209D
:1074F000174908701749086001201449087018E0FE
:107500000020124908701349086012E000200F495A
:107510000870104908600CE00EE005E000200B49FF
:1075200008700C49086004E0002008490870094907
:107530000860002003490870002003490870704764
:107540000000044084020020860200208702002000
:107550008502002088020020780200207C020020A2
:107560001D4A127880231A431B4B1A70002802D13F
:1075700000221A4B1A77012808D10122174B1A77DB
:10758000154AD27810231A43134BDA70022802D11D
:10759000A222124B1A77032802D182220F4B1A77AC
:1075A000042802D1C2220D4B1A77052802D10322EA
:1075B0000A4B1A77062802D14322084B1A77002279
:1075C000074B1A820123074A13770022064B1A77CA
:1075D000034A118270470000200402406004044006
:1075E000404F0440406100404060004010B5002022
:1075F0000B490877172001F0E7FF002109480177C0
:107600000948008A0121C90308430749088200BFCD
:107610000548008A0121C90308400028F8D010BDA0
:107620004060004040610040404F04401FB50520CD
:10763000FEF7F8FD0220FEF7BDFC03A91E4801225B
:10764000134600920291019000220E210520FEF7C0
:107650005FFD00BF194880880028FBD168468089FB
:107660001749884202DD002004B010BD68468089B9
:107670001449884201DD0520F6E7684680891149F2
:10768000AC39884201DD0420EEE7684680890E4966
:10769000884201DD0320E7E7684680890B4988427C
:1076A00001DD0220E0E7684680890949884201DD62
:1076B0000120D9E70020D7E70E5004400001002048
:1076C000AC0E0000110D0000540B00005409000026
:1076D000FF03000010B59C480078022108400028F4
:1076E0000FD09A480078012803D1002097490870EC
:1076F00002E00120954908709448FEF7ADFD02F0C4
:1077000019FD9348007802210840002803D0FEF7B5
:1077100073FC02F025FD8F48007802210840002804
:1077200001D002F029FD8C48007802210840002891
:1077300001D002F02DFD8948007802210840002880
:1077400001D002F02FFD8048007840210840002839
:1077500004D004F083FF82A0FDF7F2FD7A480078A0
:10776000DD2108407849087079480078DD2108401B
:107770007749087077480078DD210840754908701E
:1077800075480078DD210840734908707348007817
:10779000DD210840714908706B480078B32108402A
:1077A000694908706A480078B32108406849087040
:1077B00068480078B3210840664908706648007838
:1077C000B32108406449087064480078B321084038
:1077D0006249087066480078C007C00F002810D0C2
:1077E0006348006863490840614908605748007869
:1077F000012803D100205549087002E001205349B7
:1078000008705B48006802210840002817D05848DB
:1078100000685849491E0840554908605648007894
:10782000042807DA54480078401C53490870FEF7D2
:107830008DFD04E0002050490870FEF787FD4C489C
:10784000006804210840002806D0494800684949DA
:10785000C91E08404649086045480068082108409C
:10786000002806D0424800684249C91F08404049E4
:1078700008603F48006810210840002806D03C48B6
:1078800000683C490F3908403949086038480068A9
:1078900020210840002806D03548006835491F39A6
:1078A00008403349086032480068402108400028F9
:1078B00006D02F4800682F493F3908402C490860FE
:1078C0002B48006880210840002806D0284800681E
:1078D00028497F3908402649086025480068FF216B
:1078E00001310840002806D0214800682149FF39AD
:1078F00008401F4908601E480068012149020840ED
:10790000002805D01A4800681C490840184908603A
:1079100017480068012189020840002805D0144852
:1079200000681749084012490860114800680121A1
:10793000C9020840002805D00D48006811490840D8
:107940000B49086010BD0000FC0800201D0200204B
:107950000809002014090020200900202C0900201B
:10796000726573657420776966690D0A000000000E
:1079700080020020FEFF000038090020FFFD00000B
:10798000FFFB0000FFF700003EB5FFF74FFE044687
:10799000002032220190022300920290012221460F
:1079A000174800F037F8002032220190022300929D
:1079B00002901A462146134800F02CF8002032228B
:1079C0000190022300920290032221460E4800F00B
:1079D00021F800203222019002230092029004221A
:1079E00021460A4800F016F80020322201900223B6
:1079F0000092029005222146054800F00BF83EBD9A
:107A0000FC0800200809002014090020200900209B
:107A10002C090020FFB50C46099D00210023504F82
:107A20004668BE4202D24668761C46604668AE4250
:107A300017D30A9E002E08D047680A9EAE19B74297
:107A400003D96E1C4660042631434668AE4201D11C
:107A500044263143944213D00C263143002646601D
:107A60000EE04768039EB74206D9944208D002262A
:107A700031430026466003E0944201D00026466070
:107A8000944201D1012631430B9E002E54D0022690
:107A90000E40002E03D0FD263140102631430678DB
:107AA00010273E40002E34D02D4F8668BE4202D2B1
:107AB0008668761C866087680B9EB7421BD91026A5
:107AC0000E40002E08D0EF263140202631430678A4
:107AD000EF273E40067007E002263143EF26314093
:107AE0000678EF273E400670002686600678EF276E
:107AF0003E4006700DE010260E40002E09D02026D4
:107B00003143EF2631400678EF273E4006700026CD
:107B1000866006783E273E4033460678F607360EE6
:107B2000067006781E4306700678BE273E40067033
:107B300006780E43067011E006780E273E40334665
:107B40000678F607360E067006781E43067006782D
:107B50008E273E40067006780E430670FFBD00007B
:107B6000FFFF000070B503F08BFB0546022D0ED021
:107B700004DC002D07D0012D0FD106E0032D08D025
:107B8000FF2D0AD107E0022408E0052406E00F24B7
:107B900004E03C2402E0642400E000BF00BF5A2C53
:107BA00008DD00BF10210E48017300BF00200D4901
:107BB000087013E00B480078401CC0B209490870F7
:107BC000A0420BDD0020087000BF05487038007B24
:107BD0001021484002497039087300BF70BD000091
:107BE000700004407602002010B50E48007801288D
:107BF00007D10C480179C17000BF08210A480177FC
:107C000008E000210748C17000BF08210648703015
:107C1000017300BF0A220349C91C481EFFF73CF844
:107C200010BD00001D02002000000440FEB51748F2
:107C30008088002827D10025154E00240FE0600021
:107C40001449085AA84201DD60000D5A600011492C
:107C5000085AB04201DA60000E5A601CC4B2C82C47
:107C6000EDDB0C4800880190A81B80B20090A81999
:107C700087B23846F90F09184F1007480580009859
:107C8000FEF700FBFEBD00BFFCE700000001002086
:107C9000FFFF0000C404002074020020F0B585B08E
:107CA00004460E4615466289511CB08AFDF7D6FD82
:107CB000C7B26289511CB08AFDF7D0FDC8B20290EC
:107CC000781CC0B20390217A0398814201DC002025
:107CD0000390A07A00902268039880001018AA00F0
:107CE000815CBA0020688018AA00805C019032464E
:107CF000029BFEF71FFFA07A009022680398800085
:107D00001018AA0080184178BA0020688018AA00CC
:107D1000801840780190B21C029BFEF70BFFA07AFE
:107D200000902268039880001018AA0080188178BB
:107D3000BA0020688018AA00801880780190321D4F
:107D4000029BFEF7F7FEA07A00902268039880005D
:107D50001018AA008018C178BA0020688018AA00FC
:107D60008018C0780190B21D029BFEF7E3FE05B0BB
:107D7000F0BD000070B505461849098A88B22B4647
:107D8000174A1146FEF71EFF002215491439134801
:107D9000FFF784FF01241BE01148143801781620F6
:107DA00060430F4A143A11541046817816206043FC
:107DB0008018817010460179162060438018017187
:107DC000104681791620604380188171601CC4B20E
:107DD00004484078A042DFDA70BD00003C0D00206E
:107DE000B00700203809002070B5184C647864068C
:107DF000240E174D2C72FF246C8101242C732C4609
:107E0000247A6D896D1C6C43114D2C612C1F6168A7
:107E10000E4B403B002214E0002005E01C780C7063
:107E2000491C5B1C441CA0B20428F7DB002004E0C2
:107E300000240C70491C441CA0B20428F8DB541C1C
:107E4000A2B2024C64789442E6DC70BDA00D002022
:107E50003C0D0020F1B582B05B49098A88B25B4ACB
:107E60001146029BFEF7AEFE574A5289511C574AF3
:107E7000143A908AFDF7F2FCC5B2534A5289511C5C
:107E8000524A143A908AFDF7E9FC88B20190681CC6
:107E9000C6B24D48007AB04200DC0026FF210198AE
:107EA000FDF7DCFCC7B2002F5CD0002455E0781E43
:107EB000A04228D14448001F4068B100415C162010
:107EC0006043424A143A11543F48001F4068B100D1
:107ED0004018417816206043801881703A48001F8E
:107EE0004068B10040188178162060438018017105
:107EF0003548001F4068B1004018C1781620604323
:107F00008018817127E03048001F4068A900415C5B
:107F1000162060432D4A143A11542B48001F406824
:107F2000A9004018417816206043801881702648C7
:107F3000001F4068A900401881781620604380180F
:107F400001712148001F4068A9004018C17816201F
:107F5000604380188171601CC4B21D484078A04203
:107F6000A5DA2FE0002429E01748001F4068A90087
:107F7000415C16206043154A143A11541248001F00
:107F80004068A9004018417816206043801881702D
:107F90000D48001F4068A9004018817816206043F2
:107FA000801801710848001F4068A9004018C17876
:107FB0001620604380188171601CC4B20448407868
:107FC000A042D1DAFEBD00003C0D0020B007002029
:107FD0003809002070B5154C6478154D2C72154C7D
:107FE0006478641C25022C1B114D6C8101242C73B8
:107FF0002C46247A6D896D1C6C430D4D2C612C1F11
:1080000063680A4A403A00200BE0002105E014783A
:108010001C705B1C521C4C1CA1B20429F7DB441CD5
:10802000A0B2034C247A8442EFDC70BDA00D002086
:108030003C0D002038090020F8B507463E49098A62
:1080400088B23B463D4A1146FEF7BCFD3A4A52898A
:10805000511C3A4A143A908AFDF700FCC5B2364AE0
:108060005289511C354A143A908AFDF7F7FB88B2C1
:108070000090681CC6B23048007AB04200DC00268E
:10808000002429E02C48001F4068A900415C16200C
:1080900060432A4A143A11542748001F4068A90037
:1080A0004018417816206043801881702248001FD4
:1080B0004068A9004018817816206043801801713B
:1080C0001D48001F4068A9004018C1781620604371
:1080D00080188171601CC4B219484078A042D1DA7E
:1080E00015494889C10F09184A1000998A4222DAB5
:1080F0001148001F4068B100405C104914390870F5
:108100000D48001F4068B100401840780B491439F1
:1081100088700948001F4068B100401880780749FE
:10812000143908710448001F4068B1004018C07835
:10813000024914398871F8BD3C0D0020B0070020B9
:108140003809002070B5134C6478134D2C72FF244D
:10815000F5346C8101242C732C46247A6D896D1CB6
:108160006C430D4D2C612C1F63680A4A403A002075
:108170000BE0002105E014781C705B1C521C4C1CA9
:10818000A1B20429F7DB441CA0B2034C247A844238
:10819000EFDC70BDA00D00203C0D0020F1B584B0D7
:1081A0004449098A88B2444A1146049BFEF70AFDF5
:1081B000404A5289511C404A143A908AFDF74EFBBE
:1081C000C6B23C4A5289511C3B4A143A908AFDF788
:1081D00045FB8FB2374948890A21FDF73FFB85B23D
:1081E000A804000C01900620684380B20090A8000B
:1081F000281880B20390E800401B80B202900198DA
:10820000874202DD0398874205DD009887420ADD38
:108210000298874207DC00202749143908708870CB
:108220000871887122E02348001F4068B100405C5B
:108230002149143908701F48001F4068B1004018D8
:1082400040781D49143988701A48001F4068B100F1
:10825000401880781849143908711648001F406882
:10826000B1004018C07814491439887101241BE00A
:10827000114814380178162060430F4A143A1154FB
:10828000104681781620604380188170104601796D
:1082900016206043801801711046817916206043D2
:1082A00080188171601CC4B204484078A042DFDAB3
:1082B00005B0F0BD3C0D0020B007002038090020BB
:1082C00070B5154C6478154D2C722C46247A250215
:1082D0002C1B124D6C8101242C732C46247A6D8941
:1082E0006D1C6C430D4D2C612C1F63680A4A403A8B
:1082F00000200BE0002105E014781C705B1C521C70
:108300004C1CA1B20429F7DB441CA0B2034C247A14
:108310008442EFDC70BD0000A00D00203C0D002069
:1083200010B53248007801281FD131480078012863
:1083300057D0002413E000220C2060432D49401840
:1083400002710C206043401842710C2060434018B9
:1083500082710C2060434018C271601CC4B2254871
:10836000801E0078A042E6DC3BE02348007901282B
:1083700003D02248407B224908701F4880780300C0
:1083800001F0F0F80805080D12171C21262BFDF747
:1083900031FE23E01A480078FFF7ECFC1EE0184895
:1083A000007800F011FA19E01548007800F0DEF8C6
:1083B00014E013480078FFF74DFD0FE010480078F7
:1083C000FFF7ECFE0AE00E480078FFF735FE05E007
:1083D0000B48007800F016F800E000BF00BF00F086
:1083E0002DFD024800780249087010BD29020020C6
:1083F0009C02002056060020A00D00203C0D00200D
:108400009B020020FEB507463348008A80B23B46F7
:10841000324A11460090FEF7D5FB2F4A5289511C73
:108420002E4A143A908AFDF719FAC0B202902C49EC
:108430000978029888424AD000F09EFB00902948B3
:1084400041780098FDF70AFAC8B2019000263BE097
:1084500000F092FB0090234841780098FDF7FEF968
:10846000CCB200F089FB00901B48017A0098FDF720
:10847000F5F9CDB21848001F4068A900415C1620EC
:108480006043164A143A11541348001F4068A9006B
:108490004018417816206043801881700E48001FF4
:1084A0004068A90040188178162060438018017147
:1084B0000948001F4068A9004018C1781620604391
:1084C00080188171701CC6B201988642C0DD0449D3
:1084D00002980870FEBD00003C0D0020B00700208F
:1084E0009D0200203809002070B51C4C64781C4D9A
:1084F0002C72FF246C8101242C732C46247A6D8904
:108500006D1C6C43164D2C612C1F6368134A403A56
:1085100000200BE0002105E014781C705B1C521C4D
:108520004C1CA1B20429F7DB441CA0B20C4C247AE9
:108530008442EFDC002006E00C244443094D64191A
:10854000E070441CA0B2074CA41E24788442F3DCE3
:10855000044CA41E2478044D6C7070BDA00D002046
:108560003C0D0020560600203809002070B5054655
:108570001849098A88B22B46174A1146FEF722FB92
:108580000022154914391348FFF788FB01241CE029
:10859000631E16267343104E143E9B191A4614325E
:1085A000162363439B19194614310A4B1B8A98B250
:1085B0003C23FEF707FB1620604332468118002259
:1085C0000448FFF76BFB601CC4B204484078A0422B
:1085D000DEDA70BD3C0D0020B00700203809002015
:1085E00070B5234C64786400641E224D2C72FF2405
:1085F0006C8101242C732C46247A6D896D1C6C438C
:108600001C4D2C612C1F63681948403800210BE079
:10861000002205E004781C705B1C401C541CA2B2B4
:10862000042AF7DB4C1CA1B2114C64788C42EFDCBD
:108630000F4C6478012C1ADD0D4840380C4C6478DE
:10864000A41EA400001900210CE0002205E004781B
:108650001C705B1C401C541CA2B2042AF7DB0838B7
:108660004C1CA1B2024C6478641E8C42EDDC70BDDF
:10867000A00D00203C0D0020FEB54E4840784E492C
:108680000872002048810120087308614873081FA0
:1086900040680190474F403F00240EE0002608E06C
:1086A0003978019801700198401C01907F1C701C62
:1086B00086B2042EF4DB601C84B23F48007AA042EC
:1086C000ECDC002406E00C2060433C494018C470F8
:1086D000601C84B23948801E0078A042F3DC374821
:1086E000801E0078364948703348007A012828D126
:1086F000002421E03048001F4068017816206043C4
:10870000304A11542C48001F4068417816206043BD
:10871000801881702848001F4068817816206043C7
:10872000801801712448001F4068C17816206043FA
:1087300080188171601C84B221484078A042D9DC45
:1087400037E0002431E000F017FA00901A48017A6F
:108750000098FDF783F8CDB21748001F4068A900C4
:10876000415C16206043174A11541348001F4068AB
:10877000A9004018417816206043801881700E4887
:10878000001F4068A90040188178162060438018B7
:1087900001710948001F4068A9004018C1781620DF
:1087A000604380188171601C84B205484078A04203
:1087B000C9DCFEBDA00D00203C0D002056060020A7
:1087C000380900209C07002070B505461849098A21
:1087D00088B22B46174A1146FEF7F4F900221549D4
:1087E00014391348FFF75AFA01241CE0631E1626B9
:1087F0007343104E143E9B191A46143216236343DA
:108800009B19194614310A4B1B8A98B23C23FEF778
:10881000D9F9162060433246811800220448FFF738
:108820003DFA601CC4B204484078A042DEDA70BD54
:108830003C0D0020B00700203809002070B5134C13
:108840006478134D2C72FF246C8101242C732C4608
:10885000247A6D896D1C6C430D4D2C612C1F63684F
:108860000A4A403A00200BE0002105E014781C7011
:108870005B1C521C4C1CA1B20429F7DB441CA0B2A7
:10888000034C247A8442EFDC70BD0000A00D002070
:108890003C0D002070B50C4615460123A340D9B20B
:1088A0002A462B0000F05EFE070527435F65788CA3
:1088B000AA00534B1B5C8B43514E3354504B403BEF
:1088C0001B5C0B434E4E403E33544D4B103B1B5CE8
:1088D0008B434B4E103E3354494B303B1B5C8B4318
:1088E000474E303E3354464B203B1B5C8B43444E3B
:1088F000203E335482E0424B1B5C8B43404E33544A
:108900003F4B403B1E5C0E431E543D4B103B1E5CD8
:108910008E431E543A4B303B1B5C0B43384E303E6B
:108920003354374B203B1E5C8E431E5466E0344B61
:108930001B5C8B43324E3354314B403B1E5C0E4329
:108940001E542F4B103B1B5C8B432D4E103E33545B
:108950002B4B303B1E5C8E431E54294B203B1E5C30
:108960008E431E544AE0264B1B5C0B43244E33546B
:1089700044E0234B1E5C8E431E54214B403B1B5C4A
:108980008B431F4E403E33541D4B103B1B5C8B43AF
:108990001B4E103E335431E0194B1B5C8B43184E79
:1089A0003354174B403B1B5C8B43154E403E3354B6
:1089B000134B103B1B5C0B43114E103E33541DE018
:1089C0000F4B1B5C8B430E4E33540D4B403B1E5CD8
:1089D0000E431E540A4B103B1B5C8B43084E103E4B
:1089E0003354074B303B1E5C8E431E54044B203BDC
:1089F0001B5C0B43024E203E335400BF00BF70BDD2
:108A0000600004401749897F01221143154A91777C
:108A100000BF1449897F022211400029F9D0114971
:108A2000897C01700F49C97C41700E49097D8170B4
:108A30000C49897DC1700B49497D01710949C97D86
:108A400041710849097E81710649897F49084900B9
:108A5000044A917700BF0349897F0222114000290F
:108A6000F9D17047404F04401F49097880221143D3
:108A70001D4A1170002808D100211C4A11771A499B
:108A8000C97810229143184AD170012808D10121D8
:108A9000164A11771449C97810221143124AD1702D
:108AA000022802D1A221114A1177032802D1822182
:108AB0000E4A1177042802D1C2210C4A11770528E9
:108AC00002D10321094A1177062802D14321074A1E
:108AD00011770021064A51771146497F0822114338
:108AE000034A5177704700002004024060040440AC
:108AF000404F044010B5002014490876162000F0BD
:108B000063FD0021124801761248407F802108430E
:108B1000104948770846807F012108430D4988772E
:108B200000BF0C48807F022108400028F9D0094886
:108B3000807F400840000749887700BF0548807F54
:108B4000022108400028F9D110BD0000406000401B
:108B500040610040404F04401CB506480078C00703
:108B6000C00F002802D103F072FD02E06846FFF753
:108B700049FF1CBD1402002010B5084800780849C0
:108B80000978401805490870FCF70AFB0349097881
:108B90004018024908700846007810BD39020020CC
:108BA0003A020020F8B504460D461E2C12DA402188
:108BB0002846FCF701FE154800780C235843144B57
:108BC000C018007982000C20604319582846FCF731
:108BD0008DFD1AE03C2C18DA20461E38C4B220461F
:108BE000E117490F0918C91049023D2292028E1857
:108BF000E117490F0918C910C900611A89050F0C3E
:108C0000F11940222846FCF771FDF8BD3809002013
:108C10000CEC0000F0B50C463F2800DDF0BD0F263F
:108C20003603C50072192346002105E017781F702E
:108C3000521C5B1C4F1CB9B20829F7D300BFEDE7EB
:108C4000002804D000BF082204494A7405E000BF90
:108C50000822024970314A7000BF7047000004408A
:108C600010B5002201210846FFF714FE052202215B
:108C70000120FFF70FFE052203210120FFF70AFE66
:108C8000052204210120FFF705FE012000F05AFC17
:108C90000020FFF7D5FF10BD002804D000BF04223C
:108CA00004494A7405E000BF0422024970314A7049
:108CB00000BF70470000044070B503460025002641
:108CC000FF2400BF1FE080201840C6095806030E8D
:108CD0006006040E0020FFF7B3FF3046FFF7DCFF0D
:108CE000012005F017FA0120FFF7AAFF012005F087
:108CF00011FA0848407802210840002801D0601C81
:108D0000C4B2681CC5B2082DDDDB0020FFF798FF58
:108D1000204670BD0000044010B53C480078401C5F
:108D2000C0B23A49087032286EDB0020087038481B
:108D30000068401C36490860364800780121084325
:108D40003449087032480078C007C00F002805D1A8
:108D500008460078022108432E49087005212C4856
:108D60000068FCF771FD002905D12A48007804212C
:108D7000084328490870072125480068FCF764FD6E
:108D8000002905D1234800780821084321490870AB
:108D900019211F480068FCF757FD002905D11D481F
:108DA0000078102108431B490870322118480068D8
:108DB000FCF74AFD002905D1164800782021084318
:108DC000144908707D2112480068FCF73DFD002918
:108DD00005D110480078402108430E490870FA2157
:108DE0000B480068FCF730FD002905D109480078E0
:108DF00080210843074908700548006806498842F1
:108E000002D300200249086010BD0000900200203B
:108E10008C02002032020020AC0D000010B50020B2
:108E200005490870FDF760FF04F000F804F024F82D
:108E300002F024F810BD00001402002010B500203C
:108E400039E0002130E00C224A431E4BD218D27880
:108E5000824227D1162242431B4B9C5C0C224A4380
:108E6000184BD218147116224243174BD21894781B
:108E70000C224A43134BD218547116224243124B10
:108E8000D21814790C224A430E4BD2189471162230
:108E900042430D4BD21894790C220B465343094A96
:108EA0009A18D4714A1CD1B2064A921E12788A428C
:108EB000C9DC421CD0B2034A921E12788242C0DC46
:108EC00010BD0000560600209C07002002480068E4
:108ED000401E0149086070471002002000B5FDF7F0
:108EE000CFF80149086000BDC004002000B5802013
:108EF0001B4948711A201A49203908732B204873DE
:108F00003C2088734D20C873002016494860FDF747
:108F1000B7F8154908600020C04314490860144997
:108F20000860144814490860114903221202891884
:108F300048600F49891888600D498918C8600C4934
:108F4000891808610A49891848610949891888619E
:108F500007498918C861AC200849487000BD000065
:108F60002004024000B00140C004002080E200E084
:108F700000E100E0C0C0C0C000E400E0001002401A
:108F80000249498A0143014A51827047A01D0440A9
:108F90000249898A0143014A91827047A01D044019
:108FA00010B5FEF731FAFFF7B7FE10BDF8B505466C
:108FB0000E466A463146284600F0FEF90446002C6B
:108FC0001FD10320104988800846C088000900018D
:108FD000C8800846C0886946097808430A49C8809D
:108FE000684640784006000C084908826846407888
:108FF0004006000C48820448408803210843024987
:1090000048802046F8BD00002011044000130440B1
:1090100070B505460E463C480078042108433A499D
:10902000087003203949C880222038492039088235
:109030003748088367204002364908823648007C5A
:1090400001210843344908740720304920394881F8
:10905000FF202330488231484883672040022D4951
:1090600048822A4800890121084328490881084686
:10907000808A2B4908402549888208464089012179
:1090800008432249488100BF052026490872264826
:109090004078012108432449487023482030407813
:1090A000400840002049203148701F484030407C33
:1090B000400840001C49403148741B4860304078EB
:1090C0004008400018496031487000BF00BF0E20C2
:1090D0001449603108721448203080780821084310
:1090E0001149203188701048603080780821884309
:1090F0000D496031887000BF31462846FFF756FFA2
:109100000446204670BD00002004024020110440A7
:109110009780000000130440600404409740000062
:10912000FEFF0000000804400000044004490874E9
:1091300000BF04490988602211400029F9D1704715
:109140000013044000110440F8B505460E466A4677
:109150003146284600F030F90446002C19D10C2085
:109160000D49888068460078302108430A49C88044
:10917000684640784006000C084988806846407878
:109180004006000CC880044840880C21084302496E
:1091900048802046F8BD00002011044040130440E0
:1091A00070B505460E4643480078042108434149FE
:1091B0000870414880880C2108433F49888001217C
:1091C0003E4801750176017700203D490875087613
:1091D00008773C483849203988823A487530888376
:1091E00067204002384988803848007C04210843C1
:1091F00036490874072030492039C8813448C8826C
:109200003448C883672040022F49C8802A48008913
:1092100004210843284908810846808A2E490840CD
:10922000254988820846408904210843224948810B
:1092300000BF0A20294988702948007B042108437F
:109240002749087326482030007B0421884324499D
:109250002031087322484030007F04218843204990
:10926000403108771E486030007B042188431C4948
:109270006031087300BF00BF0C2018492031C8734B
:109280001748203080780221084315492031887022
:10929000134860308078022188431149603188701A
:1092A00000BF31462846FFF74FFF044600F05CF848
:1092B000204670BD2004024020110440206100407F
:1092C00020600040228000004013044060040440FD
:1092D0002281000097400000FBFF0000400804408E
:1092E0000000044010B502460020002901D1812071
:1092F00006E00023034C2380034B1980034B1A60C4
:1093000010BD0000A0030020A20300209C03002049
:1093100010B502460020002901D181201AE00E4B31
:109320001A600E4B198001230D4C23700A4B1B68E9
:109330001B780C4C2371084B1B685B1C064C23608C
:10934000064B1B885B1E054C238000BF044B1B781B
:10935000002BFBD110BD00009403002098030020D7
:109360002D0200204013044010B51048008904214C
:1093700008430E49088108464089042108430B49E7
:109380004881084640880C2108430849488000204D
:109390000749087508760D2000F0FEF80E2000F051
:1093A000FBF8002103480175017610BD201104402F
:1093B0002060004020610040F7B584B01646802050
:1093C000039000242BE06000174A115A0498FCF720
:1093D0003BFA019002251EE0691C0198FCF734FA63
:1093E00041080291114A0299514308460599FCF738
:1093F0002BFA0E49471A381E01DB014600E04142B4
:10940000142906DA3470757000200390039807B0B1
:10941000F0BD681CC5B2802DDEDB601CC4B2102C10
:10942000D1DB0398F3E70000B6ED00001027000041
:1094300070B505460C463E480078012108433C497A
:10944000087082203B49C8822846FFF7A1FD012D04
:1094500006D0022D1CD0042D32D0082D62D148E058
:10946000002035490871112000F08AF80120C0035E
:10947000304920390882601E304908832D48408BCE
:10948000400840002B49488300212D4801714AE0E3
:10949000002029490872122000F072F80120C00350
:1094A000244920394882601E244948832148408B42
:1094B000022188431F49488300212148017232E07C
:1094C00000201D490873132000F05AF80120C00342
:1094D000184920398882601E1849603188801548F3
:1094E000408B0421884313494883002114480173A9
:1094F00019E0002010490874142000F041F8012000
:10950000C0030C492039C882601E0C496031C880F4
:109510000848408B082188430649488300210848B1
:10952000017400E000BF00BF2846FFF729FD70BDB1
:1095300020040240A01D044040600040001F044081
:1095400040610040002804D000BF102204494A7442
:1095500005E000BF1022024970314A7000BF704719
:109560000000044030B47446641E2578641CAB428D
:1095700004D3635D5B00E31830BC18471D46F8E771
:10958000002805DBC206D20E01219140014A11607C
:109590007047000080E200E0002805DBC206D20E22
:1095A00001219140014A11607047000080E200E013
:1095B000002805DBC206D20E01219140014A11604C
:1095C0007047000080E200E0002805DBC206D20EF2
:1095D00001219140014A11607047000080E200E0E3
:1095E00010B5002819DB1A4A03231B02D21883087E
:1095F0009B00D2588307DC0EFF23A3409A438B07BE
:109600001B0E8407E40EA3401A43114B03242402CB
:109610001B198408A4001A5118E00E4A03071B0FF7
:10962000083B9B089B00D2588307DC0EFF23A34016
:109630009A438B071B0E8407E40EA3401A43054B85
:109640000407240F083CA408A4001A5110BD000010
:1096500000E100E01CED00E030380A2801D20120D2
:109660007047002070470000002803D00449054AD5
:10967000116202E00121034A116200BFFEE700000F
:10968000AD0B00000080024010B50446E0B2FFF7C9
:109690004DFD10BD00200449087504480068401CB9
:1096A000024908607047000040600040A4040020A8
:1096B00010B5C0B00446214601A801F0A7FC012066
:1096C00069464876214601A804F084F930A801F0E3
:1096D000B5FC214630A800F007F830A804F0A0F946
:1096E000012040B010BD000070B590B004460E4699
:1096F00040216846FCF762F800206946087020782F
:109700003C2809D91EA0FBF71BFE217824A0FBF7FB
:1097100017FE002010B070BD00250FE0601C405DFA
:10972000B04209D0601C415D68460278501CC3B24B
:1097300068460370401C8154681CC5B22078A8425A
:10974000ECDC684600782178884213D168460178BD
:10975000401C465468460078401CC1B268460170FF
:109760003D2269462046FBF7C1FF10A0FBF7E8FD4C
:109770000120CFE7314616A0FBF7E2FD0120C9E743
:10978000616464206E756D62657220696E2072611D
:109790006E6B206C697374206572726F720D0000BD
:1097A0005B6E756D3A25645D0D0000006164642098
:1097B0006E756D62657220696E2072616E6B206CD1
:1097C000697374207375636365737366756C0D00DC
:1097D0004572726F723A20616464206578697374AF
:1097E000696E67206E756D62657220696E207261A8
:1097F0006E6B206C6973743A25640D007FB5044666
:109800000E46002000900190029003906946087077
:1098100020780D2809D91FA0FBF792FD217825A0FB
:10982000FBF78EFD002004B070BD00250FE0601C2A
:10983000405DB04209D0601C415D68460278501C12
:10984000C3B268460370401C8154681CC5B22078BE
:10985000A842ECDC684600782178884213D168463B
:109860000178401C465468460078401CC1B26846E6
:1098700001700E2269462046FBF738FF10A0FBF767
:109880005FFD0120CFE7314616A0FBF759FD01200F
:10989000C9E70000616464206E756D6265722069BD
:1098A0006E2072616E6B206C697374206572726FCA
:1098B000720D00005B6E756D3A25645D0D00000051
:1098C000616464206E756D62657220696E207261DC
:1098D0006E6B206C69737420737563636573736654
:1098E000756C0D00616464206578697374696E67D6
:1098F000206E756D62657220696E2072616E6B20DC
:109900006C6973743A25640D0000000030B591B0A5
:1099100005460C46802C05DA10A0FBF711FD00204F
:1099200011B030BD002068752146284604F052F879
:1099300001A801F025FB214601A8FFF7D5FE01A8EB
:1099400004F03EF801A801F0E9FB214601A8FFF769
:10995000CBFE01A804F06EF80120E1E76164645FCA
:109960006F726967696E616C5F6566206572726FA0
:10997000720D00007FB505460C460D2C06D321461E
:109980000AA0FBF7DDFC002004B070BD214628468C
:1099900004F05AF8684601F0EFFB21466846FFF7ED
:1099A0002DFF684604F062F80120EDE74572726F02
:1099B000723A20616464206578697374696E672007
:1099C0006E756D62657220696E20706C61796C696C
:1099D0007374203A25640D0030B5FFB0B6B005466B
:1099E0000C461AA0FBF7ACFC684601F0BDFA6846CD
:1099F0000078002812D068460078A04201DB1E2CB7
:109A00000CDB214615A0FBF79BFC1D4A1DA127A0DE
:109A1000FBF796FC00207FB036B030BD18216143C3
:109A200000AA0132881818222946FBF75FFE684613
:109A30000078A04205D168460078401CC1B2684653
:109A40000170684603F0A4FF0120E4E76164645FED
:109A50007363686564756C650D0000005B65727208
:109A60006F725D206164642077726F6E672073632C
:109A7000686564756C65206E756D203A25640D000F
:109A8000390300002E2E5C555345525C6578746591
:109A9000726E616C5F6D656D6F72795C7573657206
:109AA0005F6D656D6F72792E630000004572726F95
:109AB000723A25732C25640D0A000000014600202F
:109AC000087800024A78104300028A7810430002A6
:109AD000CA7810437047000030B595B0002450217B
:109AE00001A8FBF76BFE0025154801780078401CA3
:109AF000134A1070002900D10EE00121204604F025
:109B0000D9F8044622460321362004F09FFD0020A8
:109B10000B49087015B030BD00BF0621204604F087
:109B2000C9F804462A4601A9204604F0B1F80446C3
:109B300022460321362004F089FD00BFEAE7000039
:109B40001803002030B502460020002303E01578FA
:109B5000521C28185B1C8B42F9D330BD00B591B064
:109B6000402101A8FBF72AFE01A803F029FF01A864
:109B700003F060FF01A803F053FF11B000BD000027
:109B800000B585B006A0FBF7DBFB14216846FBF7A8
:109B900015FE142291046846FCF7FEFE05B000BDD8
:109BA000636C6561725F6669726D776172655F751E
:109BB00070646174655F666C61670D001FB500209D
:109BC0000090019002900390684603F04FFF1FBD84
:109BD00070B505460C46611E2846FFF7B3FFC1B2BB
:109BE00028192038C07F814208D02146284603F03A
:109BF000FBFC03A0FBF7A4FB002070BD0120FCE7E9
:109C0000636F6D2064617461207665726966792086
:109C10006572726F720D0A0070B502460B461878B5
:109C20001678B04220D1107800281FD000250021DE
:109C300010E0002409E0501C065D581C405C864280
:109C400001D1681CC5B2601CC4B21078A042F2DC1D
:109C5000481CC1B210788842EBDC1078A84201D1D0
:109C6000012070BD0020FCE70020FAE700BFF8E704
:109C700070B5D0B000257BE0BC2121A8FBF79EFD8C
:109C80000C216943504A5058FBF70EFDC1B220A881
:109C900001710C2068434C4A115821A80130FBF790
:109CA000DDFC0C20684348494018017A20A8017661
:109CB0000C20684344494018417A20A8C1760C2002
:109CC000684341494018466800243EE0A000305CEB
:109CD000FF280FD1A00080194078FF280AD1A000EA
:109CE00080198078FF2805D1A0008019C078FF284E
:109CF00000D12CE0A000315CA000221827A8013080
:109D000010184170A00080194178A000221827A8DF
:109D1000013010188170A00080198178A0002218ED
:109D200027A801301018C170A0008019C178A000C8
:109D3000221827A801301018017120A8007F401CAC
:109D4000C1B220A80177601CC4B2082CBEDB00BFE2
:109D5000322120A80175417564218175C1750021EA
:109D600041768176294621A803F034FE681CC5B2ED
:109D70001E2D81DB15A0FBF7E3FA402101A8FBF7BC
:109D80001DFD11A801F0CAF910A800791E30C1B25A
:109D90006846017110A80279411D1D38FBF7A6FC29
:109DA000002504E001A801304555681CC5B21E2DF0
:109DB000F8DB01A803F004FE0CA0FBF7C1FA01A830
:109DC00003F0CCF850B070BDD8ED0000636F70792F
:109DD0005F6275696C745F696E5F65665F746F5F03
:109DE0006E6F72666C6173680D000000736176655A
:109DF0005F616C6C65665F72616E6B6C6973740D2C
:109E00000000000070B505460C461022691C204673
:109E1000FBF76CFC687C2074A87C6074E87CA07400
:109E2000287DE074697D2175AA7D6275E97DA17543
:109E3000297EE17570BD70B504460D46102221469D
:109E4000681CFBF753FC207C6874607CA874A07CC1
:109E5000E874E07C2875217D6975627DAA75A17D15
:109E6000E975E07D287670BDF0B587B00446002026
:109E700006909A49E01C085C0390039808285BD080
:109E800007DC0300FFF76EFB0714171A1D2B882F42
:109E900088001C287ED006DC0A2850D00B287AD0F7
:109EA0000E2879D1F1E02B2877D03628F9D101E1BD
:109EB00001F078FA0EE103F0C9FB0BE101F0F6F8CE
:109EC00008E1864BE21D995C1A46A31DD05C04F0A4
:109ED000E5F800220321084604F0B8FBFAE001206F
:109EE0007F490870F6E07D49201D085C06020A469D
:109EF000611D515C0E430020049019E0A01D0499DF
:109F00004018801C7549085C0502A01D0499401882
:109F1000C01C7249085C45190919891D049A8818E2
:109F200000F0E8F80746291D0498401880B2049014
:109F30000498B042E2DBCDE0FCF75DF8CAE0002017
:109F400005900598002804D1FF200130654908805C
:109F50000CE00598012803D140026249088005E021
:109F60000598022802D140025E4908805B49A01D85
:109F7000085C5D49086008460068000208605749AF
:109F8000E01D085C584909680843574908600846BD
:109F9000006803E073E020E09BE082E000020860DC
:109FA0004E4920460830085C4F49096808434E492D
:109FB00008600846006800020860484920460930E9
:109FC000085C49490968084347490860002004F0D3
:109FD00093F80A20454908707CE0444800780A2834
:109FE0004CD10120424908703C49201D085C060202
:109FF0000A46611D515C0E431146A01D0D5C2D02E9
:10A00000E01D085C05432D0220460830085C05432E
:10A010002D0220460930085C05430846069020467C
:10A020000A30069908180690042E0DD12E480068B3
:10A03000854209D100222946069802F097FA074680
:10A0400000202A4908700FE0301F264909888842FD
:10A0500006DC82B22946069802F088FA074603E039
:10A060000020224908700027012F04D1002203217B
:10A070000B2004F0EBFA00201D4908702AE0174974
:10A080000919881D02F086FE24E01449A01D085C11
:10A090000290E01D085C01900199029804F040FADA
:10A0A00018E00E4BE21D995C1A46A31DD05C03F02C
:10A0B000F5FF0FE00949201D085C06020A46611DF4
:10A0C000515C0E4311460919881D314601F0BEFA54
:10A0D00000E000BF00BF07B0F0BD0000A80D0020E9
:10A0E000250300202A0300202C0300203003002039
:10A0F00024030020FEB5044626786778A078050280
:10A10000E078401985B2304600F06AFF019001986E
:10A110004000074940184078B84201D00020FEBDF9
:10A120002A46211D304600F0FDFB00900098F6E71E
:10A1300074ED000010B504A0FBF702F904A0FBF7D2
:10A14000FFF8FFF795FD10BD0D4B310D000000002D
:10A15000696E6974206566666563742E2E2E0D0027
:10A1600010B503A0FBF7ECF800F028F810BD0000D4
:10A170000D4B320D0000000010B503A0FBF7E0F816
:10A1800000F054F810BD00000D4B330D0A00000024
:10A1900010B502A0FBF7D4F810BD00000D4B340D34
:10A1A0000000000010B503A0FBF7CAF803F026F882
:10A1B00010BD00000D4B350D0000000000B5FFB0D4
:10A1C000BCB013A0FBF7BCF8042168460170042260
:10A1D00014A1401CFBF78AFA01216846017408218A
:10A1E0004174592181740D21C17418210175102108
:10A1F0004175352181756621C17506A800F0B4FE50
:10A200006846017EFFF7E8FB7FB03CB000BD000070
:10A210006465627567206164642073636865647552
:10A220006C650D00746573740000000010B503A028
:10A23000FBF786F8002000F0B7F910BD20646562D6
:10A2400075672064656C6574652073636865647503
:10A250006C650D000349086000BF024909680029C8
:10A26000FBD170471002002010B5C0B00446214653
:10A2700001A800F0CBFE002069464876214601A8DF
:10A2800003F0A8FB30A800F0D9FE214630A800F06A
:10A2900007F830A803F0C4FB012040B010BD000057
:10A2A000F0B591B004460F46402101A8FBF786FAAD
:10A2B00020783C2809D91DA0FBF742F8217824A07A
:10A2C000FBF73EF8002011B0F0BD2078002804D143
:10A2D00022A0FBF735F80020F5E7002600250DE069
:10A2E000601C405DB84207D0601C425D3046711C66
:10A2F000CEB201A901310A54681CC5B22078A84227
:10A30000EEDC2078B04204D11AA0FBF719F8002047
:10A31000D9E7684606713D2201A92046FBF7E6F918
:10A320001DA0FBF70DF80120CDE7000064656C650A
:10A330007465206E756D62657220696E2072616E43
:10A340006B206C697374206572726F720D0000006F
:10A350005B6E756D3A25645D0D00000064656C658B
:10A36000746520656D7074792072616E6B206C6904
:10A3700073740D0064656C6574652077726F6E6729
:10A38000206E756D62657220696E2072616E6B2041
:10A390006C6973740D00000064656C657465206EF3
:10A3A000756D62657220696E2072616E6B206C69DA
:10A3B0007374207375636365737366756C0D000049
:10A3C000F0B585B004460F46002000900190029041
:10A3D000039020780D2809D91CA0FAF7B1FF217845
:10A3E00023A0FAF7ADFF002005B0F0BD20780028CB
:10A3F00004D122A0FAF7A4FF0020F5E700260025EB
:10A400000DE0601C405DB84207D0601C425D3046E4
:10A41000711CCEB200A901310A54681CC5B2207863
:10A42000A842EEDC2078B04204D11AA0FAF788FFE7
:10A430000020D9E7684606700E2269462046FBF7E1
:10A4400055F91DA0FAF77CFF0120CDE764656C6526
:10A450007465206E756D62657220696E2072616E22
:10A460006B206C697374206572726F720D0000004E
:10A470005B6E756D3A25645D0D00000064656C656A
:10A48000746520656D7074792072616E6B206C69E3
:10A4900073740D0064656C6574652077726F6E6708
:10A4A000206E756D62657220696E2072616E6B2020
:10A4B0006C6973740D00000064656C657465206ED2
:10A4C000756D62657220696E2072616E6B206C69B9
:10A4D0007374207375636365737366756C0D000028
:10A4E00010B5C0B00446802C09DA214619A0FAF74D
:10A4F00027FF1FA0FAF724FF002040B010BD21461F
:10A5000001A800F0DBFD022069464876214601A83B
:10A5100003F060FA30A800F033FD214630A8FFF7C1
:10A52000BFFE30A803F04CFA30A800F0F7FD21463A
:10A5300030A8FFF7B5FE30A803F07CFA30A800F091
:10A540007DFD214630A8FFF7ABFE30A803F068FA86
:10A5500000BFD2E764656C6574655F6F7269676997
:10A560006E616C5F6566206E756D203A25640A0029
:10A5700064656C657465206F726967696E616C20D3
:10A580006572726F720D00001FB50446684600F0D8
:10A59000F3FD21466846FFF713FF684603F066FAAD
:10A5A000012004B010BD000030B5FFB0FFB0EDB029
:10A5B000044623A0FAF7C4FEB6A800F0D5FCB0A864
:10A5C000017EA14204DB1E2C02DA007E00280ED19F
:10A5D000214620A0FAF7B4FE3522120127A131A0AE
:10A5E000FAF7AEFE00207FB07FB06DB030BDB52170
:10A5F000890001A8FBF7E2F8002518E0A54214D075
:10A6000018226A43B6AB0133D1186A46127918236F
:10A610005A4301AB0133D0181822FBF767F868469C
:10A620000079401CC1B268460171681CC5B2B0A86F
:10A63000007EA842E2DC01A803F0AAF90120D2E7DB
:10A6400064656C6574655F7363686564756C650DDE
:10A65000000000005B6572726F725D2064656C655E
:10A6600074652077726F6E67207363686564756CBC
:10A6700065206E756D203A25640D00002E2E5C5508
:10A680005345525C65787465726E616C5F6D656D83
:10A690006F72795C757365725F6D656D6F72792E1F
:10A6A000630000004572726F723A25732C25640DA9
:10A6B0000A00000002468A4202DD501AC0B270470A
:10A6C000881AC0B2FBE7000070B505460C4621466B
:10A6D000FF2201322846FCF7E6F864216143084670
:10A6E0000B210903FBF7BAF806462146324602A0C1
:10A6F000FAF726FE70BD0000646F776E6C6F6164C0
:10A700003A204F7825303478205B256425255D0D6F
:10A710000000000070B504460D4601F0ABFF2A466C
:10A720002146782001F0AEFE0646012E00D170BD14
:10A730000020FCE7F8B504460D462946204601F006
:10A740007FFF074639466A2001F0D4FE0646012EF7
:10A7500000D1F8BD0020FCE7F8B504460D462946B7
:10A76000204601F06DFF07463946162001F0C2FE73
:10A770000646012E00D1F8BD0020FCE7F8B50446DE
:10A780000D462946204601F05BFF074639466F20FB
:10A7900001F0B0FE0646012E00D1F8BD0020FCE716
:10A7A00070B504460D4601F0D5FA2A4621467F20B1
:10A7B00001F068FE0646012E00D170BD0020FCE7C6
:10A7C00070B504460D462A4621467E2001F05AFE09
:10A7D0000646012E00D170BD0020FCE7F8B5044606
:10A7E0000D462946204601F02BFF074639461A2020
:10A7F00001F080FE0646012E00D1F8BD0020FCE7E6
:10A8000070B504460D462946204601F0C5FA2A4691
:10A810002146812001F036FE0646012E00D170BD92
:10A820000020FCE770B504460D462946204601F09D
:10A830000BFB2A462146802001F024FE0646012E0D
:10A8400000D170BD0020FCE770B504460D462946D6
:10A85000204601F033FB2A462146682001F012FE13
:10A860000646012E00D170BD0020FCE770B50446FD
:10A870000D462A462146672001F004FE0646012EB9
:10A8800000D170BD0020FCE7F8B504460D4629460E
:10A89000204601F0D5FE074639466D2001F02AFE1C
:10A8A0000646012E00D1F8BD0020FCE770B5044635
:10A8B0000D462946204601F02BFB2A4621467720EB
:10A8C00001F0E0FD0646012E00D170BD0020FCE73E
:10A8D00070B504460D462A4621467C2001F0D2FD83
:10A8E0000646012E00D170BD0020FCE770B504467D
:10A8F0000D462A4621467A2001F0C4FD0646012E67
:10A9000000D170BD0020FCE770B504460D462A4614
:10A910002146752001F0B6FD0646012E00D170BD1E
:10A920000020FCE7F8B505460E461746712D70D09D
:10A930001FDC692D5BD012DC652D40D008DC142DA6
:10A9400025D0152D29D0162D2DD01A2D74D130E0FB
:10A95000662D3AD0672D3ED0682DF7D141E02846CC
:10A960006A380300FEF7FEFD07494F565C62696FC7
:10A97000DB00284672380300FEF7F4FD1071777D86
:10A9800083898F959BA1A7ADB3B9BFC5CBD13946FC
:10A99000304600F08AF90446C2E03946304600F0FD
:10A9A000C8F90446BCE039463046FFF7D5FE0446F8
:10A9B000B6E039463046FFF711FF0446B0E03946AD
:10A9C000304600F020F90446AAE03946304600F04F
:10A9D000E8F80446A4E039463046FFF747FF04464E
:10A9E0009EE039463046FFF72FFF044698E039468F
:10A9F000304600F090F9044692E039463046FFF7C1
:10AA000099FE04468CE03946304600F060F9044671
:10AA100086E01EE03946304600F035F904467FE016
:10AA200039463046FFF730FF044679E03946304674
:10AA300000F0F7F8044673E071E039463046FFF75E
:10AA40009DFE04466CE03946304600F052F904465B
:10AA500066E03946304600F004F9044660E03946C5
:10AA6000304600F0C2F804465AE03946304600F05D
:10AA7000AAF8044654E03946304600F066F8044629
:10AA80004EE039463046FFF73FFF044648E039467E
:10AA9000304600F048F8044642E039463046FFF7B9
:10AAA00005FF04463CE039463046FFF733FE0446D6
:10AAB00036E03946304600F056F8044630E0394674
:10AAC0003046FFF713FF04462AE03946304600F0CF
:10AAD000BAF8044624E039463046FFF7F9FE04464A
