:020000040000FA
:10500000C81E0020115200001952000085510000F6
:105010000000000000000000000000000000000090
:10502000000000000000000000000000235200000B
:10503000000000000000000027520000FD8F00006B
:105040002B5200002D5200002F5200003152000060
:10505000335200003552000037520000856F0000C7
:10506000097100003D520000A1C1000055C10000BF
:1050700043520000A1C2000015C2000049520000C6
:105080004B5200008D720000E1720000317300008D
:1050900081730000C597000061BE0000E9AE00000A
:1050A0005B5200005D5200005F520000D1730000AF
:1050B0002174000071740000C174000031C7000049
:1050C000EFFFEAFF00F002F800F04DF80CA030C846
:1050D000083824182D18A246671EAB4654465D4674
:1050E000AC4201D100F03FF87E460F3E0FCCB646F1
:1050F0000126334200D0FB1AA246AB463343184781
:10510000C0800000E080000000230024002500266D
:10511000103A01D378C1FBD8520700D330C100D573
:105120000B60704710B5642902D100F07BF910BD07
:10513000782902D100F0ACF910BD632902D100F04A
:10514000DDFD10BD732902D100F0E0FD10BD00208F
:1051500010BD1FB50098019900F01BFD00F076FA14
:105160001FBD10B510BD00F021FE1146FFF7F1FF85
:1051700005F0C4FE00F039FE03B4FFF7F2FF03BCF4
:1051800004F00AFB04207146084202D0EFF30980C4
:1051900001E0EFF308807146004A104765A7000060
:1051A00030B40C490C684A6823681068C018106055
:1051B000241D121D8C4207D28A4208D20C604A601C
:1051C00030BC4000400870470C00DC3CF6E70A00A9
:1051D000DC3AF3E77013002070B505460C4616461E
:1051E00002E00FCC0FC5103E102EFAD2082E02D3CB
:1051F00003CC03C5083E042E07D301CC01C5361FDE
:1052000003E021782970641C6D1C761EF9D270BDF4
:105210001948804719480047FEE7FEE7FEE7FEE72A
:10522000FEE7FEE7FEE7FEE7FEE7FEE7FEE7FEE756
:10523000FEE7FEE7FEE7FEE7FEE7FEE7FEE7FEE746
:10524000FEE7FEE7FEE7FEE7FEE7FEE7FEE7FEE736
:10525000FEE7FEE7FEE7FEE7FEE7FEE7FEE7FEE726
:10526000FEE7FEE7FEE7FEE7FEE70000044805492B
:10527000054A064B704700001D900000C550000015
:10528000D8130020C81E0020D8140020D8140020F5
:1052900070B5064600F060FC056830460B30C40867
:1052A000E400B44201D8002070BD68682A46002896
:1052B00018D00168A14211D30B46214608318B4218
:1052C00008D3436801194B6003681B1B0B605160D6
:1052D000046001E041685160001D70BD02464068F5
:1052E0000028E6D12146284600F03EFC0028DCD10B
:1052F00070BD70B50446051F00F02EFC0068002C40
:105300001AD0446801E020466468002C01D0AC4209
:10531000F9D301680A18AA4204D12A6805468918F7
:10532000016000E0456028684119A14205D161682B
:10533000696021684018286070BD6C6070BD000015
:105340000FB4054910B503AA029800F0E3FC10BCA5
:1053500008BC04B018470000580300200FB41CB567
:10536000074B06AA7B4469460090059800F0A3FC11
:105370000020694600F0B2FC1CBC08BC04B0184711
:105380007509000070B5044685690068C10601D53D
:10539000302600E02026C00707D070BD6268304686
:1053A000A1689047206A401C20626D1EF6D570BD32
:1053B00070B5044685690078C00707D170BD626882
:1053C000A16820209047206A401C20626D1EF6D5FF
:1053D00070BD70B50C460546012A05D028788006B8
:1053E00000D5EA69002302E0012305E05B1C93423B
:1053F00002D2E05C0028F9D1A869E618C01AA861B9
:10540000286AC01828622846FFF7BCFF04E06A68D3
:105410002078A968641C9047B442F8D32846FFF767
:10542000C7FF70BDF7B5002575291068009914A64F
:1054300011D0C046C046002802DA404211A608E05A
:10544000009909688A0701D50FA602E0490704D52B
:105450000EA6012501E0C046C046009F0024243767
:1054600004E000F06BFC30313955641C0028F8D1A1
:105470002B4632462146009800F0BFFBFEBD0000DF
:10548000000000002D0000002B00000020000000A4
:1054900070B504460D4621461068C046C0462188B6
:1054A000090502D50F4A7A4402E00E4A7A440E32C8
:1054B00023460021243305E006070009360F965DD8
:1054C0005E54491C0028F7D120780023000705D539
:1054D000702D03D0002901D002231132204600F0A4
:1054E0008CFB70BD5E7B0000F3B50446002081B0EC
:1054F00020622046E168884700287DD0252802D018
:105500006268A16883E0454F00257F442046E1683A
:1055100088472028064608DB312E06D2B8192038E5
:105520000078002801D00543F0E7A80701D5042042
:1055300085430020E0610746A0612A2E0AD030464C
:1055400004F022F9002827D0B8000019303E00905E
:10555000866119E00298BA00121902C8916102909E
:105560002046E1688847012F064617D1E0690028E8
:105570001FDA202085431CE000980A2180694843F7
:1055800000998019303888612046E16888470646CE
:1055900004F0FAF80028EFD1012F0AD02E2E08D1FE
:1055A0002046E16888470646202005437F1C022FDD
:1055B000C3DBA069002803DA4042A0610120054353
:1055C000E80701D010208543002E24D03046413812
:1055D000192803D80120C002054320362046256043
:1055E0003146029A1546FFF79DFD00280CD0012890
:1055F00007D0ED1DE80800E00DE0C0000830029083
:1056000077E72D1D029574E762683046A1689047E0
:10561000206A401C6CE7206AFEBD0000227B00006F
:105620000B4A30B511460B4C60310B46DC3B0CC1CC
:10563000372106E0020C8D0012185A51064A5043D9
:1056400000190A46491E002AF4DC30BD0120E7E7B4
:1056500010130020E119D666CD0D0100034670B588
:1056600002460B439B070FD10E4CE60100E008C237
:1056700008C91D1B9D433542F9D0D9B21170521C87
:1056800000290DD01B0AF8E70B78491C1370521C37
:10569000002B05D00B78491C1370521C002BF3D142
:1056A00070BD00000101010130B5441C03E0017828
:1056B000401C00290DD08107F9D10B4BDD0104C836
:1056C000D11A91432940FAD0001B0A0603D0C01E0C
:1056D00030BD001B30BD0A0401D0801E30BD090260
:1056E000FCD0401E30BD000001010101F8B5042AC4
:1056F0002CD3830712D00B78491C0370401C521E18
:1057000083070BD00B78491C0370401C521E830783
:1057100004D00B78491C0370401C521E8B079B0F52
:1057200005D0C91ADF002023DE1B08C90AE0FFF7F5
:1057300053FDF8BD1D4608C9FD401C46B4402C432E
:1057400010C0121F042AF5D2F308C91A521EF0D451
:105750000B78491C0370401C521EEAD40B78491C7C
:105760000370401C012AE4D409780170F8BD01E0FF
:1057700004C0091F0429FBD28B0701D50280801CBD
:10578000C90700D00270704700290BD0C30702D0B0
:105790000270401C491E022904D3830702D50280EF
:1057A000801C891EE3E70022EEE70022DFE700000D
:1057B000024670B50A4392072AD11E4DEE0104C875
:1057C00008C9541B9443344017D0D0B2D9B2401A00
:1057D0002106014310D190B299B2401A210401432D
:1057E0000AD110021902000A090A401A21020143D3
:1057F00002D1100E190E401A70BD9A42DFD010BAB5
:1058000019BA884201D9012070BD0020C04370BD83
:1058100002780B78401C491C002A09D09A4207D113
:1058200002780B78401C491C002A01D09A42EFD024
:10583000D01A70BD01010101002203098B422CD353
:10584000030A8B4211D300239C464EE003460B43D0
:105850003CD4002243088B4231D303098B421CD332
:10586000030A8B4201D394463FE0C3098B4201D324
:10587000CB01C01A524183098B4201D38B01C01A5C
:10588000524143098B4201D34B01C01A52410309D3
:105890008B4201D30B01C01A5241C3088B4201D382
:1058A000CB00C01A524183088B4201D38B00C01A2F
:1058B000524143088B4201D34B00C01A5241411A56
:1058C00000D201465241104670475DE0CA0F00D039
:1058D0004942031000D34042534000229C46030932
:1058E0008B422DD3030A8B4212D3FC22890112BAB8
:1058F000030A8B420CD3890192118B4208D3890190
:1059000092118B4204D389013AD0921100E08909A7
:10591000C3098B4201D3CB01C01A524183098B4288
:1059200001D38B01C01A524143098B4201D34B0171
:10593000C01A524103098B4201D30B01C01A5241D4
:10594000C3088B4201D3CB00C01A524183088B425B
:1059500001D38B00C01A5241D9D243088B4201D3E4
:105960004B00C01A5241411A00D2014663465241CF
:105970005B10104601D34042002B00D549427047CE
:1059800063465B1000D3404201B50020C046C046CC
:1059900002BD704770477047F0B5FF252D04C6095A
:1059A000C209FF2704462E400137CB093E43484039
:1059B0002A402B400746002A6BD0002B69D0AA4210
:1059C00067D0AB4265D0002800DA32460125ED05EC
:1059D00029432C4309022002090AD21A4B0C7F24C6
:1059E000E31A434C000A7C44E35C7D24240412192E
:1059F00014145B00A218884201D3521C00E040003E
:105A000049420C465C4324115C43DB016415E318F6
:105A1000040A5C43C502200D0C4644436419250A60
:105A20005D432303EC0C0D46654300030019EB189E
:105A30004C42A34201D35B18401CD4052018002B14
:105A400007D05B00C91804D3401C002901D14008CD
:105A500040003F2189048A4209D3002A08DC11064C
:105A6000090F04D0032149074018C00FC007F0BD3B
:105A700001224100120689187F2252069142F6D275
:105A800005214907C84201D59010F0BDFF20C0058F
:105A9000F0BD002F00DA32461648AA4207D2AB42C8
:105AA00005D21902090E17D0F80FC007F0BDFF2567
:105AB00063002D06AB42F9D84900A942F6D8AB42A3
:105AC00001D1A942F2D0A94201D1002101E0610037
:105AD0004908D0050843F0BD1102090EFBD0FF2094
:105AE0000243D005F0BD0A460146104654E70000C7
:105AF000577600000000C07F1F22030C02D10F2246
:105B000000041CD0030E01D10002083A030F01D19A
:105B10000001121F830F01D18000921E002801DBBB
:105B20004000521ED20551180212511819229040FD
:105B300004D3491C002801D1490849000846704790
:105B4000C10FC90700D04042012292071143D3E799
:105B500001218907D0E7000000487047801300202A
:105B6000704770477047704738B504460A460020B2
:105B70006946C046C046002805D002462046009926
:105B800000F0F4F8012038BD10B5012000F008F94C
:105B900010BDF8B5C046C046054600200C46102092
:105BA000C0460646A819A0420DD9324669460020D3
:105BB000C046C046070001D100F0F2F80098A042AC
:105BC00000D00546C419FFF7C7FFF61D074605605C
:105BD000F008C0004619284600F008F8B44204D086
:105BE00031463868A21B00F0C1F8F8BD0021016001
:105BF00041608060704710207047FFB504460D4635
:105C000081B0243000902168880604D51022E06914
:105C10009143216000E00120A84201DD471B00E024
:105C200000270498A1697A191018081AA061207831
:105C3000C00602D42046FFF7A5FB002608E0039823
:105C40006268A168805D9047206A401C761C2062D3
:105C500004988642F3DB2078C0060AD52046FFF779
:105C600091FB06E06268A16830209047206A401CE2
:105C7000206238467F1E0028F4DC07E00098626846
:105C8000A168405D9047206A401C206228466D1E36
:105C90000028F3DC2046FFF78BFB2078000602D5B6
:105CA000022005B0F0BD0120FBE7000001694A1C9D
:105CB00002610878704700B58FB00291002105910C
:105CC0000549019379440391114604906846FFF712
:105CD0000BFC0FB000BD0000E5FFFFFF0A6810706D
:105CE000521C0A60704710B54369002B02D0C046B1
:105CF000C04601E0FFF76DFB012010BD12780146A0
:105D000024310A7000224A700122ECE71168002257
:105D1000D243E8E7084B70B50D467B44FFF7CBFF55
:105D20000446284604F078FC002802D00020C04336
:105D300070BD204670BD0000034900000146800888
:105D4000081A02091018020A1018020C1018C008CC
:105D5000820012185200891A01E0401C0A390A29EF
:105D6000FBD27047004870477813002010B50346F7
:105D7000406801E003464068002801D08842F9D31A
:105D80001868C3188B4206D0CB1CD808C000001D71
:105D9000411A521A0146081D0A60FFF7AAFA10BDFF
:105DA00010B500F031F800F028F810BD7546FFF787
:105DB000D9FFAE46050069465346C008C000854677
:105DC00018B020B5FFF752FA60BC00274908B64664
:105DD0000026C0C5C0C5C0C5C0C5C0C5C0C5C0C5FA
:105DE000C0C5403D49008D46704710B50446C046C9
:105DF000C0462046FFF7C0F910BD10B5002801D0FD
:105E000003F0CAFC10BD000010B5012805D0002128
:105E100003A000F021F8012010BD09A1F8E700005F
:105E200053494752544D454D3A204F7574206F6683
:105E30002068656170206D656D6F727900000000EB
:105E40003A2048656170206D656D6F727920636FCF
:105E5000727275707465640070B505460C460A2050
:105E600000E06D1C03F0A8FC002D06D02878002867
:105E7000F7D102E0641C03F09FFC002C02D02078D4
:105E80000028F7D10A2003F097FC70BD70B58C187C
:105E90000578401C6B075B0F01D10378401C2A1169
:105EA00006D10278401C03E00678401C0E70491CA5
:105EB0005B1EF9D12B0705D40023521E0DD40B70A5
:105EC000491CFAE70378401CCB1A921C03E01D78AA
:105ED0000D70491C5B1C521EF9D5A142D8D300207D
:105EE00070BD000010B501211548017515480078F6
:105EF00020210843134908700020134908701349F2
:105F00000875152003F0ECFB10200F4908700020E5
:105F10008870084680788870084680780821084391
:105F200009498870002008718871FF20C87200201C
:105F3000887208460078012108430349087010BDA3
:105F40004061004020040240005004404060004096
:105F5000064A127838239A43044B1A701A4612786C
:105F6000C3001A43014B1A707047000000500440F0
:105F70000B4A127852085200094B1A70002803D1BC
:105F800080220A439A7103E0C0220A43044B9A71AB
:105F9000034A127801231A43014B1A70704700001C
:105FA0000050044010B504460B48047200200B4911
:105FB0000875152003F094FB002109480175064877
:105FC00080798011032805D0034800788021084398
:105FD0000149087010BD00000050044040600040BE
:105FE0004061004000B5C0229178F8221140144A67
:105FF0001278114313480A46E03A130003F04AFBB3
:106000000E0A0E12161A1E1E1E080C1014181C1E44
:106010000D4813E00D4811E00D480FE00D480DE06C
:106020000D480BE00D4809E00D4807E00D4805E07C
:106030000D4803E00D4801E00D4800BF00BF00BD62
:10604000201C024040420F000090D003006CDC0294
:106050000048E80100366E010024F400001BB70080
:1060600000127A00808D5B0000093D00C0C62D0043
:1060700080841E0030B502460020002305E015781C
:10608000521C2C18A0B25C1CA3B28B42F7DB30BDB3
:1060900030B50B46002206E01D78046864190460E0
:1060A0005B1C541CA2B2FF2AF6DD30BDFFB583B0E5
:1060B0000D9A120F120701239B079A4202D1002268
:1060C000009201E0012200920E9A120F12070123A2
:1060D0009B079A4201D1002400E00124009A002A83
:1060E00001D1012200E000222240002A02D0002239
:1060F00001920DE0002C01D1012200E00022009B62
:106100001A40002A02D00122019201E000220192ED
:106110000122520782181170069A92012032E30080
:106120001A43009B9B001A43019B5B001A43059B8B
:106130001A43204B0D015A5301231E4A0D015219D7
:1061400053801C4B0D015B190C9A9A80194B0D0161
:106150005B190C9ADA80174A0D0152190D9B936056
:10616000144A0D0152190E9BD360134A927E0823E4
:106170001A43114B9A769A04104B9A601A4602926F
:106180000246C5176D0FAD18EE10029DAD5D0346BA
:10619000C617760FF618F610F600871B0126BE40CC
:1061A0003543C617760FB618F710029EF55507B09F
:1061B000F0BD000020000020000802400050004018
:1061C00070B50B4B0146C417640F6418E4101C5DD6
:1061D0000246C5176D0FAD18ED10ED00461B0125E9
:1061E000B540AC43C5176D0F6D18ED105C5570BD13
:1061F0000050004010B504460848844204D101789C
:10620000142005F0E7F808E00448001D844204D19A
:10621000001F01796A2005F0ADF910BD350200209C
:10622000F8B504460E4625462805000D002806D17F
:10623000284600F08BFC29460BA0FFF781F8FF22CF
:1062400001322946304600F04BFC64216143084688
:106250001321C902FFF7F0FA07463A46294607A07C
:10626000FFF76EF8F8BD0000536563746F724572F6
:10627000617365204F782534780D0000646F776E68
:106280006C6F61643A204F78253478205B25642553
:10629000255D0D00F0B58BB0074639A0FFF750F82B
:1062A0000025002620E03146102203A800F0C3FBA1
:1062B0000020029007E003A90298085C45190298A3
:1062C000401CC0B2029002981028F4DB6421714394
:1062D00008461321C902FFF7AFFA0190314631A0F9
:1062E000019AFFF72DF810361320C0028642DAD348
:1062F000394633A0FFF724F8294638A0FFF720F8E5
:10630000AF4203D13CA0FFF71BF808E045A0FFF720
:1063100017F84DA0FFF714F800200BB0F0BD1022C5
:106320004E4907A800F087FB00246846C07F04435D
:1063300024026846807F044324026846407F044369
:1063400024026846007F04436846007F2D1A684691
:10635000407F2D1A6846807F2D1A6846C07F2D1A0F
:1063600029463FA0FEF7ECFFA54204D143A0FEF76B
:10637000E7FF0120D1E747A0FEF7E2FF0020CCE7CE
:106380000D5B2056455249465920444F574E4C4FBD
:106390004144454420434845434B53554D205D0DF2
:1063A0000A0000003078253034783A207265616444
:1063B000696E6720666C61736820256425250D0071
:1063C00062756666657220636865636B73756D20C0
:1063D00069732030782534780D000000666C617395
:1063E000682020636865636B73756D206973203066
:1063F000782534780D0A0000627566666572206142
:106400006E6420666C61736820636865636B737586
:106410006D20766572696679207061737320210D35
:106420000000000062756666657220616E64206619
:106430006C61736820766572696679206661696C43
:10644000202121210D0D0000646F776E6C6F616457
:10645000206661696C2121210D0D0000F09700007C
:10646000415050207061636B20636865636B737586
:106470006D2069732030782534780D0041707020CC
:106480007061636B207665726966792070617373E1
:1064900020210000417070207061636B207665726E
:1064A000696679206661696C2121210D0D0000006B
:1064B000F8B50446002500260027294800888442B4
:1064C0000EDD28480078002803D125480088264999
:1064D000088001202349087000202449087006E044
:1064E0001F480088844202DA0120204908701D48B4
:1064F0000078002808D01E480078FF2804DA1C48DD
:106500000078401C1A4908701848007800281CD0F0
:1065100000201649087013480078002815D0002084
:10652000104908700E4800880F490988401A85B242
:106530000F4800780F490870084601782846FFF791
:1065400085F986B200200A490870C82D00DA0025B6
:10655000FF2D00DDFF2502480480E8B2F8BD0000F1
:10656000AA020020AF020020AC020020B0020020EE
:10657000AE020020B1020020FFB5FFB082B0074696
:106580003D4601AE002405E0287830706D1C761C75
:10659000601C84B2012040028442F5DB839D01A986
:1065A00082980E18002405E0287830706D1C761C47
:1065B000601C84B284988442F6DB384606F069F8A1
:1065C00001AA01214902384606F08AF87FB006B0D8
:1065D000F0BD0000F0B58DB0F1A0FEF7B1FE00F007
:1065E000F7FA00F09FFBEF4804780178EEA0FEF781
:1065F000A7FEEF484079EF494873EA48001D091F9C
:10660000486000200A90FF20099000200890FF2099
:10661000079007460646002003900490002458E0A7
:106620000C206043E4494018007AB04203D004983B
:10663000401CC0B204900C206043DF494018407AEF
:10664000B84203D00398401CC0B203900C206043B2
:10665000D9494018017A0A98814205DD0C2060432F
:10666000D5494018007A0A900C206043D24940185E
:10667000417A0898814205DD0C206043CE494018DC
:10668000407A08900C206043CB494018017A099861
:10669000814205DA0C206043C7494018007A09900E
:1066A0000C206043C4494018417A0798814205DABA
:1066B0000C206043C0494018407A07900C2060438A
:1066C000BD494018067A0C2060434018477A601C88
:1066D00084B2B948801E0078A042A1DCB448C078DA
:1066E000002803D0B248C078012833D1AD490398BF
:1066F000487000260027002529E000241BE00C201C
:106700006043AD494018407AA84212D10127A848F9
:10671000C078002804D10C2060434018C67008E0FF
:106720000398801B401EC2B20C206043A24940184F
:10673000C270601C84B2A048801E0078A042DEDCDB
:10674000002F02D0701CC6B20027681C85B2102D25
:10675000D3DBC8E09648C078022803D09448C078BC
:10676000032833D18F49049848700026002700255C
:1067700029E000241BE00C2060438F494018007A78
:10678000A84212D101278A48C078022804D10C20DF
:1067900060434018C67008E00498801B401EC2B2D7
:1067A0000C20604384494018C270601C84B2824847
:1067B000801E0078A042DEDC002F02D0701CC6B222
:1067C0000027681C85B2102DD3DB8CE07848C07898
:1067D000042803D07648C0780528BAD1099A0A99C6
:1067E0008818C10F0918C905090E0691079A08995A
:1067F0008818C10F0918C905090E059100200B90D2
:1068000000253CE000200C9000242AE00C2060438E
:10681000694A8018017A069803F03CFC06460C2071
:106820006043654A8018417A059803F033FC0746B7
:10683000BE420ADDAE4212D101200C900C21614310
:106840005D4A89180B98C87009E0AF4207D1012052
:106850000C900C216143584A89180B98C870601C31
:1068600084B25548801E0078A042CFDC0C980028E6
:1068700003D00B98401CC0B20B90681C85B2102D41
:10688000C0DB00200B904A48C07805282BD100249B
:106890000FE00C20604348494018C1780B988142B2
:1068A00005DD0C20604344494018C0780B90601C03
:1068B00084B24148801E0078A042EADC00240DE04A
:1068C0000C2060433C494018C6780B98801BC2B22C
:1068D0000C2060434018C270601C84B23648801E91
:1068E0000078A042ECDC32488078030002F0D2FE4F
:1068F0000805080B0E1114171A1D01F043FF15E0CF
:1069000001F0F6FA12E002F01FF80FE001F0ECFEE1
:106910000CE001F0E3FB09E001F056FD06E001F0B8
:1069200095FC03E001F064FE00E000BF00BF2148D9
:10693000006900901F48037B4289007A014602905B
:106940001EA0FEF7FDFC1C48801E017822A0FEF769
:10695000F7FC1448417824A0FEF7F2FC002417E06D
:106960000C20604314494018C07800900C2060430C
:106970004018437A0C2060434018027A0C20604390
:10698000085C014602901DA0FEF7DAFC601C84B290
:106990000948801E0078A042E2DC0DB0F0BD000086
:1069A0000D0A0000780B002045463A2532640D00A0
:1069B000E00F00207C0F00202A0800206B3A25649D
:1069C0002049733A25642049743A256420416D3A80
:1069D00025640D0A000000004465766963655F73F5
:1069E000756D3A25640D00004D6F64756C655F57D9
:1069F0006F726B4E756D3A25640D000049443A5B29
:106A000030782532785D205B25645D5B25645D6EA2
:106A1000756D3A202564200D000000000A78436E51
:106A2000C254426E632A03D2426E521C426601E097
:106A300000224266704770B505460C461646002097
:106A400002F018FE0A2005F0BFFC032002F0D6F980
:106A5000FF2109042140080C02F0D0F9FF210902AE
:106A60002140080A02F0CAF9E0B202F0C7F904E0D6
:106A7000552002F0C3F928706D1C3046711E8EB28D
:106A80000028F5D1012002F0F5FD0A2005F09CFC5C
:106A900070BD10B5044600F0FDF800F07EF800204F
:106AA00002F0E8FD0A2005F08FFC812002F0A6F933
:106AB000FF2109042140080C02F0A0F9FF2109027E
:106AC0002140080A02F09AF9E0B202F097F9012099
:106AD00002F0D0FD0A2005F077FC00F05EF810BD52
:106AE00070B505460C46164600F0D4F8002002F0BA
:106AF000C1FD0A2005F068FC022002F07FF9FF21A9
:106B000009042140080C02F079F9FF210902214013
:106B1000080A02F073F9E0B202F070F9FF200130C8
:106B2000864200DD064603E0287802F067F96D1C16
:106B30003046711E8EB20028F6D1012002F09AFD77
:106B40000A2005F041FC00F028F870BD10B504469D
:106B500000F0A0F800F021F8002002F08BFD0A20E0
:106B600005F032FC202002F049F9FF210904214000
:106B7000080C02F043F9FF2109022140080A02F043
:106B80003DF9E0B202F03AF9012002F073FD0A206B
:106B900005F01AFC00F001F810BD10B5002400202B
:106BA00002F068FD0A2005F00FFC052002F026F92E
:106BB00000BF552002F022F90446E007C00F00286C
:106BC000F7D1012002F056FD0A2005F0FDFB10BDB3
:106BD00000B593B00A49087811A902F0BDF8094838
:106BE000129A1199426401640549087801A902F0DA
:106BF0007BF8402201A90348FEF7EEFA13B000BD6E
:106C0000780B0020A00F0020F7B5C4B0459F0025E9
:106C10003BE0F8B240904098381A4190FF21013192
:106C200040980C1A4698401B86B20A46684641991D
:106C3000FFF701FF44984019439040986844429000
:106C4000B44211DB324643994298FEF74FFD41981A
:106C5000FFF71FFFFF22013268464199FFF740FF0F
:106C6000BF19A81985B210E0224643994298FEF751
:106C70003DFD4198FFF70DFFFF2201326846419923
:106C8000FFF72EFF3F19281985B246988542C0DBD1
:106C900047B0F0BD10B5002002F0ECFC0A2005F072
:106CA00093FB062002F0AAF8012002F0E3FC0A2080
:106CB00005F08AFB10BDFFB581B004460D461646AF
:106CC0000A98002801D134702AE0AC4212DA281B5D
:106CD000C0B2009004990098484307460A99491C9D
:106CE0003846FEF7A9FD0746AF4200D92F46E01906
:106CF000307015E0AC4212DD601BC0B20090049908
:106D00000098484307460A99491C3846FEF794FD07
:106D10000746A74200D92746E01B307000E03470D8
:106D200005B0F0BD002007E0002216214143044BCE
:106D3000C9188A82411CC8B21028F5DB70470000D0
:106D4000DC090020FFB581B00C4615461E46002E1A
:106D500007D02888871938460199FEF76DFD2180F4
:106D600001E02888208005B0F0BD10B50322002185
:106D7000022001F031FE00221146042001F02CFE19
:106D8000002207210D2001F027FE042202210C2001
:106D900001F022FE002201210C2001F01DFE032241
:106DA00006210D2001F018FE002206210D2001F021
:106DB00013FE01221146022001F00EFE03220221E1
:106DC000084601F009FE00220321022001F004FE22
:106DD00004220021012001F0FFFD002201210846CC
:106DE00001F0FAFD05220221012001F0F5FD052246
:106DF0000321012001F0F0FD05220421012001F012
:106E0000EBFD042211460C2001F0E6FD04220321D3
:106E10000C2001F0E1FD10BD30B513460C7805786B
:106E2000AC4209DD0478E2180C78944202D20C7866
:106E3000047017E0027015E004780D78AC420FDDA5
:106E400004789C4209DD0478E21A0C78944202D955
:106E50000C78047006E0027004E00C78047001E025
:106E60000C78047030BD0000012105480177054809
:106E700080880843034988800020034908777047C9
:106E800000610040601504400060004008B500202B
:106E900016490870164880880121084314498880E3
:106EA000084640891349084011494881084600892D
:106EB000104908400E490881084600898915084391
:106EC0000B4908810020009005E000BF684600786B
:106ED000401CC1B20091684600780E28F5D90448DC
:106EE0000089012108430249088108BD40040020AF
:106EF00060150440FEFF00000121064801700648AD
:106F000080880221084304498880002003490870D2
:106F10007047000020610040601504402060004080
:106F200008B516488088022108431449888008461D
:106F30004089134908401149488108460089104991
:106F400008400E49088108460089491508430B4945
:106F500008810020009005E000BF68460078401CD2
:106F6000C1B20091684600780E28F5D9034800891F
:106F7000022108430149088108BD00006015044052
:106F8000FDFF000010B55648008802210840022885
:106F900007D154480088002803D0022003F058FF8E
:106FA0009AE04F480088C007C00F002807D04D481E
:106FB0000088002803D0052003F04AFF8CE04A48EF
:106FC0000078C007C00F002818D046480088002865
:106FD0000FD0464800680078454908724348006869
:106FE000401C424908603F480088401E3D490880D7
:106FF00072E0FFF74BFF03F037FF6DE03A4800788F
:1070000004210840002832D13548203080880121F1
:1070100008433349203188803148008B8004800C3C
:107020002F4908830846008B0121890308432C4916
:1070300008832B482030408801210843284920310B
:1070400048802948007804210843274908702948C6
:107050000088012807D1224820304089264908406D
:107060001F4920314881FF202149087234E023481C
:1070700000882049098888422EDA1D48007A204974
:10708000096808701E480068401C1D4908601B48BC
:107090000088401C1949088016480088401E09884D
:1070A00088420BD10E4820304089134908400C49D2
:1070B00020314881FF200E4908720DE00F480088FA
:1070C0000C490988884204D1FFF7E0FE03F0C2FEB4
:1070D00002E0FF200649087200200A49087710BD27
:1070E00040150440480400204004002044040020CF
:1070F0004017044052040020FEFF0000500400200E
:107100004C0400200060004010B556484088022121
:107110000840022807D154480088002803D00220E4
:1071200003F0ACFE9AE04F484088C007C00F00282B
:1071300007D04D480088002803D0052003F09EFEAC
:107140008CE04A480078C007C00F002818D0464895
:10715000008800280FD046480068007845498872AA
:1071600043480068401C424908603F480088401E70
:107170003D49088072E0FFF7D3FE03F08BFE6DE01F
:107180003A48007804210840002832D135482030A0
:107190008088022108433349203188803148408B60
:1071A0008004800C2F4948830846408B01218903C5
:1071B00008432C4948832B4820304088022108434B
:1071C000284920314880294800780421084327496C
:1071D000087029480088012807D1224820304089BA
:1071E000264908401F4920314881FF2021498872E3
:1071F00034E0234800882049098888422EDA1D4857
:10720000807A2049096808701E480068401C1D49A2
:1072100008601B480088401C1949088016480088EF
:10722000401E098888420BD10E48203040891349FE
:1072300008400C4920314881FF200E4988720DE03A
:107240000F4800880C490988884204D1FFF768FE7E
:1072500003F016FE02E0FF200649887200200A496A
:10726000087010BD401504405C0400205404002048
:10727000580400204017044066040020FDFF000071
:1072800064040020600400202060004010B500204D
:107290000E4908710E480068401C0D4908600D48F1
:1072A0000088C007C00F002808D00B48008B401C86
:1072B0000121090440180949086004E00648008BD0
:1072C000401C0649086001F003FF10BD406000400B
:1072D00090040020A01D0440001F044080040020F2
:1072E00000200E4908720E480068401C0C490860D6
:1072F0000C484088C007C00F002808D00A48408BBF
:10730000401C0121090440180849086004E00648AF
:10731000408B401C054908607047000040600040F9
:1073200094040020A01D0440001F04408404002099
:1073300000200E4908730E480068401C0C49086084
:107340000C488088C007C00F002808D00A488088F1
:10735000401C0121090440180849086004E006485F
:107360008088401C0549086070470000406000406C
:1073700098040020A01D0440601F044088040020E1
:1073800000200E4908740E480068401C0C49086033
:107390000C48C088C007C00F002808D00A48C08821
:1073A000401C0121090440180849086004E006480F
:1073B000C088401C054908607047000040600040DC
:1073C0009C040020A01D0440601F04408C04002089
:1073D00000200E4908730E480068401C0C490860E4
:1073E0000C480088C007C00F002808D00A48008B4E
:1073F000401C0121090440180849086004E00648BF
:10740000008B401C05490860704700006060004028
:10741000B0040020A021044000230440A004002068
:1074200000200E4908740E480068401C0C49086092
:107430000C484088C007C00F002808D00A48408B7D
:10744000401C0121090440180849086004E006486E
:10745000408B401C05490860704700006060004098
:10746000B4040020A021044000230440A404002010
:1074700000200E4908750E480068401C0C49086041
:107480000C488088C007C00F002808D00A488088B0
:10749000401C0121090440180849086004E006481E
:1074A0008088401C0549086070470000606000400B
:1074B000B8040020A021044060230440A804002058
:1074C00000200E4908760E480068401C0C490860F0
:1074D0000C48C088C007C00F002808D00A48C088E0
:1074E000401C0121090440180849086004E00648CE
:1074F000C088401C0549086070470000606000407B
:10750000BC040020A021044060230440AC040020FF
:107510004D48407B4021084000280CD04B48007863
:10752000FF2804DA49480078401C484908700120C7
:107530004749087087E046480078012870D14348E1
:107540000078042874DD414800780A281EDA414892
:107550000078002871D040480078401C3E490870EF
:107560003E48006840003D4908603B4800782028BC
:1075700063DB084600683A49086001203949087011
:107580000020354908703349087056E02F480078CC
:10759000122847DD2D480078182824DA2D48007875
:1075A00000284AD02C480078401C2B4908702B48F2
:1075B0000068400029490860084600680121084326
:1075C0002649086024480078202836DB08460068F1
:1075D0002349086001202349087000201E490870D3
:1075E0001C49087029E019480078332812DD174833
:1075F00000783C2808DA002017490870174908600D
:1076000001201449087018E000201249087013493D
:10761000086012E000200F490870104908600CE073
:107620000EE005E000200B4908700C49086004E0FA
:1076300000200849087009490860002003490870C3
:107640000020034908707047000004409C0200209D
:107650009E0200209F0200209D020020A002002028
:1076600090020020940200201D4A127880231A43C1
:107670001B4B1A70002802D100221A4B1A770128DE
:1076800008D10122174B1A77154AD27810231A43D2
:10769000134BDA70022802D1A222124B1A77032868
:1076A00002D182220F4B1A77042802D1C2220D4B3D
:1076B0001A77052802D103220A4B1A77062802D12D
:1076C0004322084B1A770022074B1A820123074AEC
:1076D00013770022064B1A77034A11827047000085
:1076E0002004024060040440404F044040610040D8
:1076F0004060004010B500200B490877172001F0CA
:10770000FBFF0021094801770948008A0121C903CC
:1077100008430749088200BF0548008A0121C903C0
:1077200008400028F8D010BD406000404061004093
:10773000404F04401FB50520FEF742FD0220FEF732
:1077400031FC03A91E4801221346009202910190C8
:1077500000220E210520FEF7A9FC00BF19488088F1
:107760000028FBD1684680891749884202DD002045
:1077700004B010BD684680891449884201DD0520A7
:10778000F6E7684680891149AC39884201DD04205A
:10779000EEE7684680890E49884201DD0320E7E76D
:1077A000684680890B49884201DD0220E0E768468F
:1077B00080890949884201DD0120D9E70020D7E707
:1077C0000E50044000010020AC0E0000110D00001E
:1077D000540B000054090000FF03000010B59C4842
:1077E00000780221084000280FD09A48007801282C
:1077F00003D100209749087002E0012095490870E4
:107800009448FEF7F7FC02F0F5FA9348007802215D
:107810000840002803D002F0EBFA02F001FB8F4889
:10782000007802210840002801D002F005FB8C48B6
:10783000007802210840002801D002F009FB8948A5
:10784000007802210840002801D002F00BFB80489C
:10785000007840210840002804D003F057FF82A0A0
:10786000FDF76EFD7A480078DD2108407849087000
:1078700079480078DD21084077490870774800781A
:10788000DD2108407549087075480078DD21084001
:107890007349087073480078DD2108407149087009
:1078A0006B480078B3210840694908706A4800783D
:1078B000B32108406849087068480078B32108403F
:1078C0006649087066480078B3210840644908702A
:1078D00064480078B321084062490870664800781F
:1078E000C007C00F002810D06348006863490840F3
:1078F0006149086057480078012803D100205549A4
:10790000087002E00120534908705B4800680221BA
:107910000840002817D0584800685849491E0840B8
:107920005549086056480078042807DA544800781A
:10793000401C53490870FEF74DFE04E000205049FA
:107940000870FEF747FE4C480068042108400028F4
:1079500006D0494800684949C91E084046490860A0
:107960004548006808210840002806D042480068C1
:107970004249C91F0840404908603F48006810213B
:107980000840002806D03C4800683C490F390840B0
:10799000394908603848006820210840002806D08E
:1079A0003548006835491F39084033490860324876
:1079B000006840210840002806D02F4800682F4961
:1079C0003F3908402C4908602B4800688021084056
:1079D000002806D02848006828497F3908402649F1
:1079E000086025480068FF2101310840002806D0C2
:1079F000214800682149FF3908401F4908601E4896
:107A00000068012149020840002805D01A48006892
:107A10001C4908401849086017480068012189027C
:107A20000840002805D0144800681749084012494A
:107A30000860114800680121C9020840002805D0EB
:107A40000D480068114908400B49086010BD00004E
:107A50003C0B002035020020480B0020540B002076
:107A6000600B00206C0B00207265736574207769D1
:107A700066690D0A0000000098020020FEFF000069
:107A8000780B0020FFFD0000FFFB0000FFF7000067
:107A90003EB5FFF74FFE044600203222019002233C
:107AA0000092029001222146174800F037F800208A
:107AB000322201900223009202901A462146134876
:107AC00000F02CF800203222019002230092029054
:107AD000032221460E4800F021F8002032220190B6
:107AE000022300920290042221460A4800F016F870
:107AF00000203222019002230092029005222146AA
:107B0000054800F00BF83EBD3C0B0020480B002060
:107B1000540B0020600B00206C0B0020FFB50C46BE
:107B2000099D00210023504F4668BE4202D246689C
:107B3000761C46604668AE4217D30A9E002E08D0D7
:107B400047680A9EAE19B74203D96E1C46600426E8
:107B500031434668AE4201D144263143944213D0AA
:107B60000C263143002646600EE04768039EB7426C
:107B700006D9944208D0022631430026466003E02D
:107B8000944201D000264660944201D1012631433F
:107B90000B9E002E54D002260E40002E03D0FD2650
:107BA000314010263143067810273E40002E34D055
:107BB0002D4F8668BE4202D28668761C8660876832
:107BC0000B9EB7421BD910260E40002E08D0EF2680
:107BD0003140202631430678EF273E40067007E00B
:107BE00002263143EF2631400678EF273E400670EB
:107BF000002686600678EF273E4006700DE01026CE
:107C00000E40002E09D020263143EF263140067861
:107C1000EF273E4006700026866006783E273E40ED
:107C200033460678F607360E067006781E43067051
:107C30000678BE273E40067006780E43067011E0B7
:107C400006780E273E4033460678F607360E067055
:107C500006781E43067006788E273E40067006782A
:107C60000E430670FFBD0000FFFF000070B502F07C
:107C700073FD0546022D0ED004DC002D07D0012D2A
:107C80000FD106E0032D08D0FF2D0AD107E0022412
:107C900008E0052406E00F2404E03C2402E064240C
:107CA00000E000BF00BF5A2C08DD00BF10210E48C5
:107CB000017300BF00200D49087013E00B480078E5
:107CC000401CC0B209490870A0420BDD00200870BA
:107CD00000BF05487038007B1021484002497039C8
:107CE000087300BF70BD0000700004408E020020C9
:107CF00010B50E480078012807D10C480179C170F1
:107D000000BF08210A48017708E000210748C17038
:107D100000BF082106487030017300BF0A220349E2
:107D2000C91C481EFFF778F810BD0000350200207E
:107D300000000440FEB517488088002827D10025A0
:107D4000154E00240FE060001449085AA84201DDD6
:107D500060000D5A60001149085AB04201DA600013
:107D60000E5A601CC4B2C82CEDDB0C480088019090
:107D7000A81B80B20090A81987B23846F90F0918DD
:107D80004F10074805800098FEF792FBFEBD00BF2C
:107D9000FCE7000000010020FFFF00006606002055
:107DA0008C020020F0B585B004460E461546628967
:107DB000511CB08AFDF74AFDC7B26289511CB08AD6
:107DC000FDF744FDC8B20290781CC0B20390217A3E
:107DD0000398814201DC00200390A07A0090226881
:107DE000039880001018AA00815CBA0020688018EF
:107DF000AA00805C01903246029BFEF75CFFA07AED
:107E000000902268039880001018AA00801841781A
:107E1000BA0020688018AA00801840780190B21C2F
:107E2000029BFEF748FFA07A00902268039880002A
:107E30001018AA0080188178BA0020688018AA005B
:107E4000801880780190321D029BFEF734FFA07AE3
:107E500000902268039880001018AA008018C1784A
:107E6000BA0020688018AA008018C0780190B21D5E
:107E7000029BFEF720FF05B0F0BD000070B505467F
:107E80001849098A88B22B46174A1146FEF75AFF4D
:107E90000022154914391348FFF784FF01241BE021
:107EA000114814380178162060430F4A143A1154CF
:107EB0001046817816206043801881701046017941
:107EC00016206043801801711046817916206043A6
:107ED00080188171601CC4B204484078A042DFDA87
:107EE00070BD00007C0F0020F0090020780B0020FE
:107EF00070B5184C64786406240E174D2C72FF245C
:107F00006C8101242C732C46247A6D896D1C6C4382
:107F1000114D2C612C1F61680E4B403B002214E078
:107F2000002005E01C780C70491C5B1C441CA0B2AE
:107F30000428F7DB002004E000240C70491C441CDA
:107F4000A0B20428F8DB541CA2B2024C647894421C
:107F5000E6DC70BDE00F00207C0F0020F1B582B0A0
:107F60005B49098A88B25B4A1146029BFEF7EAFE2A
:107F7000574A5289511C574A143A908AFDF766FCB9
:107F8000C5B2534A5289511C524A143A908AFDF79D
:107F90005DFC88B20190681CC6B24D48007AB042C0
:107FA00000DC0026FF210198FDF750FCC7B2002F2E
:107FB0005CD0002455E0781EA04228D14448001F20
:107FC0004068B100415C16206043424A143A1154A3
:107FD0003F48001F4068B1004018417816206043B8
:107FE000801881703A48001F4068B10040188178BD
:107FF00016206043801801713548001F4068B100A9
:108000004018C178162060438018817127E03048FD
:10801000001F4068A900415C162060432D4A143AB5
:1080200011542B48001F4068A900401841781620C1
:108030006043801881702648001F4068A9004018DE
:10804000817816206043801801712148001F406824
:10805000A9004018C1781620604380188171601C07
:10806000C4B21D484078A042A5DA2FE0002429E0E0
:108070001748001F4068A900415C16206043154A5C
:10808000143A11541248001F4068A9004018417862
:1080900016206043801881700D48001F4068A900B9
:1080A0004018817816206043801801710848001F2D
:1080B0004068A9004018C17816206043801881717B
:1080C000601CC4B204484078A042D1DAFEBD000072
:1080D0007C0F0020F0090020780B002070B5154CB3
:1080E0006478154D2C72154C6478641C25022C1B89
:1080F000114D6C8101242C732C46247A6D896D1CE2
:108100006C430D4D2C612C1F63680A4A403A0020D5
:108110000BE0002105E014781C705B1C521C4C1C09
:10812000A1B20429F7DB441CA0B2034C247A844298
:10813000EFDC70BDE00F00207C0F0020780B0020EA
:10814000F8B507463E49098A88B23B463D4A114682
:10815000FEF7F8FD3A4A5289511C3A4A143A908A7D
:10816000FDF774FBC5B2364A5289511C354A143AA0
:10817000908AFDF76BFB88B20090681CC6B230484D
:10818000007AB04200DC0026002429E02C48001FC1
:108190004068A900415C162060432A4A143A1154F1
:1081A0002748001F4068A900401841781620604306
:1081B000801881702248001F4068A900401881780B
:1081C00016206043801801711D48001F4068A900F7
:1081D0004018C1781620604380188171601CC4B2B9
:1081E00019484078A042D1DA15494889C10F0918C9
:1081F0004A1000998A4222DA1148001F4068B100F3
:10820000405C1049143908700D48001F4068B100E7
:10821000401840780B49143988700948001F40689D
:10822000B100401880780749143908710448001FCC
:108230004068B1004018C078024914398871F8BD0F
:108240007C0F0020F0090020780B002070B5134C43
:108250006478134D2C72FF24F5346C8101242C7347
:108260002C46247A6D896D1C6C430D4D2C612C1F9E
:1082700063680A4A403A00200BE0002105E01478C8
:108280001C705B1C521C4C1CA1B20429F7DB441C63
:10829000A0B2034C247A8442EFDC70BDE00F0020D2
:1082A0007C0F0020F1B584B04449098A88B2444A61
:1082B0001146049BFEF746FD404A5289511C404A34
:1082C000143A908AFDF7C2FAC6B23C4A5289511C50
:1082D0003B4A143A908AFDF7B9FA8FB23749488978
:1082E0000A21FDF7B3FA85B2A804000C019006201C
:1082F000684380B20090A800281880B20390E8007C
:10830000401B80B202900198874202DD03988742A9
:1083100005DD009887420ADD0298874207DC0020CD
:1083200027491439087088700871887122E0234841
:10833000001F4068B100405C2149143908701F4893
:10834000001F4068B100401840781D4914398870FA
:108350001A48001F4068B100401880781849143945
:1083600008711648001F4068B1004018C0781449D1
:108370001439887101241BE0114814380178162043
:1083800060430F4A143A1154104681781620604316
:1083900080188170104601791620604380180171A1
:1083A000104681791620604380188171601CC4B228
:1083B00004484078A042DFDA05B0F0BD7C0F002011
:1083C000F0090020780B002070B5154C6478154D2D
:1083D0002C722C46247A25022C1B124D6C81012410
:1083E0002C732C46247A6D896D1C6C430D4D2C61C9
:1083F0002C1F63680A4A403A00200BE0002105E088
:1084000014781C705B1C521C4C1CA1B20429F7DBB5
:10841000441CA0B2034C247A8442EFDC70BD0000FF
:10842000E00F00207C0F002010B5324800780128B2
:108430001FD131480078012857D0002413E00022D2
:108440000C2060432D49401802710C2060434018F5
:1084500042710C206043401882710C206043401828
:10846000C271601CC4B22548801E0078A042E6DCC0
:108470003BE023480079012803D02248407B224971
:1084800008701F488078030001F004F90805080D02
:1084900012171C21262B00F073F923E01A480078EC
:1084A000FFF7ECFC1EE01848007800F013FA19E022
:1084B0001548007800F0DEF814E013480078FFF764
:1084C0004DFD0FE010480078FFF7ECFE0AE00E4883
:1084D0000078FFF735FE05E00B48007800F016F84D
:1084E00000E000BF00BF00F041FD024800780249F3
:1084F000087010BD41020020B40200202A080020AC
:10850000E00F00207C0F0020B3020020FEB50746DC
:108510003348008A80B23B46324A11460090FEF74B
:1085200011FC2F4A5289511C2E4A143A908AFDF7A9
:108530008DF9C0B202902C490978029888424AD03D
:1085400000F0BCFB0090294841780098FDF77EF9C7
:10855000C8B2019000263BE000F0B0FB0090234839
:1085600041780098FDF772F9CCB200F0A7FB0090BB
:108570001B48017A0098FDF769F9CDB21848001F31
:108580004068A900415C16206043164A143A115411
:108590001348001F4068A900401841781620604326
:1085A000801881700E48001F4068A900401881782B
:1085B00016206043801801710948001F4068A90017
:1085C0004018C1781620604380188171701CC6B2B3
:1085D00001988642C0DD044902980870FEBD000083
:1085E0007C0F0020F0090020B5020020780B00204D
:1085F00070B51C4C64781C4D2C72FF246C810124D6
:108600002C732C46247A6D896D1C6C43164D2C619D
:108610002C1F6368134A403A00200BE0002105E05C
:1086200014781C705B1C521C4C1CA1B20429F7DB93
:10863000441CA0B20C4C247A8442EFDC002006E0FB
:108640000C244443094D6419E070441CA0B2074C4B
:10865000A41E24788442F3DC044CA41E2478044D28
:108660006C7070BDE00F00207C0F00202A080020F5
:10867000780B002070B505461849098A88B22B4648
:10868000174A1146FEF75EFB0022154914391348BC
:10869000FFF788FB01241CE0631E16267343104E6F
:1086A000143E9B191A461432162363439B1919462C
:1086B00014310A4B1B8A98B23C23FEF743FB162069
:1086C00060433246811800220448FFF76BFB601CB0
:1086D000C4B204484078A042DEDA70BD7C0F0020AE
:1086E000F0090020780B002070B5234C64786400FA
:1086F000641E224D2C72FF246C8101242C732C46A5
:10870000247A6D896D1C6C431C4D2C612C1F636891
:108710001948403800210BE0002205E004781C7065
:108720005B1C401C541CA2B2042AF7DB4C1CA1B2F7
:10873000114C64788C42EFDC0F4C6478012C1ADD0C
:108740000D4840380C4C6478A41EA4000019002188
:108750000CE0002205E004781C705B1C401C541CDB
:10876000A2B2042AF7DB08384C1CA1B2024C647890
:10877000641E8C42EDDC70BDE00F00207C0F0020F9
:1087800070470000FEB54E4840784E490872002000
:1087900048810120087308614873081F40680190F0
:1087A000474F403F00240EE0002608E0397801984A
:1087B00001700198401C01907F1C701C86B2042E31
:1087C000F4DB601C84B23F48007AA042ECDC002459
:1087D00006E00C2060433C494018C470601C84B221
:1087E0003948801E0078A042F3DC3748801E0078AC
:1087F000364948703348007A012828D1002421E006
:108800003048001F4068017816206043304A1154F8
:108810002C48001F40684178162060438018817002
:108820002848001F40688178162060438018017135
:108830002448001F4068C178162060438018817169
:10884000601C84B221484078A042D9DC37E0002483
:1088500031E000F033FA00901A48017A0098FCF7F2
:10886000F5FFCDB21748001F4068A900415C1620F3
:108870006043174A11541348001F4068A90040186C
:10888000417816206043801881700E48001F4068B0
:10889000A9004018817816206043801801710948AA
:1088A000001F4068A9004018C17816206043801856
:1088B0008171601C84B205484078A042C9DCFEBDCD
:1088C000E00F00207C0F00202A080020780B0020F9
:1088D000DC09002070B505461849098A88B22B4684
:1088E000174A1146FEF72EFA00221549143913488B
:1088F000FFF758FA01241CE0631E16267343104E3E
:10890000143E9B191A461432162363439B191946C9
:1089100014310A4B1B8A98B23C23FEF713FA162037
:1089200060433246811800220448FFF73BFA601C7E
:10893000C4B204484078A042DEDA70BD7C0F00204B
:10894000F0090020780B002070B5134C6478134DAB
:108950002C72FF246C8101242C732C46247A6D899F
:108960006D1C6C430D4D2C612C1F63680A4A403A04
:1089700000200BE0002105E014781C705B1C521CE9
:108980004C1CA1B20429F7DB441CA0B2034C247A8E
:108990008442EFDC70BD0000E00F00207C0F00205F
:1089A0001FB50446094800900948406901900294A7
:1089B00007484069054940180019039010236A468A
:1089C00000210448FDF7D8FD1FBD0000674523A125
:1089D000800850000004500070B50C461546012375
:1089E000A340D9B22A462B0000F054FE07052743C6
:1089F0005F65788CAA00534B1B5C8B43514E3354FC
:108A0000504B403B1B5C0B434E4E403E33544D4B52
:108A1000103B1B5C8B434B4E103E3354494B303B59
:108A20001B5C8B43474E303E3354464B203B1B5C14
:108A30008B43444E203E335482E0424B1B5C8B43BD
:108A4000404E33543F4B403B1E5C0E431E543D4B47
:108A5000103B1E5C8E431E543A4B303B1B5C0B4359
:108A6000384E303E3354374B203B1E5C8E431E54F1
:108A700066E0344B1B5C8B43324E3354314B403BEE
:108A80001E5C0E431E542F4B103B1B5C8B432D4E24
:108A9000103E33542B4B303B1E5C8E431E54294BEF
:108AA000203B1E5C8E431E544AE0264B1B5C0B434E
:108AB000244E335444E0234B1E5C8E431E54214B02
:108AC000403B1B5C8B431F4E403E33541D4B103BC1
:108AD0001B5C8B431B4E103E335431E0194B1B5C27
:108AE0008B43184E3354174B403B1B5C8B43154E46
:108AF000403E3354134B103B1B5C0B43114E103E56
:108B000033541DE00F4B1B5C8B430E4E33540D4B07
:108B1000403B1E5C0E431E540A4B103B1B5C8B43B8
:108B2000084E103E3354074B303B1E5C8E431E54A0
:108B3000044B203B1B5C0B43024E203E335400BFD2
:108B400000BF70BD600004401749897F01221143B6
:108B5000154A917700BF1449897F022211400029EC
:108B6000F9D01149897C01700F49C97C41700E49C7
:108B7000097D81700C49897DC1700B49497D017166
:108B80000949C97D41710849097E81710649897F7A
:108B900049084900044A917700BF0349897F0222AE
:108BA00011400029F9D17047404F04401F4909780E
:108BB000802211431D4A1170002808D100211C4A4F
:108BC00011771A49C97810229143184AD1700128A7
:108BD00008D10121164A11771449C978102211438E
:108BE000124AD170022802D1A221114A117703281A
:108BF00002D182210E4A1177042802D1C2210C4AE7
:108C00001177052802D10321094A1177062802D1DC
:108C10004321074A11770021064A51771146497FBF
:108C200008221143034A5177704700002004024094
:108C300060040440404F044010B5002014490876F9
:108C4000162000F059FD0021124801761248407F9D
:108C500080210843104948770846807F0121084356
:108C60000D49887700BF0C48807F0221084000280A
:108C7000F9D00948807F400840000749887700BF45
:108C80000548807F022108400028F9D110BD00006E
:108C90004060004040610040404F04401CB5064821
:108CA0000078C007C00F002802D102F027FD02E0C3
:108CB0006846FFF749FF1CBD2C02002010B508488C
:108CC000007808490978401805490870FCF768FAE7
:108CD000034909784018024908700846007810BD19
:108CE0005102002052020020F8B504460D461E2C09
:108CF00012DA40212846FCF756FD154800780C236F
:108D00005843144BC018007982000C206043195856
:108D10002846FCF7EBFC1AE03C2C18DA20461E38FB
:108D2000C4B22046E117490F0918C91049023D2273
:108D300092028E18E117490F0918C910C900611A6B
:108D400089050F0CF11940222846FCF7CFFCF8BD2D
:108D5000780B0020B8CB0000F0B50C463F2800DDB2
:108D6000F0BD0F263603C50072192346002105E029
:108D700017781F70521C5B1C4F1CB9B20829F7D31F
:108D800000BFEDE7002804D000BF082204494A7460
:108D900005E000BF0822024970314A7000BF7047E9
:108DA0000000044010B5002201210846FFF714FE20
:108DB000052202210120FFF70FFE052203210120D9
:108DC000FFF70AFE052204210120FFF705FE01201E
:108DD00000F050FC0020FFF7D5FF10BD002804D0A4
:108DE00000BF042204494A7405E000BF042202497E
:108DF00070314A7000BF70470000044070B50346F0
:108E000000250026FF2400BF1FE080201840C6096F
:108E10005806030E6006040E0020FFF7B3FF30462D
:108E2000FFF7DCFF012003F0CFFA0120FFF7AAFFD4
:108E3000012003F0C9FA08484078022108400028C0
:108E400001D0601CC4B2681CC5B2082DDDDB002057
:108E5000FFF798FF204670BD0000044010B53C4865
:108E60000078401CC0B23A49087032286EDB0020FE
:108E7000087038480068401C364908603648007859
:108E8000012108433449087032480078C007C00FF8
:108E9000002805D108460078022108432E490870B1
:108EA00005212C480068FCF7C7FC002905D12A4899
:108EB00000780421084328490870072125480068E4
:108EC000FCF7BAFC002905D12348007808210843A3
:108ED0002149087019211F480068FCF7ADFC0029E2
:108EE00005D11D480078102108431B490870322124
:108EF00018480068FCF7A0FC002905D11648007846
:108F000020210843144908707D2112480068FCF7AD
:108F100093FC002905D110480078402108430E49F0
:108F20000870FA210B480068FCF786FC002905D17F
:108F300009480078802108430749087005480068FF
:108F40000649884202D300200249086010BD000093
:108F5000A8020020A40200204A020020AC0D00005C
:108F600000200149087070472C02002010B5002035
:108F700039E0002130E00C224A431E4BD218D2784F
:108F8000824227D1162242431B4B9C5C0C224A434F
:108F9000184BD218147116224243174BD2189478EA
:108FA0000C224A43134BD218547116224243124BDF
:108FB000D21814790C224A430E4BD21894711622FF
:108FC00042430D4BD21894790C220B465343094A65
:108FD0009A18D4714A1CD1B2064A921E12788A425B
:108FE000C9DC421CD0B2034A921E12788242C0DC15
:108FF00010BD00002A080020DC090020024800689B
:10900000401E0149086070472802002000B5FCF7A7
:10901000E9FF0149086000BD4806002000B5802036
:109020001B4948711A201A49203908732B204873AC
:109030003C2088734D20C873002016494860FCF717
:10904000D1FF154908600020C04314490860144945
:109050000860144814490860114903221202891853
:1090600048600F49891888600D498918C8600C4903
:10907000891808610A49891848610949891888616D
:1090800007498918C861AC200849487000BD000034
:109090002004024000B001404806002080E200E0C9
:1090A00000E100E0C0C0C0C000E400E000100240E9
:1090B0000249498A0143014A51827047A01D044078
:1090C0000249898A0143014A91827047A01D0440E8
:1090D00010B5FEF71DFAFFF7C1FE10BDF8B5054645
:1090E0000E466A463146284600F0FEF90446002C3A
:1090F0001FD10320104988800846C088000900015C
:10910000C8800846C0886946097808430A49C8806B
:10911000684640784006000C084908826846407856
:109120004006000C48820448408803210843024955
:1091300048802046F8BD0000201104400013044080
:1091400070B505460E463C480078042108433A496C
:10915000087003203949C880222038492039088204
:109160003748088367204002364908823648007C29
:1091700001210843344908740720304920394881C7
:10918000FF202330488231484883672040022D4920
:1091900048822A4800890121084328490881084655
:1091A000808A2B4908402549888208464089012148
:1091B00008432249488100BF0520264908722648F5
:1091C00040780121084324494870234820304078E2
:1091D000400840002049203148701F484030407C02
:1091E000400840001C49403148741B4860304078BA
:1091F0004008400018496031487000BF00BF0E2091
:1092000014496031087214482030807808210843DE
:1092100011492031887010486030807808218843D7
:109220000D496031887000BF31462846FFF756FF70
:109230000446204670BD0000200402402011044076
:109240009780000000130440600404409740000031
:10925000FEFF0000000804400000044004490874B8
:1092600000BF04490988602211400029F9D17047E4
:109270000013044000110440F8B505460E466A4646
:109280003146284600F030F90446002C19D10C2054
:109290000D49888068460078302108430A49C88013
:1092A000684640784006000C084988806846407847
:1092B0004006000CC880044840880C21084302493D
:1092C00048802046F8BD00002011044040130440AF
:1092D00070B505460E4643480078042108434149CD
:1092E0000870414880880C2108433F49888001214B
:1092F0003E4801750176017700203D4908750876E2
:1093000008773C483849203988823A487530888344
:1093100067204002384988803848007C042108438F
:1093200036490874072030492039C8813448C8823A
:109330003448C883672040022F49C8802A480089E2
:1093400004210843284908810846808A2E4908409C
:1093500025498882084640890421084322494881DA
:1093600000BF0A20294988702948007B042108434E
:109370002749087326482030007B0421884324496C
:109380002031087322484030007F0421884320495F
:10939000403108771E486030007B042188431C4917
:1093A0006031087300BF00BF0C2018492031C8731A
:1093B00017482030807802210843154920318870F1
:1093C00013486030807802218843114960318870E9
:1093D00000BF31462846FFF74FFF044600F05CF817
:1093E000204670BD2004024020110440206100404E
:1093F00020600040228000004013044060040440CC
:109400002281000097400000FBFF0000400804405C
:109410000000044010B502460020002901D181203F
:1094200006E00023034C2380034B1980034B1A6092
:1094300010BD0000C4030020C6030020C0030020AC
:1094400010B502460020002901D181201AE00E4B00
:109450001A600E4B198001230D4C23700A4B1B68B8
:109460001B780C4C2371084B1B685B1C064C23605B
:10947000064B1B885B1E054C238000BF044B1B78EA
:10948000002BFBD110BD0000B8030020BC0300205E
:10949000450200204013044010B510480089042103
:1094A00008430E49088108464089042108430B49B6
:1094B0004881084640880C2108430849488000201C
:1094C0000749087508760D2000F0FEF80E2000F020
:1094D000FBF8002103480175017610BD20110440FE
:1094E0002060004020610040F7B584B0164680201F
:1094F000039000242BE06000174A115A0498FCF7EF
:109500009BF9019002251EE0691C0198FCF794F973
:1095100041080291114A0299514308460599FCF706
:109520008BF90E49471A381E01DB014600E0414223
:10953000142906DA3470757000200390039807B080
:10954000F0BD681CC5B2802DDEDB601CC4B2102CDF
:10955000D1DB0398F3E7000058CD0000102700008E
:1095600070B505460C463E480078012108433C4949
:10957000087082203B49C8822846FFF7A1FD012DD3
:1095800006D0022D1CD0042D32D0082D62D148E027
:10959000002035490871112000F08AF80120C0032D
:1095A000304920390882601E304908832D48408B9D
:1095B000400840002B49488300212D4801714AE0B2
:1095C000002029490872122000F072F80120C0031F
:1095D000244920394882601E244948832148408B11
:1095E000022188431F49488300212148017232E04B
:1095F00000201D490873132000F05AF80120C00311
:10960000184920398882601E1849603188801548C1
:10961000408B042188431349488300211448017377
:1096200019E0002010490874142000F041F80120CE
:10963000C0030C492039C882601E0C496031C880C3
:109640000848408B08218843064948830021084880
:10965000017400E000BF00BF2846FFF729FD70BD80
:1096600020040240A01D044040600040001F044050
:1096700040610040002804D000BF102204494A7411
:1096800005E000BF1022024970314A7000BF7047E8
:109690000000044030B47446641E2578641CAB425C
:1096A00004D3635D5B00E31830BC18471D46F8E740
:1096B000002805DBC206D20E01219140014A11604B
:1096C0007047000080E200E0002805DBC206D20EF1
:1096D00001219140014A11607047000080E200E0E2
:1096E000002805DBC206D20E01219140014A11601B
:1096F0007047000080E200E0002805DBC206D20EC1
:1097000001219140014A11607047000080E200E0B1
:1097100010B5002819DB1A4A03231B02D21883084C
:109720009B00D2588307DC0EFF23A3409A438B078C
:109730001B0E8407E40EA3401A43114B032424029A
:109740001B198408A4001A5118E00E4A03071B0FC6
:10975000083B9B089B00D2588307DC0EFF23A340E5
:109760009A438B071B0E8407E40EA3401A43054B54
:109770000407240F083CA408A4001A5110BD0000DF
:1097800000E100E01CED00E030380A2801D20120A1
:109790007047002070470000002803D00449054AA4
:1097A000116202E00121034A116200BFFEE70000DE
:1097B000AD0B00000080024010B50446E0B2FFF798
:1097C0004DFD10BD00200449087504480068401C88
:1097D000024908607047000040600040C804002053
:1097E00070B590B006460C46802C05DA15A0FBF744
:1097F000A7FD002010B070BD684600F0A3FF002058
:1098000070752146304602F05DFB002508E000A897
:109810000130405DA04201D10120EBE7681CC5B2D8
:1098200068460078A842F2DC68460178401C44543F
:1098300068460078401CC1B26846017002F074FBB3
:109840000120D7E76164645F6F726967696E616C5C
:109850005F6566206572726F720D00007047014689
:109860000020087800024A78104300028A781043EA
:109870000002CA781043704730B595B000245021DB
:1098800001A8FBF792FF0025154801780078401CDD
:10989000134A1070002900D10EE00121204602F089
:1098A00031FC044622460321362002F0A5FE0020AA
:1098B0000B49087015B030BD00BF0621204602F0EC
:1098C00021FC04462A4601A9204602F009FC044670
:1098D00022460321362002F08FFE00BFEAE7000097
:1098E0003803002070B505460C46601E81B228463C
:1098F000FCF7C0FBC1B228192038C07F814204D0D8
:1099000003A0FBF71DFD002070BD0120FCE7000057
:10991000636F6D2064617461207665726966792079
:109920006572726F720D000070B502460B461878B2
:109930001678B04220D1107800281FD000250021D1
:1099400010E0002409E0501C065D581C405C864273
:1099500001D1681CC5B2601CC4B21078A042F2DC10
:10996000481CC1B210788842EBDC1078A84201D1C3
:10997000012070BD0020FCE70020FAE700BFF8E7F7
:1099800070B5D0B000257BE0BC2121A8FBF70DFF0E
:109990000C216943504A5058FBF786FEC1B220A8FB
:1099A00001710C2068434C4A115821A80130FBF783
:1099B00055FE0C20684348494018017A20A80176DA
:1099C0000C20684344494018417A20A8C1760C20F5
:1099D000684341494018466800243EE0A000305CDE
:1099E000FF280FD1A00080194078FF280AD1A000DD
:1099F00080198078FF2805D1A0008019C078FF2841
:109A000000D12CE0A000315CA000221827A8013072
:109A100010184170A00080194178A000221827A8D2
:109A2000013010188170A00080198178A0002218E0
:109A300027A801301018C170A0008019C178A000BB
:109A4000221827A801301018017120A8007F401C9F
:109A5000C1B220A80177601CC4B2082CBEDB00BFD5
:109A6000322120A80175417564218175C1750021DD
:109A700041768176294621A802F024FA681CC5B2F5
:109A80001E2D81DB15A0FBF75BFC402101A8FBF735
:109A90008CFE11A800F056FE10A800791E30C1B24D
:109AA0006846017110A80279411D1D38FBF71EFEA2
:109AB000002504E001A801304555681CC5B21E2DE3
:109AC000F8DB01A802F0F4F90CA0FBF739FC01A8BF
:109AD00001F0CEFF50B070BDE0040020636F7079DC
:109AE0005F6275696C745F696E5F65665F746F5FF6
:109AF0006E6F72666C6173680D000000736176654D
:109B00005F616C6C65665F72616E6B6C6973740D1E
:109B100000000000F0B587B00446002006909E4982
:109B2000E01C085C039003980A285FD008DC03005F
:109B3000FFF7B0FD0915181B1E2C893089598900C3
:109B40001C287DD006DC0B287BD00C287AD00E2870
:109B500079D1F8E02B2877D03628F9D108E100F048
:109B60008DFE15E102F00AF912E100F0BBFD0FE1F4
:109B7000894BE21D995C1A46A31DD05C02F0E8FBFC
:109B800000220321084602F037FD01E1012083494C
:109B90000870FDE08049201D085C06020A46611D30
:109BA000515C0E430020049019E0A01D0499401858
:109BB000801C7949085C0502A01D04994018C01C4E
:109BC0007549085C45190919891D049A881800F01F
:109BD000EFF80746291D0498401880B204900498B5
:109BE000B042E2DBD4E0FFF739FED1E0002005907F
:109BF0000598002804D1FF200130694908800CE055
:109C00000598012803D140026549088005E00598C0
:109C1000022802D14002624908805F49A01D085C09
:109C20006049086008460068000208605A49E01D63
:109C3000085C5C49096808435A490860084604E022
:109C40007BE022E073E0A2E089E0006800020860A7
:109C5000514920460830085C524909680843514977
:109C6000086008460068000208604B492046093039
:109C7000085C4C49096808434A490860002002F022
:109C800095FB0A204849087082E0474800780A2876
:109C90004CD10120454908703F49201D085C06024F
:109CA0000A46611D515C0E431146A01D0D5C2D023C
:109CB000E01D085C05432D0220460830085C054382
:109CC0002D0220460930085C0543084606902046D0
:109CD0000A30069908180690042E0DD13148006804
:109CE000854209D100222946069801F07FFC0746EB
:109CF00000202D4908700FE0301F2949098888424B
:109D000006DC82B22946069801F070FC074603E0A3
:109D10000020254908700027012F04D100220321CB
:109D20000B2002F069FC00202049087030E01A493D
:109D30000919881D01F0E1FC2AE017490919881D5D
:109D400001F0E8FD24E01449A01D085C0290E01D2C
:109D5000085C01900199029802F0B8FB18E00E4BE4
:109D6000E21D995C1A46A31DD05C02F0F1FA0FE0E7
:109D70000949201D085C06020A46611D515C0E431C
:109D800011460919881D314600F0CCFE00E000BFE5
:109D900000BF07B0F0BD0000E80F0020490300201D
:109DA0004E030020500300205403002048030020ED
:109DB000FEB5044626786778A0780502E078401959
:109DC00085B2304600F052FC0190019840000749EE
:109DD00040184078B84201D00020FEBD2A46211D1F
:109DE000304600F042FA00900098F6E720CD0000DF
:109DF0007047000010B504A0FBF7A2FA04A0FBF71F
:109E00009FFAFFF7BDFD10BD0D4B310D00000000A6
:109E1000696E6974206566666563742E2E2E0D006A
:109E200010B503A0FBF78CFA00F024F810BD000079
:109E30000D4B320D0000000010B503A0FBF780FAB7
:109E400000F042F810BD00000D4B330D0A00000079
:109E500010B502A0FBF774FA10BD00000D4B340DD5
:109E60000000000010B501F0DBFE01F041FF01F041
:109E700009FF10BD00B5AFB00B480078401C0A497F
:109E800008700846017809A0FBF75AFA00216846D5
:109E900000F004FC044801786846FFF7A1FC01F0DB
:109EA00027FF2FB000BD0000B802002061646420CD
:109EB0006F726967696E616C2072616E6B6C697339
:109EC000742025640D00000010B590B00024684691
:109ED00000F038FC68460078002806D06846007814
:109EE000401E00A901310C5C01E06846447821461F
:109EF00004A0FBF725FA204600F08AF801F0F8FEEE
:109F000010B010BD64656C657465206F7269676917
:109F10006E616C2072616E6B6C6973742025640DC8
:109F2000000000000349086000BF024909680029D9
:109F3000FBD1704728020020F0B591B004460F46CF
:109F4000402101A8FBF731FC2078002805D117A09B
:109F5000FBF7F6F9002011B0F0BD002600250DE05A
:109F6000601C405DB84207D0601C425D3046711CE9
:109F7000CEB201A901310A54681CC5B22078A842AA
:109F8000EEDC2078B04204D10EA0FBF7D9F9002016
:109F9000E1E7684606713D2201A92046FBF7A6FBD2
:109FA00011A0FBF7CDF90120D5E7000064656C65D1
:109FB000746520656D7074792072616E6B206C69B8
:109FC00073740D0064656C6574652077726F6E67DD
:109FD000206E756D62657220696E2072616E6B20F5
:109FE0006C6973740D00000064656C657465206EA7
:109FF000756D62657220696E2072616E6B206C698E
:10A000007374207375636365737366756C0D0000FC
:10A0100010B5C0B00446802C05DA18A0FBF790F903
:10A02000002040B010BD214601A800F063FB0220D3
:10A0300069464876214601A801F044FF30A800F0A7
:10A04000FDFA214630A8FFF777FF30A801F030FF76
:10A0500030A800F077FB214630A8FFF76DFF30A84D
:10A0600001F062FF30A800F033FB214630A8FFF773
:10A0700063FF30A801F04EFF00BFD2E764656C6556
:10A080007465206F726967696E616C206572726FAA
:10A09000720D000002468A4202DD501AC0B27047BB
:10A0A000881AC0B2FBE770B504460D4601F03AFBD2
:10A0B0002A462146782001F0EDF90646012E00D10E
:10A0C00070BD0020FCE7F8B504460D462946204641
:10A0D00001F00CFB074639466A2001F04BFA0646B0
:10A0E000012E00D1F8BD0020FCE7F8B504460D466E
:10A0F0002946204601F0FAFA07463946162001F0B3
:10A1000039FA0646012E00D1F8BD0020FCE7F8B56B
:10A1100004460D462946204601F0E8FA074639462E
:10A120006F2001F027FA0646012E00D1F8BD00206D
:10A13000FCE7F8B504460D462946204601F0D6FA5C
:10A14000074639461A2001F015FA0646012E00D1BD
:10A15000F8BD0020FCE770B504460D462A462146AE
:10A16000662001F0CFF90646012E00D170BD002017
:10A17000FCE770B504460D462946204601F012F86A
:10A180002A462146682001F085F90646012E00D1B5
:10A1900070BD0020FCE770B504460D462A462146F6
:10A1A000672001F077F90646012E00D170BD00202E
:10A1B000FCE770B504460D462A462146652001F0AD
:10A1C000A1F90646012E00D170BD0020FCE7F8B5CC
:10A1D00004460D462946204601F088FA07463946CE
:10A1E0006D2001F0C7F90646012E00D1F8BD002010
:10A1F000FCE770B504460D462946204600F0FCFFFA
:10A200002A462146772001F045F90646012E00D165
:10A2100070BD0020FCE770B504460D462A46214675
:10A220007C2001F037F90646012E00D170BD0020D8
:10A23000FCE770B504460D462A4621467A2001F017
:10A2400029F90646012E00D170BD0020FCE770B54B
:10A2500004460D462A462146752001F01BF90646A4
:10A26000012E00D170BD0020FCE7F8B505460E4672
:10A2700017466F2D72D01CDC682D51D010DC1A2DC2
:10A2800036D006DC142D21D0152D25D0162D72D1F7
:10A2900028E0652D32D0662D36D0672DF7D139E014
:10A2A000284669380300FFF7F5F90641474D535A30
:10A2B00060BB284670380300FFF7ECF90D646A7044
:10A2C000767C82888E949AA0A6ACB200394630463D
:10A2D00000F03AF90446A4E03946304600F07BF934
:10A2E00004469EE039463046FFF7FFFE044698E0FC
:10A2F00039463046FFF71DFF044692E039463046A6
:10A30000FFF757FF04468CE039463046FFF723FF3E
:10A31000044686E039463046FFF73DFF044680E0BC
:10A3200039463046FFF725FF04467AE03946304685
:10A3300000F043F9044674E039463046FFF7C3FEA7
:10A3400004466EE03946304600F013F9044668E0F2
:10A350003946304600F0E6F8044662E00CE0394643
:10A360003046FFF734FF04465BE03946304600F0E4
:10A37000A7F8044655E053E039463046FFF7C7FEDC
:10A3800004464EE03946304600F005F9044648E000
:10A390003946304600F0B4F8044642E039463046CB
:10A3A00000F080F804463CE03946304600F06CF896
:10A3B000044636E03946304600F048F8044630E0BE
:10A3C00039463046FFF743FF04462AE03946304617
:10A3D00000F02AF8044624E039463046FFF709FF2A
:10A3E00004461EE039463046FFF75DFE044618E09D
:10A3F0003946304600F038F8044612E03946304617
:10A40000FFF717FF04460CE03946304600F06AF8C3
:10A41000044606E039463046FFF7FDFE044600E0FC
:10A4200000BF00BF2046F8BD70B504460D46294662
:10A43000204600F0F3FE2A462146762001F02AF855
:10A440000646012E00D170BD0020FCE770B5044621
:10A450000D462A462146742001F01CF80646012EBE
:10A4600000D170BD0020FCE770B504460D4601F038
:10A4700029FA2A462146792001F00CF80646012ED9
:10A4800000D170BD0020FCE770B504460D462A4699
:10A490002146732000F0FEFF0646012E00D170BD5C
:10A4A0000020FCE770B504460D462A46214672207E
:10A4B00000F0F0FF0646012E00D170BD0020FCE741
:10A4C000F8B504460D462946204601F00FF9074627
:10A4D00039466E2001F04EF80646012E00D1F8BD37
:10A4E0000020FCE770B504460D462A4621467B2035
:10A4F00000F0D0FF0646012E00D170BD0020FCE721
:10A50000F8B504460D462946204601F0EFF8074607
:10A510003946712001F02EF80646012E00D1F8BD13
:10A520000020FCE7F8B504460D462946204601F018
:10A53000D7F8074639466C2000F04CFF0646012E3E
:10A5400000D1F8BD0020FCE7F8B504460D462946C9
:10A55000204601F0C5F80746384600F02FFF39467F
:10A56000142000F037FF0646012E00D1F8BD002070
:10A57000FCE7F8B504460D462946204601F0B0F840
:10A58000074639466B2000F025FF0646012E00D114
:10A59000F8BD0020FCE7F8B504460D4629462046E4
:10A5A00001F0A4F807463946702000F0E3FF0646A4
:10A5B000012E00D1F8BD0020FCE770B504460D4621
:10A5C0002A462146692000F065FF0646012E00D18B
:10A5D00070BD0020FCE7F8B506460F463946304608
:10A5E00001F081F80546002D06D0012D05D0022D81
:10A5F00004D0032D04D102E003E002E001E000E01A
:10A6000000BF00BF2946152000F018FF0446012CAA
:10A6100000D1F8BD0020FCE701460020C043704790
:10A6200070B504460D46E0B2FEF718FE0A2C02D1C2
:10A630000D20FEF713FE204670BD000010B5044645
:10A640003D2202492046FCF7F6F910BD0F1A020020
:10A6500030B502460020002305E01578521C2C1866
:10A66000E0B25C1CA3B28B42F7DB30BD70B505468F
:10A6700000F012F80646002407E060000549085C77
:10A68000A84200D103E0601CC4B2B442F5DB00BFB5
:10A69000204670BD20CD00001C20704770B50546D7
:10A6A0000C46054AD01DF830B92262438118B92200
:10A6B0002846FCF7C0F970BD1060010010B50446D3
:10A6C000FF2202492046FCF7B6F910BD10600100D8
:10A6D00010B504463D2202492046FCF7ACF910BDF6
:10A6E000891A020010B5002422460321022001F03D
:10A6F00083FF10BD70B505460C46802C04DA08A017
:10A70000FAF71EFE002070BD0D4AD01DF830B922A8
:10A7100062438118B9222846FCF78DF90120F2E73F
:10A720006765745F6F726967696E616C5F656666A5
:10A73000656374206E756D206572726F720A000019
:10A740001060010010B504463D2202492046FCF786
:10A7500072F910BD4C1A02000148007870470000E1
:10A760004A03002086B004460D4626686768A06844
:10A770000590E06804902069039060690290A069E8
:10A780000190E069009014A0FAF7DAFD314618A0B4
:10A79000FAF7D6FD394619A0FAF7D2FD1AA00599A5
:10A7A000FAF7CEFD1BA00499FAF7CAFD1CA0039985
:10A7B000FAF7C6FD1DA00299FAF7C2FD20A0019983
:10A7C000FAF7BEFD23A00099FAF7BAFD294626A0A4
:10A7D000FAF7B6FD00BFFEE75B4861726420666170
:10A7E000756C742068616E646C65725D0D0A0000A2
:10A7F0005230203D2025780D0A0000005231203DC6
:10A800002025780D0A0000005232203D2025780DC9
:10A810000A0000005233203D2025780D0A00000078
:10A82000523132203D2025780D0A000053746163B7
:10A830006B6564204C52203D2025780D0A000000F5
:10A84000537461636B6564205043203D2025780D6F
:10A850000A000000537461636B65642050535220FA
:10A860003D2025780D0A000043757272656E7420D4
:10A870004C52203D2025780D0A00000010B5002420
:10A880000B480078002808D10021204601F03AFC4E
:10A89000044601200649087004E00121204601F029
:10A8A00031FC044622460321002001F0A5FE10BD24
:10A8B0004C030020FFB581B006460F46002400255A
:10A8C00000BF2AE020011749085CB04223D10025CF
:10A8D00019E02001134A8018C0682A0181583846BF
:10A8E00001F03FF800280CD120010E494018C06843
:10A8F0002901401881790398814202D1012005B0D5
:10A90000F0BD681CC5B2200106494018407AA84233
:10A91000DFDC0020F3E7601CC4B2002CD2D00020A2
:10A92000EDE7000028030020F3B589B006460020BB
:10A9300008900025069005900027002402900390BF
:10A940000125E9E0705D0790681C305C0690A81C4A
:10A95000311805A8069A00F0DEFFA81C06994018D9
:10A96000305C0490E81C06994018305C0002291DF8
:10A97000069A8918715C084307467019401D0699AC
:10A98000441804980300FEF785FE07050E1A267189
:10A990008699AB002078002801D0012000E000203B
:10A9A000694608729DE02078000661780904084332
:10A9B000A17809020843E1780843029091E02078E9
:10A9C0000006617809040843A17809020843E17888
:10A9D0000843029085E020780021039102900299BB
:10A9E0000A0E0398000210430A0261780A43029299
:10A9F000039002990A0E0398000210430A02A178FC
:10AA00000A430292039002990A0E0398000210432F
:10AA10000A02E1780A430292039002990A0E03980F
:10AA2000000210430A0221790A430292039002991C
:10AA30000A0E0398000210430A0261790A43029247
:10AA4000039002990A0E0398000210430A02A179AA
:10AA50000A430292039002990A0E039800021043DF
:10AA60000A02E1790A43029203903AE0A1780902CE
:10AA7000E2781143084600F017FA019021780902A4
:10AA8000627811430846FBF75BF80090019901F0EA
:10AA9000E1FE029025E0781CFAF7FAFB029002989A
:10AAA000002800D11DE0791C0298FAF77CFE791C81
:10AAB0008AB22146029800F02EFF12E03846FAF7DB
:10AAC000E7FB02900298002800D10AE0394602987C
:10AAD000FAF769FE3A462146029800F01CFF00E0B2
