:020000040000FA
:10400000501E0020B9410000B9CD000065410000FC
:1040100000000000000000000000000000000000A0
:10402000000000000000000000000000CB41000084
:104030000000000000000000CF410000D970000027
:10404000D3410000D5410000D7410000D941000014
:10405000DB410000DD410000DF4100009D5F00000A
:1040600021610000E541000009C90000CDC8000041
:10407000EB41000011CA000085C90000F1410000B9
:10408000F3410000A5620000F962000049630000EE
:1040900099630000A979000011BD0000259F000070
:1040A000034200000542000007420000E9630000EF
:1040B0003964000089640000D96400001DD100004B
:1040C00000F002F800F03FF80CA030C808382418BF
:1040D0002D18A246671EAB4654465D46AC4201D140
:1040E00000F031F87E460F3E0FCCB6460126334233
:1040F00000D0FB1AA246AB46334318471498000081
:10410000349800000023002400250026103A01D333
:1041100078C1FBD8520700D330C100D50B6070477F
:1041200010B5642902D100F0CFF810BD782902D172
:1041300000F000F910BD002010BD1FB500F0D8F947
:104140001FBD10B510BD00F023FC1146FFF7F5FFB1
:1041500005F0D2FF00F03BFC03B4FFF7F2FF03BC15
:1041600003F0B4FB04207146084202D0EFF309804B
:1041700001E0EFF308807146004A1047999C000067
:1041800070B505460C46164602E00FCC0FC5103E32
:10419000102EFAD2082E02D303CC03C5083E042EFB
:1041A00007D301CC01C5361F03E021782970641CB8
:1041B0006D1C761EF9D270BD19488047194800471A
:1041C000FEE7FEE7FEE7FEE7FEE7FEE7FEE7FEE7C7
:1041D000FEE7FEE7FEE7FEE7FEE7FEE7FEE7FEE7B7
:1041E000FEE7FEE7FEE7FEE7FEE7FEE7FEE7FEE7A7
:1041F000FEE7FEE7FEE7FEE7FEE7FEE7FEE7FEE797
:10420000FEE7FEE7FEE7FEE7FEE7FEE7FEE7FEE786
:10421000FEE7000004480549034A054B70470000CB
:10422000F9700000C140000050180020501E00200E
:10423000501800200FB4054910B503AA029800F0E9
:104240007BFB10BC08BC04B0184700007C020020B7
:104250000FB41CB5074B06AA7B446946009005982D
:1042600000F051FB0020694600F060FB1CBC08BC5C
:1042700004B01847D106000070B50446856900688F
:10428000C10601D5302600E02026C00707D070BD4A
:1042900062683046A1689047206A401C20626D1E0B
:1042A000F6D570BD70B5044685690078C00707D1A2
:1042B00070BD6268A16820209047206A401C20627F
:1042C0006D1EF6D570BD0000F7B500257529106884
:1042D000009914A611D0C046C046002802DA404218
:1042E00011A608E0009909688A0701D50FA602E027
:1042F000490704D50EA6012501E0C046C046009F2F
:104300000024243704E000F02BFB30313955641CC5
:104310000028F8D12B4632462146009800F096FA44
:10432000FEBD0000000000002D0000002B0000007A
:104330002000000070B504460D4621461068C046B6
:10434000C0462188090502D50F4A7A4402E00E4A88
:104350007A440E3223460021243305E00607000983
:10436000360F965D5E54491C0028F7D12078002353
:10437000000705D5702D03D0002901D0022311328A
:10438000204600F063FA70BD06940000F3B50446C1
:10439000002081B020622046E168884700287DD057
:1043A000252802D06268A16883E0454F00257F443C
:1043B0002046E16888472028064608DB312E06D2D1
:1043C000B81920380078002801D00543F0E7A80785
:1043D00001D5042085430020E0610746A0612A2E14
:1043E0000AD0304603F06AFA002827D0B800001936
:1043F000303E0090866119E00298BA00121902C896
:10440000916102902046E1688847012F064617D146
:10441000E06900281FDA202085431CE000980A216B
:104420008069484300998019303888612046E168E6
:104430008847064603F042FA0028EFD1012F0AD040
:104440002E2E08D12046E1688847064620200543E5
:104450007F1C022FC3DBA069002803DA4042A06161
:1044600001200543E80701D010208543002E24D009
:1044700030464138192803D80120C00205432036B0
:10448000204625603146029A1546FFF749FE00286E
:104490000CD0012807D0ED1DE80800E00DE0C000B9
:1044A0000830029077E72D1D029574E76268304668
:1044B000A1689047206A401C6CE7206AFEBD00009E
:1044C000CA9300000B4A30B511460B4C60310B46C5
:1044D000DC3B0CC1372106E0020C8D0012185A514A
:1044E000064A504300190A46491E002AF4DC30BD32
:1044F0000120E7E784170020E119D666CD0D010001
:10450000034670B502460B439B070FD10E4CE601E4
:1045100000E008C208C91D1B9D433542F9D0D9B23D
:104520001170521C00290DD01B0AF8E70B78491CAA
:104530001370521C002B05D00B78491C1370521CB1
:10454000002BF3D170BD00000101010130B5441C06
:1045500003E00178401C00290DD08107F9D10B4BF5
:10456000DD0104C8D11A91432940FAD0001B0A0684
:1045700003D0C01E30BD001B30BD0A0401D0801E18
:1045800030BD0902FCD0401E30BD00000101010118
:10459000F8B5042A2CD3830712D00B78491C03707A
:1045A000401C521E83070BD00B78491C0370401C23
:1045B000521E830704D00B78491C0370401C521E06
:1045C0008B079B0F05D0C91ADF002023DE1B08C90B
:1045D0000AE0FFF7D5FDF8BD1D4608C9FD401C46A1
:1045E000B4402C4310C0121F042AF5D2F308C91A94
:1045F000521EF0D40B78491C0370401C521EEAD4A2
:104600000B78491C0370401C012AE4D4097801701E
:10461000F8BDD2B210B513029A1813049A1800F01C
:104620000EF810BD01E004C0091F0429FBD28B075E
:1046300001D50280801CC90700D002707047002994
:104640000BD0C30702D00270401C491E022904D3BC
:10465000830702D50280801C891EE3E70022EEE773
:104660000022DFE7024670B50A4392072AD11E4DA9
:10467000EE0104C808C9541B9443344017D0D0B28B
:10468000D9B2401A2106014310D190B299B2401A12
:10469000210401430AD110021902000A090A401A32
:1046A0002102014302D1100E190E401A70BD9A4228
:1046B000DFD010BA19BA884201D9012070BD00209C
:1046C000C04370BD02780B78401C491C002A09D0F9
:1046D0009A4207D102780B78401C491C002A01D06D
:1046E0009A42EFD0D01A70BD0101010100220309E6
:1046F0008B422CD3030A8B4211D300239C464EE0FD
:1047000003460B433CD4002243088B4231D30309B8
:104710008B421CD3030A8B4201D394463FE0C3096A
:104720008B4201D3CB01C01A524183098B4201D382
:104730008B01C01A524143098B4201D34B01C01A6D
:10474000524103098B4201D30B01C01A5241C308E5
:104750008B4201D3CB00C01A524183088B4201D354
:104760008B00C01A524143088B4201D34B00C01A40
:104770005241411A00D201465241104670475DE055
:10478000CA0F00D04942031000D3404253400022D8
:104790009C4603098B422DD3030A8B4212D3FC2281
:1047A000890112BA030A8B420CD3890192118B4200
:1047B00008D3890192118B4204D389013AD0921116
:1047C00000E08909C3098B4201D3CB01C01A5241D1
:1047D00083098B4201D38B01C01A524143098B429A
:1047E00001D34B01C01A524103098B4201D30B0183
:1047F000C01A5241C3088B4201D3CB00C01A5241A8
:1048000083088B4201D38B00C01A5241D9D243088E
:104810008B4201D34B00C01A5241411A00D20146CB
:10482000634652415B10104601D34042002B00D535
:104830004942704763465B1000D3404201B50020F7
:10484000C046C04602BD704770477047FFB504467A
:104850000D4681B0243000902168880604D51022CE
:10486000E0699143216000E00120A84201DD471B7F
:1048700000E000270498A1697A191018081AA061AD
:104880002078C00602D42046FFF7F6FC002608E098
:1048900003986268A168805D9047206A401C761C7E
:1048A000206204988642F3DB2078C0060AD52046B1
:1048B000FFF7E2FC06E06268A16830209047206ABA
:1048C000401C206238467F1E0028F4DC07E0009878
:1048D0006268A168405D9047206A401C20622846BB
:1048E0006D1E0028F3DC2046FFF7DCFC2078000674
:1048F00002D5022005B0F0BD0120FBE701694A1C8A
:1049000002610878704700B58FB0029100210591CF
:104910000549019379440391114604906846FFF7D5
:1049200035FD0FB000BD0000E5FFFFFF0A68107005
:10493000521C0A6070470000084B70B50D467B445E
:10494000FFF7E1FF0446284604F0D8FC002802D017
:104950000020C04370BD204670BD0000B34B000076
:1049600001468008081A02091018020A1018020CE1
:104970001018C008820012185200891A01E0401C69
:104980000A390A29FBD2704700487047EC1700200B
:104990007546FFF7F9FFAE46050069465346C00865
:1049A000C000854618B020B5FFF734FC60BC002776
:1049B0004908B6460026C0C5C0C5C0C5C0C5C0C5EB
:1049C000C0C5C0C5C0C5403D49008D46704710B543
:1049D0000446C046C0462046FFF7BEFB10BD70B57A
:1049E0008C180578401C6B075B0F01D10378401CC5
:1049F0002A1106D10278401C03E00678401C0E7094
:104A0000491C5B1EF9D12B0705D40023521E0DD47F
:104A10000B70491CFAE70378401CCB1A921C03E088
:104A20001D780D70491C5B1C521EF9D5A142D8D3CC
:104A3000002070BD10B5012115480175154800789A
:104A400020210843134908700020134908701349B6
:104A50000875152002F0DEFE10200F4908700020B6
:104A60008870084680788870084680780821084356
:104A700009498870002008718871FF20C8720020E1
:104A8000887208460078012108430349087010BD68
:104A9000406100402004024000500440406000405B
:104AA000064A127838239A43044B1A701A46127831
:104AB000C3001A43014B1A707047000000500440B5
:104AC0000B4A127852085200094B1A70002803D181
:104AD00080220A439A7103E0C0220A43044B9A7170
:104AE000034A127801231A43014B1A7070470000E1
:104AF0000050044010B504460B48047200200B49D6
:104B00000875152002F086FE002109480175064847
:104B100080798011032805D003480078802108435C
:104B20000149087010BD0000005004404060004082
:104B30004061004010B5084800788021884306494C
:104B400008700121054801750020054908751520E8
:104B500002F060FE10BD00000050044040610040C3
:104B60004060004010B50146CC17240F6418231193
:104B70000846CC17240F2418241124010A1B0A20EC
:104B800058438018C2B2104610BD000000B5C022C4
:104B90009178F8221140144A1278114313480A46BA
:104BA000E03A130002F010FE0E0A0E12161A1E1E34
:104BB0001E080C1014181C1E0D4813E00D4811E0BF
:104BC0000D480FE00D480DE00D480BE00D4809E0E1
:104BD0000D4807E00D4805E00D4803E00D4801E0F1
:104BE0000D4800BF00BF00BD201C024040420F0026
:104BF0000090D003006CDC020048E80100366E0132
:104C00000024F400001BB70000127A00808D5B00C6
:104C100000093D00C0C62D0080841E0070B50B4BFE
:104C20000146C417640F6418E4101C5D0246C517E2
:104C30006D0FAD18ED10ED00461B0125B5402C435E
:104C4000C5176D0F6D18ED105C5570BD005000401C
:104C5000FFB583B00D9A120F120701239B079A42EA
:104C600002D10022009201E0012200920E9A120F5E
:104C7000120701239B079A4201D1002400E001247E
:104C8000009A002A01D1012200E000222240002ADD
:104C900002D0002201920DE0002C01D1012200E09F
:104CA0000022009B1A40002A02D00122019201E05A
:104CB000002201920122520782181170069A920175
:104CC0002032E3001A43009B9B001A43019B5B00C8
:104CD0001A43059B1A43204B0D015A5301231E4AC8
:104CE0000D01521953801C4B0D015B190C9A9A80CF
:104CF000194B0D015B190C9ADA80174A0D015219F4
:104D00000D9B9360144A0D0152190E9BD360134AF8
:104D1000927E08231A43114B9A769A04104B9A609C
:104D20001A4602920246C5176D0FAD18EE10029D8D
:104D3000AD5D0346C617760FF618F610F600871B12
:104D40000126BE403543C617760FB618F710029EEF
:104D5000F55507B0F0BD000020000020000802401B
:104D60000050004070B50B4B0146C417640F641827
:104D7000E4101C5D0246C5176D0FAD18ED10ED0077
:104D8000461B0125B540AC43C5176D0F6D18ED10DE
:104D90005C5570BD0050004030B5F1210B4AD16028
:104DA0000A4B10330146C417640F6418E410E40082
:104DB000051B0124AC400246C5176D0FAD18ED1060
:104DC0005C550021014AD16030BD00000050004018
:104DD00010B5044600F0F2F800F0C7F8002002F029
:104DE000DDFC0A2007F0FCFED82002F0B7F8FF2116
:104DF00009042140080C02F0B1F8FF21090221400A
:104E0000080A02F0ABF8E0B202F0A8F8012002F0C4
:104E1000C5FC0A2007F0E4FE00F0A7F810BD70B54D
:104E200005460C46164602F0C9FC002002F0B6FC0E
:104E30000A2007F0D5FE032002F090F8FF210904B4
:104E40002140080C02F08AF8FF2109022140080ADB
:104E500002F084F8E0B202F081F804E0552002F09C
:104E60007DF828706D1C3046711E8EB20028F5D179
:104E7000012002F093FC0A2007F0B2FE70BD10B5CD
:104E800000F09CF8002002F089FC0A2007F0A8FE40
:104E9000C72002F063F8012002F080FC0A2007F02E
:104EA0009FFE00F062F810BD10B5044602F086FCCB
:104EB00000F084F800F059F8002002F06FFC0A209E
:104EC00007F08EFE812002F049F8FF2109042140FD
:104ED000080C02F043F8FF2109022140080A02F001
:104EE0003DF8E0B202F03AF8012002F057FC0A2047
:104EF00007F076FE00F039F810BD70B505460C4697
:104F0000164602F05BFC00F059F8002002F046FC67
:104F10000A2007F065FE022002F020F8FF210904B4
:104F20002140080C02F01AF8FF2109022140080A6A
:104F300002F014F8E0B202F011F8FF2001308642CE
:104F400000DD064603E0287802F008F86D1C3046C4
:104F5000711E8EB20028F6D1012002F01FFC0A203B
:104F600007F03EFE00F001F870BD10B500240020EF
:104F700002F014FC0A2007F033FE052001F0EEFFDA
:104F800000BF552001F0EAFF0446E007C00F0028EB
:104F9000F7D1012002F002FC0A2007F021FE10BD2B
:104FA000F8B504460D46164602F008FC2F4600945C
:104FB000324639460098FFF7EBFAF8BD10B50020ED
:104FC00002F0ECFB0A2007F00BFE062001F0C6FF02
:104FD000012002F0E3FB0A2007F002FE10BD00B53D
:104FE00000F03CFD00BD00008278012A03D1C278A8
:104FF000024B1A7000E0704700BFFCE7230400205A
:105000004C31303031000000000000000000000092
:105010004150505F4D415354455200000000000084
:10502000312E322E3332000000000000000000005C
:1050300044656320313220323032330000000000FA
:1050400031373A31383A32310000000000000000B8
:105050004A4F454C2E4348454E00000000000000DA
:105060000000000000000000000000000000000040
:105070000000000000000000000000000000000030
:105080000000000000000000000000000000000020
:105090000000000000000000000000000000000010
:1050A000F7B5FFB085B085988390002754E002F0F3
:1050B00085FB8398C505ED0D8398401B80900120EA
:1050C0004002441B8698C01B86B28498C019829007
:1050D000684640198190B4421FDB002D03D10120A6
:1050E0004002864205D00122520268468099FFF7AD
:1050F00057FF324682998198FFF74AFA809807F065
:10510000B8FF6A4601214902809807F0DCFF8398C6
:1051100080198390B81987B21EE0002D03D10120B9
:105120004002844205D00122520268468099FFF76E
:1051300037FF224682998198FFF72AFA809807F074
:1051400098FF6A4601214902809807F0BCFF8398C6
:1051500000198390381987B286988742A7DB7FB001
:1051600008B0F0BDF7B5C4B045984390002753E0B0
:1051700002F024FB4398C5B24398401B4090FF20A7
:105180000130441B4698C01B86B24498C019429017
:10519000684640194190B4421FDB002D03D1FF2027
:1051A0000130864205D0FF22013268464099FFF760
:1051B00036FE324642994198FFF7EAF94098FFF7E8
:1051C00073FEFF22013268464099FFF796FE43982E
:1051D00080194390B81987B21EE0002D03D1FF203B
:1051E0000130844205D0FF22013268464099FFF722
:1051F00016FE224642994198FFF7CAF94098FFF7F8
:1052000053FEFF22013268464099FFF776FE43982D
:1052100000194390381987B246988742A8DB47B0F7
:10522000F0BD000070B50546002D00D10125072115
:105230002846FFF765FA401CC6B21649098A88B2AB
:105240003346154A114600F01AFD0022124914395E
:10525000104801F021FC012415E00F4814380178B2
:10526000162060430C4A143A1154104681781620D7
:1052700060438018817010460179162060438018C1
:105280000171601CC4B205484078A042E5DA06F01E
:10529000B1FE70BD340B0020480400203007002010
:1052A00070B5184C247E6406240E174D2C72FF2412
:1052B00091346C8101242C732C46247A6D896D1CE9
:1052C0006C43114D2C612C1F6168104B002214E0BF
:1052D000002005E01C780C70491C5B1C441CA0B22B
:1052E0000428F7DB002004E000240C70491C441C57
:1052F000A0B20428F8DB541CA2B2024C247E9442D3
:10530000E6DC70BDBD110020340B0020580B0020DE
:10531000F1B584B005210498FFF7F2F9C0B202900C
:105320000298022801DC022002900298642801DB26
:10533000642002904E48008A80B201904D4A114686
:10534000029B00F09CFC4A4A5289511C494A143A7B
:10535000908AFFF7D5F9C5B2454A5289511C454A92
:10536000143A908AFFF7CCF988B20390681CC6B251
:105370003F48007AB04200DC002664210398FFF722
:10538000BFF9C7B2002F48D0002441E0781EA042E8
:105390001ED13748001F4068B100415C16206043B1
:1053A000344A143A11543248001F4068B100401882
:1053B000417816206043801881702D48001F406896
:1053C000B1004018817816206043801801711DE0FB
:1053D0002748001F4068A900415C16206043254A09
:1053E000143A11542248001F4068A900401841781F
:1053F00016206043801881701D48001F4068A90076
:10540000401881781620604380180171601CC4B276
:1054100019484078A042B9DA25E000241FE014487A
:10542000001F4068A900415C16206043114A143AED
:1054300011540F48001F4068A900401841781620F9
:105440006043801881700A48001F4068A900401816
:1054500081781620604380180171601CC4B2064830
:105460004078A042DBDA06F0C5FD05B0F0BD0000D3
:10547000340B0020480400203007002070B5154C84
:10548000247E154D2C72154C6478641C64256C4385
:10549000114D6C8101242C732C46247A6D896D1C6E
:1054A0006C430D4D2C612C1F63680D4A00200BE0EE
:1054B000002105E014781C705B1C521C4C1CA1B22E
:1054C0000429F7DB441CA0B2034C247A8442EFDCAD
:1054D00070BD0000BD110020340B002030070020FB
:1054E000580B0020FEB507463846F917490F091832
:1054F0004905090E01910198012801DC0120019064
:105500000198642801DB642001903748008A80B24A
:105510000090364A1146019B00F0B1FB324A528995
:10552000511C324A143A908AFFF7EAF8C5B22E4A63
:105530005289511C2D4A143A908AFFF7E1F888B23B
:105540000290681CC6B22848007AB04200DC0026EF
:1055500000241FE02448001F4068A900415C162079
:105560006043224A143A11541F48001F4068A900A2
:105570004018417816206043801881701A48001F37
:105580004068A90040188178162060438018017196
:10559000601CC4B216484078A042DBDA1249488940
:1055A000C10F09184A1002998A4219DA0E48001FE1
:1055B0004068B100405C0D49143908700A48001F6A
:1055C0004068B1004018407808491439887006488E
:1055D000001F4068B10040188078044914390871F0
:1055E00006F008FDFEBD0000340B0020480400203A
:1055F0003007002070B5124C247E124D2C72FA2414
:105600006C8101242C732C46247A6D896D1C6C43AB
:105610000C4D2C612C1F63680B4A00200BE000210D
:1056200005E014781C705B1C521C4C1CA1B20429B0
:10563000F7DB441CA0B2034C247A8442EFDC70BD3B
:10564000BD110020340B0020580B0020F1B586B0AE
:1056500003210698FFF754F8C0B20190019803287F
:1056600001DC032001900198642801DB6420019093
:105670003E48008A80B200903D4A1146019B00F0EE
:10568000FEFA3A4A5289511C394A143A908AFFF775
:1056900037F8C7B2354A5289511C354A143A908AB4
:1056A000FFF72EF88EB2314948890A21FFF728F812
:1056B00085B2A804000C03900620684380B20290D3
:1056C000A800281880B20590E800401B80B2049022
:1056D0000398864202DD0598864205DD02988642DF
:1056E00009DD0498864206DC00202149143908703F
:1056F0008870087119E01D48001F4068B900405CBF
:105700001B49143908701948001F4068B900401837
:1057100040781749143988701448001F4068B90050
:1057200040188078124914390871012415E0104896
:1057300014380178162060430D4A143A115410466B
:1057400081781620604380188170104601791620F8
:10575000604380180171601CC4B206484078A042C2
:10576000E5DA06F047FC07B0F0BD0000340B00207E
:10577000480400203007002070B5134C247E134DE0
:105780002C721924A4016C8101242C732C46247AD8
:105790006D896D1C6C430D4D2C612C1F63680C4A88
:1057A00000200BE0002105E014781C705B1C521CEB
:1057B0004C1CA1B20429F7DB441CA0B2034C247A90
:1057C0008442EFDC70BD0000BD110020340B0020CE
:1057D000580B0020F8B507466420C01B1930C6B22C
:1057E000012E00DC0126C82E00DBC8262A480078DE
:1057F0002A4948702A480068401C29490860B0427C
:1058000047D300200860002428E004F015F9009038
:105810002448017E0098FEF773FFCDB2A800291836
:105820002048193008184178162060431E4A115448
:10583000A80029181B4819300818817816206043E1
:1058400080188170A8002918164819300818C178E6
:105850001620604380180171601CC4B20E480078A5
:10586000A042D2DC002410E004F0E6F800900B48DF
:1058700041780098FEF744FFCAB20A206043064907
:10588000891C40180272601CC4B203480078A04210
:10589000EADC06F0AFFBF8BD8412002030070020E0
:1058A00028040020BD1100203404002070B51D48DC
:1058B00000781D49487000242EE00A2060431949F1
:1058C000891C4018047204F0B7F806461748017E98
:1058D0003046FEF715FFCDB2A8002918134819303D
:1058E0000818417816206043114A1154A80029185D
:1058F0000E4819300818817816206043801881708E
:10590000A8002918094819300818C17816206043E2
:1059100080180171601CC4B202480078A042CCDC3F
:1059200070BD00008412002030070020BD1100204F
:1059300034040020F8B50546002D00D101250721CB
:105940002846FEF7DDFE401CC6B21A49098A88B215
:105950003346194A114600F092F9002216491439CB
:10596000144801F099F801241CE0631E16277B43BC
:10597000114F143FDB191A46143216236343DB1907
:10598000194614310B4B1B8A98B23C2300F077F96F
:10599000162060433A4681180022064801F07CF840
:1059A000601CC4B205484078A042DEDA06F022FB53
:1059B000F8BD0000340B0020480400203007002010
:1059C00070B5234C247E6400641E224D2C72FF248B
:1059D00091346C8101242C732C46247A6D896D1CC2
:1059E0006C431C4D2C612C1F63681B4800210BE08D
:1059F000002205E004781C705B1C401C541CA2B201
:105A0000042AF7DB4C1CA1B2114C247E8C42EFDC43
:105A10000F4C247E012C19DD0F480D4C247EA41E52
:105A2000A400001900210CE0002205E004781C709D
:105A30005B1C401C541CA2B2042AF7DB08384C1C27
:105A4000A1B2034C247E641E8C42EDDC70BD0000CC
:105A5000BD110020340B0020580B002010B52F4A38
:105A600012782F4B5A70002052E00A2242432B4BEF
:105A70009B1CD2181072002316224243294CA354B7
:105A800016224243121993701622424312191371BF
:105A90001622424312199371002131E00A22424337
:105AA0001E4B9B1C9B5C8A008C181F4A125D934204
:105AB00024D18A008B181C4A9A1853781622424324
:105AC000184CA3548A008B18174A9A1893781622F8
:105AD0004243121993708A008B18134A9A18D3788C
:105AE00016224243121913718A008B180E4A9A1813
:105AF0001379162242431219937106E04A1CD1B25F
:105B0000094A193A127E8A42C8DC00BF421CD0B250
:105B1000024A12788242A8DC10BD000084120020E4
:105B20003007002034040020D6110020F8B50546C7
:105B3000002D00D1012507212846FEF7E1FD401C7C
:105B4000C6B21A49098A88B23346194A114600F08A
:105B500096F8002216491439144800F09DFF0124DC
:105B60001CE0631E16277B43114F143FDB191A46B6
:105B7000143216236343DB19194614310B4B1B8A6D
:105B800098B23C2300F07BF8162060433A46811817
:105B90000022064800F080FF601CC4B2054840782F
:105BA000A042DEDA06F026FAF8BD0000340B002031
:105BB000480400203007002070B5134C247E134D9C
:105BC0002C72FF2491346C8101242C732C46247A8E
:105BD0006D896D1C6C430D4D2C612C1F63680C4A44
:105BE00000200BE0002105E014781C705B1C521CA7
:105BF0004C1CA1B20429F7DB441CA0B2034C247A4C
:105C00008442EFDC70BD0000BD110020340B002089
:105C1000580B0020FFB581B004460D4616460A9881
:105C2000002801D1347028E0AC4211DA281B009022
:105C300004990098484307460A99491C3846FEF7DC
:105C400055FD0746AF4200D92F46E019307014E0E9
:105C5000AC4211DD601B0090049900984843074650
:105C60000A99491C3846FEF741FD0746A74200D96C
:105C70002746E01B307000E0347005B0F0BDFFB582
:105C800081B00C4615461E46002E07D0288887197D
:105C900038460199FEF72AFD218001E028882080FE
:105CA00005B0F0BD7047704730B502469378012BC0
:105CB00016D100200EE0D5780A234343094CE35C5B
:105CC0009D4205D115790A2343431B195D7006E0F7
:105CD000431CD8B2034B9B1E1B788342EBDC00BFF6
:105CE00030BD00008612002010B5032200210220E2
:105CF00000F02AFF00221146042000F025FF0022B8
:105D000007210D2000F020FF042202210C2000F0CA
:105D10001BFF002201210C2000F016FF03220621A8
:105D20000D2000F011FF002206210D2000F00CFFD5
:105D300001221146022000F007FF0322022108463B
:105D400000F002FF00220321022000F0FDFE0422E9
:105D50000021012000F0F8FE00220121084600F099
:105D6000F3FE04220221012000F0EEFE04220321B2
:105D7000012000F0E9FE04221146012000F0E4FEBB
:105D8000042211460C2000F0DFFE042203210C2027
:105D900000F0DAFE10BD30B513460C780578AC4241
:105DA00009DD0478E2180C78944202D20C78047071
:105DB00017E0027015E004780D78AC420FDD04782E
:105DC0009C4209DD0478E21A0C78944202D90C78DE
:105DD000047006E0027004E00C78047001E00C78B6
:105DE000047030BD70B505460A212846FEF788FCD0
:105DF000C6B20A212846FEF783FCCCB23001001956
:105E0000C4B2204670BD00007FB51A4D00201A496B
:105E1000087000240DE029782D1DC8B26946085588
:105E20006846005D14490978401813490870601CE1
:105E3000C4B2102CEFDB10480078FA2804DD0E48BD
:105E400000780A300C49087000200C4908700024C2
:105E500008E06846005D094909784018074908705C
:105E6000A01CC4B2102CF4DB04480078FEF72AFB17
:105E70007FBD0000940850002E0200203302002055
:105E80000121054801770548808808430349888037
:105E90000020034908777047006100406015044006
:105EA0000060004008B50020164908701648808838
:105EB0000121084314498880084640891349084055
:105EC0001149488108460089104908400E49088157
:105ED00008460089891508430B4908810020009075
:105EE00005E000BF68460078401CC1B200916846DA
:105EF00000780E28F5D90448008901210843024999
:105F0000088108BD6403002060150440FEFF000006
:105F1000012106480170064880880221084304498F
:105F2000888000200349087070470000206100400D
:105F3000601504402060004008B5164880880221A2
:105F4000084314498880084640891349084011498C
:105F5000488108460089104908400E4908810846D2
:105F60000089491508430B4908810020009005E08D
:105F700000BF68460078401CC1B2009168460078B6
:105F80000E28F5D9034800890221084301490881F8
:105F900008BD000060150440FDFF000010B5564824
:105FA000008802210840022807D1544800880028B0
:105FB00003D0022003F026FF9AE04F480088C00774
:105FC000C00F002807D04D480088002803D00520C6
:105FD00003F018FF8CE04A480078C007C00F002883
:105FE00018D04648008800280FD04648006800783E
:105FF0004549087243480068401C424908603F48D0
:106000000088401E3D49088072E0FFF74BFF03F017
:1060100005FF6DE03A48007804210840002832D19D
:106020003548203080880121084333492031888059
:106030003148008B8004800C2F4908830846008B70
:106040000121890308432C4908832B4820304088CC
:10605000012108432849203148802948007804213B
:1060600008432749087029480088012807D1224899
:1060700020304089264908401F4920314881FF20AF
:106080002149087234E02348008820490988884261
:106090002EDA1D48007A2049096808701E480068F9
:1060A000401C1D4908601B480088401C1949088095
:1060B00016480088401E098888420BD10E482030BF
:1060C0004089134908400C4920314881FF200E497E
:1060D00008720DE00F4800880C490988884204D1F5
:1060E000FFF7E0FE03F090FE02E0FF200649087291
:1060F00000200A49087710BD401504406C030020B9
:106100006403002068030020401704407603002049
:10611000FEFF0000740300207003002000600040B8
:1061200010B55648408802210840022807D154483B
:106130000088002803D0022003F07AFE9AE04F483E
:106140004088C007C00F002807D04D4800880028AD
:1061500003D0052003F06CFE8CE04A480078C007AD
:10616000C00F002818D04648008800280FD04648A5
:10617000006800784549887243480068401C4249DD
:1061800008603F480088401E3D49088072E0FFF7E4
:10619000D3FE03F059FE6DE03A4800780421084030
:1061A000002832D135482030808802210843334905
:1061B000203188803148408B8004800C2F494883EF
:1061C0000846408B0121890308432C4948832B480A
:1061D000203040880221084328492031488029483E
:1061E00000780421084327490870294800880128BD
:1061F00007D1224820304089264908401F492031D4
:106200004881FF202149887234E0234800882049D2
:10621000098888422EDA1D48807A2049096808706A
:106220001E480068401C1D4908601B480088401C2F
:106230001949088016480088401E098888420BD1F9
:106240000E4820304089134908400C4920314881CC
:10625000FF200E4988720DE00F4800880C4909881C
:10626000884204D1FFF768FE03F0E4FD02E0FF205E
:106270000649887200200A49087010BD4015044084
:1062800080030020780300207C0300204017044096
:106290008A030020FDFF0000880300208403002003
:1062A0002060004010B500200E4908710E480068BB
:1062B000401C0D4908600D480088C007C00F002829
:1062C00008D00B48008B401C0121090440180949E3
:1062D000086004E00648008B401C0649086000F096
:1062E00065FF10BD40600040B4030020A01D0440C5
:1062F000001F0440A403002000200E4908720E482D
:106300000068401C0C4908600C484088C007C00F5A
:10631000002808D00A48408B401C0121090440187D
:106320000849086004E00648408B401C05490860A5
:106330007047000040600040B8030020A01D0440EA
:10634000001F0440A803002000200E4908730E48D7
:106350000068401C0C4908600C488088C007C00FCA
:10636000002808D00A488088401C012109044018F0
:106370000849086004E006488088401C0549086018
:106380007047000040600040BC030020A01D044096
:10639000601F0440AC03002000200E4908740E4822
:1063A0000068401C0C4908600C48C088C007C00F3A
:1063B000002808D00A48C088401C01210904401860
:1063C0000849086004E00648C088401C0549086088
:1063D0007047000040600040C0030020A01D044042
:1063E000601F0440B003002000200E4908730E48CF
:1063F0000068401C0C4908600C480088C007C00FAA
:10640000002808D00A48008B401C012109044018CC
:106410000849086004E00648008B401C05490860F4
:106420007047000060600040D4030020A0210440B9
:1064300000230440C403002000200E4908740E48C5
:106440000068401C0C4908600C484088C007C00F19
:10645000002808D00A48408B401C0121090440183C
:106460000849086004E00648408B401C0549086064
:106470007047000060600040D8030020A021044065
:1064800000230440C803002000200E4908750E4870
:106490000068401C0C4908600C488088C007C00F89
:1064A000002808D00A488088401C012109044018AF
:1064B0000849086004E006488088401C05490860D7
:1064C0007047000060600040DC030020A021044011
:1064D00060230440CC03002000200E4908760E48BB
:1064E0000068401C0C4908600C48C088C007C00FF9
:1064F000002808D00A48C088401C0121090440181F
:106500000849086004E00648C088401C0549086046
:106510007047000060600040E0030020A0210440BC
:1065200060230440D00300201D4A127880231A43C0
:106530001B4B1A70002802D100221A4B1A7701282F
:1065400008D10122174B1A77154AD27810231A4323
:10655000134BDA70022802D1A222124B1A770328B9
:1065600002D182220F4B1A77042802D1C2220D4B8E
:106570001A77052802D103220A4B1A77062802D17E
:106580004322084B1A770022074B1A820123074A3D
:1065900013770022064B1A77034A118270470000D6
:1065A0002004024060040440404F04404061004029
:1065B0004060004010B500200B490877172001F01B
:1065C00035F90021094801770948008A0121C903EA
:1065D00008430749088200BF0548008A0121C90312
:1065E00008400028F8D010BD4060004040610040E5
:1065F000404F0440114841881148814201DD00208C
:1066000070471048814201DD0520F9E70D48AC389C
:10661000814201DD0420F3E70B48814201DD0320C4
:10662000EEE70A48814201DD0220E9E7084881429D
:1066300001DD0120E4E70020E2E70000081000206F
:10664000AC0E0000110D0000540B000054090000B6
:10665000FF03000010B54D480078022108400028D3
:1066600012D04B480079012803D100204849087115
:1066700002E001204649087104F08CFDFF20033040
:1066800003F032FD01F0C7FF4248007802210840C4
:10669000002804D0012005F0CBFE01F0BEFF3E48EB
:1066A000007802210840002804D001F0B7FF002044
:1066B00005F0BEFE3948007802210840002803D0CA
:1066C00001F0ADFF04F08AFD354800780221084052
:1066D000002803D001F0A4FF01F034FC2B4800781F
:1066E00040210840002807D001F096FF04F0B6F9D9
:1066F00002F0DCFD00F0DAFC2848007804210840B4
:10670000002806D02549097808221140084604F0DF
:1067100079FD1E480078DD2108401C4908701D489D
:106720000078DD2108401B4908701B480078DD21F6
:1067300008401949087019480078DD2108401749B8
:10674000087017480078DD210840154908700F4887
:106750000078B32108400D4908700E480078B32135
:1067600008400C4908700C480078B32108400A49D9
:1067700008700A480078B3210840084908700848A2
:106780000078B32108400649087010BDF4060020C7
:1067900040110020000700200C07002018070020EF
:1067A000240700203EB5FFF725FF04460020012105
:1067B000FA2202230092019102900A4621461A48C9
:1067C00000F03CF8002001213222022300920191C6
:1067D00002901A462146154800F030F800200121A9
:1067E0003222022300920191029003222146104896
:1067F00000F024F8002001213222022300920191AE
:106800000290042221460B4800F018F800200121D4
:10681000322202230092019102900522214606486D
:1068200000F00CF83EBD0000F40600200007002038
:106830000C0700201807002024070020FFB50C4695
:10684000099D00210023504F4668BE4202D246688F
:10685000761C46604668AE4217D30A9E002E08D0CA
:1068600047680A9EAE19B74203D96E1C46600426DB
:1068700031434668AE4201D144263143944213D09D
:106880000C263143002646600EE04768039EB7425F
:1068900006D9944208D0022631430026466003E020
:1068A000944201D000264660944201D10126314332
:1068B0000B9E002E54D002260E40002E03D0FD2643
:1068C000314010263143067810273E40002E34D048
:1068D0002D4F8668BE4202D28668761C8660876825
:1068E0000B9EB7421BD910260E40002E08D0EF2673
:1068F0003140202631430678EF273E40067007E0FE
:1069000002263143EF2631400678EF273E400670DD
:10691000002686600678EF273E4006700DE01026C0
:106920000E40002E09D020263143EF263140067854
:10693000EF273E4006700026866006783E273E40E0
:1069400033460678F607360E067006781E43067044
:106950000678BE273E40067006780E43067011E0AA
:1069600006780E273E4033460678F607360E067048
:1069700006781E43067006788E273E40067006781D
:106980000E430670FFBD0000FFFF00000020084915
:10699000487100BF10210748017300BF032004495C
:1069A000887100BF082103487038017700BF704725
:1069B0007C0F00207000044030B50346002006E044
:1069C0001C780D5CAC4200DC03E0441CE0B2904259
:1069D000F6DB00BF30BDFFB50D4617461E46701EE4
:1069E000C2B239460098FFF7E7FF0446287800282E
:1069F00009DD601CC1B20C46701E81420BDBC4B2C3
:106A00000020287007E0002C01D0601EC4B2002CCA
:106A100001D101202870395D00980170FFBD000090
:106A200010B51A480079012821D118487D30007D21
:106A3000022804D11648417B144841711FE01348D5
:106A4000407A012805D101F02BF901460F488171E8
:106A500002E00E48C17981710E48007900280ED1FC
:106A600003220A49891D481EFFF795F907E0002116
:106A7000064881710322811D401DFFF78CF90349EF
:106A8000891D481E05F0D2FE10BD000040110020F7
:106A90004016002014040020F0B585B004460E46D0
:106AA00015466289511CB08AFDF72AFE87B26289B9
:106AB000511CB08AFDF724FE88B20290781C80B287
:106AC0000390217A0398814201DC002003906089C1
:106AD00000902268039880001018AA00815CBA0018
:106AE00020688018AA00805C01903246029BFFF764
:106AF00091F8608900902268039880001018AA001D
:106B000080184178BA0020688018AA008018407860
:106B10000190B21C029BFFF77DF86089009022680B
:106B2000039880001018AA0080188178BA002068A5
:106B30008018AA00801880780190321D029BFFF710
:106B400069F805B0F0BD000070B50C46154601238C
:106B5000A340D9B22A462B0000F036FE0705274392
:106B60005F65788CAA00534B1B5C8B43514E3354AA
:106B7000504B403B1B5C0B434E4E403E33544D4B01
:106B8000103B1B5C8B434B4E103E3354494B303B08
:106B90001B5C8B43474E303E3354464B203B1B5CC3
:106BA0008B43444E203E335482E0424B1B5C8B436C
:106BB000404E33543F4B403B1E5C0E431E543D4BF6
:106BC000103B1E5C8E431E543A4B303B1B5C0B4308
:106BD000384E303E3354374B203B1E5C8E431E54A0
:106BE00066E0344B1B5C8B43324E3354314B403B9D
:106BF0001E5C0E431E542F4B103B1B5C8B432D4ED3
:106C0000103E33542B4B303B1E5C8E431E54294B9D
:106C1000203B1E5C8E431E544AE0264B1B5C0B43FC
:106C2000244E335444E0234B1E5C8E431E54214BB0
:106C3000403B1B5C8B431F4E403E33541D4B103B6F
:106C40001B5C8B431B4E103E335431E0194B1B5CD5
:106C50008B43184E3354174B403B1B5C8B43154EF4
:106C6000403E3354134B103B1B5C0B43114E103E04
:106C700033541DE00F4B1B5C8B430E4E33540D4BB6
:106C8000403B1E5C0E431E540A4B103B1B5C8B4367
:106C9000084E103E3354074B303B1E5C8E431E544F
:106CA000044B203B1B5C0B43024E203E335400BF81
:106CB00000BF70BD6000044010B504462078FDF7A9
:106CC00051FF20706078FDF74DFF6070A078FDF7F0
:106CD00049FFA070E078FDF745FFE0702079FDF7EF
:106CE00041FF20716079FDF73DFF6071A079FDF7EC
:106CF00039FFA07110BD00001749897F012211439F
:106D0000154A917700BF1449897F0222114000295A
:106D1000F9D01149897C01700F49C97C41700E4935
:106D2000097D81700C49897DC1700B49497D0171D4
:106D30000949C97D41710849097E81710649897FE8
:106D400049084900044A917700BF0349897F02221C
:106D500011400029F9D17047404F044010B5044656
:106D60002078FFF73FF820706078FFF73BF86070FD
:106D7000A078FFF737F8A070E078FFF733F8E070FD
:106D80002079FFF72FF820716079FFF72BF86071F9
:106D9000A079FFF727F8A07110BD00001F490978FE
:106DA000802211431D4A1170002808D100211C4A7D
:106DB00011771A49C97810229143184AD1700128D5
:106DC00008D10121164A11771449C97810221143BC
:106DD000124AD170022802D1A221114A1177032848
:106DE00002D182210E4A1177042802D1C2210C4A15
:106DF0001177052802D10321094A1177062802D10B
:106E00004321074A11770021064A51771146497FED
:106E100008221143034A51777047000020040240C2
:106E200060040440404F04401449897F012211430B
:106E3000124A917700BF1149897F0222114000292F
:106E4000F9D001780D4A91744178D1748178117527
:106E5000C1789175017951754179D1758179117632
:106E60001146897F49084900917700BF0349897F0E
:106E7000022211400029F9D170470000404F044020
:106E800010B5002014490876162000F0CFFC002130
:106E9000124801761248407F802108431049487704
:106EA0000846807F012108430D49887700BF0C48C0
:106EB000807F022108400028F9D00948807F4008DF
:106EC00040000749887700BF0548807F02210840BD
:106ED0000028F9D110BD0000406000404061004032
:106EE000404F0440002804D000BF082204494A74DF
:106EF00005E000BF0822024970314A7000BF7047A8
:106F00000000044010B5012211461046FFF71CFE98
:106F1000042202210120FFF717FE04220321012091
:106F2000FFF712FE042211460120FFF70DFE01209B
:106F300000F034FC0020FFF7D5FF10BD002804D07E
:106F400000BF042204494A7405E000BF042202493C
:106F500070314A7000BF70470000044070B50346AE
:106F600000250026FF2400BF1FE080201840C6092E
:106F70005806030E6006040E0020FFF7B3FF3046EC
:106F8000FFF7DCFF012005F02BFE0120FFF7AAFF31
:106F9000012005F025FE084840780221084000281D
:106FA00001D0601CC4B2681CC5B2082DDDDB002016
:106FB000FFF798FF204670BD0000044010B5384828
:106FC0000068401C364908603648007801210843B3
:106FD0003449087004F0E0FC31480078C007C00F65
:106FE000002805D12F480078022108432D49087058
:106FF00005212B480068FDF779FB002905D12948B8
:1070000000780421084327490870072124480068B4
:10701000FDF76CFB002905D12248007808210843C0
:107020002049087019211E480068FDF75FFB002900
:1070300005D11C480078102108431A4908703221F4
:1070400017480068FDF752FB002905D11548007864
:1070500020210843134908707D2111480068FDF77D
:1070600045FB002905D10F480078402108430D4910
:107070000870FA210A480068FDF738FB002905D19D
:1070800008480078802108430649087004480068D1
:107090000549884202D300200149086010BD000064
:1070A0005C0200202B020020AC0D000010B5002077
:1070B0000849087005F050FAFEF7A6FE04F068F9DA
:1070C00005F0A8F802F0E0FD04F09EFA04F0D4FA0E
:1070D00010BD00001004002002480068401E014955
:1070E000086070471802002000B5FDF74FFD014908
:1070F000086000BD3004002000B580201B494871A5
:107100001A201A49203908732B2048733C208873B1
:107110004D20C873002016494860FDF737FD15491A
:1071200008600020C04314490860144908601448EE
:1071300014490860114903221202891848600F4956
:10714000891888600D498918C8600C498918086138
:107150000A498918486109498918886107498918C5
:10716000C861AC200849487000BD000020040240FE
:1071700000B001403004002080E200E000E100E0C7
:10718000C0C0C0C000E400E0001002400249498ACB
:107190000143014A51827047A01D04400249898A77
:1071A0000143014A91827047A01D044010B505F0CB
:1071B00017FEFFF703FF10BDF8B505460E466A46F9
:1071C0003146284600F0F8F90446002C1FD1032070
:1071D000104988800846C08800090001C880084618
:1071E000C0886946097808430A49C88068464078DB
:1071F0004006000C08490882684640784006000CAA
:1072000048820448408803210843024948802046B8
:10721000F8BD0000201104400013044070B505467D
:107220000E463C480078042108433A490870032080
:107230003949C880222038492039088237480883D4
:1072400067204002364908823648007C0121084305
:10725000344908740720304920394881FF20233001
:10726000488231484883672040022D4948822A4895
:10727000008901210843284908810846808A2B4952
:10728000084025498882084640890121084322494F
:10729000488100BF05202649087226484078012110
:1072A0000843244948702348203040784008400073
:1072B0002049203148701F484030407C4008400041
:1072C0001C49403148741B486030407840084000F9
:1072D00018496031487000BF00BF0E20144960316A
:1072E0000872144820308078082108431149203161
:1072F0008870104860308078082188430D496031DB
:10730000887000BF31462846FFF756FF04462046E6
:1073100070BD00002004024020110440978000004E
:10732000001304406004044097400000FEFF00008A
:1073300000080440000004400449087400BF0449E8
:107340000988602211400029F9D1704700130440D8
:1073500000110440F8B505460E466A4631462846F7
:1073600000F02AF90446002C16D10C200B49888025
:1073700068460078C880684640784006000C084996
:107380008880684640784006000CC88003484088E2
:107390000C210843014948802046F8BD20110440D3
:1073A0004013044070B505460E464348007804215A
:1073B000084341490870414880880C2108433F49EF
:1073C000888001213E4801750176017700203D4902
:1073D00008750876087722203849203988823A488B
:1073E000888367204002394988803948007C04211D
:1073F000084337490874072030492039C881FF20E5
:107400002330C8823348C883672040022F49C88090
:107410002A48008904210843284908810846808AAF
:107420002D4908402549888208464089042108439F
:107430002249488100BF0A20284988702848007BDB
:10744000042108432649087325482030007B042185
:10745000884323492031087321484030007F0421AC
:1074600088431F49403108771D486030007B042164
:1074700088431B496031087300BF00BF0C201749C7
:107480002031C873164820308078022108431449FF
:10749000203188701248603080780221884310497A
:1074A0006031887000BF31462846FFF753FF04461D
:1074B00000F05AF8204670BD20040240201104401C
:1074C000206100402060004097800000401304408D
:1074D0006004044097400000FBFF000040080440A7
:1074E0000000044010B502460020002901D181208F
:1074F00006E00023034C2380034B1980034B1A60E2
:1075000010BD0000E8020020EA020020E402002092
:1075100010B502460020002901D181201AE00E4B4F
:107520001A600E4B198001230D4C23700A4B1B6807
:107530001B780C4C2371084B1B685B1C064C2360AA
:10754000064B1B885B1E054C238000BF044B1B7839
:10755000002BFBD110BD0000DC020020E002002067
:10756000260200204013044010B510480089042171
:1075700008430E49088108464089042108430B4905
:107580004881084640880C2108430849488000206B
:107590000749087508760D2000F030F90E2000F03C
:1075A0002DF9002103480175017610BD201104401A
:1075B0002060004020610040F7B584B01446802070
:1075C000039000263DE07000204A115A0498FDF710
:1075D0008DF80190022730E0791C0198FDF786F8BC
:1075E000410802911A4A0299514308460599FDF74C
:1075F0007DF81749451AE1214902059888420DD1C5
:10760000281E01DB014600E04142462913DA2670BC
:10761000677000200390039807B0F0BD281E01DBBF
:10762000014600E04142142905DA26706770002007
:1076300003900398F0E7781CC7B2802FCCDB701C56
:10764000C6B2102EBFDB0398E6E7000096D200001A
:107650001027000070B505460C463E480078012111
:1076600008433C49087082203B49C8822846FFF7FE
:1076700095FD012D06D0022D1CD0042D32D0082DF1
:1076800062D148E0002035490871112000F0AAF8C5
:107690000120C003304920390882601E3049088328
:1076A0002D48408B400840002B49488300212D483D
:1076B00001714AE0002029490872122000F092F876
:1076C0000120C003244920394882601E2449488390
:1076D0002148408B022188431F49488300212148CB
:1076E000017232E000201D490873132000F07AF87F
:1076F0000120C003184920398882601E1849603172
:1077000088801548408B0421884313494883002111
:107710001448017319E0002010490874142000F087
:1077200061F80120C0030C492039C882601E0C4951
:107730006031C8800848408B082188430649488347
:1077400000210848017400E000BF00BF2846FFF791
:107750001DFD70BD20040240A01D0440406000409B
:10776000001F04404061004070B5049C0D78002D5E
:1077700009D00578161BB54203DA05782D19057076
:107780000AE0027008E005781E19B54203DD0578AD
:107790002D1B057000E0037070BD0000002804D0B0
:1077A00000BF102204494A7405E000BF10220249BC
:1077B00070314A7000BF704700000440AC2001499E
:1077C000487070470010024030B47446641E25783B
:1077D000641CAB4204D3635D5B00E31830BC184704
:1077E0001D46F8E7002805DBC206D20E01219140B4
:1077F000014A11607047000080E200E0002805DBCC
:10780000C206D20E01219140014A1160704700006A
:1078100080E200E0002805DBC206D20E0121914083
:10782000014A11607047000080E200E0002805DB9B
:10783000C206D20E01219140014A1160704700003A
:1078400080E200E010B5002819DB1A4A03231B026E
:10785000D21883089B00D2588307DC0EFF23A34075
:107860009A438B071B0E8407E40EA3401A43114B67
:10787000032424021B198408A4001A5118E00E4A9C
:1078800003071B0F083B9B089B00D2588307DC0EA5
:10789000FF23A3409A438B071B0E8407E40EA340EB
:1078A0001A43054B0407240F083CA408A4001A51EE
:1078B00010BD000000E100E01CED00E030380A28B7
:1078C00001D201207047002070470000002803D03B
:1078D0000449054A116202E00121034A116200BF16
:1078E000FEE70000AD0B0000008002400EB5FDF782
:1078F00021F90520FDF736FA1B480078002802D050
:10790000012828D113E00120174908702420FDF731
:10791000F1F815488430154901221346009201916F
:10792000029000220E210520FDF792F91AE00220B4
:107930000D4908700020FDF7DDF80B48801C0B494D
:107940004022012300920191029000220E21052085
:10795000FDF77EF906E00320034908700520FDF7D6
:1079600001FA00BF00BF0EBD880F00200E5004407A
:107970000EB500200A490870FDF7DCF80220FDF77B
:10798000B9F8074882300749012213460092019155
:10799000029000220E210520FDF75AF90EBD0000CD
:1079A000880F00200E50044010B5002004490875CF
:1079B00004480068401C03490860FFF797FF10BDAA
:1079C00040600040EC03002070B5FFB0BDB006463B
:1079D0000C46684601F060FE68460078002809D031
:1079E00068460078A04201DB1E2C03DB00207FB03C
:1079F0003DB070BD002517E01920684300A9013192
:107A00004018007D317D88420CD11920684300A9BF
:107A100001314018417D707D814203D1A54201D0E2
:107A20000020E4E7681CC5B268460078A842E3DCA1
:107A300068460078A04206D168460078401CC1B272
:107A40006846017005E068460078A04201DC00202D
:107A5000CDE71921614300AA013288181922314665
:107A6000FCF796FD684604F07BF90120BFE710B5EE
:107A7000C0B00446214601A801F0C4FE01206946B9
:107A80004876214601A804F099F930A801F0D2FE09
:107A9000214630A800F008F830A804F0A7F903F058
:107AA0007BFE012040B010BD70B590B004460E467C
:107AB00040216846FCF7D4FD002069460870207814
:107AC0003C2806D9217819A0FCF7B4FB002010B09F
:107AD00070BD00250FE0601C405DB04209D0601C05
:107AE000415D68460278501CC3B268460370401C72
:107AF0008154681CC5B22078A842ECDC6846007846
:107B00002178884210D168460178401C4654684666
:107B10000078401CC1B2684601703D22694620468B
:107B2000FCF736FD0120D2E70120D0E75B6E756DD2
:107B30003A25645D0D0000007FB504460E46002026
:107B400000900190029003906946087020780D28FB
:107B500006D9217819A0FCF76DFB002004B070BD98
:107B600000250FE0601C405DB04209D0601C415D03
:107B700068460278501CC3B268460370401C8154AA
:107B8000681CC5B22078A842ECDC684600782178F1
:107B9000884210D168460178401C465468460078F7
:107BA000401CC1B2684601700E2269462046FCF7AF
:107BB000EFFC0120D2E70120D0E700005B6E756D7D
:107BC0003A25645D0D00000030B591B005460C46C5
:107BD000802C02DA002011B030BD002068752146EB
:107BE000284604F0EBF801A801F06EFD214601A83B
:107BF000FFF75AFF01A804F0CBF801A801F0E4FE5A
:107C0000214601A8FFF750FF01A804F003F9204620
:107C100003F0C1FD0120DEE77FB505460C460D2CC3
:107C200002D3002004B070BD2146284604F0FCF8C1
:107C3000684601F0F7FE21466846FFF77DFF68467B
:107C400004F004F903F024F80120EBE710B505492E
:107C5000CA7F087F213103F031FB002101481B302E
:107C6000417110BD4011002010B502F03DFF03F03E
:107C700091FA03F085FA02F02DFF02F021FF10BD0A
:107C80003EB5044668460470792141700021817038
:107C90000321024A04F092FD3EBD00000C150020B5
:107CA0000C4A9288521C91B264224A4311135F29F4
:107CB00001DD642102E0052900DA0521064A927AF5
:107CC000002A03D16422521AD0B27047C8B200BF52
:107CD000FBE70000081000204011002010B504460A
:107CE0001B48007D022802D100201A490870002C90
:107CF00002D000201749087015487D38C079164910
:107D00000978884203D000201249087008E0114821
:107D10000078FF2804DA0F480078401C0D490870ED
:107D20000C480078B2280DD109487D38C1797D30E2
:107D3000407C814206D0064A7D3AD179107F0122EB
:107D400003F08EFA02487D38C0790349087010BDEF
:107D5000BD110020210400202004002010B5184887
:107D6000007800282AD116480079012826D1144825
:107D7000807E012822D112480069401C002804D0CE
:107D80000F480069401C0E4908610D4840780028E2
:107D900014D10B48407F3C21484304460848807F6B
:107DA000041907480069A04208D90021044801616C
:107DB00004F00AFBFF20043002F096F910BD000029
:107DC00040110020F7B582B004460F46002569E057
:107DD000681CC6B262E0049800281BD1E8000019B4
:107DE0004088F10009194988884255DDE8000119E9
:107DF00008226846FCF7CCFBF2001119EA001019C2
:107E00000822FCF7C5FBF100081908226946FCF7B7
:107E1000BFFB41E0049801281BD1E80000198088CD
:107E2000F10009198988884236DDE8000119082225
:107E30006846FCF7ADFBF2001119EA0010190822A0
:107E4000FCF7A6FBF100081908226946FCF7A0FB25
:107E500022E0E80000194088F100091949888842A9
:107E600007DCE80000198088F10009198988884238
:107E700012DDE800011908226846FCF789FBF200D0
:107E80001119EA0010190822FCF782FBF100081909
:107E900008226946FCF77CFB701CC6B2BE429ADB26
:107EA000681CC5B2BD4293DB05B0F0BD01460020A1
:107EB000087800024A78104300028A7810430002D2
:107EC000CA7810437047000070B504460E461C483F
:107ED0004088A04201DA1A48448019488088A042AC
:107EE00001DD1748848016480088FA2805DC14480C
:107EF0000088401C1249088021E0002010490880B9
:107F000008464088C880084680880881002048804C
:107F1000401E88800846C0880989401A85B2C82D4D
:107F200000DAC8257821891B694308466421FCF7DB
:107F3000E7FB85B20248008940190149C88070BD3D
:107F4000FC16002010B50D48007D01280AD1002143
:107F50000A4801757D30007D02280DD1002004F013
:107F600067FA09E00121054801757D30007D02288E
:107F700002D0002004F05CFA10BD00004011002087
:107F800030B502460020002303E01578521C281863
:107F90005B1C8B42F9D330BD00B591B0402101A8E4
:107FA000FCF75EFB01A803F0F3FE01A803F032FF2B
:107FB00001A803F01BFF11B000BD00B5C1B0022045
:107FC00069460870C10100A80130FCF747FB68460C
:107FD00003F0E8FE41B000BD00B589B0202101A842
:107FE000FCF73EFB0349202201A8FDF759F809B030
:107FF00000BD00000002500000B585B014216846A5
:10800000FCF72EFB142291046846FDF749F805B0F1
:1080100000BD1FB5002000900190029003906846BB
:1080200003F014FF1FBD000010B5FFB0BFB0BCA827
:10803000FEF762FEBCA8FEF73FFE2E48C07800287F
:1080400003D0B8A8807D002802D102F0FFFC49E0EF
:10805000B8A8407C28490978884243D0684601F096
:108060001BFB6846007800283CD0002436E019202D
:10807000604300A901314018007C01282CD119204F
:1080800060434018017EB8A8027D01209040014065
:10809000002921D01920604300A901314018007D3A
:1080A000B8A9897C884217D11920604300A9013101
:1080B0004018407DB8A9497C88420DD119216143FF
:1080C00000AA01328818BCA904F0B6F800F016F82E
:1080D000FF20023002F008F8601CC4B26846007845
:1080E000A042C4DCB8A8407C034908707FB03FB010
:1080F00010BD00007C0F00201E040020002101485C
:10810000817570476012002070B505460C46611EEF
:108110002846FFF735FFC1B228192038C07F8142B9
:1081200005D02146284603F03EFB002070BD01200B
:10813000FCE770B502460B4618781678B04222D19B
:10814000107800281DD00025002110E0002409E04F
:10815000501C065D581C405C864201D1681CC5B2AB
:10816000601CC4B21078A042F2DC481CC1B2107886
:108170008842EBDC1078A84201D1012070BD0020BC
:10818000FCE70120FAE70020F8E700001CB50446F0
:10819000684604707421417000218170C47004210C
:1081A000014A04F00BFB1CBD0C150020F7B50C4672
:1081B0001546AC420BDD601BC6B200997143084600
:1081C0006421FCF79DFAC7B2E819C0B2FEBD281BB6
:1081D000C6B20099714308466421FCF791FAC7B210
:1081E000E019C0B2F2E70146002906D0012906D005
:1081F000022906D0032908D105E002207047032098
:10820000FCE70420FAE70120F8E70020F6E7000089
:108210000146114A1278521CD2B20F4B1A70642ACE
:1082200011DD0E4A10780A235843642800DD6420CB
:10823000012800DA01200A4BD8720022064B1A707E
:10824000064B1A7006E0002904D0044A1278521C2A
:10825000024B1A70704700002E0400202F040020EB
:108260004016002010B5A0B0002404E0204603F022
:1082700047FC601CC4B21E2CF8DB40216846FCF7AA
:10828000EFF910A801F0A0FB10A800781E30C1B2D1
:108290006846017010A80278411C2138FCF778F973
:1082A000002404E000A801300455601CC4B21E2C58
:1082B000F8DB684603F06CFD684603F06AFA20B00C
:1082C00010BD70B505460C461022691C2046FCF70F
:1082D0005FF9687C2074A87C6074E87CA074287DB9
:1082E000E074687D2075A97D6175E87DA075297EA3
:1082F000E175687E207670BD70B504460D4610228B
:108300002146681CFCF744F9207C6874607CA874E2
:10831000A07CE874E07C2875207D6875617DA97576
:10832000A07DE875E17D2976207E687670BD00002D
:10833000F0B587B00446002006909E49E01C085C1A
:108340000390039808285ED007DC0300FFF73CFA8F
:108350000716191C1F2A2E3288000E287ED006DC34
:108360000A2853D00B287AD00C2879D1EFE01C28AA
:1083700077D02B2876D03428F7D108E101F026FDFC
:1083800015E103F06BFA12E101F0CEFA0FE1894931
:10839000A01D085C8849087000220321084604F0EB
:1083A000EDFD04E101208549087000E101208449C8
:1083B0000870FCE07F49201D085C06020A46611D2A
:1083C000515C0E430020049019E0A01D0499401850
:1083D000801C7849085C0502A01D04994018C01C47
:1083E0007449085C45190919891D049A881800F018
:1083F000F1F80746291D0498401880B204900498AB
:10840000B042E2DBD3E0FFF72FFCD0E00020059084
:108410000598002804D1FF2001306A4908800CE04B
:108420000598012803D140026649088005E00598B7
:10843000022802D14002634908805E49A01D085C01
:108440006149086008460068000208605949E01D5B
:10845000085C5D49096808435B4904E083E024E067
:10846000A4E07AE08BE0086008460068000208603B
:10847000504920460830085C53490968084352496E
:10848000086008460068000208604A492046093032
:10849000085C4D49096808434B490860002004F016
:1084A00091FB0A204949087081E0484800780A2871
:1084B0004CD10120464908703E49201D085C060247
:1084C0000A46611D515C0E431146A01D0D5C2D0234
:1084D000E01D085C05432D0220460830085C05437A
:1084E0002D0220460930085C0543084606902046C8
:1084F0000A30069908180690042E0DD132480068FB
:10850000854209D100222946069802F041FA074621
:1085100000202E4908700FE0301F2A490988884240
:1085200006DC82B22946069802F032FA074603E0DA
:108530000020264908700027012F04D100220321C2
:108540000B2004F01BFD0020214908702FE0194981
:108550000919881D02F079FA29E016490919881DC0
:1085600002F022FE23E01349A01D085C0290E01DEA
:10857000085C01900199029804F06AFC17E00D492B
:10858000A01D085C0290029801F06AFB0FE0094907
:10859000201D085C06020A46611D515C0E4311460F
:1085A0000919881D314602F00CFF00E000BF00BF32
:1085B00007B0F0BDE00B00206F0200206D0200202C
:1085C0006E02002072020020740200207802002057
:1085D0006C020020FEB5044626786778A078050274
:1085E000E078401985B2304601F0D2F80190019848
:1085F0004000074940184078B84201D00020FEBD35
:108600002A46211D304600F0B6FA00900098F6E7A1
:1086100040D20000704770477047704770477047FE
:10862000704700000349086000BF0249096800293B
:10863000FBD1704718020020044800E000BF01464B
:10864000421E90B20029F9D170470000E84E0000A8
:1086500010B5C0B00446214601A801F0D3F80020AF
:1086600069464876214601A803F0A8FB30A801F02E
:10867000E1F8214630A800F009F830A803F0B6FB75
:1086800003F08AF8012040B010BD0000F0B591B0B1
:1086900004460F46402101A8FBF7E2FF20783C2862
:1086A00006D9217815A0FBF7C5FD002011B0F0BD5B
:1086B0002078002800D1F9E7002600250DE0601C95
:1086C000405DB84207D0601C425D3046711CCEB29E
:1086D00001A901310A54681CC5B22078A842EEDC19
:1086E0002078B04201D10020E0E7684606713D22C3
:1086F00001A92046FBF74CFF0120D7E75B6E756DA3
:108700003A25645D0D000000F0B585B004460F46C3
:108710000020009001900290039020780D2806D947
:10872000217816A0FBF786FD002005B0F0BD20786B
:10873000002800D1F9E7002600250DE0601C405D0F
:10874000B84207D0601C425D3046711CCEB200A911
:1087500001310A54681CC5B22078A842EEDC2078AA
:10876000B04201D10020E0E7684606700E2269465B
:108770002046FBF70DFF0120D7E700005B6E756D0B
:108780003A25645D0D00000010B5C0B00446802C91
:1087900002DA002040B010BD214601A801F0F8F82F
:1087A000022069464876214601A803F007FB30A85D
:1087B00000F08AFF30A802F0ECFF214630A8FFF756
:1087C00065FF30A803F0E4FA30A800F07DFF30A880
:1087D00002F0DFFF30A801F0F7F830A802F0D9FF6F
:1087E000214630A8FFF752FF30A803F013FB30A852
:1087F00001F0EAF830A802F0CCFF30A801F01AF836
:1088000030A802F0C6FF214630A8FFF73FFF30A88E
:1088100003F0ECFA30A801F00DF830A802F0B9FF2F
:1088200000BFB7E710B598B0044614A801F0FAF8F5
:10883000214614A8FFF768FF14A803F007FB502196
:108840006846FBF70DFF2146684603F0EDFA01206C
:1088500018B010BD30B5FFB0FFB0FBB00546BDA8E5
:1088600000F01AFFB8A8017DA94204DB1E2D02DA30
:10887000007D002804D100207FB07FB07BB030BDE8
:108880002F21090101A8FBF7EBFE002418E0AC4200
:1088900014D019226243BDAB0133D1186A46127954
:1088A00019235A4301AB0133D0181922FBF770FE8C
:1088B00068460079401CC1B268460171601CC4B2B0
:1088C000B8A8007DA042E2DC01A803F049FA01202B
:1088D000D2E7000070B505460C462146FF22013262
:1088E0002846FCF70AFB64216143084603218903FB
:1088F000FBF706FF06462146324602A0FBF79AFC2C
:1089000070BD0000646F776E6C6F61643A204F78C1
:1089100025303478205B256425255D0D000000009E
:1089200070B504460D462A462146782001F084FFA2
:108930000646012E00D170BD0020FCE7F8B50446C4
:108940000D462946204602F076F80746384601F0E3
:10895000D7FC3946832001F043FF0646012E00D1A3
:10896000F8BD0020FCE7F8B506460F46394630460C
:1089700002F05EF80546002D02D101F0D3FC02E0C2
:10898000012001F0CFFC2946822001F0F5FE0446CB
:10899000012C00D1F8BD0020FCE7F8B505460E46D5
:1089A0003146284602F04AF80446E0B201F0CCFC19
:1089B00021466A2001F0B0FF0746012F00D1F8BD23
:1089C0000020FCE7F8B505460E463146284602F081
:1089D00035F80446E0B201F0B8FC21466F2001F002
:1089E0009BFF0746012F00D1F8BD0020FCE770B5C2
:1089F00004460D462946204601F0A8FC2A46214699
:108A00007F2001F019FF0646012E00D170BD002025
:108A1000FCE770B504460D462946204601F0A9FC46
:108A20002A4621467E2001F007FF0646012E00D18E
:108A300070BD0020FCE770B504460D462A4621466D
:108A4000182001F031FF0646012E00D170BD002034
:108A5000FCE770B504460D462946204601F0B7FCF8
:108A60002A462146812001F0E7FE0646012E00D16C
:108A700070BD0020FCE770B504460D46294620462F
:108A800001F0B0FC2A462146802001F0D5FE0646C2
:108A9000012E00D170BD0020FCE770B504460D46E4
:108AA0002946204601F0FCFC2A462146682001F0B8
:108AB000C3FE0646012E00D170BD0020FCE770B554
:108AC00004460D462A462146672001F0B5FE0646BB
:108AD000012E00D170BD0020FCE7F8B504460D461C
:108AE0002946204601F0AAFF074639466D2001F0CD
:108AF00013FF0646012E00D1F8BD0020FCE770B53B
:108B000004460D462946204601F0F4FC2A4621463B
:108B1000772001F091FE0646012E00D170BD0020A5
:108B2000FCE770B504460D462A4621467C2001F03C
:108B300083FE0646012E00D170BD0020FCE770B513
:108B400004460D462A4621467A2001F075FE064667
:108B5000012E00D170BD0020FCE770B504460D4623
:108B60002A462146752001F067FE0646012E00D1F7
:108B700070BD0020FCE7F8B505460E461746762D79
:108B80006ED026DC6B2D73D018DC662D50D00CDC3B
:108B9000172D3BD004DC142D2CD0152D6ED12FE0D9
:108BA000182D39D0652DF9D13CE0672D46D0682DC0
:108BB0004AD0692D4ED06A2DF0D153E028466C384A
:108BC0000300FEF701FE0A5C62686E747A80868C90
:108BD000925B284677380300FEF7F6FD1593999FC0
:108BE000A5ABB1B7BDC3C9CFD5DBE1E7F3F9FFEF63
:108BF000EEED50003946304600F04BFA044605E1F0
:108C00003946304600F0A6FA0446FFE039463046C1
:108C100000F080FA0446F9E039463046FFF70BFFD2
:108C20000446F3E03946304600F061F90446EDE0D1
:108C30003946304600F029F90446E7E03946304627
:108C4000FFF73DFF0446E1E039463046FFF725FFD8
:108C50000446DBE03946304600F06EFA0446D5E0C3
:108C600049E005E039463046FFF797FE0446CDE07F
:108C70003946304600F022FA0446C7E0C5E03946DE
:108C8000304600F0ECF90446C0E039463046FFF7C4
:108C900024FF0446BAE03946304600F036F904466F
:108CA000B4E039463046FFF78DFE0446AEE0394663
:108CB000304600F01DFA0446A8E03946304600F080
:108CC000BCF90446A2E03946304600F002F90446F9
:108CD0009CE03946304600F0EAF8044696E0394612
:108CE000304600F0A8F8044690E039463046FFF7D9
:108CF00034FF04468AE03946304600F08AF80446DC
:108D000084E039463046FFF7FAFE04467EE03946F5
:108D10003046FFF705FE044678E03946304600F05D
:108D200098F8044672E039463046FFF708FF0446DB
:108D30006CE03946304600F0FAF8044666E0394601
:108D40003046FFF7EEFE044660E03946304600F05C
:108D50008EF804465AE039463046FFF75AFE04467C
:108D600054E039463046FFF742FE04464EE03946AD
:108D70003046FFF780FE044648E039463046FFF7AC
:108D800068FE044642E039463046FFF7ECFD0446F3
:108D90003CE039463046FFF7D1FD044636E039461F
:108DA000304600F0E0F8044630E03946304600F046
:108DB000ECF804462AE022E01BE014E00DE006E0B7
:108DC000FFE73946304600F0EEF804461EE039462B
:108DD000304600F0FAF8044618E03946304600F014
:108DE00002F9044612E03946304600F00AF904461A
:108DF0000CE03946304600F012F9044606E03946E8
:108E0000304600F0A2F8044600E000BF00BF204654
:108E1000F8BD70B504460D462946204601F074FBA6
:108E20002A462146762001F007FD0646012E00D194
:108E300070BD0020FCE770B504460D462A46214669
:108E4000742001F0F9FC0646012E00D170BD00200F
:108E5000FCE770B504460D462A462146792001F00C
:108E6000EBFC0646012E00D170BD0020FCE770B57A
:108E700004460D462A4621467D2001F0DDFC0646CB
:108E8000012E00D170BD0020FCE770B504460D46F0
:108E90002946204601F0DAFB2A462146662001F0E9
:108EA000CBFC0646012E00D170BD0020FCE770B55A
:108EB00004460D462946204601F000FC2A4621467C
:108EC000732001F0B9FC0646012E00D170BD0020D0
:108ED000FCE770B504460D462A462146722001F093
:108EE000ABFC0646012E00D170BD0020FCE770B53A
:108EF00004460D462A462146652001F09DFC0646A3
:108F0000012E00D170BD0020FCE7F8B504460D46E7
:108F10002946204601F092FD074639466E2001F0B1
:108F2000FBFC0646012E00D1F8BD0020FCE770B521
:108F300004460D462A4621467B2001F07DFC06466C
:108F4000012E00D170BD0020FCE770B504460D462F
:108F50002A4621468B2001F06FFC0646012E00D1E7
:108F600070BD0020FCE770B504460D46294620463A
:108F700001F0C2FB2A462146842001F05DFC064632
:108F8000012E00D170BD0020FCE770B504460D46EF
:108F90002A462146852001F04FFC0646012E00D1CD
:108FA00070BD0020FCE770B504460D4629462046FA
:108FB00001F0AAFB2A462146862001F03DFC064628
:108FC000012E00D170BD0020FCE770B504460D46AF
:108FD0002A462146872001F02FFC0646012E00D1AB
:108FE00070BD0020FCE770B504460D462A462146B8
:108FF000882001F021FC0646012E00D170BD002022
:10900000FCE770B504460D462A462146892001F04A
:1090100013FC0646012E00D170BD0020FCE770B5A0
:1090200004460D462A4621468A2001F005FC0646E4
:10903000012E00D170BD0020FCE7F8B504460D46B6
:109040002946204601F0FAFC07463946712001F016
:1090500063FC0646012E00D1F8BD0020FCE7F8B500
:1090600006460F463946304601F0E2FC0546002D23
:1090700002D101F051FB02E0012001F04DFB294635
:109080006C2001F079FB0446012C00D1F8BD0020D2
:10909000FCE7F8B504460D462946204601F0C8FC19
:1090A0000746384601F04AFB3946142001F064FBBC
:1090B0000646012E00D1F8BD0020FCE7F8B50646B3
:1090C0000F463946304601F0B3FC0546002D02D16B
:1090D00001F040FB02E0012001F03CFB29466B203F
:1090E00001F04AFB0446012C00D1F8BD0020FCE74A
:1090F000F8B504460D462946204601F09FFC074678
:109100003946702001F008FC0646012E00D1F8BD5A
:109110000020FCE7F8B504460D462946204601F03C
:109120008DFC07463946172001F0F6FB0646012E56
:1091300000D1F8BD0020FCE770B504460D462A4674
:109140002146692001F078FB0646012E00D170BD52
:109150000020FCE7F8B506460F463946304601F0D8
:109160006AFC0546002D06D0012D05D0022D04D045
:10917000032D04D102E003E002E001E000E000BFC3
:1091800000BF2946152001F02BFB0446012C00D11D
:10919000F8BD0020FCE7000010B51A48007D022849
:1091A00002D11948C47A01E01648047C1548C07DF4
:1091B0000300FEF709FB0805080C1014181C2024F6
:1091C000FCF74CFC1CE02046FCF72CF818E020468D
:1091D000FCF7ACFC14E02046FCF7ACFB10E02046AA
:1091E000FCF796F80CE02046FCF730FA08E0204641
:1091F000FCF778F904E02046FCF7ECFA00E000BF49
:1092000000BF10BDBD1100204016002010B5FFF7B3
:10921000C3FF10BD0020014988767047401100202F
:1092200010B5012002F03AF810BDF0B50B46054626
:109230001E46002105E0541A641E345D6C544C1C1B
:10924000E1B2D70FBF187F108F42F4DCF0BD0000F1
:1092500000B505480078012801D0FFF7DBFF0120A9
:109260000149087000BD00004011002000B5002039
:109270000249087002F03CFD00BD000040110020D2
:1092800010B50446022003490870204602F0E2F9B6
:1092900010BD00004011002010B50020FBF798FD24
:1092A00010BD10B50020FBF793FD10BD00B5C1B097
:1092B00002F076F8FEF781FE02F0D2FDFEF76CFEBA
:1092C00000F0DAFDFEF7CEFF00F0C8FDFF2101310E
:1092D00001A8FBF7C5F904A101A8FAF7B9FF01A895
:1092E00002F07BFD41B000BD656666656374206475
:1092F0006174612056302E310000000001460020CC
:10930000C0437047F0B5C1B00546002424E077485B
:109310000078694608700A2060437449891C095C1A
:10932000E20000A8023081540A2060436F49891C82
:1093300040188188E20000A80230101841800A20FD
:1093400060436A49891C4018C188E20000A80230C5
:1093500010188180601CC4B264480078A042D6DC3A
:10936000002D01D0012D24D1684600786049487055
:10937000684601780122801CFEF724FD002413E0DA
:10938000002D05D1E10000A802300818847109E021
:1093900068460078001B401EC1B2E20000A80230FF
:1093A00010188171601CC4B268460078A042E7DCE6
:1093B0006FE0022D01D0032D24D1684600784C497E
:1093C0004870684601780022801CFEF7FBFC0024F0
:1093D00013E0022D05D1E10000A8023008188471C5
:1093E00009E068460078001B401EC1B2E20000A8F8
:1093F000023010188171601CC4B268460078A04227
:10940000E7DC46E0052D01D0042D42D169460978FC
:10941000481CC10F0918C905090E354A5170684624
:1094200001780222801CFEF7CDFC69460878C10F46
:1094300009184E10002412E0B44207DA301BC1B202
:10944000E20000A802301018817106E0A01BC1B232
:10945000E20000A8023010188171601CC4B2684696
:109460000078A042E8DC042D13D100240DE0E100D7
:1094700000A8023008188079301AC1B2E20000A8B2
:10948000023010188171601CC4B268460078A04296
:10949000EDDC002421E0002718E00A206043134996
:1094A000891C095CFA0000A80230805C81420BD163
:1094B000F90000A80230081882790A2060430B499D
:1094C000891C4018027205E0781CC7B26846007813
:1094D000B842E2DC00BF601CC4B204480078A0427D
:1094E000D9DC284602F054F941B0F0BD84120020C6
:1094F0003007002070B504460D46E0B2FDF71CFFB2
:109500000A2C02D10D20FDF717FF204670BD000088
:1095100010B51648007D002802D100211348C175FE
:109520001248C07D0300FEF74FF90805080B0E1125
:1095300014171A1DFBF753FD15E0FBF7B1FE12E0FF
:10954000FCF73AFB0FE0FCF73BFA0CE0FBF796FF69
:1095500009E0FCF711F906E0FCF74CF803E0FCF732
:10956000A5F900E000BF00BF10BD0000BD11002044
:1095700010B53B480078002800D010BD3948FAF7F4
:1095800059FE39A0FAF756FE3648FAF753FE09207D
:10959000334908706C20887002213148C170002165
:1095A00081807D21C900C1800181102101730221C8
:1095B00041730021C1817D210901018241825E2127
:1095C00081750221C175002101832E494183818368
:1095D000CC21801C81770221C1770021801E41842B
:1095E0007D2149018184C184EE2122300172012153
:1095F0000830417000212A3881852349C1850186C0
:109600004421223081740021123041703438C186E7
:109610001E49018741878C212230017700211C30AF
:1096200041703C38C1871A493C308180C180FC219F
:10963000001D81710221801D4170002141807D212A
:1096400089018180C1807021801F01740321103045
:109650004170002141800F498180C18000BF8CE7AB
:1096600084120020CCD8000067656E657261746555
:109670005F7669727475616C5F6465766963652095
:109680000D000000B80B00008813000070170000E8
:10969000581B00002823000010B50446024A034965
:1096A0002046FBF7BCFB10BDEF020000060C0200D9
:1096B00010B50446FF22433202492046FBF7AFFBB8
:1096C00010BD0000C40A020010B504463D22024944
:1096D0002046FBF7A4FB10BDFF080200F8B50646C4
:1096E0000F460024002504E06800305A0419681C65
:1096F00085B2BD42F8DB39462046FAF7F7FF04464B
:10970000A0B2F8BD70B504460026002505E069004A
:10971000A01C405A8619681CC5B26078A842F6DCC5
:1097200061783046FAF7E2FF80B270BD30B504468A
:10973000154628884018C21A00E0521A8A42FCD204
:10974000A05C30BD30B502460020002305E015784E
:10975000521C2C18E0B25C1CA3B28B42F7DB30BD6C
:1097600030B502460020002303E01578521C28186B
:109770005B1C8B42F9D330BD10B50446FF22023288
:1097800002492046FBF74BFB10BD0000FA0E020019
:1097900070B5054600F012F80646002407E06000A8
:1097A0000549085CA84200D103E0601CC4B2B44281
:1097B000F5DB00BF204670BD40D200002B20704773
:1097C00070B504460D4601221204D01DF830B922AE
:1097D000624380180146113101222846FBF71FFB26
:1097E00070BD70B504460D4601221204D01DF8303C
:1097F000B922624380180146123101222846FBF744
:109800000EFB70BD70B505460C4601221204D01D3A
:10981000F830B92262438118B9222846FBF7FFFAD3
:1098200070BD10B50446FF22012109042046FBF754
:10983000F6FA10BD10B504463D2202492046FBF75A
:10984000EEFA10BD7909020030B5C1B00025002440
:109850000EE0FF220132214601A8FBF7E0FAFF21CA
:10986000013101A8FEF78CFB4519E01DF93084B2E7
:10987000032080038442ECDB284641B030BD000069
:109880001FB517A11B4801F063FD002817D1102157
:10989000684600F073F81849684601F059FD002841
:1098A00005D0FFF7F9FC02201449487004E0FFF7E7
:1098B000F3FC032011494870FEF78EFB0EE010A167
:1098C0000C48FAF7CFFE002805D102200B4948705A
:1098D000FEF782FB02E00020084948701FBD00002F
:1098E0004649524D5741524520494E20464C41531E
:1098F0004800000000025000205000007C0F0020B3
:109900004649524D5741524520444F574E4C4F41C6
:109910004400000010B50446052202492046FBF72A
:109920007EFA10BDF50E020010B500242246032178
:10993000022003F023FB10BD014600200D4A1278DF
:10994000914204DD0B4A12780B4B1A7009E0094A68
:109950001278914205DA074A1278074B1B78D21A1F
:10996000D0B2044A1170642800DD6420002800DAB7
:10997000002070472C0400202D04002070B50546FF
:109980000C462246812149012846FBF748FA70BD62
:1099900070B505460C46802C05DA214608A0FAF77A
:1099A00049FC002070BD01221204D01DF830B922FC
:1099B00062438118B9222846FBF731FA0120F1E70A
:1099C0006E756D3A25640D0010B504463D220249BE
:1099D0002046FBF724FA10BD3C09020070B505468D
:1099E0000C46012212041046044A82184F2060439C
:1099F00011184F222846FBF712FA70BDFFB900007C
:109A000070B505460C46012212041046044A82181D
:109A10004F206043111810222846FBF700FA70BD52
:109A2000FFB9000010B504460E2202492046FBF79C
:109A3000F6F910BDB609020000B501F0ADFF01480E
:109A4000007800BD0C04002010B50022064B002158
:109A500005E01C889B1CA01882B2481CC1B20829D2
:109A6000F7DBD0B210BD00009408500070B5054679
:109A70000C461E2C00DB70BD064A1046064A8018B4
:109A8000401C19226243811819222846FBF7C7F9A6
:109A900000BFF0E7C409020042020000FFB581B038
:109AA0000C460B9D01E0281B85B2A542FBDC039808
:109AB000008801190498081A401B461C00E0361B58
:109AC000A642FCD2A71BAF4206D3019881192A46B1
:109AD0000A98FAF75DFD0BE0019881193A460A9859
