:020000040000FA
:10500000C019002009520000115200007D5100001B
:105010000000000000000000000000000000000090
:105020000000000000000000000000001B52000013
:1050300000000000000000001F520000798F0000F7
:105040002352000025520000275200002952000080
:105050002B5200002D5200002F5200001172000050
:10506000957300003552000005B20000B9B1000090
:105070003B52000005B3000079B20000415200002D
:1050800043520000197500006D750000BD750000E9
:105090000D760000299B0000F5B0000091A90000EA
:1050A0005352000055520000575200005D76000038
:1050B000AD760000FD7600004D770000CDB6000013
:1050C000EFFFEAFF00F002F800F048F80CA030C84B
:1050D000083824182D18A246671EAB4654465D4674
:1050E000AC4201D100F03AF87E460F3E0FCCB646F6
:1050F0000126334200D0FB1AA246AB463343184781
:105100006C6C00008C6C000000230024002500263D
:10511000103A01D378C1FBD8520700D330C100D573
:105120000B60704710B5642902D100F077F910BD0B
:10513000782902D100F0A8F910BD732902D100F03E
:1051400055FD10BD002010BD1FB50098019900F05D
:1051500090FC00F077FA1FBD10B510BD00F096FD71
:105160001146FFF7F1FF05F01DFC00F0AEFD03B4A2
:10517000FFF7F2FF03BC04F0C1FC000004207146FD
:10518000084202D0EFF3098001E0EFF30880714696
:10519000004A10470DA2000030B40C490C684A6860
:1051A00023681068C0181060241D121D8C4207D29D
:1051B0008A4208D20C604A6030BC40004008704708
:1051C0000C00DC3CF6E70A00DC3AF3E7541100205F
:1051D00070B505460C46164602E00FCC0FC5103ED2
:1051E000102EFAD2082E02D303CC03C5083E042E9B
:1051F00007D301CC01C5361F03E021782970641C58
:105200006D1C761EF9D270BD1948804719480047B9
:10521000FEE7FEE7FEE7FEE7FEE7FEE7FEE7FEE766
:10522000FEE7FEE7FEE7FEE7FEE7FEE7FEE7FEE756
:10523000FEE7FEE7FEE7FEE7FEE7FEE7FEE7FEE746
:10524000FEE7FEE7FEE7FEE7FEE7FEE7FEE7FEE736
:10525000FEE7FEE7FEE7FEE7FEE7FEE7FEE7FEE726
:10526000FEE7000004480549054A064B7047000068
:10527000998F0000C5500000C0110020C019002007
:10528000C0120020C012002070B5064600F0D4FB0A
:10529000056830460B30C408E400B44201D8002051
:1052A00070BD68682A46002818D00168A14211D351
:1052B0000B46214608318B4208D3436801194B60E5
:1052C00003681B1B0B605160046001E04168516082
:1052D000001D70BD024640680028E6D121462846E0
:1052E00000F0B2FB0028DCD170BD70B50446051F8C
:1052F00000F0A2FB0068002C1AD0446801E02046B0
:105300006468002C01D0AC42F9D301680A18AA42A3
:1053100004D12A6805468918016000E045602868C4
:105320004119A14205D1616869602168401828606F
:1053300070BD6C6070BD00000FB4054910B503AAC4
:10534000029800F057FC10BC08BC04B018470000DD
:10535000500300200FB41CB5074B06AA7B446946D6
:105360000090059800F017FC0020694600F026FC2C
:105370001CBC08BC04B018475D08000070B50446AA
:1053800085690068C10601D5302600E02026C007E7
:1053900007D070BD62683046A1689047206A401C03
:1053A00020626D1EF6D570BD70B504468569007823
:1053B000C00707D170BD6268A16820209047206AAD
:1053C000401C20626D1EF6D570BD70B50C460546BA
:1053D000012A05D02878800600D5EA69002302E07A
:1053E000012305E05B1C934202D2E05C0028F9D166
:1053F000A869E618C01AA861286AC0182862284659
:10540000FFF7BCFF04E06A682078A968641C904735
:10541000B442F8D32846FFF7C7FF70BDF7B50025A3
:1054200075291068009914A611D0C046C0460028FE
:1054300002DA404211A608E0009909688A0701D5FE
:105440000FA602E0490704D50EA6012501E0C046DB
:10545000C046009F0024243704E000F0DFFB303119
:105460003955641C0028F8D12B4632462146009855
:1054700000F033FBFEBD0000000000002D00000026
:105480002B0000002000000070B504460D462146A8
:105490001068C046C0462188090502D50F4A7A44E3
:1054A00002E00E4A7A440E3223460021243305E0FE
:1054B00006070009360F965D5E54491C0028F7D197
:1054C00020780023000705D5702D03D0002901D0D6
:1054D00002231132204600F000FB70BD506800002E
:1054E000F3B50446002081B020622046E168884779
:1054F00000287DD0252802D06268A16883E0454F4E
:1055000000257F442046E16888472028064608DBBE
:10551000312E06D2B81920380078002801D0054372
:10552000F0E7A80701D5042085430020E061074685
:10553000A0612A2E0AD0304604F0D8FA002827D0DD
:10554000B8000019303E0090866119E00298BA0058
:10555000121902C8916102902046E1688847012F24
:10556000064617D1E06900281FDA202085431CE099
:1055700000980A2180694843009980193038886171
:105580002046E1688847064604F0B0FA0028EFD1CB
:10559000012F0AD02E2E08D12046E1688847064602
:1055A000202005437F1C022FC3DBA069002803DAFB
:1055B0004042A06101200543E80701D01020854347
:1055C000002E24D030464138192803D80120C002CB
:1055D00005432036204625603146029A1546FFF7DE
:1055E000A1FD00280CD0012807D0ED1DE80800E03F
:1055F0000DE0C0000830029077E72D1D029574E79A
:1056000062683046A1689047206A401C6CE7206AB7
:10561000FEBD0000146800000B4A30B511460B4C6B
:1056200060310B46DC3B0CC1372106E0020C8D00DB
:1056300012185A51064A504300190A46491E002AB8
:10564000F4DC30BD0120E7E7F4100020E119D66654
:10565000CD0D0100F8B5042A2CD3830712D00B78A6
:10566000491C0370401C521E83070BD00B78491C49
:105670000370401C521E830704D00B78491C037032
:10568000401C521E8B079B0F05D0C91ADF00202338
:10569000DE1B08C90AE0FFF79BFDF8BD1D4608C9DF
:1056A000FD401C46B4402C4310C0121F042AF5D202
:1056B000F308C91A521EF0D40B78491C0370401C21
:1056C000521EEAD40B78491C0370401C012AE4D412
:1056D00009780170F8BD01E004C0091F0429FBD25C
:1056E0008B0701D50280801CC90700D0027070476B
:1056F00000290BD0C30702D00270401C491E0229AA
:1057000004D3830702D50280801C891EE3E70022B0
:10571000EEE70022DFE7002203098B422CD3030AC5
:105720008B4211D300239C464EE003460B433CD4EE
:10573000002243088B4231D303098B421CD3030A56
:105740008B4201D394463FE0C3098B4201D3CB0186
:10575000C01A524183098B4201D38B01C01A5241B6
:1057600043098B4201D34B01C01A524103098B42BA
:1057700001D30B01C01A5241C3088B4201D3CB00A5
:10578000C01A524183088B4201D38B00C01A524188
:1057900043088B4201D34B00C01A5241411A00D238
:1057A00001465241104670475DE0CA0F00D04942A1
:1057B000031000D34042534000229C4603098B4211
:1057C0002DD3030A8B4212D3FC22890112BA030A99
:1057D0008B420CD3890192118B4208D3890192111B
:1057E0008B4204D389013AD0921100E08909C309A0
:1057F0008B4201D3CB01C01A524183098B4201D3A2
:105800008B01C01A524143098B4201D34B01C01A8C
:10581000524103098B4201D30B01C01A5241C30804
:105820008B4201D3CB00C01A524183088B4201D373
:105830008B00C01A5241D9D243088B4201D34B008E
:10584000C01A5241411A00D20146634652415B10D0
:10585000104601D34042002B00D5494270476346B1
:105860005B1000D3404201B50020C046C04602BDD7
:105870007047704770470000F0B5FF252D04C6093A
:10588000C209FF2704462E400137CB093E4348405A
:105890002A402B400746002A6BD0002B69D0AA4231
:1058A00067D0AB4265D0002800DA32460125ED050D
:1058B00029432C4309022002090AD21A4B0C7F24E7
:1058C000E31A434C000A7C44E35C7D24240412194F
:1058D00014145B00A218884201D3521C00E040005F
:1058E00049420C465C4324115C43DB016415E31818
:1058F000040A5C43C502200D0C4644436419250A82
:105900005D432303EC0C0D46654300030019EB18BF
:105910004C42A34201D35B18401CD4052018002B35
:1059200007D05B00C91804D3401C002901D14008EE
:1059300040003F2189048A4209D3002A08DC11066D
:10594000090F04D0032149074018C00FC007F0BD5C
:1059500001224100120689187F2252069142F6D296
:1059600005214907C84201D59010F0BDFF20C005B0
:10597000F0BD002F00DA32461648AA4207D2AB42E9
:1059800005D21902090E17D0F80FC007F0BDFF2588
:1059900063002D06AB42F9D84900A942F6D8AB42C4
:1059A00001D1A942F2D0A94201D1002101E0610058
:1059B0004908D0050843F0BD1102090EFBD0FF20B5
:1059C0000243D005F0BD0A460146104654E70000E8
:1059D000616400000000C07F1F22030C02D10F226F
:1059E00000041CD0030E01D10002083A030F01D1BC
:1059F0000001121F830F01D18000921E002801DBDD
:105A00004000521ED205511802125118192290401E
:105A100004D3491C002801D14908490008467047B1
:105A2000C10FC90700D04042012292071143D3E7BA
:105A300001218907D0E70000004870476411002069
:105A4000704770477047704738B504460A460020D3
:105A50006946C046C046002805D002462046009947
:105A600000F0F4F8012038BD10B5012000F008F96D
:105A700010BDF8B5C046C046054600200C461020B3
:105A8000C0460646A819A0420DD9324669460020F4
:105A9000C046C046070001D100F0F2F80098A042CD
:105AA00000D00546C419FFF7C7FFF61D074605607D
:105AB000F008C0004619284600F008F8B44204D0A7
:105AC00031463868A21B00F0C1F8F8BD0021016022
:105AD00041608060704710207047FFB504460D4656
:105AE00081B0243000902168880604D51022E06936
:105AF0009143216000E00120A84201DD471B00E046
:105B000000270498A1697A191018081AA061207852
:105B1000C00602D42046FFF731FC002608E00398B7
:105B20006268A168805D9047206A401C761C2062F4
:105B300004988642F3DB2078C0060AD52046FFF79A
:105B40001DFC06E06268A16830209047206A401C76
:105B5000206238467F1E0028F4DC07E00098626867
:105B6000A168405D9047206A401C206228466D1E57
:105B70000028F3DC2046FFF717FC2078000602D54A
:105B8000022005B0F0BD0120FBE7000001694A1CBE
:105B900002610878704700B58FB00291002105912D
:105BA0000549019379440391114604906846FFF733
:105BB00097FC0FB000BD0000E5FFFFFF0A68107002
:105BC000521C0A60704710B54369002B02D0C046D2
:105BD000C04601E0FFF7F9FB012010BD1278014635
:105BE00024310A7000224A700122ECE71168002279
:105BF000D243E8E7084B70B50D467B44FFF7CBFF77
:105C00000446284604F0BDFA002802D00020C04314
:105C100070BD204670BD00008D4500000146800823
:105C2000081A02091018020A1018020C1018C008ED
:105C3000820012185200891A01E0401C0A390A2910
:105C4000FBD27047004870475C11002010B5034636
:105C5000406801E003464068002801D08842F9D33B
:105C60001868C3188B4206D0CB1CD808C000001D92
:105C7000411A521A0146081D0A60FFF736FB10BD93
:105C800010B500F031F800F028F810BD7546FFF7A8
:105C9000D9FFAE46050069465346C008C000854698
:105CA00018B020B5FFF7DEFA60BC00274908B646F9
:105CB0000026C0C5C0C5C0C5C0C5C0C5C0C5C0C51B
:105CC000C0C5403D49008D46704710B50446C046EA
:105CD000C0462046FFF74BFA10BD10B5002801D092
:105CE00003F00CFF10BD000010B5012805D0002105
:105CF00003A000F021F8012010BD09A1F8E7000081
:105D000053494752544D454D3A204F7574206F66A4
:105D10002068656170206D656D6F7279000000000C
:105D20003A2048656170206D656D6F727920636FF0
:105D3000727275707465640070B505460C460A2071
:105D400000E06D1C03F0EAFE002D06D02878002844
:105D5000F7D102E0641C03F0E1FE002C02D02078B1
:105D60000028F7D10A2003F0D9FE70BD70B58C1859
:105D70000578401C6B075B0F01D10378401C2A118A
:105D800006D10278401C03E00678401C0E70491CC6
:105D90005B1EF9D12B0705D40023521E0DD40B70C6
:105DA000491CFAE70378401CCB1A921C03E01D78CB
:105DB0000D70491C5B1C521EF9D5A142D8D300209E
:105DC00070BD000010B50121154801751548007817
:105DD0002021084313490870002013490870134913
:105DE0000875152003F02EFE10200F4908700020C2
:105DF00088700846807888700846807808210843B3
:105E000009498870002008718871FF20C87200203D
:105E1000887208460078012108430349087010BDC4
:105E200040610040200402400050044040600040B7
:105E3000064A127838239A43044B1A701A4612788D
:105E4000C3001A43014B1A70704700000050044011
:105E50000B4A127852085200094B1A70002803D1DD
:105E600080220A439A7103E0C0220A43044B9A71CC
:105E7000034A127801231A43014B1A70704700003D
:105E80000050044010B504460B48047200200B4932
:105E90000875152003F0D6FD002109480175064854
:105EA00080798011032805D00348007880210843B9
:105EB0000149087010BD00000050044040600040DF
:105EC0004061004000B5C0229178F8221140144A88
:105ED0001278114313480A46E03A130003F08CFD90
:105EE0000E0A0E12161A1E1E1E080C1014181C1E66
:105EF0000D4813E00D4811E00D480FE00D480DE08E
:105F00000D480BE00D4809E00D4807E00D4805E09D
:105F10000D4803E00D4801E00D4800BF00BF00BD83
:105F2000201C024040420F000090D003006CDC02B5
:105F30000048E80100366E010024F400001BB700A1
:105F400000127A00808D5B0000093D00C0C62D0064
:105F500080841E0030B502460020002305E015783D
:105F6000521C2C18E0B25C1CE3B28B42F7DB30BD54
:105F700030B50B46002206E01D7804686419046001
:105F80005B1C541CA2B2FF2AF6DD30BD10B590B0E8
:105F9000044640216846FFF7BCFB6946204600F0F6
:105FA00045FC10B010BD70B505460A212846FFF724
:105FB000BCFBC6B20A212846FFF7B7FBCCB23001C2
:105FC0000019C4B2204670BDFFB583B00D9A120F00
:105FD000120701239B079A4202D10022009201E09E
:105FE000012200920E9A120F120701239B079A4278
:105FF00001D1002400E00124009A002A01D10122ED
:1060000000E000222240002A02D0002201920DE08E
:10601000002C01D1012200E00022009B1A40002A3E
:1060200002D00122019201E00022019201225207D6
:1060300082181170069A92012032E3001A43009BE5
:106040009B001A43019B5B001A43059B1A43204B9C
:106050000D015A5301231E4A0D01521953801C4B46
:106060000D015B190C9A9A80194B0D015B190C9A62
:10607000DA80174A0D0152190D9B9360144A0D01E5
:1060800052190E9BD360134A927E08231A43114B78
:106090009A769A04104B9A601A4602920246C517E5
:1060A0006D0FAD18EE10029DAD5D0346C617760F5D
:1060B000F618F610F600871B0126BE403543C617BA
:1060C000760FB618F710029EF55507B0F0BD000028
:1060D00020000020000802400050004070B50B4B2B
:1060E0000146C417640F6418E4101C5D0246C5170E
:1060F0006D0FAD18ED10ED00461B0125B540AC430A
:10610000C5176D0F6D18ED105C5570BD0050004047
:10611000FFB581B00D4616461F4600240198201891
:10612000C4B26019C4B2A019C4B2E019C4B20A98CA
:106130002018C4B20B982018C4B20C982018C4B20E
:10614000019803F049F8284603F046F8304603F07A
:1061500043F8384603F040F80A9803F03DF80B98EE
:1061600003F03AF80C9803F037F8204603F034F8BF
:1061700005B0F0BD70470000F0B597B006460F4679
:1061800000200090019002900390149015904021FF
:1061900004A8FFF7BEFAF41C20781690601C044691
:1061A000017810A80174601C0446017810A841749D
:1061B000601C0446017810A88174601C04460178B4
:1061C00010A8C174601C0446017810A80175601CF9
:1061D0000446017810A8417516983F2804DD43A0B5
:1061E000FFF7AAF817B0F0BD10A8407C0F2803DC19
:1061F00010A8407C002803D140A0FFF79DF8F1E7EC
:1062000010A8807C072803DD41A0FFF795F8E9E797
:1062100010A8C07C052803DD41A0FFF78DF8E1E759
:1062200010A8007D012803DD40A0FFF785F8D9E71D
:1062300010A8807C00280AD110A8407C810040185A
:106240000B30B8420DD03CA0FFF776F8CAE710A893
:10625000407C80000B30B84203D037A0FFF76CF8C9
:10626000C0E734460A34002515E02078A90004AAC6
:106270005054641C2078A90089184870641C207848
:10628000A90089188870641C2078A9008918C87032
:10629000641C681CC5B210A8407CA842E5DC10A8AC
:1062A000807C002811D110A8407C810030460A3043
:1062B0000C18002505E0207869464855641C681CC8
:1062C000C5B210A8407CA842F5DC6946169800F0DB
:1062D00057FB14A9169800F068FB04A9169800F063
:1062E0002BFB169802F0A4F900BF7BE765665F6E92
:1062F000756D206572726F720D000000636F6C6FB8
:10630000725F73756D206572726F720D0000000010
:106310006D6F74696F6E206572726F720D00000090
:106320006D6F7665206572726F720D004D6F6465DA
:10633000206572726F720D006C656E206572726FEF
:10634000720D0000F3B581B007460298001F80B2BD
:106350000290FF1C03210298FFF7E7F9002900D003
:10636000FEBD03210298FFF7E0F9C0B2009000984B
:10637000102800DDF4E7002520E068002818C61981
:10638000002414E032780C2060430F49085C8242FC
:106390000BD172780C20604340180272B2780C2046
:1063A00060434018427202F0BFFD601CC4B2064850
:1063B000801E0078A042E5DC681CC5B200988542CA
:1063C000DBDB00BFCCE70000BA060020F0B591B0DF
:1063D0000646402101A8FFF79CF9F41C2778601CB1
:1063E0000446017868460171601C044601786846DD
:1063F0004171601C0446017868468171601C044646
:1064000001786846C171132F01DD11B0F0BD6846F7
:10641000C0793B2800DDF8E7002506E0601C044653
:10642000017802A84155681CC5B26846C079A842E7
:10643000F4DC01A9384600F0F9F900BFE5E70000F7
:106440001CB50246002300930193D01C03780A4C2C
:106450002370431C18461B786370431C18461B7836
:10646000A370431C18461B78E370431C18461C7825
:10647000014B1C711CBD000030020020FEB505461A
:106480000F46002000900190EC1C2678601C04460A
:10649000017868460170601C0446017868464170C6
:1064A000601C0446017868468170601C04460178CF
:1064B0006846C170601C0446017868460171601C22
:1064C00004460178684641716946304600F0E2F9B9
:1064D000FEBD0000F8B504460E4625462805000D11
:1064E000002806D1284600F006FD29460BA0FEF73D
:1064F00023FFFF2201322946304600F0C6FC64210A
:10650000614308461321C902FFF705F907463A46D9
:10651000294607A0FEF710FFF8BD0000536563741D
:106520006F724572617365204F782534780D0000D5
:10653000646F776E6C6F61643A204F7825347820F1
:106540005B256425255D0D00F0B58BB0074639A0AD
:10655000FEF7F2FE0025002620E03146102203A8B7
:1065600000F065FC0020029007E003A90298085C97
:1065700045190298401CC0B2029002981028F4DB22
:106580006421714308461321C902FFF7C4F8019042
:10659000314631A0019AFEF7CFFE10361320C0021B
:1065A0008642DAD3394633A0FEF7C6FE294638A024
:1065B000FEF7C2FEAF4203D13CA0FEF7BDFE08E0ED
:1065C00045A0FEF7B9FE4DA0FEF7B6FE00200BB0C9
:1065D000F0BD10224E4907A800F029FC00246846AF
:1065E000C07F044324026846807F04432402684637
:1065F000407F044324026846007F04436846007FCE
:106600002D1A6846407F2D1A6846807F2D1A6846ED
:10661000C07F2D1A29463FA0FEF78EFEA54204D169
:1066200043A0FEF789FE0120D1E747A0FEF784FED4
:106630000020CCE70D5B2056455249465920444F77
:10664000574E4C4F4144454420434845434B5355D6
:106650004D205D0D0A0000003078253034783A2056
:1066600072656164696E6720666C61736820256479
:1066700025250D0062756666657220636865636B2B
:1066800073756D2069732030782534780D00000013
:10669000666C6173682020636865636B73756D2039
:1066A00069732030782534780D0A000062756666BB
:1066B000657220616E6420666C6173682063686532
:1066C000636B73756D20766572696679207061738E
:1066D0007320210D000000006275666665722061FE
:1066E0006E6420666C6173682076657269667920D5
:1066F0006661696C202121210D0D0000646F776EA9
:106700006C6F6164206661696C2121210D0D0000B0
:10671000F0970000415050207061636B2063686502
:10672000636B73756D2069732030782534780D00A4
:10673000417070207061636B2076657269667920A4
:106740007061737320210000417070207061636B71
:1067500020766572696679206661696C2121210D58
:106760000D000000F8B50446002500260027294842
:10677000008884420EDD28480078002803D125488F
:1067800000882649088001202349087000202449F8
:10679000087006E01F480088844202DA0120204980
:1067A00008701D480078002808D01E480078FF288F
:1067B00004DA1C480078401C1A4908701848007810
:1067C00000281CD0002016490870134800780028C3
:1067D00015D00020104908700E4800880F4909881C
:1067E000401A85B20F4800780F49087008460178B2
:1067F0002846FEF79AFF86B200200A490870C82D85
:1068000000DA0025FF2D00DDFF2502480480E8B2F4
:10681000F8BD0000AA020020AF020020AC02002058
:10682000B0020020AE020020B1020020F8B50446FC
:106830000D46132C00DDF8BDE8783B2800DDFAE7B3
:10684000A8783B2800DDF6E7002606E0281D805DDD
:106850003B2800DDEFE7701CC6B2E878B042F5DCFB
:106860002046E117490F0918C91049021D22D2021A
:106870008F18E117490F0918C910C900611A890555
:10688000090C009140232A463846009900F027F869
:1068900000BFD0E7F8B505460C46402D00DBF8BD3B
:1068A0002078042800DDFAE7E0783C2800DBF6E7F2
:1068B0006078182800DBF2E7A0783C2800DBEEE7E0
:1068C0006079072800DDEAE777267602EF000823E3
:1068D00022463946304600F002F800BFDFE7FFB538
:1068E000FFB082B007463D4601AE002405E028789F
:1068F00030706D1C761C601C84B201204002844202
:10690000F5DB839D01A982980E18002405E0287804
:1069100030706D1C761C601C84B284988442F6DB57
:10692000384604F084FE01AA01214902384604F0E9
:10693000A5FE7FB006B0F0BDF8B504460D46202C8C
:1069400001DB3F2C00DDF8BD20462038C4B22046D4
:10695000E117490F0918C91049023D2292028E1809
:10696000E117490F0918C910C900611A89050F0CF0
:1069700040232A4639463046FFF7B1FF00BFE2E721
:1069800070B504460D46202C01DB3F2C00DD70BDA8
:1069900020462038C4B2260110232A4631467920E9
:1069A0004002FFF79CFF00BFF1E770B504460D46BB
:1069B0003F2C00DD70BDE60008232A4631460F203B
:1069C0000003FFF78CFF00BFF4E70000F0B58DB0C7
:1069D000F1A0FEF7B1FC00F0D1FA00F0FDFAEF48AB
:1069E00004780178EEA0FEF7A7FCEF484079EF4964
:1069F0004873EA48001D091F486000200A90FF20E4
:106A0000099000200890FF200790074606460020C6
:106A100003900490002458E00C206043E44940189F
:106A2000007AB04203D00498401CC0B204900C20FD
:106A30006043DF494018407AB84203D00398401CB5
:106A4000C0B203900C206043D9494018017A0A98DB
:106A5000814205DD0C206043D5494018007A0A9038
:106A60000C206043D2494018417A0898814205DDE4
:106A70000C206043CE494018407A08900C206043B7
:106A8000CB494018017A0998814205DA0C2060430D
:106A9000C7494018007A09900C206043C449401847
:106AA000417A0798814205DA0C206043C0494018BA
:106AB000407A07900C206043BD494018067A0C20AC
:106AC00060434018477A601C84B2B948801E007841
:106AD000A042A1DCB448C078002803D0B248C078F6
:106AE000012833D1AD4903984870002600270025BE
:106AF00029E000241BE00C206043AD494018407A97
:106B0000A84212D10127A848C078002804D10C203F
:106B100060434018C67008E00398801B401EC2B254
:106B20000C206043A2494018C270601C84B2A04887
:106B3000801E0078A042DEDC002F02D0701CC6B29E
:106B40000027681C85B2102DD3DBC8E09648C078BA
:106B5000022803D09448C078032833D18F49049881
:106B6000487000260027002529E000241BE00C20A7
:106B700060438F494018007AA84212D101278A4801
:106B8000C078022804D10C2060434018C67008E089
:106B90000498801B401EC2B20C20604384494018F8
:106BA000C270601C84B28248801E0078A042DEDC85
:106BB000002F02D0701CC6B20027681C85B2102DB1
:106BC000D3DB8CE07848C078042803D07648C078BE
:106BD0000528BAD1099A0A998818C10F0918C90558
:106BE000090E0691079A08998818C10F0918C90556
:106BF000090E059100200B9000253CE000200C9030
:106C000000242AE00C206043694A8018017A069823
:106C100003F066F906460C206043654A8018417A05
:106C2000059803F05DF90746BE420ADDAE4212D177
:106C300001200C900C2161435D4A89180B98C870A3
:106C400009E0AF4207D101200C900C216143584A62
:106C500089180B98C870601C84B25548801E007853
:106C6000A042CFDC0C98002803D00B98401CC0B287
:106C70000B90681C85B2102DC0DB00200B904A4899
:106C8000C07805282BD100240FE00C206043484930
:106C90004018C1780B98814205DD0C2060434449BF
:106CA0004018C0780B90601C84B24148801E007868
:106CB000A042EADC00240DE00C2060433C4940186F
:106CC000C6780B98801BC2B20C2060434018C2707B
:106CD000601C84B23648801E0078A042ECDC32484A
:106CE0008078030002F088FE0805080B0E111417C7
:106CF0001A1D01F0F5FA15E001F0A0F912E001F01B
:106D000097FB0FE001F0A0FA0CE001F0CDF909E0EB
:106D100001F028FA06E001F0F9F903E001F052FA77
:106D200000E000BF00BF2148006900901F48037BBE
:106D30004289007A014602901EA0FEF7FDFA1C4827
:106D4000801E017822A0FEF7F7FA1448417824A0AB
:106D5000FEF7F2FA002417E00C20604314494018B3
:106D6000C07800900C2060434018437A0C206043A8
:106D70004018027A0C206043085C014602901DA076
:106D8000FEF7DAFA601C84B20948801E0078A0423F
:106D9000E2DC0DB0F0BD00000D0A0000080A002082
:106DA00045463A2532640D00700E00200C0E00207E
:106DB000BA0600206B3A25642049733A25642049BD
:106DC000743A256420416D3A25640D0A00000000E4
:106DD0004465766963655F73756D3A25640D0000DF
:106DE0004D6F64756C655F576F726B4E756D3A25AC
:106DF000640D000049443A5B30782532785D205BB1
:106E000025645D5B25645D6E756D3A202564200DFB
:106E1000000000000A78436EC254426E632A03D217
:106E2000426E521C426601E000224266704770B515
:106E300005460C461646002002F0CEFD0A2004F05E
:106E4000F3FA032001F0B8FFFF2109042140080CE8
:106E500001F0B2FFFF2109022140080A01F0ACFF56
:106E6000E0B201F0A9FF04E0552001F0A5FF287071
:106E70006D1C3046711E8EB20028F5D1012002F043
:106E8000ABFD0A2004F0D0FA70BD70B505460C4683
:106E9000164600F08FF8002002F09EFD0A2004F054
:106EA000C3FA022001F088FFFF2109042140080CE9
:106EB00001F082FFFF2109022140080A01F07CFF56
:106EC000E0B201F079FFFF200130864200DD064686
:106ED00003E0287801F070FF6D1C3046711E8EB201
:106EE0000028F6D1012002F077FD0A2004F09CFA78
:106EF00000F028F870BD10B5044600F05BF800F013
:106F000021F8002002F068FD0A2004F08DFA20200C
:106F100001F052FFFF2109042140080C01F04CFF51
:106F2000FF2109022140080A01F046FFE0B201F00A
:106F300043FF012002F050FD0A2004F075FA00F032
:106F400001F810BD10B50024002002F045FD0A2014
:106F500004F06AFA052001F02FFF00BF552001F070
:106F60002BFF0446E007C00F0028F7D1012002F0F4
:106F700033FD0A2004F058FA10BD000000B593B0AC
:106F80000A49087811A901F0C4FE0948129A11991A
:106F9000426401640549087801A901F067FE4022B6
:106FA00001A90348FEF714F913B000BD080A002038
:106FB000300E002010B5002002F00EFD0A2004F073
:106FC00033FA062001F0F8FE012002F005FD0A2048
:106FD00004F02AFA10BD0000002007E0002216216C
:106FE0004143044BC9188A82411CC8B21028F5DB02
:106FF000704700006C08002010B503220021022019
:1070000001F05EFA00221146042001F059FA002234
:1070100007210D2001F054FA042202210C2001F076
:107020004FFA002201210C2001F04AFA0322062126
:107030000D2001F045FA002206210D2001F040FA52
:1070400001221146022001F03BFA032202210846E8
:1070500001F036FA00220321022001F031FA042265
:107060000021012001F02CFA00220121084601F044
:1070700027FA05220221012001F022FA052203212C
:10708000012001F01DFA05220421012001F018FA67
:10709000042211460C2001F013FA042203210C20D3
:1070A00001F00EFA10BD30B513460C780578AC42ED
:1070B00009DD0478E2180C78944202D20C7804704E
:1070C00017E0027015E004780D78AC420FDD04780B
:1070D0009C4209DD0478E21A0C78944202D90C78BB
:1070E000047006E0027004E00C78047001E00C7893
:1070F000047030BD012105480177054880880843A8
:1071000003498880002003490877704700610040E8
:10711000601504400060004008B500201649087062
:107120001648808801210843144988800846408910
:107130001349084011494881084600891049084010
:107140000E49088108460089891508430B490881C2
:107150000020009005E000BF68460078401CC1B2E6
:107160000091684600780E28F5D90448008901216D
:1071700008430249088108BD380400206015044016
:10718000FEFF0000012106480170064880880221A8
:1071900008430449888000200349087070470000B4
:1071A00020610040601504402060004008B516488A
:1071B0008088022108431449888008464089134981
:1071C00008401149488108460089104908400E4985
:1071D000088108460089491508430B4908810020A9
:1071E000009005E000BF68460078401CC1B20091E5
:1071F000684600780E28F5D9034800890221084323
:107200000149088108BD000060150440FDFF000031
:1072100010B55648008802210840022807D154487A
:107220000088002803D0022003F066FB9AE04F4854
:107230000088C007C00F002807D04D4800880028EC
:1072400003D0052003F058FB8CE04A480078C007C3
:10725000C00F002818D04648008800280FD04648A4
:10726000006800784549087243480068401C42495C
:1072700008603F480088401E3D49088072E0FFF7E3
:107280004BFF03F045FB6DE03A48007804210840CD
:10729000002832D135482030808801210843334905
:1072A000203188803148008B8004800C2F4908836E
:1072B0000846008B0121890308432C4908832B4889
:1072C000203040880121084328492031488029483E
:1072D00000780421084327490870294800880128BC
:1072E00007D1224820304089264908401F492031D3
:1072F0004881FF202149087234E023480088204952
:10730000098888422EDA1D48007A204909680870E9
:107310001E480068401C1D4908601B480088401C2E
:107320001949088016480088401E098888420BD1F8
:107330000E4820304089134908400C4920314881CB
:10734000FF200E4908720DE00F4800880C4909889B
:10735000884204D1FFF7E0FE03F0D0FA02E0FF20FC
:107360000649087200200A49087710BD40150440FC
:1073700040040020380400203C0400204017044052
:107380004A040020FEFF00004804002044040020BE
:107390000060004010B5564840880221084002288D
:1073A00007D154480088002803D0022003F0BAFA1D
:1073B0009AE04F484088C007C00F002807D04D48CA
:1073C0000088002803D0052003F0ACFA8CE04A487E
:1073D0000078C007C00F002818D046480088002851
:1073E0000FD04648006800784549887243480068D5
:1073F000401C424908603F480088401E3D490880C3
:1074000072E0FFF7D3FE03F099FA6DE03A48007896
:1074100004210840002832D13548203080880221DC
:1074200008433349203188803148408B8004800CE8
:107430002F4948830846408B0121890308432C4982
:1074400048832B48203040880221084328492031B6
:1074500048802948007804210843274908702948B2
:107460000088012807D12248203040892649084059
:107470001F4920314881FF202149887234E0234888
:1074800000882049098888422EDA1D48807A2049E0
:10749000096808701E480068401C1D4908601B48A8
:1074A0000088401C1949088016480088401E098839
:1074B00088420BD10E4820304089134908400C49BE
:1074C00020314881FF200E4988720DE00F48008866
:1074D0000C490988884204D1FFF768FE03F024FABA
:1074E00002E0FF200649887200200A49087010BD9A
:1074F00040150440540400204C0400205004002097
:10750000401704405E040020FDFF00005C040020E2
:10751000580400202060004010B500200E4908717A
:107520000E480068401C0D4908600D480088C007DF
:10753000C00F002808D00B48008B401C0121090413
:1075400040180949086004E00648008B401C0649C1
:10755000086001F07BFD10BD406000408804002001
:10756000A01D0440001F04407804002000200E49A4
:1075700008720E480068401C0C4908600C4840889E
:10758000C007C00F002808D00A48408B401C0121CA
:10759000090440180849086004E00648408B401C74
:1075A0000549086070470000406000408C040020DE
:1075B000A01D0440001F04407C04002000200E4950
:1075C00008730E480068401C0C4908600C4880880D
:1075D000C007C00F002808D00A488088401C01213D
:1075E000090440180849086004E006488088401CE7
:1075F000054908607047000040600040900400208A
:10760000A01D0440601F04408004002000200E499B
:1076100008740E480068401C0C4908600C48C0887B
:10762000C007C00F002808D00A48C088401C0121AC
:10763000090440180849086004E00648C088401C56
:107640000549086070470000406000409404002035
:10765000A01D0440601F04408404002000200E4947
:1076600008730E480068401C0C4908600C480088EC
:10767000C007C00F002808D00A48008B401C012119
:10768000090440180849086004E00648008B401CC3
:10769000054908607047000060600040A8040020B1
:1076A000A0210440002304409804002000200E493B
:1076B00008740E480068401C0C4908600C4840885B
:1076C000C007C00F002808D00A48408B401C012189
:1076D000090440180849086004E00648408B401C33
:1076E000054908607047000060600040AC0400205D
:1076F000A0210440002304409C04002000200E49E7
:1077000008750E480068401C0C4908600C488088C9
:10771000C007C00F002808D00A488088401C0121FB
:10772000090440180849086004E006488088401CA5
:10773000054908607047000060600040B004002008
:10774000A021044060230440A004002000200E4932
:1077500008760E480068401C0C4908600C48C08838
:10776000C007C00F002808D00A48C088401C01216B
:10777000090440180849086004E00648C088401C15
:10778000054908607047000060600040B4040020B4
:10779000A021044060230440A40400204D48407B05
:1077A0004021084000280CD04B480078FF2804DA1C
:1077B00049480078401C4849087001204749087032
:1077C00087E046480078012870D1434800780428B3
:1077D00074DD414800780A281EDA41480078002804
:1077E00071D040480078401C3E4908703E4800680F
:1077F00040003D4908603B480078202863DB08468C
:1078000000683A490860012039490870002035496C
:1078100008703349087056E02F480078122847DD79
:107820002D480078182824DA2D48007800284AD0FE
:107830002C480078401C2B4908702B4800684000F9
:107840002949086008460068012108432649086064
:1078500024480078202836DB084600682349086061
:1078600001202349087000201E4908701C49087037
:1078700029E019480078332812DD174800783C28A1
:1078800008DA0020174908701749086001201449D8
:10789000087018E00020124908701349086012E0CF
:1078A00000200F490870104908600CE00EE005E068
:1078B00000200B4908700C49086004E000200849CA
:1078C0000870094908600020034908700020034936
:1078D00008707047000004409C0200209E020020B7
:1078E0009F0200209D020020A002002090020020A4
:1078F000940200201D4A127880231A431B4B1A70F1
:10790000002802D100221A4B1A77012808D101223F
:10791000174B1A77154AD27810231A43134BDA7093
:10792000022802D1A222124B1A77032802D1822206
:107930000F4B1A77042802D1C2220D4B1A77052863
:1079400002D103220A4B1A77062802D14322084BA0
:107950001A770022074B1A820123074A1377002265
:10796000064B1A77034A1182704700002004024038
:1079700060040440404F04404061004040600040CB
:1079800010B500200B490877172002F067F8002196
:10799000094801770948008A0121C90308430749BA
:1079A000088200BF0548008A0121C9030840002859
:1079B000F8D010BD4060004040610040404F04409E
:1079C0001FB50520FEF78AFB0220FEF75BFA03A92C
:1079D0001E480122134600920291019000220E21BE
:1079E0000520FEF7F1FA00BF194880880028FBD176
:1079F000684680891749884202DD002004B010BD26
:107A0000684680891449884201DD0520F6E768460A
:107A100080891149AC39884201DD0420EEE76846CF
:107A200080890E49884201DD0320E7E768468089A6
:107A30000B49884201DD0220E0E768468089094958
:107A4000884201DD0120D9E70020D7E70E5004402D
:107A500000010020AC0E0000110D0000540B0000CE
:107A600054090000FF03000010B59F480078022170
:107A7000084000280AD09D480078012803D1002042
:107A80009A49087002E001209849087098480078E7
:107A900002210840002810D096480078042807DA10
:107AA00094480078401C93490870FEF78FFF04E06B
:107AB000002090490870FEF789FF8F480078022166
:107AC0000840002810D08B480078002807DD89483E
:107AD0000078401E87490870FEF778FF04E0042014
:107AE00084490870FEF772FF7F4800784021084003
:107AF000002804D003F02CFA80A0FDF71DFC7A4882
:107B00000078DD2108407849087080480078DD2140
:107B100008407E4908707E480078DD2108407C4995
:107B2000087073480078DD21084071490870724878
:107B30000078DD210840704908706B480078B32157
:107B400008406949087071480078B32108406F49BE
:107B500008706F480078B32108406D490870644888
:107B60000078B32108406249087063480078B32167
:107B700008406149087067480078C007C00F0028B6
:107B800010D064480068644908406249086057485A
:107B90000078012803D100205449087002E0012038
:107BA000524908705B48006802210840002817D03D
:107BB000584800685849491E0840564908604D48D1
:107BC0000078042807DA4B480078401C49490870BF
:107BD000FEF7FCFE04E0002046490870FEF7F6FEC2
:107BE0004C48006804210840002806D04948006835
:107BF0004949C91E084047490860464800680821AD
:107C00000840002806D0434800684349C91F08407F
:107C1000404908603F48006810210840002806D00D
:107C20003C4800683C490F3908403A4908603948E7
:107C3000006820210840002806D0364800683649F0
:107C40001F39084033490860324800684021084025
:107C5000002806D02F4800682F493F3908402D4999
:107C600008602C48006880210840002806D0294878
:107C7000006829497F39084026490860254800687E
:107C8000FF2101310840002806D02248006822491F
:107C9000FF3908401F4908601E4800680121490259
:107CA0000840002805D01B4800681C4908401949B5
:107CB000086018480068012189020840002805D0A2
:107CC00014480068164908401249086011480068C5
:107CD0000121C9020840002805D00E48006811495A
:107CE00008400C49086010BDCC0900203502002076
:107CF000F0090020080A0020FC0900207265736565
:107D00007420776966690D0A00000000D809002018
:107D1000E409002098020020FEFF0000FFFD0000A3
:107D2000FFFB0000FFF700003EB5FFF749FE0446E9
:107D3000002032220190022300920290012221466B
:107D4000174800F037F800203222019002230092F9
:107D500002901A462146134800F02CF800203222E7
:107D60000190022300920290032221460E4800F067
:107D700021F8002032220190022300920290042276
:107D800021460A4800F016F8002032220190022312
:107D90000092029005222146054800F00BF83EBDF6
:107DA000CC090020D8090020E4090020F0090020B7
:107DB000FC090020FFB50C46099D00210023504F0F
:107DC0004668BE4202D24668761C46604668AE42AD
:107DD00017D30A9E002E08D047680A9EAE19B742F4
:107DE00003D96E1C4660042631434668AE4201D179
:107DF00044263143944213D00C263143002646607A
:107E00000EE04768039EB74206D9944208D0022686
:107E100031430026466003E0944201D000264660CC
:107E2000944201D1012631430B9E002E54D00226EC
:107E30000E40002E03D0FD26314010263143067837
:107E400010273E40002E34D02D4F8668BE4202D20D
:107E50008668761C866087680B9EB7421BD9102601
:107E60000E40002E08D0EF26314020263143067800
:107E7000EF273E40067007E002263143EF263140EF
:107E80000678EF273E400670002686600678EF27CA
:107E90003E4006700DE010260E40002E09D0202630
:107EA0003143EF2631400678EF273E40067000262A
:107EB000866006783E273E4033460678F607360E43
:107EC000067006781E4306700678BE273E40067090
:107ED00006780E43067011E006780E273E403346C2
:107EE0000678F607360E067006781E43067006788A
:107EF0008E273E40067006780E430670FFBD0000D8
:107F0000FFFF000070B502F07BF90546022D0ED090
:107F100004DC002D07D0012D0FD106E0032D08D081
:107F2000FF2D0AD107E0022408E0052406E00F2413
:107F300004E03C2402E0642400E000BF00BF5A2CAF
:107F400008DD00BF10210E48017300BF00200D495D
:107F5000087013E00B480078401CC0B20949087053
:107F6000A0420BDD0020087000BF05487038007B80
:107F70001021484002497039087300BF70BD0000ED
:107F8000700004408E02002010B50E4800780128D1
:107F900007D10C480179C17000BF08210A48017758
:107FA00008E000210748C17000BF08210648703072
:107FB000017300BF0A220349C91C481EFFF773F86A
:107FC00010BD00003502002000000440FEB5174837
:107FD0008088002827D10025154E00240FE060007E
:107FE0001449085AA84201DD60000D5A6000114989
:107FF000085AB04201DA60000E5A601CC4B2C82CA4
:10800000EDDB0C4800880190A81B80B20090A819F5
:1080100087B23846F90F09184F10074805800098B5
:10802000FEF7A0FBFEBD00BFFCE700000001002042
:10803000FFFF0000F60400208C02002070B5184CF1
:1080400064786406240E174D2C72FF246C81012481
:108050002C732C46247A6D896D1C6C43114D2C6158
:108060002C1F61680E4B403B002214E0002005E00D
:108070001C780C70491C5B1C441CA0B20428F7DB64
:10808000002004E000240C70491C441CA0B2042809
:10809000F8DB541CA2B2024C64789442E6DC70BD5A
:1080A000700E00200C0E002070B5154C6478154D34
:1080B0002C72154C6478641C25022C1B114D6C81AC
:1080C00001242C732C46247A6D896D1C6C430D4D54
:1080D0002C612C1F63680A4A403A00200BE0002103
:1080E00005E014781C705B1C521C4C1CA1B20429C6
:1080F000F7DB441CA0B2034C247A8442EFDC70BD51
:10810000700E00200C0E0020080A002070B5134CE1
:108110006478134D2C72FF24F5346C8101242C7388
:108120002C46247A6D896D1C6C430D4D2C612C1FDF
:1081300063680A4A403A00200BE0002105E0147809
:108140001C705B1C521C4C1CA1B20429F7DB441CA4
:10815000A0B2034C247A8442EFDC70BD700E002084
:108160000C0E002070B5154C6478154D2C722C4601
:10817000247A25022C1B124D6C8101242C732C4671
:10818000247A6D896D1C6C430D4D2C612C1F636826
:108190000A4A403A00200BE0002105E014781C70E8
:1081A0005B1C521C4C1CA1B20429F7DB441CA0B27E
:1081B000034C247A8442EFDC70BD0000700E002076
:1081C0000C0E002070B51C4C64781C4D2C72FF24E2
:1081D0006C8101242C732C46247A6D896D1C6C43B0
:1081E000164D2C612C1F6368134A403A00200BE0A7
:1081F000002105E014781C705B1C521C4C1CA1B2C1
:108200000429F7DB441CA0B20C4C247A8442EFDC36
:10821000002006E00C244443094D6419E070441C1E
:10822000A0B2074CA41E24788442F3DC044CA41EA4
:108230002478044D6C7070BD700E00200C0E002070
:10824000BA060020080A002070B5234C6478640048
:10825000641E224D2C72FF246C8101242C732C4649
:10826000247A6D896D1C6C431C4D2C612C1F636836
:108270001948403800210BE0002205E004781C700A
:108280005B1C401C541CA2B2042AF7DB4C1CA1B29C
:10829000114C64788C42EFDC0F4C6478012C1ADDB1
:1082A0000D4840380C4C6478A41EA400001900212D
:1082B0000CE0002205E004781C705B1C401C541C80
:1082C000A2B2042AF7DB08384C1CA1B2024C647835
:1082D000641E8C42EDDC70BD700E00200C0E002080
:1082E000FEB54E4840784E49087200204881012072
:1082F000087308614873081F40680190474F403F6A
:1083000000240EE0002608E03978019801700198F9
:10831000401C01907F1C701C86B2042EF4DB601C94
:1083200084B23F48007AA042ECDC002406E00C2036
:1083300060433C494018C470601C84B23948801EB8
:108340000078A042F3DC3748801E00783649487038
:108350003348007A012828D1002421E03048001F4A
:108360004068017816206043304A11542C48001FA1
:108370004068417816206043801881702848001FAB
:108380004068817816206043801801712448001FDE
:108390004068C1781620604380188171601C84B2E7
:1083A00021484078A042D9DC37E0002431E000F0D9
:1083B0000BFC00901A48017A0098FDF7B6F9CDB28F
:1083C0001748001F4068A900415C16206043174A07
:1083D00011541348001F4068A90040184178162026
:1083E0006043801881700E48001F4068A900401843
:1083F000817816206043801801710948001F406889
:10840000A9004018C1781620604380188171601C53
:1084100084B205484078A042C9DCFEBD700E002041
:108420000C0E0020BA060020080A00206C0800206C
:1084300070B5134C6478134D2C72FF246C810124A9
:108440002C732C46247A6D896D1C6C430D4D2C6168
:108450002C1F63680A4A403A00200BE0002105E027
:1084600014781C705B1C521C4C1CA1B20429F7DB55
:10847000441CA0B2034C247A8442EFDC70BD00009F
:10848000700E00200C0E00201FB504460948009015
:10849000094840690190029407484069054940181D
:1084A0000019039010236A4600210448FEF717FACA
:1084B0001FBD0000674523A1800850000004500044
:1084C00070B50C4615460123A340D9B22A462B00AD
:1084D00001F092FA070527435F65788CAA00534B99
:1084E0001B5C8B43514E3354504B403B1B5C0B4346
:1084F0004E4E403E33544D4B103B1B5C8B434B4E1A
:10850000103E3354494B303B1B5C8B43474E303E4F
:108510003354464B203B1B5C8B43444E203E33542C
:1085200082E0424B1B5C8B43404E33543F4B403BFD
:108530001E5C0E431E543D4B103B1E5C8E431E546E
:108540003A4B303B1B5C0B43384E303E3354374B79
:10855000203B1E5C8E431E5466E0344B1B5C8B43F9
:10856000324E3354314B403B1E5C0E431E542F4B56
:10857000103B1B5C8B432D4E103E33542B4B303B3A
:108580001E5C8E431E54294B203B1E5C8E431E54A2
:108590004AE0264B1B5C0B43244E335444E0234BF0
:1085A0001E5C8E431E54214B403B1B5C8B431F4E75
:1085B000403E33541D4B103B1B5C8B431B4E103E07
:1085C000335431E0194B1B5C8B43184E3354174B1B
:1085D000403B1B5C8B43154E403E3354134B103BCA
:1085E0001B5C0B43114E103E33541DE00F4B1B5CC4
:1085F0008B430E4E33540D4B403B1E5C0E431E54BA
:108600000A4B103B1B5C8B43084E103E3354074B08
:10861000303B1E5C8E431E54044B203B1B5C0B43C3
:10862000024E203E335400BF00BF70BD60000440C6
:10863000F0B597B0054615A9284600F06AFB05A9D4
:10864000284600F013FB01A9284600F047FB294605
:108650002BA0FCF771FE10A8017D2EA0FCF76CFE8C
:1086600010A8417D2FA0FCF767FE10A8817D31A0E6
:10867000FCF762FE10A8C17D31A0FCF75DFE10A8DA
:10868000017E32A0FCF758FE10A8417E32A0FCF714
:1086900053FE34A0FCF750FE002412E0A00005A910
:1086A0004018C0780090A00005AFC0198378A000E2
:1086B000C0194278A000395C2FA0FCF73DFE601C79
:1086C000C4B2102CEADB31A0FCF736FE00260024F1
:1086D0000FE001A8015D31A0FCF72EFE701CC0B2B6
:1086E0000646032803DD002609A0FCF725FE601CD2
:1086F000C4B2102CEDDB2BA0FCF71EFE17B0F0BDB2
:108700000D656666656374206E756D3A202564207C
:108710000D0000006272696768746E6573733A20B9
:1087200025640D00636F6C6F725F73756D3A202561
:10873000640D00006D6F74696F6E3A2025640D0042
:108740006D6F76653A2025640D0000004D6F6465FD
:108750003A2025640D00000073706565643A202599
:10876000640D00000D5B20636F6C6F72207461629A
:108770006C65205D0D0D00002532782025327820B3
:1087800025327820253278200D0000000D5B20690D
:1087900064207461626C65205D0D0D0025327820C7
:1087A000000000000D0D0D0D00000000F3B585B0B8
:1087B0000F46781E87B205213846FCF7B6FF002920
:1087C00001D007B0F0BD05213846FCF7AEFFC0B2BE
:1087D00004900498102800DDF3E7002638E0B0008C
:1087E000311805980C1800252BE022780C206843DE
:1087F0001A49085C824222D162780C2068434018F2
:108800000271A2780C20684340184271E2780C2073
:1088100068434018827122790C2068434018C27165
:108820002079E17800910190A37862780C20684368
:108830000A49085C0146039009A0FCF77DFD681C0D
:10884000C5B20648801E0078A842CEDC701CC6B2B5
:1088500004988642C3DB00BFB3E70000BA060020DD
:1088600049443A256420522025642047202564206D
:10887000422025642057202025640D0A00000000B6
:1088800070B504460D46681EC1B22046FDF762FB76
:10889000064660192038C07FB04253D12078A52801
:1088A00050D1A0782038030001F0A6F80C070A1276
:1088B000161E2A3034393D42454A00F0C5FE40E0DC
:1088C00029462046FDF73EFD1FA0FCF735FD38E0A8
:1088D000E07800F011FE00BF29462046FDF74CFC71
:1088E0001FA0FCF729FD00BFE078022807DAE07836
:1088F0002149087008460178822000F0D0FF20E06E
:10890000E81E81B2E01CFFF751FF1AE0E07800F0AA
:10891000F5FE16E029462046FDF758FD11E0E07807
:1089200000F074FF0DE029462046FDF7A7FD08E0A2
:1089300000F040FF05E029462046FDF781FD00E0FC
:1089400000BF00BF70BD0000446F776E6C6F616444
:108950005F4C69676874436F6F72640D00000000BC
:10896000446F776E6C6F61645F4566666563744DD6
:108970006573736167650D00410200201CB50446F4
:1089800060781E2837DC1C480078C007C00F00281C
:1089900031D16078FDF707FB69468871A078FDF753
:1089A00002FB014668464171E078FDF7FCFA01469A
:1089B0006846C1702079FDF7F6FA01466846817075
:1089C0006079FDF7F0FA014668464170A079FDF73D
:1089D000EAFA014668460170E079FDF7E4FA694673
:1089E0000871684600F082F80348006840084000BB
:1089F000401C014908601CBD2C0200201749897FDA
:108A000001221143154A917700BF1449897F022240
:108A100011400029F9D01149897C01700F49C97CA6
:108A200041700E49097D81700C49897DC1700B49E7
:108A3000497D01710949C97D41710849097E8171EA
:108A40000649897F49084900044A917700BF0349D4
:108A5000897F022211400029F9D17047404F04401C
:108A60001F490978802211431D4A1170002808D13E
:108A700000211C4A11771A49C97810229143184ADB
:108A8000D170012808D10121164A11771449C978FB
:108A900010221143124AD170022802D1A221114A98
:108AA0001177032802D182210E4A1177042802D1BE
:108AB000C2210C4A1177052802D10321094A1177F6
:108AC000062802D14321074A11770021064A51772F
:108AD0001146497F08221143034A5177704700002D
:108AE0002004024060040440404F04401449897F40
:108AF00001221143124A917700BF1149897F022256
:108B000011400029F9D001780D4A91744178D1744F
:108B100081781175C1789175017951754179D17557
:108B2000817911761146897F49084900917700BF04
:108B30000349897F022211400029F9D170470000C2
:108B4000404F044010B5002014490876162000F06C
:108B500085FF0021124801761248407F802108439A
:108B6000104948770846807F012108430D498877DE
:108B700000BF0C48807F022108400028F9D0094836
:108B8000807F400840000749887700BF0548807F04
:108B9000022108400028F9D110BD000040600040CB
:108BA00040610040404F04401CB506480078C007B3
:108BB000C00F002802D102F0C4F902E06846FFF7B6
:108BC0001DFF1CBD2C02002010B508480078084984
:108BD0000978401805490870FCF7DEFA034909785E
:108BE0004018024908700846007810BD5102002064
:108BF00052020020F3B581B0132800DDFEBD04460B
:108C0000C617760F3619F61076021D27FF02F519E2
:108C1000C617760F3619F610F600861BB605360C09
:108C20000096009EAA19029B002105E014781C7092
:108C3000521C5B1C4C1CA1B24029F7D300BFDDE7DE
:108C4000F0B50C46402800DBF0BD77267602C50063
:108C500072192346002105E017781F70521C5B1C17
:108C60004F1CB9B20829F7D300BFEDE7F8B50446A9
:108C70000D461E2C12DA40212846FCF748FD154807
:108C800000780C235843144BC018007982000C2044
:108C9000604319582846FCF7DDFC1AE03C2C18DA32
:108CA00020461E38C4B22046E117490F0918C910E2
:108CB00049023D2292028E18E117490F0918C91086
:108CC000C900611A89050F0CF11940222846FCF7EA
:108CD000C1FCF8BD080A002054BB0000F0B50C46EA
:108CE000202801DB3F2800DDF0BD0746203FF8B219
:108CF00079267602050172192346002105E01778CE
:108D00001F70521C5B1C4F1CB9B21029F7D300BF57
:108D1000EAE7F0B50C463F2800DDF0BD0F2636032C
:108D2000C50072192346002105E017781F70521CF8
:108D30005B1C4F1CB9B20829F7D300BFEDE7000058
:108D4000002804D000BF082204494A7405E000BF8F
:108D50000822024970314A7000BF70470000044089
:108D600010B5002201210846FFF7AAFB05220221C7
:108D70000120FFF7A5FB052203210120FFF7A0FB3F
:108D8000052204210120FFF79BFB012000F024FEB7
:108D90000020FFF7D5FF10BD002804D000BF04223B
:108DA00004494A7405E000BF0422024970314A7048
:108DB00000BF70470000044070B503460025002640
:108DC000FF2400BF1FE080201840C6095806030E8C
:108DD0006006040E0020FFF7B3FF3046FFF7DCFF0C
:108DE000012002F021FB0120FFF7AAFF012002F081
:108DF0001BFB0848407802210840002801D0601C75
:108E0000C4B2681CC5B2082DDDDB0020FFF798FF57
:108E1000204670BD0000044010B53C480078401C5E
:108E2000C0B23A49087032286EDB0020087038481A
:108E30000068401C36490860364800780121084324
:108E40003449087032480078C007C00F002805D1A7
:108E500008460078022108432E49087005212C4855
:108E60000068FCF758FC002905D12A480078042145
:108E7000084328490870072125480068FCF74BFC87
:108E8000002905D1234800780821084321490870AA
:108E900019211F480068FCF73EFC002905D11D4838
:108EA0000078102108431B490870322118480068D7
:108EB000FCF731FC002905D1164800782021084331
:108EC000144908707D2112480068FCF724FC002931
:108ED00005D110480078402108430E490870FA2156
:108EE0000B480068FCF717FC002905D109480078F9
:108EF00080210843074908700548006806498842F0
:108F000002D300200249086010BD0000A802002022
:108F1000A40200204A020020AC0D000000200149FC
:108F2000087070472C0200203EB500241CE0FFF7BB
:108F30004BFE05460C2060430E494018407A0C2138
:108F400061430C4A8918097A0295009101900C201E
:108F5000604311460B5CE322FF21AC20FDF7D8F8FB
:108F600000F0B2FF601CC4B20248801E0078A0422C
:108F7000DDDC3EBDBA06002002480068401E014903
:108F8000086070472802002000B5FCF79BFF0149EC
:108F9000086000BDD804002000B580201B4948713E
:108FA0001A201A49203908732B2048733C208873F3
:108FB0004D20C873002016494860FCF783FF15490F
:108FC00008600020C0431449086014490860144830
:108FD00014490860114903221202891848600F4998
:108FE000891888600D498918C8600C49891808617A
:108FF0000A49891848610949891888610749891807
:10900000C861AC200849487000BD0000200402403F
:1090100000B00140D804002080E200E000E100E060
:10902000C0C0C0C000E400E0001002400249498A0C
:109030000143014A51827047A01D04400249898AB8
:109040000143014A91827047A01D044010B5FEF70C
:10905000A5FBFFF7E1FE10BDF8B505460E466A46D2
:109060003146284600F0FEF90446002C1FD10320AB
:10907000104988800846C08800090001C880084659
:10908000C0886946097808430A49C880684640781C
:109090004006000C08490882684640784006000CEB
:1090A00048820448408803210843024948802046FA
:1090B000F8BD0000201104400013044070B50546BF
:1090C0000E463C480078042108433A4908700320C2
:1090D0003949C88022203849203908823748088316
:1090E00067204002364908823648007C0121084347
:1090F000344908740720304920394881FF20233043
:10910000488231484883672040022D4948822A48D6
:10911000008901210843284908810846808A2B4993
:109120000840254988820846408901210843224990
:10913000488100BF05202649087226484078012151
:1091400008432449487023482030407840084000B4
:109150002049203148701F484030407C4008400082
:109160001C49403148741B4860304078400840003A
:1091700018496031487000BF00BF0E2014496031AB
:1091800008721448203080780821084311492031A2
:109190008870104860308078082188430D4960311C
:1091A000887000BF31462846FFF756FF0446204628
:1091B00070BD000020040240201104409780000090
:1091C000001304406004044097400000FEFF0000CC
:1091D00000080440000004400449087400BF04492A
:1091E0000988602211400029F9D17047001304401A
:1091F00000110440F8B505460E466A463146284639
:1092000000F030F90446002C19D10C200D4988805B
:1092100068460078302108430A49C880684640788B
:109220004006000C08498880684640784006000CDB
:10923000C880044840880C210843024948802046E1
:10924000F8BD0000201104404013044070B50546ED
:109250000E464348007804210843414908704148BC
:1092600080880C2108433F49888001213E480175D0
:109270000176017700203D490875087608773C485B
:109280003849203988823A487530888367204002FF
:10929000384988803848007C0421084336490874DE
:1092A000072030492039C8813448C8823448C883EF
:1092B000672040022F49C8802A48008904210843BA
:1092C000284908810846808A2E4908402549888215
:1092D00008464089042108432249488100BF0A20EA
:1092E000294988702948007B0421084327490873CD
:1092F00026482030007B042188432449203108730C
:1093000022484030007F04218843204940310877BB
:109310001E486030007B042188431C49603108737B
:1093200000BF00BF0C2018492031C87317482030F7
:109330008078022108431549203188701348603035
:1093400080780221884311496031887000BF31461E
:109350002846FFF74FFF044600F05CF8204670BD3A
:1093600020040240201104402061004020600040A1
:109370002280000040130440600404402281000069
:1093800097400000FBFF000040080440000004403C
:1093900010B502460020002901D1812006E00023FB
:1093A000034C2380034B1980034B1A6010BD00004F
:1093B000BC030020BE030020B803002010B5024605
:1093C0000020002901D181201AE00E4B1A600E4BBB
:1093D000198001230D4C23700A4B1B681B780C4C21
:1093E0002371084B1B685B1C064C2360064B1B88D3
:1093F0005B1E054C238000BF044B1B78002BFBD168
:1094000010BD0000B0030020B4030020450200207E
:109410004013044010B510480089042108430E4948
:10942000088108464089042108430B4948810846C1
:1094300040880C21084308494880002007490875E6
:1094400008760D2000F0F2FA0E2000F0EFFA00216D
:1094500003480175017610BD2011044020600040D2
:1094600020610040F7B584B01646802003900024A8
:109470002BE06000174A115A0498FCF74CF9019050
:1094800002251EE0691C0198FCF745F9410802918C
:10949000114A0299514308460599FCF73CF90E49D7
:1094A000471A381E01DB014600E04142142906DA62
:1094B0003470757000200390039807B0F0BD681CED
:1094C000C5B2802DDEDB601CC4B2102CD1DB03984A
:1094D000F3E70000D2BC00001027000070B504467E
:1094E0000D46002605E02078641CFFF775FE701C11
:1094F000C6B2AE42F7DB70BDF0B5ADB00746002096
:10950000009001900290039014901590402104A8BF
:10951000FCF7FFF83F2F01DD2DB0F0BD14A9384650
:10952000FFF7F7FB04A93846FFF7A0FB694638466A
:10953000FFF7D4FB10A8407C0F2802DD002010A903
:10954000487410A8807C002806D110A8407C8100B7
:1095500040180A30C6B204E010A8407C80000A30EF
:10956000C6B216ACA5202070601C0446067081218E
:10957000601C04460170601C0446077010A8017C42
:10958000601C0446017010A8417C601C04460170F8
:1095900010A8817C601C0446017010A8C17C601C6E
:1095A0000446017010A8017D601C0446017010A8DB
:1095B000417D601C0446017000251CE0A80004A940
:1095C000095C601C04460170A80004A94018417899
:1095D000601C04460170A80004A940188178601C32
:1095E00004460170A80004A94018C178601C044614
:1095F0000170681CC5B210A8407CA842DEDC10A82F
:10960000807C00280CD1002506E06846415D601C86
:1096100004460170681CC5B210A8407CA842F4DC66
:10962000314616A8FCF796FC611C0C460870721CAB
:1096300016A9692001F08AFB701CC1B216A8FFF7B9
:109640004DFF00BF68E7000070B592B02A4800786F
:109650008000001DC6B26C46A5202070601C044628
:1096600006708021601C0446017023480178601C4C
:10967000044601702048007800282AD0002524E004
:109680000C2068431C49891C095C601C044601705D
:109690000C2068431849891C40184178601C044616
:1096A00001700C2068431449891C4018017A601C21
:1096B000044601700C2068430F49891C4018417A08
:1096C000601C04460170681CC5B20B480078A842B3
:1096D000D6DC31466846FCF73DFC611C0C46087040
:1096E000721C6946692001F031FB701CC1B26846EA
:1096F000FFF7F4FE12B070BDB8060020F0B5A3B0BD
:109700000746132F01DD23B0F0BD01A93846FFF74E
:1097100071FA6846C0793B2806DD3846FCF736FC0E
:1097200001A93846FFF766FA6846C0790830C5B225
:1097300011ACA5202070601C044605708321601CBC
:1097400004460170601C0446077068460179601C7D
:109750000446017068464179601C04460170684601
:109760008179601C044601706846C179601C04461A
:109770000170002606E002A8815D601C04460170AD
:10978000701CC6B26846C079B042F4DC294611A804
:10979000FCF7E0FB611C0C4608706A1C11A96920EB
:1097A00001F0D4FA681CC1B211A8FFF797FE00BF00
:1097B000A9E700000EB5A521684601700821417097
:1097C00085218170104801786846C1700E48417843
:1097D000684601710C488178684641710A48C17831
:1097E00068468171084801796846C1710821FCF713
:1097F000B1FB694608720922692001F0A7FA092124
:109800006846FFF76BFE0EBD3002002070B586B0D3
:109810000646402E01DB06B070BD01A93046FFF7B9
:109820000FFA0A2503ACA5202070601C04460570C1
:109830008421601C04460170601C04460670684662
:109840000179601C0446017068464179601C044639
:10985000017068468179601C044601706846C179D0
:10986000601C044601706846017A601C0446017061
:109870006846417A601C04460170294603A8FCF73B
:1098800069FB611C0C4608706A1C03A9692001F081
:109890005DFA691C03A8FFF721FE00BFBBE77CB59A
:1098A00004460D46A521684601700421417084706C
:1098B000C570FCF74FFB6946087105216846FFF744
:1098C0000DFE7CBD70B505460C463E480078012172
:1098D00008433C49087082203B49C8822846FFF76C
:1098E000ADFB012D06D0022D1CD0042D32D0082D49
:1098F00062D148E0002035490871112000F08AF853
:109900000120C003304920390882601E3049088395
:109910002D48408B400840002B49488300212D48AA
:1099200001714AE0002029490872122000F072F803
:109930000120C003244920394882601E24494883FD
:109940002148408B022188431F4948830021214838
:10995000017232E000201D490873132000F05AF80C
:109960000120C003184920398882601E18496031DF
:1099700088801548408B042188431349488300217F
:109980001448017319E0002010490874142000F0F5
:1099900041F80120C0030C492039C882601E0C49DF
:1099A0006031C8800848408B0821884306494883B5
:1099B00000210848017400E000BF00BF2846FFF7FF
:1099C00035FB70BD20040240A01D044040600040F3
:1099D000001F044040610040002804D000BF102256
:1099E00004494A7405E000BF1022024970314A70F0
:1099F00000BF70470000044030B47446641E2578F0
:109A0000641CAB4204D3635D5B00E31830BC1847B1
:109A10001D46F8E7002805DBC206D20E0121914061
:109A2000014A11607047000080E200E0002805DB79
:109A3000C206D20E01219140014A11607047000018
:109A400080E200E0002805DBC206D20E0121914031
:109A5000014A11607047000080E200E0002805DB49
:109A6000C206D20E01219140014A116070470000E8
:109A700080E200E010B5002819DB1A4A03231B021C
:109A8000D21883089B00D2588307DC0EFF23A34023
:109A90009A438B071B0E8407E40EA3401A43114B15
:109AA000032424021B198408A4001A5118E00E4A4A
:109AB00003071B0F083B9B089B00D2588307DC0E53
:109AC000FF23A3409A438B071B0E8407E40EA34099
:109AD0001A43054B0407240F083CA408A4001A519C
:109AE00010BD000000E100E01CED00E030380A2865
:109AF00001D201207047002070470000002803D0E9
:109B00000449054A116202E00121034A116200BFC3
:109B1000FEE70000AD0B00000080024010B50446D7
:109B2000E0B2FFF759FB10BD002004490875044856
:109B30000068401C02490860704700004060004017
:109B4000C004002010B505480178142001F09EF8EB
:109B5000024801796A2001F031F910BD3502002078
:109B600001460020087800024A78104300028A78F3
:109B700010430002CA7810437047000030B595B01A
:109B80000024502101A8FBF7C4FD002515480178E9
:109B90000078401C134A1070002900D10EE001210A
:109BA000204601F0E1FA044622460321362001F066
:109BB000F1FC00200B49087015B030BD00BF062134
:109BC000204601F0D1FA04462A4601A9204601F0B8
:109BD000B9FA044622460321362001F0DBFC00BF1F
:109BE000EAE7000030030020F0B587B0044600200B
:109BF00006909A49E01C085C0390039808285BD003
:109C000007DC0300FFF7F8FE0714171A1D2B882F37
:109C100088001C287ED006DC0A2850D00B287AD079
:109C20000E2879D1F1E02B2877D03628F9D101E13F
:109C300000F078FB0EE101F0EBF90BE100F0D8FA4F
:109C400008E1864BE21D995C1A46A31DD05C01F029
:109C5000AFFB00220321084601F09CFCFAE0012042
:109C60007F490870F6E07D49201D085C06020A461F
:109C7000611D515C0E430020049019E0A01D049961
:109C80004018801C7549085C0502A01D0499401805
:109C9000C01C7249085C45190919891D049A881865
:109CA00000F0E8F80746291D0498401880B2049097
:109CB0000498B042E2DBCDE0FFF744FFCAE00020A9
:109CC00005900598002804D1FF20013065490880DF
:109CD0000CE00598012803D140026249088005E0A4
:109CE0000598022802D140025E4908805B49A01D08
:109CF000085C5D4908600846006800020860574932
:109D0000E01D085C5849096808435749086008463F
:109D1000006803E073E020E09BE082E0000208605E
:109D20004E4920460830085C4F49096808434E49AF
:109D3000086008460068000208604849204609306B
:109D4000085C49490968084347490860002001F058
:109D50005DFB0A20454908707CE0444800780A28E9
:109D60004CD10120424908703C49201D085C060284
:109D70000A46611D515C0E431146A01D0D5C2D026B
:109D8000E01D085C05432D0220460830085C0543B1
:109D90002D0220460930085C0543084606902046FF
:109DA0000A30069908180690042E0DD12E48006836
:109DB000854209D100222946069801F03BF8074662
:109DC00000202A4908700FE0301F26490988884280
:109DD00006DC82B22946069801F02CF8074603E01B
:109DE0000020224908700027012F04D100220321FE
:109DF0000B2001F0CFFB00201D4908702AE0174915
:109E00000919881D01F0B0F824E01449A01D085C70
:109E10000290E01D085C01900199029801F024FB7A
:109E200018E00E4BE21D995C1A46A31DD05C01F0B0
:109E3000BFFA0FE00949201D085C06020A46611DB1
:109E4000515C0E4311460919881D314600F0BEFBD6
:109E500000E000BF00BF07B0F0BD0000780E00209A
:109E60004103002046030020480300204C0300204B
:109E700040030020FEB5044626786778A0780502E6
:109E8000E078401985B2304600F09AF901900198C7
:109E90004000074940184078B84201D00020FEBD7C
:109EA0002A46211D304600F05FF800900098F6E742
:109EB000BCBC00000349086000BF024909680029D2
:109EC000FBD1704728020020044800E000BF014693
:109ED000421E90B20029F9D170470000742700009B
:109EE00002468A4202DD501AC0B27047881AC0B2D8
:109EF000FBE70000F8B505460E463146284601F05E
:109F000019F804460548047121466A2000F056FFFE
:109F10000746012F00D1F8BD0020FCE735020020E4
:109F2000F8B504460D462946204601F003F80746D9
:109F300039466F2000F042FF0646012E00D1F8BDE1
:109F40000020FCE7F8B504460D462946204600F0FF
:109F5000F1FF074639466D2000F030FF0646012E1E
:109F600000D1F8BD0020FCE7F8B505460E461746BF
:109F700028466C2D33D00CDC69281ED004DC142854
:109F80000FD015284FD112E06A281CD06B284AD177
:109F90001FE06D380300FFF72FFD05282E343A40EF
:109FA00046003946304600F079F804463CE0394630
:109FB000304600F0C5F8044636E03946304600F039
:109FC000ADF8044630E039463046FFF793FF0446CB
:109FD0002AE03946304600F07DF8044624E0394650
:109FE000304600F048F804461EE039463046FFF798
:109FF000A9FF044618E03946304600F018F8044638
:10A0000012E039463046FFF78BFF04460CE0394634
:10A01000304600F071F8044606E03946304600F05C
:10A0200018F8044600E000BF00BF2046F8BDF8B5B0
:10A0300004460D462946204600F07CFF0746394677
:10A040006E2000F0BBFE0646012E00D1F8BD0020B8
:10A05000FCE7F8B504460D462946204600F06AFFA5
:10A0600007463946712000F0A9FE0646012E00D1B0
:10A07000F8BD0020FCE7F8B504460D462946204609
:10A0800000F052FF074639466C2000F0FFFD0646FF
:10A09000012E00D1F8BD0020FCE70000F8B506460F
:10A0A0000F463946304600F03FFF0546002D02D1ED
:10A0B0000749087002E0012005490870294614206C
:10A0C00000F0E4FD0446012C00D1F8BD0020FCE7BF
:10A0D00035020020F8B504460D462946204600F01A
:10A0E00023FF074639466B2000F0D0FD0646012EBF
:10A0F00000D1F8BD0020FCE7F8B504460D4629461E
:10A10000204600F017FF07463946702000F056FE43
:10A110000646012E00D1F8BD0020FCE770B50446CC
:10A120000D4629462046FEF7ABFB2A46214669200C
:10A1300000F00CFE0646012E00D170BD0020FCE7A9
:10A14000F8B506460F463946304600F0F0FE0546A3
:10A15000002D06D0012D05D0022D04D0032D04D1F1
:10A1600002E003E002E001E000E000BF00BF29469A
:10A17000152000F0BFFD0446012C00D1F8BD0020E1
:10A18000FCE701460020C043704770B504460D4609
:10A19000E0B2FFF721F80A2C02D10D20FFF71CF8DE
:10A1A000204670BD30B502460020002305E015783A
:10A1B000521C2C18E0B25C1CA3B28B42F7DB30BD02
:10A1C00070B5054600F012F80646002407E060006E
:10A1D0000549085CA84200D103E0601CC4B2B44247
:10A1E000F5DB00BF204670BDBCBC00000B207047F3
:10A1F00010B5002422460321022001F0CBF910BD46
:10A2000001480078704700004203002086B00446F1
:10A210000D4626686768A0680590E068049020698C
:10A22000039060690290A0690190E069009014A019
:10A23000FBF782F8314618A0FBF77EF8394619A0E3
:10A24000FBF77AF81AA00599FBF776F81BA004999A
:10A25000FBF772F81CA00399FBF76EF81DA002999A
:10A26000FBF76AF820A00199FBF766F823A0009994
:10A27000FBF762F8294626A0FBF75EF800BFFEE771
:10A280005B48617264206661756C742068616E64FD
:10A290006C65725D0D0A00005230203D2025780D5E
:10A2A0000A0000005231203D2025780D0A000000F0
:10A2B0005232203D2025780D0A0000005233203D07
:10A2C0002025780D0A000000523132203D202578EB
:10A2D0000D0A0000537461636B6564204C52203D8D
:10A2E0002025780D0A000000537461636B656420BB
:10A2F0005043203D2025780D0A000000537461630F
:10A300006B656420505352203D2025780D0A0000D3
:10A3100043757272656E74204C52203D2025780D75
:10A320000A00000010B500240B480078002808D16E
:10A330000021204600F018FF04460120064908705D
:10A3400004E00121204600F00FFF044622460321CD
:10A35000002001F01FF910BD44030020FFB581B0BB
:10A3600006460F460024002500BF2AE020011749B9
:10A37000085CB04223D1002519E02001134A80185F
:10A38000C0682A018158384600F01DFE00280CD113
:10A3900020010E494018C0682901401881790398AE
:10A3A000814202D1012005B0F0BD681CC5B2200178
:10A3B00006494018407AA842DFDC0020F3E7601C21
:10A3C000C4B2002CD2D00020EDE700002003002012
:10A3D000F3B589B006460020089000250690059048
:10A3E00000270024029003900125E9E0705D0790AA
:10A3F000681C305C0690A81C311805A8069A00F06D
:10A40000BCFDA81C06994018305C0490E81C069915
:10A410004018305C0002291D069A8918715C0843B7
:10A4200007467019401D0699441804980300FFF769
:10A43000E3FA07050E1A26718699AB0020780028EA
:10A4400001D0012000E00020694608729DE02078DC
:10A450000006617809040843A17809020843E178FD
:10A460000843029091E020780006617809040843CF
:10A47000A17809020843E1780843029085E020783A
:10A4800000210391029002990A0E039800021043E2
:10A490000A0261780A430292039002990A0E039815
:10A4A000000210430A02A1780A4302920390029923
:10A4B0000A0E0398000210430A02E1780A4302924E
:10A4C000039002990A0E0398000210430A022179B0
:10A4D0000A430292039002990A0E03980002104365
:10A4E0000A0261790A430292039002990A0E0398C4
:10A4F000000210430A02A1790A43029203900299D2
:10A500000A0E0398000210430A02E1790A430292FC
:10A5100003903AE0A1780902E2781143084600F07E
:10A5200017FA019021780902627811430846FBF777
:10A5300077FA0090019901F05BF9029025E0781C10
:10A54000FAF7A2FE02900298002800D11DE0791CC3
:10A550000298FBF7DCF8791C8AB22146029800F0D9
:10A560000CFD12E03846FAF78FFE029002980028A0
:10A5700000D10AE039460298FBF7C9F83A4621466D
:10A58000029800F0FAFC00E000BF00BF02A83B46C2
:10A59000009005A9049A0798FFF7E0FE0890049838
:10A5A000052802D10298FAF7A0FE0498062802D1E5
:10A5B0000298FAF79AFE0698401DC019401985B214
:10A5C0000A98854200DA11E70BB0F0BD70B5044679
:10A5D0000D4620780300FFF70FFA071405060C1448
:10A5E0000711140000BF00BF2946204600F00CF8F8
:10A5F00008E029462046FFF7EBFE03E0FFF7BEFA2E
:10A6000000E000BF00BF70BDF3B581B00546002675
:10A6100000242878012804D0022839D005287CD1CC
:10A62000E7E000260221304600F09EFD0646B048D5
:10A6300000780001AF4A115C304600F095FD0646F7
:10A64000AB4909780901AB4A8918486800F0D1FC88
:10A65000C7B23946304600F087FD0646A44909785E
:10A660000901A44A8918486800F0C3FC87B2A048D1
:10A67000007800019F4A80183A464168304600F051
:10A6800061FD064632460321362000F083FF2CE1AF
:10A69000687800287ED16878002801D1012000E088
:10A6A0000020934909780901924A89180872002606
:10A6B0000521304600F058FD06468D48007800011F
:10A6C0008C4A115C304600F04FFD0646002438E00D
:10A6D00087480078000187494018C0682101401868
:10A6E0000079012800D12AE0814909780901814ACD
:10A6F0008918C9682201885800F07BFCC7B2394626
:10A70000304600F031FD0646794909780901794A59
:10A710008918C9682201885800E0E5E000F069FC6A
:10A7200087B2734800780001724A8018C06822011D
:10A7300081583A46304600F005FD064600BF601CD1
:10A7400084B26B48007800016A494018407AA04200
:10A75000BEDC022E47D166480078401C6449087070
:10A7600008460078002838D100260221304600F043
:10A77000FBFC06465E48007800015E4A115C3046EC
:10A7800000F0F2FC06465A4909780901594A89182D
:10A79000486800E02CE000F02CFCC7B23946304697
:10A7A00000F0E2FC0646524909780901514A89182D
:10A7B000486800F01EFC87B24D48007800014D4A01
:10A7C00080183A464168304600F0BCFC06463246E6
:10A7D0000321362000F0DEFE0AE0FFF7CFF900206B
:10A7E0004349087004E032460321362000F0D2FECF
:10A7F0007BE06878002876D10027002422E03C48DE
:10A80000007800013B494018C068210140180079D8
:10A81000012800D114E0781CC7B20298801EB8420B
:10A8200003DA002032490870FEBD0121304800786B
:10A830000001304A8018C06822018018417100BFB1
:10A84000601C84B22A48007800012A494018407AE6
:10A85000A042D4DC26480078401C254908700846F0
:10A860000078002839D100260221304600F07CFC17
:10A8700006461F48007800011E4A115C304600F071
:10A8800073FC06461A49097809011A4A891848686A
:10A8900000F0AFFBC0B201460090304600F064FC0F
:10A8A0000646134909780901124A8918486800F0D8
:10A8B000A0FB80B200900E48007800010D4A80187D
:10A8C00041683046009A00F03DFC064632460321BE
:10A8D000362000F05FFE05E005E0FFF74FF90020AD
:10A8E0000349087000BF00E000BF00BF00BF9BE746
:10A8F00031030020200300207047000010B5012024
:10A9000002490870FCF7F6FB10BD0000750400203A
:10A9100010B5012002490870FCF7ECFB10BD0000E7
:10A92000740400207047000010B50120024908702F
:10A93000FCF728FC10BD00007704002010B50120B2
:10A9400002490870FCF71EFC10BD000076040020D0
:10A95000F8B505460A2401E00A204443214628466A
:10A96000FAF7D9FE0028F7D12046FBF761F8064632
:10A970002846FBF75DF807463146FAF77DFFF8BD3C
:10A9800002480068401C014908607047D404002058
:10A9900010B5002002490877FFF7F2FF10BD000054
:10A9A000406000400EB572B60520000396498860ED
:10A9B000BFF35F8F62B6FBF705FAFCF71DFBFEF7EE
:10A9C000E3FA7D21C90091480068FAF7A4FE064623
:10A9D0003446601E8E49884200D90CE0601E8D49C5
:10A9E00048610321081FFFF745F800208949886165
:10A9F0000720086100BFFEF7C7FA4B218902834890
:10AA00000068FEF75BFB05464B2189027F48006822
:10AA1000FEF71CFC01218048FEF7BAFC802D01D115
:10AA200000BFFEE77DA0FAF787FC00218148017393
:10AA3000002081490870814908708149087000BF71
:10AA400010218048017300BF00BF0821017300BFBF
:10AA500000BF02217B487038017700BF012102202E
:10AA6000FCF748FFFCF78CFF01217248203001778A
:10AA700003210120FBF7ECF90D210220FBF7D8F9A7
:10AA80000020FBF7FFF970497048C82201230092AB
:10AA90000291019000220E210520FBF795FA052175
:10AAA0000120FEF70FFF00216248203001710220D3
:10AAB000FDF7D6FFFEF746F800F0BCFCFEF72EFAD5
:10AAC000072063490870002062490870012062492C
:10AAD0000870002061490870FF215F488170017192
