:020000040000FA
:1050000048190020F5510000FD51000069510000D1
:105010000000000000000000000000000000000090
:105020000000000000000000000000000752000027
:1050300000000000000000000B520000997D0000FD
:105040000F520000115200001352000015520000D0
:1050500017520000195200001B5200008D6500001D
:105060001167000021520000F58A0000A98A0000A3
:1050700027520000F58B0000698B00002D520000C4
:105080002F52000095680000E968000039690000AF
:105090008969000055850000558A00005587000089
:1050A0003F5200004152000043520000D969000005
:1050B000296A0000796A0000C96A0000258E000094
:1050C000EFFFEAFF00F002F800F03FF80CA030C854
:1050D000083824182D18A246671EAB4654465D4674
:1050E000AC4201D100F031F87E460F3E0FCCB646FF
:1050F0000126334200D0FB1AA246AB463343184781
:105100001442000034420000002300240025002641
:10511000103A01D378C1FBD8520700D330C100D573
:105120000B60704710B5642902D100F0D9F810BDAA
:10513000782902D100F00AF910BD002010BD1FB57A
:1051400000F0E2F91FBD10B510BD00F093FB114651
:10515000FFF7F5FF03F008FB00F0ABFB03B4FFF72C
:10516000F2FF03BC03F0E6F904207146084202D0C6
:10517000EFF3098001E0EFF308807146004A104721
:10518000D585000030B40C490C684A682368106863
:10519000C0181060241D121D8C4207D28A4208D20A
:1051A0000C604A6030BC4000400870470C00DC3C9A
:1051B000F6E70A00DC3AF3E7DC10002070B505469C
:1051C0000C46164602E00FCC0FC5103E102EFAD248
:1051D000082E02D303CC03C5083E042E07D301CC0E
:1051E00001C5361F03E021782970641C6D1C761EF2
:1051F000F9D270BD1948804719480047FEE7FEE71D
:10520000FEE7FEE7FEE7FEE7FEE7FEE7FEE7FEE776
:10521000FEE7FEE7FEE7FEE7FEE7FEE7FEE7FEE766
:10522000FEE7FEE7FEE7FEE7FEE7FEE7FEE7FEE756
:10523000FEE7FEE7FEE7FEE7FEE7FEE7FEE7FEE746
:10524000FEE7FEE7FEE7FEE7FEE7FEE7FEE700001B
:1052500004480549054A064B70470000B97D000027
:10526000C5500000481100204819002048120020B5
:10527000481200200FB4054910B503AA029800F0A7
:10528000CDFA10BC08BC04B018470000D8020020BA
:1052900070B5044685690068C10601D5302600E076
:1052A0002026C00707D070BD62683046A1689047CD
:1052B000206A401C20626D1EF6D570BD70B5044694
:1052C00085690078C00707D170BD6268A168202099
:1052D0009047206A401C20626D1EF6D570BD00000C
:1052E000F7B5002575291068009914A611D0C0469D
:1052F000C046002802DA404211A608E00099096879
:105300008A0701D50FA602E0490704D50EA601259C
:1053100001E0C046C046009F0024243704E000F0AE
:1053200091FA30313955641C0028F8D12B463246A9
:105330002146009800F001FAFEBD000000000000C8
:105340002D0000002B0000002000000070B5044676
:105350000D4621461068C046C0462188090502D581
:105360000F4A7A4402E00E4A7A440E322346002164
:10537000243305E006070009360F965D5E54491C8C
:105380000028F7D120780023000705D5702D03D021
:10539000002901D002231132204600F0CEF970BD61
:1053A000723F0000F3B50446002081B02062204621
:1053B000E168884700287DD0252802D06268A1686E
:1053C00083E0454F00257F442046E1688847202838
:1053D000064608DB312E06D2B8192038007800289E
:1053E00001D00543F0E7A80701D50420854300203C
:1053F000E0610746A0612A2E0AD0304603F092F8F9
:10540000002827D0B8000019303E0090866119E0CE
:105410000298BA00121902C8916102902046E16810
:105420008847012F064617D1E06900281FDA20209F
:1054300085431CE000980A2180694843009980193F
:10544000303888612046E1688847064603F06AF8EC
:105450000028EFD1012F0AD02E2E08D12046E16876
:1054600088470646202005437F1C022FC3DBA06926
:10547000002803DA4042A06101200543E80701D07B
:1054800010208543002E24D030464138192803D8F7
:105490000120C00205432036204625603146029A8D
:1054A0001546FFF73FFE00280CD0012807D0ED1D60
:1054B000E80800E00DE0C0000830029077E72D1DFD
:1054C000029574E762683046A1689047206A401CE4
:1054D0006CE7206AFEBD0000363F00000B4A30B585
:1054E00011460B4C60310B46DC3B0CC1372106E00A
:1054F000020C8D0012185A51064A504300190A46F0
:10550000491E002AF4DC30BD0120E7E77C100020B2
:10551000E119D666CD0D0100F8B5042A2CD3830716
:1055200012D00B78491C0370401C521E83070BD00D
:105530000B78491C0370401C521E830704D00B7863
:10554000491C0370401C521E8B079B0F05D0C91AC3
:10555000DF002023DE1B08C90AE0FFF72FFEF8BD9D
:105560001D4608C9FD401C46B4402C4310C0121F04
:10557000042AF5D2F308C91A521EF0D40B78491C3C
:105580000370401C521EEAD40B78491C0370401C67
:10559000012AE4D409780170F8BD01E004C0091FB4
:1055A0000429FBD28B0701D50280801CC90700D0DB
:1055B0000270704700290BD0C30702D00270401C54
:1055C000491E022904D3830702D50280801C891E4C
:1055D000E3E70022EEE70022DFE7002203098B4227
:1055E0002CD3030A8B4211D300239C464EE0034682
:1055F0000B433CD4002243088B4231D303098B4236
:105600001CD3030A8B4201D394463FE0C3098B426B
:1056100001D3CB01C01A524183098B4201D38B01C4
:10562000C01A524143098B4201D34B01C01A524167
:1056300003098B4201D30B01C01A5241C3088B42AC
:1056400001D3CB00C01A524183088B4201D38B0097
:10565000C01A524143088B4201D34B00C01A524139
:10566000411A00D201465241104670475DE0CA0F10
:1056700000D04942031000D34042534000229C46D0
:1056800003098B422DD3030A8B4212D3FC228901DA
:1056900012BA030A8B420CD3890192118B4208D3B0
:1056A000890192118B4204D389013AD0921100E012
:1056B0008909C3098B4201D3CB01C01A5241830926
:1056C0008B4201D38B01C01A524143098B4201D353
:1056D0004B01C01A524103098B4201D30B01C01A7E
:1056E0005241C3088B4201D3CB00C01A52418308F8
:1056F0008B4201D38B00C01A5241D9D243088B424E
:1057000001D34B00C01A5241411A00D201466346F0
:1057100052415B10104601D34042002B00D5494254
:10572000704763465B1000D3404201B50020C0467D
:10573000C04602BD704770477047FFB504460D462E
:1057400081B0243000902168880604D51022E069D9
:105750009143216000E00120A84201DD471B00E0E9
:1057600000270498A1697A191018081AA0612078F6
:10577000C00602D42046FFF78BFD002608E0039800
:105780006268A168805D9047206A401C761C206298
:1057900004988642F3DB2078C0060AD52046FFF73E
:1057A00077FD06E06268A16830209047206A401CBF
:1057B000206238467F1E0028F4DC07E0009862680B
:1057C000A168405D9047206A401C206228466D1EFB
:1057D0000028F3DC2046FFF771FD2078000602D593
:1057E000022005B0F0BD0120FBE7000001694A1C62
:1057F00002610878704700B58FB0029100210591D1
:105800000549019379440391114604906846FFF7D6
:10581000C9FD0FB000BD0000E5FFFFFF084B70B5EC
:105820000D467B44FFF7E7FF0446284602F0B3FE2F
:10583000002802D00020C04370BD204670BD00008B
:10584000792D000001468008081A02091018020A82
:105850001018020C1018C008820012185200891A81
:1058600001E0401C0A390A29FBD270470048704702
:10587000E41000207546FFF7F9FFAE4605006946C3
:105880005346C008C000854618B020B5FFF7E0FCBD
:1058900060BC00274908B6460026C0C5C0C5C0C5C3
:1058A000C0C5C0C5C0C5C0C5C0C5403D49008D46C6
:1058B000704710B50446C046C0462046FFF74EFC70
:1058C00010BD70B58C180578401C6B075B0F01D1BB
:1058D0000378401C2A1106D10278401C03E00678A8
:1058E000401C0E70491C5B1EF9D12B0705D4002308
:1058F000521E0DD40B70491CFAE70378401CCB1ADA
:10590000921C03E01D780D70491C5B1C521EF9D5DA
:10591000A142D8D3002070BD10B5012115480175F2
:1059200015480078202108431349087000201349C6
:10593000087013490875152002F0A0FD10200F49CA
:105940000870002088700846807888700846807843
:105950000821084309498870002008718871FF20D8
:10596000C872002088720846007801210843034964
:10597000087010BD40610040200402400050044007
:1059800040600040064A127838239A43044B1A704C
:105990001A461278C3001A43014B1A707047000070
:1059A000005004400B4A127852085200094B1A70FA
:1059B000002803D180220A439A7103E0C0220A43DF
:1059C000044B9A71034A127801231A43014B1A704F
:1059D000704700000050044010B504460B480472A4
:1059E00000200B490875152002F048FD00210948E8
:1059F0000175064880798011032805D00348007896
:105A0000802108430149087010BD00000050044087
:105A1000406000404061004000B5C0229178F8220B
:105A20001140144A1278114313480A46E03A130011
:105A300002F0FEFC0E0A0E12161A1E1E1E080C1094
:105A400014181C1E0D4813E00D4811E00D480FE01E
:105A50000D480DE00D480BE00D4809E00D4807E04A
:105A60000D4805E00D4803E00D4801E00D4800BF7A
:105A700000BF00BD201C024040420F000090D00338
:105A8000006CDC020048E80100366E010024F400DE
:105A9000001BB70000127A00808D5B0000093D00FA
:105AA000C0C62D0080841E00FFB583B00D9A120F72
:105AB000120701239B079A4202D10022009201E0C3
:105AC000012200920E9A120F120701239B079A429D
:105AD00001D1002400E00124009A002A01D1012212
:105AE00000E000222240002A02D0002201920DE0B4
:105AF000002C01D1012200E00022009B1A40002A64
:105B000002D00122019201E00022019201225207FB
:105B100082181170069A92012032E3001A43009B0A
:105B20009B001A43019B5B001A43059B1A43204BC1
:105B30000D015A5301231E4A0D01521953801C4B6B
:105B40000D015B190C9A9A80194B0D015B190C9A87
:105B5000DA80174A0D0152190D9B9360144A0D010A
:105B600052190E9BD360134A927E08231A43114B9D
:105B70009A769A04104B9A601A4602920246C5170A
:105B80006D0FAD18EE10029DAD5D0346C617760F82
:105B9000F618F610F600871B0126BE403543C617DF
:105BA000760FB618F710029EF55507B0F0BD00004D
:105BB00020000020000802400050004070B50B4B50
:105BC0000146C417640F6418E4101C5D0246C51733
:105BD0006D0FAD18ED10ED00461B0125B540AC432F
:105BE000C5176D0F6D18ED105C5570BD005000406D
:105BF00070470000F8B50446002500260027294814
:105C0000008884420EDD28480078002803D125480A
:105C10000088264908800120234908700020244973
:105C2000087006E01F480088844202DA01202049FB
:105C300008701D480078002808D01E480078FF280A
:105C400004DA1C480078401C1A490870184800788B
:105C500000281CD00020164908701348007800283E
:105C600015D00020104908700E4800880F49098897
:105C7000401A85B20F4800780F490870084601782D
:105C80002846FFF7B4FC86B200200A490870C82DE8
:105C900000DA0025FF2D00DDFF2502480480E8B270
:105CA000F8BD0000AA020020AF020020AC020020D4
:105CB000B0020020AE020020B1020020F0B58DB08D
:105CC000F1A0FFF7D7FA00F0D1FA00F043FBEF485C
:105CD00004780178EEA0FFF7CDFAEF484079EF495C
:105CE0004873EA48001D091F486000200A90FF2001
:105CF000099000200890FF200790074606460020E4
:105D000003900490002458E00C206043E4494018BC
:105D1000007AB04203D00498401CC0B204900C201A
:105D20006043DF494018407AB84203D00398401CD2
:105D3000C0B203900C206043D9494018017A0A98F8
:105D4000814205DD0C206043D5494018007A0A9055
:105D50000C206043D2494018417A0898814205DD01
:105D60000C206043CE494018407A08900C206043D4
:105D7000CB494018017A0998814205DA0C2060432A
:105D8000C7494018007A09900C206043C449401864
:105D9000417A0798814205DA0C206043C0494018D7
:105DA000407A07900C206043BD494018067A0C20C9
:105DB00060434018477A601C84B2B948801E00785E
:105DC000A042A1DCB448C078002803D0B248C07813
:105DD000012833D1AD4903984870002600270025DB
:105DE00029E000241BE00C206043AD494018407AB4
:105DF000A84212D10127A848C078002804D10C205D
:105E000060434018C67008E00398801B401EC2B271
:105E10000C206043A2494018C270601C84B2A048A4
:105E2000801E0078A042DEDC002F02D0701CC6B2BB
:105E30000027681C85B2102DD3DBC8E09648C078D7
:105E4000022803D09448C078032833D18F4904989E
:105E5000487000260027002529E000241BE00C20C4
:105E600060438F494018007AA84212D101278A481E
:105E7000C078022804D10C2060434018C67008E0A6
:105E80000498801B401EC2B20C2060438449401815
:105E9000C270601C84B28248801E0078A042DEDCA2
:105EA000002F02D0701CC6B20027681C85B2102DCE
:105EB000D3DB8CE07848C078042803D07648C078DB
:105EC0000528BAD1099A0A998818C10F0918C90575
:105ED000090E0691079A08998818C10F0918C90573
:105EE000090E059100200B9000253CE000200C904D
:105EF00000242AE00C206043694A8018017A069841
:105F000002F040FB06460C206043654A8018417A47
:105F1000059802F037FB0746BE420ADDAE4212D1B9
:105F200001200C900C2161435D4A89180B98C870C0
:105F300009E0AF4207D101200C900C216143584A7F
:105F400089180B98C870601C84B25548801E007870
:105F5000A042CFDC0C98002803D00B98401CC0B2A4
:105F60000B90681C85B2102DC0DB00200B904A48B6
:105F7000C07805282BD100240FE00C20604348494D
:105F80004018C1780B98814205DD0C2060434449DC
:105F90004018C0780B90601C84B24148801E007885
:105FA000A042EADC00240DE00C2060433C4940188C
:105FB000C6780B98801BC2B20C2060434018C27098
:105FC000601C84B23648801E0078A042ECDC324867
:105FD0008078030002F02CFA0805080B0E11141744
:105FE0001A1D01F0E7FA15E001F092F912E001F054
:105FF00089FB0FE001F092FA0CE001F0BFF909E033
:1060000001F01AFA06E001F0EBF903E001F044FABE
:1060100000E000BF00BF2148006900901F48037BDB
:106020004289007A014602901EA0FFF723F91C481E
:10603000801E017822A0FFF71DF91448417824A0A2
:10604000FFF718F9002417E00C20604314494018AA
:10605000C07800900C2060434018437A0C206043C5
:106060004018027A0C206043085C014602901DA093
:10607000FFF700F9601C84B20948801E0078A04236
:10608000E2DC0DB0F0BD00000D0A00009009002018
:1060900045463A2532640D00F80D0020940D00208D
:1060A000420600206B3A25642049733A2564204952
:1060B000743A256420416D3A25640D0A0000000001
:1060C0004465766963655F73756D3A25640D0000FC
:1060D0004D6F64756C655F576F726B4E756D3A25C9
:1060E000640D000049443A5B30782532785D205BCE
:1060F00025645D5B25645D6E756D3A202564200D19
:10610000000000000A78436EC254426E632A03D234
:10611000426E521C426601E000224266704770B532
:1061200005460C461646002002F072F90A2002F0DD
:10613000B7FD032001F040FDFF2109042140080CB8
:1061400001F03AFDFF2109022140080A01F034FD67
:10615000E0B201F031FD04E0552001F02DFD287082
:106160006D1C3046711E8EB20028F5D1012002F060
:106170004FF90A2002F094FD70BD10B5044600F0FE
:10618000D7F800F057F8002002F042F90A2002F098
:1061900087FD812001F010FDFF2109042140080C3A
:1061A00001F00AFDFF2109022140080A01F004FD67
:1061B000E0B201F001FD012002F02AF90A2002F00C
:1061C0006FFD00F037F810BD70B505460C46164659
:1061D00000F0AEF8002002F01BF90A2002F060FD8A
:1061E000022001F0E9FCFF2109042140080C01F024
:1061F000E3FCFF2109022140080A01F0DDFCE0B2C6
:1062000001F0DAFCFF200130864200DD064603E0A3
:10621000287801F0D1FC6D1C3046711E8EB200282A
:10622000F6D1012002F0F4F80A2002F039FD00F066
:1062300001F870BD10B50024002002F0E9F80A2032
:1062400002F02EFD052001F0B7FC00BF552001F043
:10625000B3FC0446E007C00F0028F7D1012002F08C
:10626000D7F80A2002F01CFD10BD000000B593B065
:106270000A49087811A901F031FC0948129A1199CC
:10628000426401640549087801A901F0EFFB40224E
:1062900001A90348FEF792FF13B000BD900900204A
:1062A000B80D0020F7B5C4B0459F00253BE0F8B21B
:1062B00040904098381A4190FF21013140980C1AC3
:1062C0004698401B86B20A4668464199FFF727FF69
:1062D000449840194390409868444290B44211DB7E
:1062E000324643994298FFF717F94198FFF745FF67
:1062F000FF22013268464199FFF766FFBF19A819CE
:1063000085B210E0224643994298FFF705F941987B
:10631000FFF733FFFF22013268464199FFF754FF30
:106320003F19281985B246988542C0DB47B0F0BDB9
:1063300010B5002002F06CF80A2002F0B1FC062033
:1063400001F03AFC012002F063F80A2002F0A8FCF8
:1063500010BD0000002007E0002216214143044B3D
:10636000C9188A82411CC8B21028F5DB70470000AA
:10637000F407002010B503220021022001F0EEF9FD
:1063800000221146042001F0E9F9002207210D2026
:1063900001F0E4F9042202210C2001F0DFF90022CF
:1063A00001210C2001F0DAF9032206210D2001F071
:1063B000D5F9002206210D2001F0D0F90122114665
:1063C000022001F0CBF903220221084601F0C6F9B0
:1063D00000220321022001F0C1F904220021012042
:1063E00001F0BCF900220121084601F0B7F90522AD
:1063F0000221012001F0B2F905220321012001F060
:10640000ADF905220421012001F0A8F9042211466A
:106410000C2001F0A3F9042203210C2001F09EF9C5
:1064200010BD30B513460C780578AC4209DD047810
:10643000E2180C78944202D20C78047017E00270D3
:1064400015E004780D78AC420FDD04789C4209DD3C
:106450000478E21A0C78944202D90C78047006E0B1
:10646000027004E00C78047001E00C78047030BD18
:106470000121054801770548808808430349888041
:106480000020034908777047006100406015044010
:106490000060004008B50020164908701648808842
:1064A000012108431449888008464089134908405F
:1064B0001149488108460089104908400E49088161
:1064C00008460089891508430B490881002000907F
:1064D00005E000BF68460078401CC1B200916846E4
:1064E00000780E28F5D904480089012108430249A3
:1064F000088108BDC003002060150440FEFF0000B5
:106500000121064801700648808802210843044999
:106510008880002003490870704700002061004017
:10652000601504402060004008B5164880880221AC
:106530000843144988800846408913490840114996
:10654000488108460089104908400E4908810846DC
:106550000089491508430B4908810020009005E097
:1065600000BF68460078401CC1B2009168460078C0
:106570000E28F5D903480089022108430149088102
:1065800008BD000060150440FDFF000010B556482E
:10659000008802210840022807D1544800880028BA
:1065A00003D0022002F0A2F89AE04F480088C0070A
:1065B000C00F002807D04D480088002803D00520D0
:1065C00002F094F88CE04A480078C007C00F002819
:1065D00018D04648008800280FD046480068007848
:1065E0004549087243480068401C424908603F48DA
:1065F0000088401E3D49088072E0FFF74BFF02F023
:1066000081F86DE03A48007804210840002832D132
:106610003548203080880121084333492031888063
:106620003148008B8004800C2F4908830846008B7A
:106630000121890308432C4908832B4820304088D6
:106640000121084328492031488029480078042145
:1066500008432749087029480088012807D12248A3
:1066600020304089264908401F4920314881FF20B9
:106670002149087234E0234800882049098888426B
:106680002EDA1D48007A2049096808701E48006803
:10669000401C1D4908601B480088401C194908809F
:1066A00016480088401E098888420BD10E482030C9
:1066B0004089134908400C4920314881FF200E4988
:1066C00008720DE00F4800880C490988884204D1FF
:1066D000FFF7E0FE02F00CF802E0FF200649087226
:1066E00000200A49087710BD40150440C803002067
:1066F000C0030020C403002040170440D203002040
:10670000FEFF0000D0030020CC030020006000400A
:1067100010B55648408802210840022807D1544845
:106720000088002803D0022001F0F6FF9AE04F48CD
:106730004088C007C00F002807D04D4800880028B7
:1067400003D0052001F0E8FF8CE04A480078C0073C
:10675000C00F002818D04648008800280FD04648AF
:10676000006800784549887243480068401C4249E7
:1067700008603F480088401E3D49088072E0FFF7EE
:10678000D3FE01F0D5FF6DE03A48007804210840BF
:10679000002832D13548203080880221084333490F
:1067A000203188803148408B8004800C2F494883F9
:1067B0000846408B0121890308432C4948832B4814
:1067C0002030408802210843284920314880294848
:1067D00000780421084327490870294800880128C7
:1067E00007D1224820304089264908401F492031DE
:1067F0004881FF202149887234E0234800882049DD
:10680000098888422EDA1D48807A20490968087074
:106810001E480068401C1D4908601B480088401C39
:106820001949088016480088401E098888420BD103
:106830000E4820304089134908400C4920314881D6
:10684000FF200E4988720DE00F4800880C49098826
:10685000884204D1FFF768FE01F060FF02E0FF20EC
:106860000649887200200A49087010BD401504408E
:10687000DC030020D4030020D8030020401704408C
:10688000E6030020FDFF0000E4030020E0030020F9
:106890002060004010B500200E4908710E480068C5
:1068A000401C0D4908600D480088C007C00F002833
:1068B00008D00B48008B401C0121090440180949ED
:1068C000086004E00648008B401C0649086001F09F
:1068D000CDFA10BD4060004010040020A01D04400F
:1068E000001F04400004002000200E4908720E48DA
:1068F0000068401C0C4908600C484088C007C00F65
:10690000002808D00A48408B401C01210904401887
:106910000849086004E00648408B401C05490860AF
:10692000704700004060004014040020A01D044097
:10693000001F04400404002000200E4908730E4884
:106940000068401C0C4908600C488088C007C00FD4
:10695000002808D00A488088401C012109044018FA
:106960000849086004E006488088401C0549086022
:10697000704700004060004018040020A01D044043
:10698000601F04400804002000200E4908740E48CF
:106990000068401C0C4908600C48C088C007C00F44
:1069A000002808D00A48C088401C0121090440186A
:1069B0000849086004E00648C088401C0549086092
:1069C00070470000406000401C040020A01D0440EF
:1069D000601F04400C04002000200E4908730E487C
:1069E0000068401C0C4908600C480088C007C00FB4
:1069F000002808D00A48008B401C012109044018D7
:106A00000849086004E00648008B401C05490860FE
:106A1000704700006060004030040020A021044066
:106A2000002304402004002000200E4908740E4872
:106A30000068401C0C4908600C484088C007C00F23
:106A4000002808D00A48408B401C01210904401846
:106A50000849086004E00648408B401C054908606E
:106A6000704700006060004034040020A021044012
:106A7000002304402404002000200E4908750E481D
:106A80000068401C0C4908600C488088C007C00F93
:106A9000002808D00A488088401C012109044018B9
:106AA0000849086004E006488088401C05490860E1
:106AB000704700006060004038040020A0210440BE
:106AC000602304402804002000200E4908760E4868
:106AD0000068401C0C4908600C48C088C007C00F03
:106AE000002808D00A48C088401C01210904401829
:106AF0000849086004E00648C088401C0549086051
:106B000070470000606000403C040020A021044069
:106B1000602304402C0400204D48407B4021084065
:106B200000280CD04B480078FF2804DA4948007848
:106B3000401C4849087001204749087087E04648D2
:106B40000078012870D143480078042874DD41485A
:106B500000780A281EDA41480078002871D04048A1
:106B60000078401C3E4908703E48006840003D499E
:106B700008603B480078202863DB084600683A49F3
:106B800008600120394908700020354908703349F0
:106B9000087056E02F480078122847DD2D4800780D
:106BA000182824DA2D48007800284AD02C4800788C
:106BB000401C2B4908702B48006840002949086098
:106BC00008460068012108432649086024480078E7
:106BD000202836DB08460068234908600120234945
:106BE000087000201E4908701C49087029E01948E7
:106BF0000078332812DD174800783C2808DA002096
:106C0000174908701749086001201449087018E0F6
:106C10000020124908701349086012E000200F4953
:106C20000870104908600CE00EE005E000200B49F8
:106C300008700C49086004E0002008490870094900
:106C4000086000200349087000200349087070475D
:106C5000000004409C0200209E0200209F020020B1
:106C60009D020020A002002090020020940200203B
:106C70001D4A127880231A431B4B1A70002802D138
:106C800000221A4B1A77012808D10122174B1A77D4
:106C9000154AD27810231A43134BDA70022802D116
:106CA000A222124B1A77032802D182220F4B1A77A5
:106CB000042802D1C2220D4B1A77052802D10322E3
:106CC0000A4B1A77062802D14322084B1A77002272
:106CD000074B1A820123074A13770022064B1A77C3
:106CE000034A1182704700002004024060040440FF
:106CF000404F0440406100404060004010B500201B
:106D00000B490877172001F0C5FB002109480177DE
:106D10000948008A0121C90308430749088200BFC6
:106D20000548008A0121C90308400028F8D010BD99
:106D30004060004040610040404F04401FB50520C6
:106D4000FEF73CFF0220FEF747FE03A91E48012282
:106D5000134600920291019000220E210520FEF7B9
:106D6000A3FE00BF194880880028FBD168468089AF
:106D70001749884202DD002004B010BD68468089B2
:106D80001449884201DD0520F6E7684680891149EB
:106D9000AC39884201DD0420EEE7684680890E495F
:106DA000884201DD0320E7E7684680890B49884275
:106DB00001DD0220E0E7684680890949884201DD5B
:106DC0000120D9E70020D7E70E5004400001002041
:106DD000AC0E0000110D0000540B0000540900001F
:106DE000FF03000010B59A480078022108400028EF
:106DF0000AD098480078012803D1002095490870EE
:106E000002E001209349087093480078022108406D
:106E1000002810D091480078042807DA8F480078BD
:106E2000401C8E490870FEF749FF04E000208B49A2
:106E30000870FEF743FF8A480078022108400028C6
:106E400010D086480078002807DD84480078401E6E
:106E500082490870FEF732FF04E004207F49087081
:106E6000FEF72CFF7A480078DD2108407849087049
:106E70007C480078DD2108407A4908707A4800781B
:106E8000DD2108407849087073480078DD2108400A
:106E90007149087072480078DD2108407049087017
:106EA0006B480078B3210840694908706D48007844
:106EB000B32108406B4908706B480078B321084043
:106EC0006949087064480078B32108406249087035
:106ED00063480078B321084061490870634800782E
:106EE000C007C00F002810D0604800686049084003
:106EF0005E49086057480078012803D100205549B1
:106F0000087002E0012053490870584800680221C7
:106F10000840002817D0554800685549491E0840C8
:106F2000524908604D480078042807DA4B48007839
:106F3000401C4A490870FEF7C1FE04E000204749A2
:106F40000870FEF7BBFE494800680421084000288D
:106F500006D0464800684649C91E084043490860B3
:106F60004248006808210840002806D03F480068D1
:106F70003F49C91F08403D4908603C48006810214E
:106F80000840002806D03948006839490F390840C0
:106F9000364908603548006820210840002806D09E
:106FA0003248006832491F390840304908602F488C
:106FB000006840210840002806D02C4800682C4971
:106FC0003F39084029490860284800688021084066
:106FD000002806D02548006825497F390840234904
:106FE000086022480068FF2101310840002806D0CF
:106FF0001E4800681E49FF3908401C4908601B48AC
:107000000068012149020840002805D0174800689F
:107010001849084015490860144800680121890290
:107020000840002805D011480068134908400F495E
:1070300008600E4800680121C9020840002805D0F8
:107040000A4800680D4908400849086010BD000062
:107050005409002035020020780900209009002002
:1070600084090020600900206C090020980200209B
:10707000FEFF0000FFFD0000FFFB0000FFF7000027
:107080003EB5FFF75BFE044600203222019002234A
:107090000092029001222146174800F037F80020A4
:1070A000322201900223009202901A462146134890
:1070B00000F02CF80020322201900223009202906E
:1070C000032221460E4800F021F8002032220190D0
:1070D000022300920290042221460A4800F016F88A
:1070E00000203222019002230092029005222146C4
:1070F000054800F00BF83EBD54090020600900204F
:107100006C0900207809002084090020FFB50C4696
:10711000099D00210023504F4668BE4202D24668B6
:10712000761C46604668AE4217D30A9E002E08D0F1
:1071300047680A9EAE19B74203D96E1C4660042602
:1071400031434668AE4201D144263143944213D0C4
:107150000C263143002646600EE04768039EB74286
:1071600006D9944208D0022631430026466003E047
:10717000944201D000264660944201D10126314359
:107180000B9E002E54D002260E40002E03D0FD266A
:10719000314010263143067810273E40002E34D06F
:1071A0002D4F8668BE4202D28668761C866087684C
:1071B0000B9EB7421BD910260E40002E08D0EF269A
:1071C0003140202631430678EF273E40067007E025
:1071D00002263143EF2631400678EF273E40067005
:1071E000002686600678EF273E4006700DE01026E8
:1071F0000E40002E09D020263143EF26314006787C
:10720000EF273E4006700026866006783E273E4007
:1072100033460678F607360E067006781E4306706B
:107220000678BE273E40067006780E43067011E0D1
:1072300006780E273E4033460678F607360E06706F
:1072400006781E43067006788E273E400670067844
:107250000E430670FFBD0000FFFF000010B50E4892
:107260000078012807D10C480179C17000BF0821BE
:107270000A48017708E000210748C17000BF0821D3
:1072800006487030017300BF0A220349C91C481E1A
:10729000FFF7C7F810BD00003502002000000440D1
:1072A000FEB517488088002827D10025154E0024F8
:1072B0000FE060001449085AA84201DD60000D5A31
:1072C00060001149085AB04201DA60000E5A601C91
:1072D000C4B2C82CEDDB0C4800880190A81B80B21A
:1072E0000090A81987B23846F90F09184F100748BF
:1072F00005800098FEF77EFCFEBD00BFFCE70000A5
:1073000000010020FFFF00007E0400208C0200200E
:1073100070B5184C64786406240E174D2C72FF2447
:107320006C8101242C732C46247A6D896D1C6C436E
:10733000114D2C612C1F61680E4B403B002214E064
:10734000002005E01C780C70491C5B1C441CA0B29A
:107350000428F7DB002004E000240C70491C441CC6
:10736000A0B20428F8DB541CA2B2024C6478944208
:10737000E6DC70BDF80D0020940D002070B5154CB2
:107380006478154D2C72154C6478641C25022C1BF6
:10739000114D6C8101242C732C46247A6D896D1C4F
:1073A0006C430D4D2C612C1F63680A4A403A002043
:1073B0000BE0002105E014781C705B1C521C4C1C77
:1073C000A1B20429F7DB441CA0B2034C247A844206
:1073D000EFDC70BDF80D0020940D00209009002016
:1073E00070B5134C6478134D2C72FF24F5346C8106
:1073F00001242C732C46247A6D896D1C6C430D4D31
:107400002C612C1F63680A4A403A00200BE00021DF
:1074100005E014781C705B1C521C4C1CA1B20429A2
:10742000F7DB441CA0B2034C247A8442EFDC70BD2D
:10743000F80D0020940D002070B5154C6478154DA2
:107440002C722C46247A25022C1B124D6C810124AF
:107450002C732C46247A6D896D1C6C430D4D2C6168
:107460002C1F63680A4A403A00200BE0002105E027
:1074700014781C705B1C521C4C1CA1B20429F7DB55
:10748000441CA0B2034C247A8442EFDC70BD00009F
:10749000F80D0020940D002070B51C4C64781C4D34
:1074A0002C72FF246C8101242C732C46247A6D8964
:1074B0006D1C6C43164D2C612C1F6368134A403AB7
:1074C00000200BE0002105E014781C705B1C521CAE
:1074D0004C1CA1B20429F7DB441CA0B20C4C247A4A
:1074E0008442EFDC002006E00C244443094D64197B
:1074F000E070441CA0B2074CA41E24788442F3DC44
:10750000044CA41E2478044D6C7070BDF80D00204E
:10751000940D0020420600209009002070B5234CF5
:1075200064786400641E224D2C72FF246C81012457
:107530002C732C46247A6D896D1C6C431C4D2C6178
:107540002C1F63681948403800210BE0002205E039
:1075500004781C705B1C401C541CA2B2042AF7DB8C
:107560004C1CA1B2114C64788C42EFDC0F4C647857
:10757000012C1ADD0D4840380C4C6478A41EA40080
:10758000001900210CE0002205E004781C705B1C4F
:10759000401C541CA2B2042AF7DB08384C1CA1B2D0
:1075A000024C6478641E8C42EDDC70BDF80D002046
:1075B000940D0020FEB54E4840784E4908720020D8
:1075C00048810120087308614873081F40680190D2
:1075D000474F403F00240EE0002608E0397801982C
:1075E00001700198401C01907F1C701C86B2042E13
:1075F000F4DB601C84B23F48007AA042ECDC00243B
:1076000006E00C2060433C494018C470601C84B202
:107610003948801E0078A042F3DC3748801E00788D
:10762000364948703348007A012828D1002421E0E7
:107630003048001F4068017816206043304A1154DA
:107640002C48001F406841781620604380188170E4
:107650002848001F40688178162060438018017117
:107660002448001F4068C17816206043801881714B
:10767000601C84B221484078A042D9DC37E0002465
:1076800031E000F0DDF900901A48017A0098FDF72A
:10769000AEFFCDB21748001F4068A900415C16201C
:1076A0006043174A11541348001F4068A90040184E
:1076B000417816206043801881700E48001F406892
:1076C000A90040188178162060438018017109488C
:1076D000001F4068A9004018C17816206043801838
:1076E0008171601C84B205484078A042C9DCFEBDAF
:1076F000F80D0020940D0020420600209009002083
:10770000F407002070B5134C6478134D2C72FF24DD
:107710006C8101242C732C46247A6D896D1C6C437A
:107720000D4D2C612C1F63680A4A403A00200BE083
:10773000002105E014781C705B1C521C4C1CA1B28B
:107740000429F7DB441CA0B2034C247A8442EFDC0A
:1077500070BD0000F80D0020940D002070B50C469F
:1077600015460123A340D9B22A462B0000F060FE43
:10777000070527435F65788CAA00534B1B5C8B433E
:10778000514E3354504B403B1B5C0B434E4E403EDE
:1077900033544D4B103B1B5C8B434B4E103E3354CC
:1077A000494B303B1B5C8B43474E303E3354464B7A
:1077B000203B1B5C8B43444E203E335482E0424BC3
:1077C0001B5C8B43404E33543F4B403B1E5C0E438F
:1077D0001E543D4B103B1E5C8E431E543A4B303BB7
:1077E0001B5C0B43384E303E3354374B203B1E5C02
:1077F0008E431E5466E0344B1B5C8B43324E335435
:10780000314B403B1E5C0E431E542F4B103B1B5C08
:107810008B432D4E103E33542B4B303B1E5C8E431E
:107820001E54294B203B1E5C8E431E544AE0264BBF
:107830001B5C0B43244E335444E0234B1E5C8E43AD
:107840001E54214B403B1B5C8B431F4E403E335428
:107850001D4B103B1B5C8B431B4E103E335431E0E1
:10786000194B1B5C8B43184E3354174B403B1B5C2E
:107870008B43154E403E3354134B103B1B5C0B4364
:10788000114E103E33541DE00F4B1B5C8B430E4ECC
:1078900033540D4B403B1E5C0E431E540A4B103BB1
:1078A0001B5C8B43084E103E3354074B303B1E5C31
:1078B0008E431E54044B203B1B5C0B43024E203E68
:1078C000335400BF00BF70BD600004401749897F7A
:1078D00001221143154A917700BF1449897F022282
:1078E00011400029F9D01149897C01700F49C97CE8
:1078F00041700E49097D81700C49897DC1700B4929
:10790000497D01710949C97D41710849097E81712B
:107910000649897F49084900044A917700BF034915
:10792000897F022211400029F9D17047404F04405D
:107930001F490978802211431D4A1170002808D17F
:1079400000211C4A11771A49C97810229143184A1C
:10795000D170012808D10121164A11771449C9783C
:1079600010221143124AD170022802D1A221114AD9
:107970001177032802D182210E4A1177042802D1FF
:10798000C2210C4A1177052802D10321094A117737
:10799000062802D14321074A11770021064A517770
:1079A0001146497F08221143034A5177704700006E
:1079B0002004024060040440404F044010B5002001
:1079C00014490876162000F065FD00211248017662
:1079D0001248407F80210843104948770846807F3D
:1079E000012108430D49887700BF0C48807F0221A0
:1079F00008400028F9D00948807F40084000074926
:107A0000887700BF0548807F022108400028F9D10F
:107A100010BD00004060004040610040404F044005
:107A20001CB506480078C007C00F002802D101F03D
:107A300001F802E06846FFF749FF1CBD2C02002058
:107A400010B50848007808490978401805490870B9
:107A5000FDF798FB03490978401802490870084669
:107A6000007810BD5102002052020020F8B50446F3
:107A70000D461E2C12DA40212846FDF7AAFD1548B6
:107A800000780C235843144BC018007982000C2056
:107A9000604319582846FDF73FFD1AE03C2C18DAE0
:107AA00020461E38C4B22046E117490F0918C910F4
:107AB00049023D2292028E18E117490F0918C91098
:107AC000C900611A89050F0CF11940222846FDF7FB
:107AD00023FDF8BD9009002050910000F0B50C4640
:107AE0003F2800DDF0BD0F263603C500721923467E
:107AF000002105E017781F70521C5B1C4F1CB9B2A7
:107B00000829F7D300BFEDE7002804D000BF082202
:107B100004494A7405E000BF0822024970314A70E6
:107B200000BF70470000044010B504A0FDF7A2FBA1
:107B3000C722114605A0FDF79DFB10BD4566646197
:107B400074615F5479706544656600002073697ADA
:107B5000653A25645B307825785D0D0A00000000E9
:107B600010B5002201210846FFF7F8FD0522022189
:107B70000120FFF7F3FD052203210120FFF7EEFDB1
:107B8000052204210120FFF7E9FD012000F040FC5F
:107B90000020FFF7B9FF10BD002804D000BF042269
:107BA00004494A7405E000BF0422024970314A705A
:107BB00000BF70470000044070B503460025002652
:107BC000FF2400BF1FE080201840C6095806030E9E
:107BD0006006040E0020FFF797FF3046FFF7DCFF3A
:107BE000012001F05DF80120FFF78EFF012001F078
:107BF00057F80848407802210840002801D0601C4E
:107C0000C4B2681CC5B2082DDDDB0020FFF77CFF85
:107C1000204670BD0000044010B53C480078401C70
:107C2000C0B23A49087032286EDB0020087038482C
:107C30000068401C36490860364800780121084336
:107C40003449087032480078C007C00F002805D1B9
:107C500008460078022108432E49087005212C4867
:107C60000068FDF7BAFC002905D12A4800780421F4
:107C7000084328490870072125480068FDF7ADFC36
:107C8000002905D1234800780821084321490870BC
:107C900019211F480068FDF7A0FC002905D11D48E7
:107CA0000078102108431B490870322118480068E9
:107CB000FDF793FC002905D11648007820210843E0
:107CC000144908707D2112480068FDF786FC0029E0
:107CD00005D110480078402108430E490870FA2168
:107CE0000B480068FDF779FC002905D109480078A8
:107CF0008021084307490870054800680649884202
:107D000002D300200249086010BD0000A802002034
:107D1000A40200204A020020AC0D0000002001490E
:107D2000087070472C02002010B50822510310483B
:107D3000FEF7F5F90E4840680E49884205D10C4817
:107D40000068401C0A4908600CE0094841680AA024
:107D5000FDF790FA0748064948600020086009A02E
:107D6000FDF788FA082251030148FEF79BFA10BD7F
:107D7000B4020020F3CBA3257665726966792025CD
:107D8000640D0A00726573657420537973526563DC
:107D90006F72640D0A00000002480068401E01492D
:107DA000086070472802002000B5FDF735FE014944
:107DB000086000BD6004002000B580201B494871A8
:107DC0001A201A49203908732B2048733C208873E5
:107DD0004D20C873002016494860FDF71DFE154967
:107DE00008600020C0431449086014490860144822
:107DF00014490860114903221202891848600F498A
:107E0000891888600D498918C8600C49891808616B
:107E10000A498918486109498918886107498918F8
:107E2000C861AC200849487000BD00002004024031
:107E300000B001406004002080E200E000E100E0CA
:107E4000C0C0C0C000E400E0001002400249498AFE
:107E50000143014A51827047A01D04400249898AAA
:107E60000143014A91827047A01D044010B5FEF7FE
:107E700053FEFFF7D1FE10BDF8B505460E466A4623
:107E80003146284600F0FEF90446002C1FD103209D
:107E9000104988800846C08800090001C88008464B
:107EA000C0886946097808430A49C880684640780E
:107EB0004006000C08490882684640784006000CDD
:107EC00048820448408803210843024948802046EC
:107ED000F8BD0000201104400013044070B50546B1
:107EE0000E463C480078042108433A4908700320B4
:107EF0003949C88022203849203908823748088308
:107F000067204002364908823648007C0121084338
:107F1000344908740720304920394881FF20233034
:107F2000488231484883672040022D4948822A48C8
:107F3000008901210843284908810846808A2B4985
:107F40000840254988820846408901210843224982
:107F5000488100BF05202649087226484078012143
:107F600008432449487023482030407840084000A6
:107F70002049203148701F484030407C4008400074
:107F80001C49403148741B4860304078400840002C
:107F900018496031487000BF00BF0E20144960319D
:107FA0000872144820308078082108431149203194
:107FB0008870104860308078082188430D4960310E
:107FC000887000BF31462846FFF756FF044620461A
:107FD00070BD000020040240201104409780000082
:107FE000001304406004044097400000FEFF0000BE
:107FF00000080440000004400449087400BF04491C
:108000000988602211400029F9D17047001304400B
:1080100000110440F8B505460E466A46314628462A
:1080200000F030F90446002C19D10C200D4988804D
:1080300068460078302108430A49C880684640787D
:108040004006000C08498880684640784006000CCD
:10805000C880044840880C210843024948802046D3
:10806000F8BD0000201104404013044070B50546DF
:108070000E464348007804210843414908704148AE
:1080800080880C2108433F49888001213E480175C2
:108090000176017700203D490875087608773C484D
:1080A0003849203988823A487530888367204002F1
:1080B000384988803848007C0421084336490874D0
:1080C000072030492039C8813448C8823448C883E1
:1080D000672040022F49C8802A48008904210843AC
:1080E000284908810846808A2E4908402549888207
:1080F00008464089042108432249488100BF0A20DC
:10810000294988702948007B0421084327490873BE
:1081100026482030007B04218843244920310873FD
:1081200022484030007F04218843204940310877AD
:108130001E486030007B042188431C49603108736D
:1081400000BF00BF0C2018492031C87317482030E9
:108150008078022108431549203188701348603027
:1081600080780221884311496031887000BF314610
:108170002846FFF74FFF044600F05CF8204670BD2C
:108180002004024020110440206100402060004093
:10819000228000004013044060040440228100005B
:1081A00097400000FBFF000040080440000004402E
:1081B00010B502460020002901D1812006E00023ED
:1081C000034C2380034B1980034B1A6010BD000041
:1081D00044030020460300204003002010B502465F
:1081E0000020002901D181201AE00E4B1A600E4BAD
:1081F000198001230D4C23700A4B1B681B780C4C13
:108200002371084B1B685B1C064C2360064B1B88C4
:108210005B1E054C238000BF044B1B78002BFBD159
:1082200010BD0000380300203C0300204502002060
:108230004013044010B510480089042108430E493A
:10824000088108464089042108430B4948810846B3
:1082500040880C21084308494880002007490875D8
:1082600008760D2000F0FEF80E2000F0FBF800214B
:1082700003480175017610BD2011044020600040C4
:1082800020610040F7B584B016468020039000249A
:108290002BE06000174A115A0498FDF79EF90190EF
:1082A00002251EE0691C0198FDF797F9410802912B
:1082B000114A0299514308460599FDF78EF90E4976
:1082C000471A381E01DB014600E04142142906DA54
:1082D0003470757000200390039807B0F0BD681CDF
:1082E000C5B2802DDEDB601CC4B2102CD1DB03983C
:1082F000F3E70000B89200001027000070B50546B3
:108300000C463E480078012108433C490870822011
:108310003B49C8822846FFF7A1FD012D06D0022D5A
:108320001CD0042D32D0082D62D148E00020354900
:108330000871112000F08AF80120C003304920396B
:108340000882601E304908832D48408B4008400059
:108350002B49488300212D4801714AE0002029491A
:108360000872122000F072F80120C003244920395D
:108370004882601E244948832148408B022188435B
:108380001F49488300212148017232E000201D4925
:108390000873132000F05AF80120C003184920394F
:1083A0008882601E1849603188801548408B0421FE
:1083B00088431349488300211448017319E00020C1
:1083C00010490874142000F041F80120C0030C4942
:1083D0002039C882601E0C496031C8800848408B33
:1083E000082188430649488300210848017400E0B9
:1083F00000BF00BF2846FFF729FD70BD20040240E2
:10840000A01D044040600040001F04404061004047
:10841000002804D000BF102204494A7405E000BFC0
:108420001022024970314A7000BF704700000440BA
:1084300030B47446641E2578641CAB4204D3635D7B
:108440005B00E31830BC18471D46F8E7002805DB41
:10845000C206D20E01219140014A1160704700000E
:1084600080E200E0002805DBC206D20E0121914027
:10847000014A11607047000080E200E0002805DB3F
:10848000C206D20E01219140014A116070470000DE
:1084900080E200E0002805DBC206D20E01219140F7
:1084A000014A11607047000080E200E010B500282A
:1084B00019DB1A4A03231B02D21883089B00D258E7
:1084C0008307DC0EFF23A3409A438B071B0E840710
:1084D000E40EA3401A43114B032424021B19840801
:1084E000A4001A5118E00E4A03071B0F083B9B0813
:1084F0009B00D2588307DC0EFF23A3409A438B07CF
:108500001B0E8407E40EA3401A43054B0407240FF7
:10851000083CA408A4001A5110BD000000E100E0CE
:108520001CED00E030380A2801D2012070470020FD
:1085300070470000002803D00449054A116202E098
:108540000121034A116200BFFEE70000AD0B0000ED
:108550000080024000200449087504480068401C5F
:108560000249086070470000406000404804002055
:108570000349086000BF024909680029FBD1704720
:108580002802002002468A4202DD501AC0B270471B
:10859000881AC0B2FBE701460020C043704770B59F
:1085A00004460D46E0B2FFF727FD0A2C02D10D204C
:1085B000FFF722FD204670BD30B5024600200023A3
:1085C00005E01578521C2C18E0B25C1CA3B28B425B
:1085D000F7DB30BD86B004460D4626686768A068A4
:1085E0000590E06804902069039060690290A0699A
:1085F0000190E069009014A0FCF73CFE314618A001
:10860000FCF738FE394619A0FCF734FE1AA005998C
:10861000FCF730FE1BA00499FCF72CFE1CA003996C
:10862000FCF728FE1DA00299FCF724FE20A001996A
:10863000FCF720FE23A00099FCF71CFE294626A08B
:10864000FCF718FE00BFFEE75B48617264206661BC
:10865000756C742068616E646C65725D0D0A000053
:108660005230203D2025780D0A0000005231203D77
:108670002025780D0A0000005232203D2025780D7B
:108680000A0000005233203D2025780D0A0000002A
:10869000523132203D2025780D0A00005374616369
:1086A0006B6564204C52203D2025780D0A000000A7
:1086B000537461636B6564205043203D2025780D21
:1086C0000A000000537461636B65642050535220AC
:1086D0003D2025780D0A000043757272656E742086
:1086E0004C52203D2025780D0A0000007047000004
:1086F00010B5012002490870FDF7BAFE10BD000058
:10870000FD03002010B5012002490870FDF7B0FEFE
:1087100010BD0000FC0300207047000010B50120D0
:1087200002490870FDF7ECFE10BD0000FF030020B9
:1087300010B5012002490870FDF7E2FE10BD0000EF
:10874000FE03002002480068401C01490860704791
:108750005C04002010B5002002490877FFF7F2FF03
:1087600010BD0000406000400EB572B60520000349
:1087700096498860BFF35F8F62B6FDF7CDF8FDF7CD
:10878000F9FDFFF711FB7D21C90091480068FCF756
:1087900024FF06463446601E8E49884200D90CE00C
:1087A000601E8D4948610321081FFFF77FFE0020EE
:1087B000894988610720086100BFFFF7F5FA4B215E
:1087C000890283480068FFF789FB05464B2189022F
:1087D0007F480068FFF74AFC01218048FFF7E8FC6A
:1087E000802D01D100BFFEE77DA0FCF743FD0021F5
:1087F00081480173002081490870814908708149CE
:10880000087000BF10218048017300BF00BF08211D
:10881000017300BF00BF02217B487038017700BFA1
:1088200001210220FEF724FAFEF768FA01217248BE
:108830002030017703210120FDF7B4F80D2102203B
:10884000FDF7A0F80020FDF7C7F870497048C8226E
:10885000012300920291019000220E210520FDF7D4
:1088600023F905210120FFF749FD0021624820304E
:1088700001710220FFF75CF8FFF7A0F800F016FA8C
:10888000FFF74CFA0720634908700020624908701E
:10889000012062490870002061490870FF215F488B
:1088A00081700171C1706420FFF762FEFFF758F913
:1088B0005CA0FCF7DFFC88E05D480078C007C00FD3
:1088C000002805D05A480078FE2108405849087011
:1088D0005748007802210840002805D05448007805
:1088E000FD21084052490870514800780421084091
:1088F00000281CD04E480078FB2108404C490870E5
:10890000FEF7CEFCFEF7BCFBFEF76CFAFEF7A6FC0A
:108910000020FDF761F83D493D48C822012300923F
:108920000291019000220E210520FDF7BDF840487C
:10893000007808210840002805D03D480078F7213C
:1089400008403B4908703A48007810210840002848
:1089500005D037480078EF21084035490870344881
:10896000007820210840002805D031480078DF2118
:1089700008402F4908702E48007840210840002800
:1089800005D02B480078BF210840294908702848A5
:10899000007880210840002817D02548007840063C
:1089A000400E23490870FFF73BF8FDF721F9FFF768
:1089B000BBF8FFF7B9F900BF13487038007B1021EE
:1089C000484011497039087300BF75E700ED00E0B9
:1089D00060040020FFFFFF0000E000E044020020F0
:1089E0000A48656C6C6F2C4920616D204D61747371
:1089F00065720A0D0A000000206100400602002096
:108A00000702002008020020700004407E040020BD
:108A10000E5004404702002048020020350200208A
:108A20004102002056312E302E300D0A0000000089
:108A30004A02002010B5002203211C2000F064F936
:108A400010BD704702480068401C0149086070472B
:108A50005804002010B51148807F102108400028DC
:108A60000AD00E48807FEF2108400C49887700200B
:108A70000B490876FFF7E5FF0848807F082108408A
:108A800000280AD00548807FF721084003498877ED
:108A9000002003490876FFF7D5FF10BD404F044082
:108AA00040600040704770471CB500200D490873B6
:108AB0000D4840884107490F0091684600780A49EF
:108AC000488168460078002803D068460078FFF7A0
:108AD000E9FF0648807C0190044912310448FDF703
:108AE00011FB1CBD20600040001104400013044035
:108AF0001C07002010B500200C4908720C480088A3
:108B000000280FD00B48006800780B49087409480A
:108B10000068401C0749086005480088401E044959
:108B2000088001E0FFF7BFFF10BD0000206000409B
:108B3000E4020020E002002000130440704700001F
:108B400010B50448007800F079F801210148FFF7DA
:108B50002FFB10BD4402002000200149087070471F
:108B600045020020704700001CB500201B49087614
:108B70001B48C0884107490F009168460078184992
:108B8000C88168460078002803D068460078FFF75F
:108B9000D5FF14488079019013480088134909884B
:108BA000884216DD68460079114909680870104846
:108BB0000068401C0E4908600C480088401C0B49A6
:108BC0000880094800880988884206D1FFF7B8FF65
:108BD00003E068460079FFF7C5FF1CBD2060004038
:108BE00000110440401304404603002044030020C9
:108BF0004003002010B500200C4908750C4800887F
:108C000000280FD00B48006800780B49087109480C
:108C10000068401C0749086005480088401E044958
:108C2000088001E0FFF798FF10BD000020600040C1
:108C30003C03002038030020401304401249096817
:108C4000124A1268891A01291CD0104909680E4A73
:108C50001268914206D90D4909680B4A1268891AAF
:108C600087290FD209490A6809498A4202D38739FC
:108C7000064A116005490968087004490968491CD9
:108C8000024A116070470000C4020020C0020020A8
:108C9000BA0F002001B501216846FFF79FFA08BD11
:108CA00000E0401E0028FCD170470000064807493C
:108CB000086007490860002006490870FF2006493F
:108CC0000870064908707047330F0020C00200206A
:108CD000C4020020C8020020CA020020CB020020EB
:108CE00070B504460D46002C01D0002D00D170BD9A
:108CF00003E02078FFF7CEFF641C2846691E8DB282
:108D00000028F6D100BFF2E7F8B505460E46144636
:108D1000002755200C490870AA2048700846867024
:108D2000C570201208714C71E01D84B2601E81B2C2
:108D30000548FFF741FC0746601E03490F542146D2
:108D40000148FFF7CDFFF8BDBA0F0020014608200B
:108D5000334AD060F120106255205060AA20906004
:108D60000020C043086000BF2D480068C007C00F46
:108D70000028F9D02A48006801221043284A1060D0
:108D80000020D060704701461020254AD060F120B5
:108D9000106255205060AA2090600020C0430860F7
:108DA00000BF1F480068C007C00F0028F9D01C484A
:108DB0000068012210431A4A10600020D06010623F
:108DC0001046006804221040002801D0012070479E
:108DD0000020FCE770B503461D46F120104E3062BE
:108DE000002416E0AA200E4E70605520B060107866
:108DF0002870521C6D1C00BF09480068C007C00FD6
:108E00000028F9D00648006801263043044E30603F
:108E1000641C8C42E6D30020014E306270BD00001D
:108E2000000002400020474908777047F7B5FFB0BF
:108E300089B006460F460020879001200590400229
:108E4000874205D98020879087987FB00CB0F0BD0D
:108E5000039600240CE00398007886900398401C49
:108E600003908698FF2801D000200590601C84B2F2
:108E7000BC42F0D30598002805D0394630468A9A7E
:108E8000FFF7A8FF5BE0750AF119681C40028142F8
:108E900002D90120049001E000200490700A4002F1
:108EA0000290F005C00D0190049800280FD0002416
:108EB00008E00298007806A908550298401C029024
:108EC000601C84B2012080028442F2DB0EE00024A8
:108ED00008E00298007806A908550298401C029004
:108EE000601C84B2012040028442F2DB00240AE0CC
:108EF0008A9801780198001906AA11548A98401C92
:108F00008A90601C84B2BC42F2D3049800280DD031
:108F10006802FFF738FF691C4802FFF734FF680258
:108F200006AA01218902FFF755FF08E06802FFF752
:108F30002AFF680206AA01214902FFF74BFF879822
:108F400083E700006060004000FF00000000FF00B9
:108F5000FF0000000000FF0000FF0000FF00000015
:108F6000FF000000FFA50000FFFF000000FF000061
:108F7000007FFF000000FF008B00FF00001509C20A
:108F8000000E06D6000602F00B0700DDFF80000091
:108F9000C8FF2500E9470900EDAF2000578CBC0051
:108FA00025BCFF001781E8009223FF00E62DE800B2
:108FB000FF0DC0005AA7A70096D7C600BAC94A003D
:108FC0006C8CBF00F0DADC00F596B000FEE1990091
:108FD00076D6C90085BCDA00FCACE600FD87DD0072
:108FE000FA1CC300EE00F2007000F0003C00A90083
:108FF00018103700392361007154AE00809CE400E2
:1090000062BFD70052D1C00079F6C20004A45E004E
:10901000F1F2ED0080D3D70071B9DF00290FB40061
:10902000F6EAF600481B8900F7C6A600F783890018
:10903000A63A4C0026265E00ECE57E00E3870000A1
:10904000539B5700CC307300EDE5C4005C4894009E
:109050007A219E000056D600F4A4C0007657400046
:1090600000FFFF0000FF0000FF0DC000FF00000038
:10907000FFFF0000E3870000FFFFFF00FECA78004B
:10908000F8841B00E35D220000000000F767180071
:10909000FFFFFF0019461F00FFB05700E6462500FE
:1090A0009A050200FF000000FFA50000FFFF00007E
:1090B00000FF0000007FFF000000FF008B00FF00AA
:1090C00012005300F9FF0C00FC4A0800E2003900CE
:1090D00039007B007C8CD8000F798F00107B020058
:1090E00089DA0700F9FF0C00FC4A0800E2003900A9
:1090F00039007B007C8CD8000F798F00107B020038
:1091000089DA07000040800000D9D900E8B7D40010
:1091100025BCFF001781E8009223FF00E62DE80040
:10912000FF0DC0000000FF0000FF0000FF00000076
:10913000FF000000FFA50000FFFF000000FF00008F
:10914000007FFF000000FF008B00FF0012005300B3
:10915000488F000001000300050000004C8F000054
:109160000100030005000000508F00000100030013
:1091700005000000548F00000303030014000000EA
:10918000608F00000707030005000000908F0000BB
:109190000100030005000000948F0000010003009F
:1091A00005000000988F000001000300050000008A
:1091B0009C8F00000100030005000000A08F00004C
:1091C0000500030005000000B48F00000401030047
:1091D00005000000C48F0000050103000500000029
:1091E000D88F00000602030005000000F08F000089
:1091F00008030300050000001090000004030300B2
:10920000050000002090000002050300050000009A
:1092100028900000040603000500000038900000BC
:109220000602030005000000509000000403030044
:109230000500000060900000070603000500000024
:109240007C900000030303000500000088900000EC
:1092500003060300050000009490000004040300CE
:1092600005000000A49000000807030005000000AE
:10927000C49000000807030005000000E49000000F
:109280000807030105000000049100000301030129
:109290000500000010910000050503010500000015
:1092A0002491000003030301050000003091000039
:1092B0000807030105000000010002000400080087
:1092C000100020004000800000010002000400089F
:1092D0000010002000400080303132333435363702
:1092E00038394142434445464030580030313233EA
:1092F00034353637383961626364656640307800EA
:10930000040000080000000000000002000100004E
:1093100010000000349300000002002064020000EE
:10932000C25800005093000064040020E4140000C0
:1093300008510000011E07404143564653549BFF0D
:10934000FF0CD102FF01016A9AFF010158021719AF
:04000005000050C5E2
:00000001FF
