:020000040000FA
:10500000C019002011520000195200008551000003
:105010000000000000000000000000000000000090
:10502000000000000000000000000000235200000B
:105030000000000000000000275200004D85000025
:105040002B5200002D5200002F5200003152000060
:10505000335200003552000037520000E96C000066
:105060006D6E00003D52000091AC000045AC0000A8
:105070004352000091AD000005AD00004952000010
:105080004B520000F16F0000457000009570000069
:10509000E5700000158D000081AB0000E9A3000061
:1050A0005B5200005D5200005F520000357100004D
:1050B00085710000D57100002572000059B1000013
:1050C000EFFFEAFF00F002F800F04DF80CA030C846
:1050D000083824182D18A246671EAB4654465D4674
:1050E000AC4201D100F03FF87E460F3E0FCCB646F1
:1050F0000126334200D0FB1AA246AB463343184781
:105100000C6700002C670000002300240025002607
:10511000103A01D378C1FBD8520700D330C100D573
:105120000B60704710B5642902D100F07BF910BD07
:10513000782902D100F0ACF910BD632902D100F04A
:1051400051FD10BD732902D100F054FD10BD0020A7
:1051500010BD1FB50098019900F08FFC00F076FAA1
:105160001FBD10B510BD00F095FD1146FFF7F1FF12
:1051700005F044F900F0ADFD03B4FFF7F2FF03BC06
:1051800003F0B2FD04207146084202D0EFF309801B
:1051900001E0EFF308807146004A1047659C00006B
:1051A00030B40C490C684A6823681068C018106055
:1051B000241D121D8C4207D28A4208D20C604A601C
:1051C00030BC4000400870470C00DC3CF6E70A00A9
:1051D000DC3AF3E75411002070B505460C4616463C
:1051E00002E00FCC0FC5103E102EFAD2082E02D3CB
:1051F00003CC03C5083E042E07D301CC01C5361FDE
:1052000003E021782970641C6D1C761EF9D270BDF4
:105210001948804719480047FEE7FEE7FEE7FEE72A
:10522000FEE7FEE7FEE7FEE7FEE7FEE7FEE7FEE756
:10523000FEE7FEE7FEE7FEE7FEE7FEE7FEE7FEE746
:10524000FEE7FEE7FEE7FEE7FEE7FEE7FEE7FEE736
:10525000FEE7FEE7FEE7FEE7FEE7FEE7FEE7FEE726
:10526000FEE7FEE7FEE7FEE7FEE70000044805492B
:10527000054A064B704700006D850000C5500000D0
:10528000C0110020C0190020C0120020C012002050
:1052900070B5064600F0D4FB056830460B30C408F4
:1052A000E400B44201D8002070BD68682A46002896
:1052B00018D00168A14211D30B46214608318B4218
:1052C00008D3436801194B6003681B1B0B605160D6
:1052D000046001E041685160001D70BD02464068F5
:1052E0000028E6D12146284600F0B2FB0028DCD198
:1052F00070BD70B50446051F00F0A2FB0068002CCD
:105300001AD0446801E020466468002C01D0AC4209
:10531000F9D301680A18AA4204D12A6805468918F7
:10532000016000E0456028684119A14205D161682B
:10533000696021684018286070BD6C6070BD000015
:105340000FB4054910B503AA029800F057FC10BC31
:1053500008BC04B018470000500300200FB41CB56F
:10536000074B06AA7B4469460090059800F017FC9D
:105370000020694600F026FC1CBC08BC04B018479D
:105380005D08000070B5044685690068C10601D556
:10539000302600E02026C00707D070BD6268304686
:1053A000A1689047206A401C20626D1EF6D570BD32
:1053B00070B5044685690078C00707D170BD626882
:1053C000A16820209047206A401C20626D1EF6D5FF
:1053D00070BD70B50C460546012A05D028788006B8
:1053E00000D5EA69002302E0012305E05B1C93423B
:1053F00002D2E05C0028F9D1A869E618C01AA861B9
:10540000286AC01828622846FFF7BCFF04E06A68D3
:105410002078A968641C9047B442F8D32846FFF767
:10542000C7FF70BDF7B5002575291068009914A64F
:1054300011D0C046C046002802DA404211A608E05A
:10544000009909688A0701D50FA602E0490704D52B
:105450000EA6012501E0C046C046009F0024243767
:1054600004E000F0DFFB30313955641C0028F8D12E
:105470002B4632462146009800F033FBFEBD00006B
:10548000000000002D0000002B00000020000000A4
:1054900070B504460D4621461068C046C0462188B6
:1054A000090502D50F4A7A4402E00E4A7A440E32C8
:1054B00023460021243305E006070009360F965DD8
:1054C0005E54491C0028F7D120780023000705D539
:1054D000702D03D0002901D002231132204600F0A4
:1054E00000FB70BDE8620000F3B50446002081B007
:1054F00020622046E168884700287DD0252802D018
:105500006268A16883E0454F00257F442046E1683A
:1055100088472028064608DB312E06D2B8192038E5
:105520000078002801D00543F0E7A80701D5042042
:1055300085430020E0610746A0612A2E0AD030464C
:1055400003F0CAFB002827D0B8000019303E0090B5
:10555000866119E00298BA00121902C8916102909E
:105560002046E1688847012F064617D1E0690028E8
:105570001FDA202085431CE000980A2180694843F7
:1055800000998019303888612046E16888470646CE
:1055900003F0A2FB0028EFD1012F0AD02E2E08D154
:1055A0002046E16888470646202005437F1C022FDD
:1055B000C3DBA069002803DA4042A0610120054353
:1055C000E80701D010208543002E24D03046413812
:1055D000192803D80120C002054320362046256043
:1055E0003146029A1546FFF79DFD00280CD0012890
:1055F00007D0ED1DE80800E00DE0C0000830029083
:1056000077E72D1D029574E762683046A1689047E0
:10561000206A401C6CE7206AFEBD0000AC620000FE
:105620000B4A30B511460B4C60310B46DC3B0CC1CC
:10563000372106E0020C8D0012185A51064A5043D9
:1056400000190A46491E002AF4DC30BD0120E7E7B4
:10565000F4100020E119D666CD0D0100F8B5042A3A
:105660002CD3830712D00B78491C0370401C521EA8
:1056700083070BD00B78491C0370401C521E830714
:1056800004D00B78491C0370401C521E8B079B0FE3
:1056900005D0C91ADF002023DE1B08C90AE0FFF786
:1056A0009BFDF8BD1D4608C9FD401C46B4402C4377
:1056B00010C0121F042AF5D2F308C91A521EF0D4E2
:1056C0000B78491C0370401C521EEAD40B78491C0D
:1056D0000370401C012AE4D409780170F8BD01E090
:1056E00004C0091F0429FBD28B0701D50280801C4E
:1056F000C90700D00270704700290BD0C30702D041
:105700000270401C491E022904D3830702D502807F
:10571000801C891EE3E70022EEE70022DFE700227B
:1057200003098B422CD3030A8B4211D300239C46DE
:105730004EE003460B433CD4002243088B4231D356
:1057400003098B421CD3030A8B4201D394463FE0EA
:10575000C3098B4201D3CB01C01A524183098B424A
:1057600001D38B01C01A524143098B4201D34B0133
:10577000C01A524103098B4201D30B01C01A524196
:10578000C3088B4201D3CB00C01A524183088B421D
:1057900001D38B00C01A524143088B4201D34B0006
:1057A000C01A5241411A00D2014652411046704778
:1057B0005DE0CA0F00D04942031000D3404253407D
:1057C00000229C4603098B422DD3030A8B4212D33D
:1057D000FC22890112BA030A8B420CD3890192116F
:1057E0008B4208D3890192118B4204D389013AD0AC
:1057F000921100E08909C3098B4201D3CB01C01A81
:10580000524183098B4201D38B01C01A5241430993
:105810008B4201D34B01C01A524103098B4201D381
:105820000B01C01A5241C3088B4201D3CB00C01AEE
:10583000524183088B4201D38B00C01A5241D9D206
:1058400043088B4201D34B00C01A5241411A00D287
:105850000146634652415B10104601D34042002B83
:1058600000D54942704763465B1000D3404201B502
:105870000020C046C04602BD704770477047000018
:10588000F0B5FF252D04C609C209FF2704462E40A6
:105890000137CB093E4348402A402B400746002AA7
:1058A0006BD0002B69D0AA4267D0AB4265D00028EC
:1058B00000DA32460125ED0529432C430902200276
:1058C000090AD21A4B0C7F24E31A434C000A7C4489
:1058D000E35C7D242404121914145B00A21888428E
:1058E00001D3521C00E0400049420C465C432411A5
:1058F0005C43DB016415E318040A5C43C502200D18
:105900000C4644436419250A5D432303EC0C0D4601
:10591000654300030019EB184C42A34201D35B1806
:10592000401CD4052018002B07D05B00C91804D3F5
:10593000401C002901D1400840003F2189048A42CF
:1059400009D3002A08DC1106090F04D003214907F6
:105950004018C00FC007F0BD01224100120689188F
:105960007F2252069142F6D205214907C84201D54D
:105970009010F0BDFF20C005F0BD002F00DA3246C8
:105980001648AA4207D2AB4205D21902090E17D017
:10599000F80FC007F0BDFF2563002D06AB42F9D814
:1059A0004900A942F6D8AB4201D1A942F2D0A9429E
:1059B00001D1002101E061004908D0050843F0BD94
:1059C0001102090EFBD0FF200243D005F0BD0A46AC
:1059D0000146104654E70000F95E00000000C07F59
:1059E0001F22030C02D10F2200041CD0030E01D190
:1059F0000002083A030F01D10001121F830F01D1E9
:105A00008000921E002801DB4000521ED205511872
:105A1000021251181922904004D3491C002801D1C8
:105A20004908490008467047C10FC90700D04042E5
:105A3000012292071143D3E701218907D0E7000033
:105A400000487047641100207047704770477047E6
:105A500038B504460A4600206946C046C0460028BC
:105A600005D002462046009900F0F4F8012038BD28
:105A700010B5012000F008F910BDF8B5C046C046C9
:105A8000054600200C461020C0460646A819A04234
:105A90000DD9324669460020C046C046070001D1F4
:105AA00000F0F2F80098A04200D00546C419FFF7B4
:105AB000C7FFF61D07460560F008C00046192846D6
:105AC00000F008F8B44204D031463868A21B00F058
:105AD000C1F8F8BD0021016041608060704710206E
:105AE0007047FFB504460D4681B024300090216810
:105AF000880604D51022E0699143216000E001206E
:105B0000A84201DD471B00E000270498A1697A192B
:105B10001018081AA0612078C00602D42046FFF7AA
:105B200031FC002608E003986268A168805D904718
:105B3000206A401C761C206204988642F3DB2078A1
:105B4000C0060AD52046FFF71DFC06E06268A16882
:105B500030209047206A401C206238467F1E002873
:105B6000F4DC07E000986268A168405D9047206A15
:105B7000401C206228466D1E0028F3DC2046FFF7FB
:105B800017FC2078000602D5022005B0F0BD0120E8
:105B9000FBE7000001694A1C02610878704700B504
:105BA0008FB0029100210591054901937944039139
:105BB000114604906846FFF797FC0FB000BD000047
:105BC000E5FFFFFF0A681070521C0A60704710B5AD
:105BD0004369002B02D0C046C04601E0FFF7F9FB45
:105BE000012010BD1278014624310A7000224A704B
:105BF0000122ECE711680022D243E8E7084B70B5B8
:105C00000D467B44FFF7CBFF0446284603F0E5FF33
:105C1000002802D00020C04370BD204670BD0000A7
:105C2000DD3F000001468008081A02091018020A28
:105C30001018020C1018C008820012185200891A9D
:105C400001E0401C0A390A29FBD27047004870471E
:105C50005C11002010B50346406801E0034640682F
:105C6000002801D08842F9D31868C3188B4206D0A7
:105C7000CB1CD808C000001D411A521A0146081D4D
:105C80000A60FFF736FB10BD10B500F031F800F0E8
:105C900028F810BD7546FFF7D9FFAE4605006946E6
:105CA0005346C008C000854618B020B5FFF7DEFA9D
:105CB00060BC00274908B6460026C0C5C0C5C0C59F
:105CC000C0C5C0C5C0C5C0C5C0C5403D49008D46A2
:105CD000704710B50446C046C0462046FFF74CFA50
:105CE00010BD10B5002801D002F0FEFF10BD00006D
:105CF00010B5012805D0002103A000F021F80120F3
:105D000010BD09A1F8E7000053494752544D454DD5
:105D10003A204F7574206F662068656170206D654C
:105D20006D6F7279000000003A2048656170206D47
:105D3000656D6F727920636F72727570746564003F
:105D400070B505460C460A2000E06D1C02F0DCFF31
:105D5000002D06D028780028F7D102E0641C02F05C
:105D6000D3FF002C02D020780028F7D10A2002F0BF
:105D7000CBFF70BD70B58C180578401C6B075B0FAE
:105D800001D10378401C2A1106D10278401C03E09F
:105D90000678401C0E70491C5B1EF9D12B0705D4F8
:105DA0000023521E0DD40B70491CFAE70378401CE7
:105DB000CB1A921C03E01D780D70491C5B1C521E0F
:105DC000F9D5A142D8D3002070BD000010B5012143
:105DD00015480175154800782021084313490870BB
:105DE00000201349087013490875152002F020FFA0
:105DF00010200F490870002088700846807888704D
:105E000008468078082108430949887000200871F5
:105E10008871FF20C872002088720846007801212E
:105E200008430349087010BD40610040200402404F
:105E30000050044040600040064A127838239A43DC
:105E4000044B1A701A461278C3001A43014B1A7099
:105E500070470000005004400B4A1278520852006C
:105E6000094B1A70002803D180220A439A7103E07B
:105E7000C0220A43044B9A71034A127801231A4341
:105E8000014B1A70704700000050044010B50446E2
:105E90000B48047200200B490875152002F0C8FE5B
:105EA000002109480175064880798011032805D032
:105EB00003480078802108430149087010BD0000A4
:105EC00000500440406000404061004000B5C022E6
:105ED0009178F8221140144A1278114313480A4667
:105EE000E03A130002F07EFE0E0A0E12161A1E1E73
:105EF0001E080C1014181C1E0D4813E00D4811E06C
:105F00000D480FE00D480DE00D480BE00D4809E08D
:105F10000D4807E00D4805E00D4803E00D4801E09D
:105F20000D4800BF00BF00BD201C024040420F00D2
:105F30000090D003006CDC020048E80100366E01DE
:105F40000024F400001BB70000127A00808D5B0073
:105F500000093D00C0C62D0080841E0030B50B46F0
:105F6000002206E01D780468641904605B1C541C60
:105F7000A2B2FF2AF6DD30BDFFB583B00D9A120F35
:105F8000120701239B079A4202D10022009201E0EE
:105F9000012200920E9A120F120701239B079A42C8
:105FA00001D1002400E00124009A002A01D101223D
:105FB00000E000222240002A02D0002201920DE0DF
:105FC000002C01D1012200E00022009B1A40002A8F
:105FD00002D00122019201E0002201920122520727
:105FE00082181170069A92012032E3001A43009B36
:105FF0009B001A43019B5B001A43059B1A43204BED
:106000000D015A5301231E4A0D01521953801C4B96
:106010000D015B190C9A9A80194B0D015B190C9AB2
:10602000DA80174A0D0152190D9B9360144A0D0135
:1060300052190E9BD360134A927E08231A43114BC8
:106040009A769A04104B9A601A4602920246C51735
:106050006D0FAD18EE10029DAD5D0346C617760FAD
:10606000F618F610F600871B0126BE403543C6170A
:10607000760FB618F710029EF55507B0F0BD000078
:1060800020000020000802400050004070B50B4B7B
:106090000146C417640F6418E4101C5D0246C5175E
:1060A0006D0FAD18ED10ED00461B0125B540AC435A
:1060B000C5176D0F6D18ED105C5570BD0050004098
:1060C00010B504460848844204D10178142004F035
:1060D000F1FA08E00448001D844204D1001F017950
:1060E0006A2004F0B7FB10BD3502002070470000A5
:1060F000F8B504460E4625462805000D002806D1B1
:10610000284600F064FC29460BA0FFF719F9FF228E
:1061100001322946304600F024FC642161430846E0
:106120001321C902FFF7FBFA07463A46294607A0A2
:10613000FFF706F9F8BD0000536563746F7245728E
:10614000617365204F782534780D0000646F776E99
:106150006C6F61643A204F78253478205B25642584
:10616000255D0D00F0B58BB0074639A0FFF7E8F8C4
:106170000025002620E03146102203A800F0C3FBD2
:106180000020029007E003A90298085C45190298D4
:10619000401CC0B2029002981028F4DB64217143C5
:1061A00008461321C902FFF7BAFA0190314631A01F
:1061B000019AFFF7C5F810361320C0028642DAD3E1
:1061C000394633A0FFF7BCF8294638A0FFF7B8F8E6
:1061D000AF4203D13CA0FFF7B3F808E045A0FFF7BA
:1061E000AFF84DA0FFF7ACF800200BB0F0BD1022C7
:1061F0004E4907A800F087FB00246846C07F04438F
:1062000024026846807F044324026846407F04439A
:1062100024026846007F04436846007F2D1A6846C2
:10622000407F2D1A6846807F2D1A6846C07F2D1A40
:1062300029463FA0FFF784F8A54204D143A0FFF709
:106240007FF80120D1E747A0FFF77AF80020CCE7DC
:106250000D5B2056455249465920444F574E4C4FEE
:106260004144454420434845434B53554D205D0D23
:106270000A0000003078253034783A207265616475
:10628000696E6720666C61736820256425250D00A2
:1062900062756666657220636865636B73756D20F1
:1062A00069732030782534780D000000666C6173C6
:1062B000682020636865636B73756D206973203097
:1062C000782534780D0A0000627566666572206173
:1062D0006E6420666C61736820636865636B7375B8
:1062E0006D20766572696679207061737320210D67
:1062F0000000000062756666657220616E6420664B
:106300006C61736820766572696679206661696C74
:10631000202121210D0D0000646F776E6C6F616488
:10632000206661696C2121210D0D0000F0970000AD
:10633000415050207061636B20636865636B7375B7
:106340006D2069732030782534780D0041707020FD
:106350007061636B20766572696679207061737312
:1063600020210000417070207061636B207665729F
:10637000696679206661696C2121210D0D0000009C
:10638000F8B50446002500260027294800888442E5
:106390000EDD28480078002803D1254800882649CA
:1063A000088001202349087000202449087006E075
:1063B0001F480088844202DA0120204908701D48E5
:1063C0000078002808D01E480078FF2804DA1C480E
:1063D0000078401C1A4908701848007800281CD022
:1063E00000201649087013480078002815D00020B6
:1063F000104908700E4800880F490988401A85B274
:106400000F4800780F490870084601782846FFF7C2
:1064100090F986B200200A490870C82D00DA0025DC
:10642000FF2D00DDFF2502480480E8B2F8BD000022
:10643000AA020020AF020020AC020020B00200201F
:10644000AE020020B1020020FFB5FFB082B00746C7
:106450003D4601AE002405E0287830706D1C761CA6
:10646000601C84B2012040028442F5DB839D01A9B7
:1064700082980E18002405E0287830706D1C761C78
:10648000601C84B284988442F6DB384604F015FE22
:1064900001AA01214902384604F036FE7FB006B059
:1064A000F0BD0000F0B58DB0F1A0FEF749FF00F09F
:1064B000D1FA00F0FDFAEF4804780178EEA0FEF77B
:1064C0003FFFEF484079EF494873EA48001D091F34
:1064D000486000200A90FF20099000200890FF20CB
:1064E000079007460646002003900490002458E0D9
:1064F0000C206043E4494018007AB04203D004986D
:10650000401CC0B204900C206043DF494018407A20
:10651000B84203D00398401CC0B203900C206043E3
:10652000D9494018017A0A98814205DD0C20604360
:10653000D5494018007A0A900C206043D24940188F
:10654000417A0898814205DD0C206043CE4940180D
:10655000407A08900C206043CB494018017A099892
:10656000814205DA0C206043C7494018007A09903F
:106570000C206043C4494018417A0798814205DAEB
:106580000C206043C0494018407A07900C206043BB
:10659000BD494018067A0C2060434018477A601CB9
:1065A00084B2B948801E0078A042A1DCB448C0780B
:1065B000002803D0B248C078012833D1AD490398F0
:1065C000487000260027002529E000241BE00C204D
:1065D0006043AD494018407AA84212D10127A8482B
:1065E000C078002804D10C2060434018C67008E031
:1065F0000398801B401EC2B20C206043A249401881
:10660000C270601C84B2A048801E0078A042DEDC0C
:10661000002F02D0701CC6B20027681C85B2102D56
:10662000D3DBC8E09648C078022803D09448C078ED
:10663000032833D18F49049848700026002700258D
:1066400029E000241BE00C2060438F494018007AA9
:10665000A84212D101278A48C078022804D10C2010
:1066600060434018C67008E00498801B401EC2B208
:106670000C20604384494018C270601C84B2824878
:10668000801E0078A042DEDC002F02D0701CC6B253
:106690000027681C85B2102DD3DB8CE07848C078C9
:1066A000042803D07648C0780528BAD1099A0A99F7
:1066B0008818C10F0918C905090E0691079A08998B
:1066C0008818C10F0918C905090E059100200B9003
:1066D00000253CE000200C9000242AE00C206043C0
:1066E000694A8018017A069802F0DEFC06460C2002
:1066F0006043654A8018417A059802F0D5FC074648
:10670000BE420ADDAE4212D101200C900C21614341
:106710005D4A89180B98C87009E0AF4207D1012083
:106720000C900C216143584A89180B98C870601C62
:1067300084B25548801E0078A042CFDC0C98002817
:1067400003D00B98401CC0B20B90681C85B2102D72
:10675000C0DB00200B904A48C07805282BD10024CC
:106760000FE00C20604348494018C1780B988142E3
:1067700005DD0C20604344494018C0780B90601C34
:1067800084B24148801E0078A042EADC00240DE07B
:106790000C2060433C494018C6780B98801BC2B25D
:1067A0000C2060434018C270601C84B23648801EC2
:1067B0000078A042ECDC32488078030002F012FA44
:1067C0000805080B0E1114171A1D01F005FB15E042
:1067D00001F0B0F912E001F0A7FB0FE001F0B0FA10
:1067E0000CE001F0DDF909E001F038FA06E001F013
:1067F00009FA03E001F062FA00E000BF00BF21489F
:10680000006900901F48037B4289007A014602908C
:106810001EA0FEF795FD1C48801E017822A0FEF701
:106820008FFD1448417824A0FEF78AFD002417E06C
:106830000C20604314494018C07800900C2060433D
:106840004018437A0C2060434018027A0C206043C1
:10685000085C014602901DA0FEF772FD601C84B228
:106860000948801E0078A042E2DC0DB0F0BD0000B7
:106870000D0A0000080A002045463A2532640D0042
:10688000700E00200C0E0020BA0600206B3A256422
:106890002049733A25642049743A256420416D3AB1
:1068A00025640D0A000000004465766963655F7326
:1068B000756D3A25640D00004D6F64756C655F570A
:1068C0006F726B4E756D3A25640D000049443A5B5A
:1068D00030782532785D205B25645D5B25645D6ED4
:1068E000756D3A202564200D000000000A78436E83
:1068F000C254426E632A03D2426E521C426601E0C9
:1069000000224266704770B505460C4616460020C8
:1069100002F058F90A2004F0CDFA032001F05EFDE0
:10692000FF2109042140080C01F058FDFF21090254
:106930002140080A01F052FDE0B201F04FFD04E0F1
:10694000552001F04BFD28706D1C3046711E8EB233
:106950000028F5D1012002F035F90A2004F0AAFA46
:1069600070BD70B505460C46164600F08FF8002045
:1069700002F028F90A2004F09DFA022001F02EFD11
:10698000FF2109042140080C01F028FDFF21090224
:106990002140080A01F022FDE0B201F01FFDFF20B6
:1069A0000130864200DD064603E0287801F016FD3E
:1069B0006D1C3046711E8EB20028F6D1012002F007
:1069C00001F90A2004F076FA00F028F870BD10B53D
:1069D000044600F05BF800F021F8002002F0F2F825
:1069E0000A2004F067FA202001F0F8FCFF210904D6
:1069F0002140080C01F0F2FCFF2109022140080AA5
:106A000001F0ECFCE0B201F0E9FC012002F0DAF860
:106A10000A2004F04FFA00F001F810BD10B5002470
:106A2000002002F0CFF80A2004F044FA052001F01B
:106A3000D5FC00BF552001F0D1FC0446E007C00F93
:106A40000028F7D1012002F0BDF80A2004F032FA44
:106A500010BD000000B593B00A49087811A901F0F3
:106A60006BFC0948129A119942640164054908783F
:106A700001A901F029FC402201A90348FEF7ACFB63
:106A800013B000BD080A0020300E002010B5002011
:106A900002F098F80A2004F00DFA062001F09EFC9E
:106AA000012002F08FF80A2004F004FA10BD000063
:106AB000002007E0002216214143044BC9188A82B6
:106AC000411CC8B21028F5DB704700006C0800209C
:106AD00010B503220021022001F06EFA00221146B7
:106AE000042001F069FA002207210D2001F064FA68
:106AF000042202210C2001F05FFA002201210C2067
:106B000001F05AFA032206210D2001F055FA002265
:106B100006210D2001F050FA01221146022001F059
:106B20004BFA03220221084601F046FA0022032113
:106B3000022001F041FA04220021012001F03CFA78
:106B400000220121084601F037FA05220221012026
:106B500001F032FA05220321012001F02DFA05226D
:106B60000421012001F028FA042211460C2001F032
:106B700023FA042203210C2001F01EFA10BD30B5C7
:106B800013460C780578AC4209DD0478E2180C78DD
:106B9000944202D20C78047017E0027015E0047879
:106BA0000D78AC420FDD04789C4209DD0478E21ACE
:106BB0000C78944202D90C78047006E0027004E06C
:106BC0000C78047001E00C78047030BD0121054898
:106BD00001770548808808430349888000200349DD
:106BE0000877704700610040601504400060004075
:106BF00008B500201649087016488088012108430E
:106C00001449888008464089134908401149488141
:106C100008460089104908400E4908810846008945
:106C2000891508430B4908810020009005E000BF4A
:106C300068460078401CC1B20091684600780E2872
:106C4000F5D904480089012108430249088108BD9B
:106C50003804002060150440FEFF000001210648B2
:106C6000017006488088022108430449888000207A
:106C7000034908707047000020610040601504401F
:106C80002060004008B51648808802210843144956
:106C900088800846408913490840114948810846C0
:106CA0000089104908400E490881084600894915A5
:106CB00008430B4908810020009005E000BF6846AA
:106CC0000078401CC1B20091684600780E28F5D9C2
:106CD00003480089022108430149088108BD0000DA
:106CE00060150440FDFF000010B5564800880221E1
:106CF0000840022807D154480088002803D0022009
:106D000003F026FB9AE04F480088C007C00F002818
:106D100007D04D480088002803D0052003F018FB59
:106D20008CE04A480078C007C00F002818D04648B9
:106D3000008800280FD0464800680078454908724E
:106D400043480068401C424908603F480088401E94
:106D50003D49088072E0FFF74BFF03F005FB6DE053
:106D60003A48007804210840002832D135482030C4
:106D70008088012108433349203188803148008BC5
:106D80008004800C2F4908830846008B0121890369
:106D900008432C4908832B482030408801210843B0
:106DA0002849203148802948007804210843274990
:106DB000087029480088012807D1224820304089DE
:106DC000264908401F4920314881FF202149087287
:106DD00034E0234800882049098888422EDA1D487B
:106DE000007A2049096808701E480068401C1D4947
:106DF00008601B480088401C194908801648008814
:106E0000401E098888420BD10E4820304089134922
:106E100008400C4920314881FF200E4908720DE0DE
:106E20000F4800880C490988884204D1FFF7E0FE2A
:106E300003F090FA02E0FF200649087200200A4998
:106E4000087710BD4015044040040020380400209D
:106E50003C040020401704404A040020FEFF0000CC
:106E600048040020440400200060004010B556484B
:106E7000408802210840022807D154480088002891
:106E800003D0022003F07AFA9AE04F484088C00706
:106E9000C00F002807D04D480088002803D00520E7
:106EA00003F06CFA8CE04A480078C007C00F002855
:106EB00018D04648008800280FD04648006800785F
:106EC0004549887243480068401C424908603F4871
:106ED0000088401E3D49088072E0FFF7D3FE03F0B2
:106EE00059FA6DE03A48007804210840002832D170
:106EF000354820308088022108433349203188807A
:106F00003148408B8004800C2F4948830846408BD1
:106F10000121890308432C4948832B4820304088AD
:106F2000022108432849203148802948007804215B
:106F300008432749087029480088012807D12248BA
:106F400020304089264908401F4920314881FF20D0
:106F50002149887234E02348008820490988884202
:106F60002EDA1D48807A2049096808701E4800689A
:106F7000401C1D4908601B480088401C19490880B6
:106F800016480088401E098888420BD10E482030E0
:106F90004089134908400C4920314881FF200E499F
:106FA00088720DE00F4800880C490988884204D196
:106FB000FFF768FE03F0E4F902E0FF20064988725B
:106FC00000200A49087010BD4015044054040020F8
:106FD0004C04002050040020401704405E040020B0
:106FE000FDFF00005C0400205804002020600040E9
:106FF00010B500200E4908710E480068401C0D496C
:1070000008600D480088C007C00F002808D00B4852
:10701000008B401C0121090440180949086004E064
:107020000648008B401C0649086001F0F9FA10BDC3
:107030004060004088040020A01D0440001F044060
:107040007804002000200E4908720E480068401C99
:107050000C4908600C484088C007C00F002808D0C1
:107060000A48408B401C0121090440180849086067
:1070700004E00648408B401C05490860704700004A
:10708000406000408C040020A01D0440001F04400C
:107090007C04002000200E4908730E480068401C44
:1070A0000C4908600C488088C007C00F002808D031
:1070B0000A488088401C01210904401808490860DA
:1070C00004E006488088401C0549086070470000BD
:1070D0004060004090040020A01D0440601F044058
:1070E0008004002000200E4908740E480068401CEF
:1070F0000C4908600C48C088C007C00F002808D0A1
:107100000A48C088401C0121090440180849086049
:1071100004E00648C088401C05490860704700002C
:107120004060004094040020A01D0440601F044003
:107130008404002000200E4908730E480068401C9B
:107140000C4908600C480088C007C00F002808D010
:107150000A48008B401C01210904401808490860B6
:1071600004E00648008B401C054908607047000099
:1071700060600040A8040020A021044000230440D7
:107180009804002000200E4908740E480068401C36
:107190000C4908600C484088C007C00F002808D080
:1071A0000A48408B401C0121090440180849086026
:1071B00004E00648408B401C054908607047000009
:1071C00060600040AC040020A02104400023044083
:1071D0009C04002000200E4908750E480068401CE1
:1071E0000C4908600C488088C007C00F002808D0F0
:1071F0000A488088401C0121090440180849086099
:1072000004E006488088401C05490860704700007B
:1072100060600040B0040020A021044060230440CE
:10722000A004002000200E4908760E480068401C8B
:107230000C4908600C48C088C007C00F002808D05F
:107240000A48C088401C0121090440180849086008
:1072500004E00648C088401C0549086070470000EB
:1072600060600040B4040020A0210440602304407A
:10727000A40400204D48407B4021084000280CD049
:107280004B480078FF2804DA49480078401C4849F8
:10729000087001204749087087E0464800780128B7
:1072A00070D143480078042874DD414800780A28EA
:1072B0001EDA41480078002871D040480078401C10
:1072C0003E4908703E48006840003D4908603B4820
:1072D0000078202863DB084600683A4908600120EE
:1072E000394908700020354908703349087056E064
:1072F0002F480078122847DD2D480078182824DA16
:107300002D48007800284AD02C480078401C2B4992
:1073100008702B480068400029490860084600684A
:10732000012108432649086024480078202836DBDC
:10733000084600682349086001202349087000209E
:107340001E4908701C49087029E019480078332844
:1073500012DD174800783C2808DA00201749087029
:107360001749086001201449087018E000201249EC
:1073700008701349086012E000200F490870104996
:1073800008600CE00EE005E000200B4908700C4995
:10739000086004E0002008490870094908600020DE
:1073A000034908700020034908707047000004403A
:1073B0009C0200209E0200209F0200209D020020CF
:1073C000A002002090020020940200201D4A1278A2
:1073D00080231A431B4B1A70002802D100221A4B3B
:1073E0001A77012808D10122174B1A77154AD2784B
:1073F00010231A43134BDA70022802D1A222124B37
:107400001A77032802D182220F4B1A77042802D15F
:10741000C2220D4B1A77052802D103220A4B1A7794
:10742000062802D14322084B1A770022074B1A8202
:107430000123074A13770022064B1A77034A118269
:10744000704700002004024060040440404F0440A4
:10745000406100404060004010B500200B490877B3
:10746000172001F0F1FB0021094801770948008A43
:107470000121C90308430749088200BF0548008A63
:107480000121C90308400028F8D010BD4060004029
:1074900040610040404F04401FB50520FEF7F6FD57
:1074A0000220FEF7F3FC03A91E48012213460092B6
:1074B0000291019000220E210520FEF75DFD00BF24
:1074C000194880880028FBD168468089174988427E
:1074D00002DD002004B010BD68468089144988424E
:1074E00001DD0520F6E7684680891149AC398842FC
:1074F00001DD0420EEE7684680890E49884201DDFF
:107500000320E7E7684680890B49884201DD0220B5
:10751000E0E7684680890949884201DD0120D9E712
:107520000020D7E70E50044000010020AC0E000000
:10753000110D0000540B000054090000FF0300006F
:1075400010B5A448007802210840002813D0A248B2
:107550000078012806D100209F4908709FA0FDF700
:10756000EFFE05E001209C4908709EA0FDF7E8FEB3
:107570009948FEF7A5FD9C480078022108400028A4
:1075800010D09A480078042807DA98480078401C00
:1075900096490870FEF786FF04E0002093490870C2
:1075A000FEF780FF9248007802210840002810D0A2
:1075B0008E480078002807DD8C480078401E8B49F3
:1075C0000870FEF76FFF04E0042088490870FEF79A
:1075D00069FF8048007840210840002804D003F06B
:1075E00005FA84A0FDF7ACFE7A480078DD2108405A
:1075F0007849087083480078DD2108408149087087
:1076000081480078DD2108407F490870764800787D
:10761000DD2108407449087075480078DD21084074
:10762000734908706B480078B321084069490870B5
:1076300074480078B3210840724908707248007895
:10764000B32108407049087067480078B3210840AA
:107650006549087066480078B3210840644908709D
:107660006A480078C007C00F002810D0674800683B
:10767000674908406549086057480078012803D1E8
:1076800000205549087002E00120534908705F4806
:10769000006802210840002817D05C4800685C4957
:1076A000491E08405949086050480078042807DA04
:1076B0004E480078401C4D490870FEF7F3FE04E088
:1076C00000204A490870FEF7EDFE5048006804218A
:1076D0000840002806D04D4800684D49C91E0840A2
:1076E0004A4908604948006808210840002806D037
:1076F000464800684649C91F084044490860434855
:10770000006810210840002806D040480068404921
:107710000F3908403D4908603C4800682021084076
:10772000002806D03948006839491F3908403749D0
:1077300008603648006840210840002806D03348D9
:10774000006833493F390840304908602F480068D5
:1077500080210840002806D02C4800682C497F3939
:1077600008402A49086029480068FF210131084083
:10777000002806D0254800682549FF3908402349DC
:10778000086022480068012149020840002805D00D
:107790001E4800681F4908401C4908601B480068D3
:1077A000012189020840002805D0184800681A49BC
:1077B000084016490860154800680121C9020840C0
:1077C000002805D011480068144908400F49086096
:1077D00010BD0000CC090020350200206F66660D48
:1077E000000000006F6E0D00F0090020080A002064
:1077F000FC090020726573657420776966690D0A5B
:1078000000000000D8090020E409002098020020B0
:10781000FEFF0000FFFD0000FFFB0000FFF700007F
:107820003EB5FFF739FE04460020322201900223C4
:107830000092029001222146174800F037F80020FC
:10784000322201900223009202901A4621461348E8
:1078500000F02CF8002032220190022300920290C6
:10786000032221460E4800F021F800203222019028
:10787000022300920290042221460A4800F016F8E2
:10788000002032220190022300920290052221461C
:10789000054800F00BF83EBDCC090020D8090020B7
:1078A000E4090020F0090020FC090020FFB50C4687
:1078B000099D00210023504F4668BE4202D246680F
:1078C000761C46604668AE4217D30A9E002E08D04A
:1078D00047680A9EAE19B74203D96E1C466004265B
:1078E00031434668AE4201D144263143944213D01D
:1078F0000C263143002646600EE04768039EB742DF
:1079000006D9944208D0022631430026466003E09F
:10791000944201D000264660944201D101263143B1
:107920000B9E002E54D002260E40002E03D0FD26C2
:10793000314010263143067810273E40002E34D0C7
:107940002D4F8668BE4202D28668761C86608768A4
:107950000B9EB7421BD910260E40002E08D0EF26F2
:107960003140202631430678EF273E40067007E07D
:1079700002263143EF2631400678EF273E4006705D
:10798000002686600678EF273E4006700DE0102640
:107990000E40002E09D020263143EF2631400678D4
:1079A000EF273E4006700026866006783E273E4060
:1079B00033460678F607360E067006781E430670C4
:1079C0000678BE273E40067006780E43067011E02A
:1079D00006780E273E4033460678F607360E0670C8
:1079E00006781E43067006788E273E40067006789D
:1079F0000E430670FFBD0000FFFF000070B502F0EF
:107A00002BF90546022D0ED004DC002D07D0012DE8
:107A10000FD106E0032D08D0FF2D0AD107E0022484
:107A200008E0052406E00F2404E03C2402E064247E
:107A300000E000BF00BF5A2C08DD00BF10210E4837
:107A4000017300BF00200D49087013E00B48007857
:107A5000401CC0B209490870A0420BDD002008702C
:107A600000BF05487038007B10214840024970393A
:107A7000087300BF70BD0000700004408E0200203B
:107A800010B50E480078012807D10C480179C17063
:107A900000BF08210A48017708E000210748C170AB
:107AA00000BF082106487030017300BF0A22034955
:107AB000C91C481EFFF763F810BD00003502002006
:107AC00000000440FEB517488088002827D1002513
:107AD000154E00240FE060001449085AA84201DD49
:107AE00060000D5A60001149085AB04201DA600086
:107AF0000E5A601CC4B2C82CEDDB0C480088019003
:107B0000A81B80B20090A81987B23846F90F09184F
:107B10004F10074805800098FEF732FCFEBD00BFFD
:107B2000FCE7000000010020FFFF0000F604002039
:107B30008C02002070B5184C64786406240E174D32
:107B40002C72FF246C8101242C732C46247A6D89BD
:107B50006D1C6C43114D2C612C1F61680E4B403B1A
:107B6000002214E0002005E01C780C70491C5B1C0E
:107B7000441CA0B20428F7DB002004E000240C70B1
:107B8000491C441CA0B20428F8DB541CA2B2024CCD
:107B900064789442E6DC70BD700E00200C0E00206C
:107BA00070B5154C6478154D2C72154C6478641CB6
:107BB00025022C1B114D6C8101242C732C46247A38
:107BC0006D896D1C6C430D4D2C612C1F63680A4A36
:107BD000403A00200BE0002105E014781C705B1C8B
:107BE000521C4C1CA1B20429F7DB441CA0B2034C6C
:107BF000247A8442EFDC70BD700E00200C0E002051
:107C0000080A002070B5134C6478134D2C72FF24C1
:107C1000F5346C8101242C732C46247A6D896D1CFB
:107C20006C430D4D2C612C1F63680A4A403A0020BA
:107C30000BE0002105E014781C705B1C521C4C1CEE
:107C4000A1B20429F7DB441CA0B2034C247A84427D
:107C5000EFDC70BD700E00200C0E002070B5154CCE
:107C60006478154D2C722C46247A25022C1B124D5B
:107C70006C8101242C732C46247A6D896D1C6C4315
:107C80000D4D2C612C1F63680A4A403A00200BE01E
:107C9000002105E014781C705B1C521C4C1CA1B226
:107CA0000429F7DB441CA0B2034C247A8442EFDCA5
:107CB00070BD0000700E00200C0E002070B51C4C32
:107CC00064781C4D2C72FF246C8101242C732C468B
:107CD000247A6D896D1C6C43164D2C612C1F6368D2
:107CE000134A403A00200BE0002105E014781C7094
:107CF0005B1C521C4C1CA1B20429F7DB441CA0B233
:107D00000C4C247A8442EFDC002006E00C2444432F
:107D1000094D6419E070441CA0B2074CA41E2478DD
:107D20008442F3DC044CA41E2478044D6C7070BDB6
:107D3000700E00200C0E0020BA060020080A002059
:107D400070B5234C64786400641E224D2C72FF24AD
:107D50006C8101242C732C46247A6D896D1C6C4334
:107D60001C4D2C612C1F63681948403800210BE022
:107D7000002205E004781C705B1C401C541CA2B25D
:107D8000042AF7DB4C1CA1B2114C64788C42EFDC66
:107D90000F4C6478012C1ADD0D4840380C4C647887
:107DA000A41EA400001900210CE0002205E00478C4
:107DB0001C705B1C401C541CA2B2042AF7DB083860
:107DC0004C1CA1B2024C6478641E8C42EDDC70BD88
:107DD000700E00200C0E0020FEB54E4840784E4933
:107DE0000872002048810120087308614873081F49
:107DF00040680190474F403F00240EE0002608E015
:107E00003978019801700198401C01907F1C701C0A
:107E100086B2042EF4DB601C84B23F48007AA04294
:107E2000ECDC002406E00C2060433C494018C470A0
:107E3000601C84B23948801E0078A042F3DC3748C9
:107E4000801E0078364948703348007A012828D1CE
:107E5000002421E03048001F40680178162060436C
:107E6000304A11542C48001F406841781620604366
:107E7000801881702848001F406881781620604370
:107E8000801801712448001F4068C17816206043A3
:107E900080188171601C84B221484078A042D9DCEE
:107EA00037E0002431E000F0F9F900901A48017A37
:107EB0000098FDF73EFCCDB21748001F4068A900AE
:107EC000415C16206043174A11541348001F406854
:107ED000A9004018417816206043801881700E4830
:107EE000001F4068A9004018817816206043801860
:107EF00001710948001F4068A9004018C178162088
:107F0000604380188171601C84B205484078A042AB
:107F1000C9DCFEBD700E00200C0E0020BA06002049
:107F2000080A00206C08002070B5134C6478134DCB
:107F30002C72FF246C8101242C732C46247A6D89C9
:107F40006D1C6C430D4D2C612C1F63680A4A403A2E
:107F500000200BE0002105E014781C705B1C521C13
:107F60004C1CA1B20429F7DB441CA0B2034C247AB8
:107F70008442EFDC70BD0000700E00200C0E00206B
:107F80001FB50446094800900948406901900294D1
:107F900007484069054940180019039010236A46B4
:107FA00000210448FEF750FA1FBD0000674523A1D9
:107FB000800850000004500070B50C46154601239F
:107FC000A340D9B22A462B0000F00CFE0705274338
:107FD0005F65788CAA00534B1B5C8B43514E335426
:107FE000504B403B1B5C0B434E4E403E33544D4B7D
:107FF000103B1B5C8B434B4E103E3354494B303B84
:108000001B5C8B43474E303E3354464B203B1B5C3E
:108010008B43444E203E335482E0424B1B5C8B43E7
:10802000404E33543F4B403B1E5C0E431E543D4B71
:10803000103B1E5C8E431E543A4B303B1B5C0B4383
:10804000384E303E3354374B203B1E5C8E431E541B
:1080500066E0344B1B5C8B43324E3354314B403B18
:108060001E5C0E431E542F4B103B1B5C8B432D4E4E
:10807000103E33542B4B303B1E5C8E431E54294B19
:10808000203B1E5C8E431E544AE0264B1B5C0B4378
:10809000244E335444E0234B1E5C8E431E54214B2C
:1080A000403B1B5C8B431F4E403E33541D4B103BEB
:1080B0001B5C8B431B4E103E335431E0194B1B5C51
:1080C0008B43184E3354174B403B1B5C8B43154E70
:1080D000403E3354134B103B1B5C0B43114E103E80
:1080E00033541DE00F4B1B5C8B430E4E33540D4B32
:1080F000403B1E5C0E431E540A4B103B1B5C8B43E3
:10810000084E103E3354074B303B1E5C8E431E54CA
:10811000044B203B1B5C0B43024E203E335400BFFC
:1081200000BF70BD600004401749897F01221143E0
:10813000154A917700BF1449897F02221140002916
:10814000F9D01149897C01700F49C97C41700E49F1
:10815000097D81700C49897DC1700B49497D017190
:108160000949C97D41710849097E81710649897FA4
:1081700049084900044A917700BF0349897F0222D8
:1081800011400029F9D17047404F04401F49097838
:10819000802211431D4A1170002808D100211C4A79
:1081A00011771A49C97810229143184AD1700128D1
:1081B00008D10121164A11771449C97810221143B8
:1081C000124AD170022802D1A221114A1177032844
:1081D00002D182210E4A1177042802D1C2210C4A11
:1081E0001177052802D10321094A1177062802D107
:1081F0004321074A11770021064A51771146497FEA
:1082000008221143034A51777047000020040240BE
:1082100060040440404F044010B500201449087623
:10822000162000F011FD0021124801761248407F0F
:1082300080210843104948770846807F0121084380
:108240000D49887700BF0C48807F02210840002834
:10825000F9D00948807F400840000749887700BF6F
:108260000548807F022108400028F9D110BD000098
:108270004060004040610040404F04401CB506484B
:108280000078C007C00F002802D102F0A7FB02E06F
:108290006846FFF749FF1CBD2C02002010B50848B6
:1082A000007808490978401805490870FCF778FFFC
:1082B000034909784018024908700846007810BD43
:1082C0005102002052020020F8B504460D461E2C33
:1082D00012DA40212846FDF71EFA154800780C23D3
:1082E0005843144BC018007982000C206043195881
:1082F0002846FDF7B3F91AE03C2C18DA20461E3860
:10830000C4B22046E117490F0918C91049023D229D
:1083100092028E18E117490F0918C910C900611A95
:1083200089050F0CF11940222846FDF797F9F8BD91
:10833000080A0020E0B50000F0B50C463F2800DD3B
:10834000F0BD0F263603C50072192346002105E053
:1083500017781F70521C5B1C4F1CB9B20829F7D349
:1083600000BFEDE7002804D000BF082204494A748A
:1083700005E000BF0822024970314A7000BF704713
:108380000000044010B5002201210846FFF714FE4A
:10839000052202210120FFF70FFE05220321012003
:1083A000FFF70AFE052204210120FFF705FE012048
:1083B00000F008FC0020FFF7D5FF10BD002804D016
:1083C00000BF042204494A7405E000BF04220249A8
:1083D00070314A7000BF70470000044070B503461A
:1083E00000250026FF2400BF1FE080201840C6099A
:1083F0005806030E6006040E0020FFF7B3FF304658
:10840000FFF7DCFF012002F055FD0120FFF7AAFF76
:10841000012002F04FFD0848407802210840002862
:1084200001D0601CC4B2681CC5B2082DDDDB002081
:10843000FFF798FF204670BD0000044010B53C488F
:108440000078401CC0B23A49087032286EDB002028
:10845000087038480068401C364908603648007883
:10846000012108433449087032480078C007C00F22
:10847000002805D108460078022108432E490870DB
:1084800005212C480068FDF74AF9002905D12A4842
:10849000007804210843284908700721254800680E
:1084A000FDF73DF9002905D123480078082108434C
:1084B0002149087019211F480068FDF730F900298B
:1084C00005D11D480078102108431B49087032214E
:1084D00018480068FDF723F9002905D116480078EF
:1084E00020210843144908707D2112480068FDF7D7
:1084F00016F9002905D110480078402108430E499B
:108500000870FA210B480068FDF709F9002905D128
:108510000948007880210843074908700548006829
:108520000649884202D300200249086010BD0000BD
:10853000A8020020A40200204A020020AC0D000086
:1085400000200149087070472C0200200248006892
:10855000401E0149086070472802002000B5FDF761
:10856000B5FC0149086000BDD804002000B580209A
:108570001B4948711A201A49203908732B20487367
:108580003C2088734D20C873002016494860FDF7D1
:108590009DFC154908600020C04314490860144937
:1085A000086014481449086011490322120289180E
:1085B00048600F49891888600D498918C8600C49BE
:1085C000891808610A498918486109498918886128
:1085D00007498918C861AC200849487000BD0000EF
:1085E0002004024000B00140D804002080E200E0F6
:1085F00000E100E0C0C0C0C000E400E000100240A4
:108600000249498A0143014A51827047A01D044032
:108610000249898A0143014A91827047A01D0440A2
:1086200010B5FEF727FEFFF709FF10BDF8B50546A8
:108630000E466A463146284600F0FEF90446002CF4
:108640001FD10320104988800846C0880009000116
:10865000C8800846C0886946097808430A49C88026
:10866000684640784006000C084908826846407811
:108670004006000C48820448408803210843024910
:1086800048802046F8BD000020110440001304403B
:1086900070B505460E463C480078042108433A4927
:1086A000087003203949C8802220384920390882BF
:1086B0003748088367204002364908823648007CE4
:1086C0000121084334490874072030492039488182
:1086D000FF202330488231484883672040022D49DB
:1086E00048822A4800890121084328490881084610
:1086F000808A2B4908402549888208464089012103
:1087000008432249488100BF0520264908722648AF
:10871000407801210843244948702348203040789C
:10872000400840002049203148701F484030407CBC
:10873000400840001C49403148741B486030407874
:108740004008400018496031487000BF00BF0E204B
:108750001449603108721448203080780821084399
:108760001149203188701048603080780821884392
:108770000D496031887000BF31462846FFF756FF2B
:108780000446204670BD0000200402402011044031
:1087900097800000001304406004044097400000EC
:1087A000FEFF000000080440000004400449087473
:1087B00000BF04490988602211400029F9D170479F
:1087C0000013044000110440F8B505460E466A4601
:1087D0003146284600F030F90446002C19D10C200F
:1087E0000D49888068460078302108430A49C880CE
:1087F000684640784006000C084988806846407802
:108800004006000CC880044840880C2108430249F7
:1088100048802046F8BD0000201104404013044069
:1088200070B505460E464348007804210843414987
:108830000870414880880C2108433F498880012105
:108840003E4801750176017700203D49087508769C
:1088500008773C483849203988823A4875308883FF
:1088600067204002384988803848007C042108434A
:1088700036490874072030492039C8813448C882F5
:108880003448C883672040022F49C8802A4800899D
:1088900004210843284908810846808A2E49084057
:1088A0002549888208464089042108432249488195
:1088B00000BF0A20294988702948007B0421084309
:1088C0002749087326482030007B04218843244927
:1088D0002031087322484030007F0421884320491A
:1088E000403108771E486030007B042188431C49D2
:1088F0006031087300BF00BF0C2018492031C873D5
:1089000017482030807802210843154920318870AB
:1089100013486030807802218843114960318870A3
:1089200000BF31462846FFF74FFF044600F05CF8D1
:10893000204670BD20040240201104402061004008
:108940002060004022800000401304406004044086
:108950002281000097400000FBFF00004008044017
:108960000000044010B502460020002901D18120FA
:1089700006E00023034C2380034B1980034B1A604D
:1089800010BD0000BC030020BE030020B80300207F
:1089900010B502460020002901D181201AE00E4BBB
:1089A0001A600E4B198001230D4C23700A4B1B6873
:1089B0001B780C4C2371084B1B685B1C064C236016
:1089C000064B1B885B1E054C238000BF044B1B78A5
:1089D000002BFBD110BD0000B0030020B403002029
:1089E000450200204013044010B5104800890421BE
:1089F00008430E49088108464089042108430B4971
:108A00004881084640880C210843084948800020D6
:108A10000749087508760D2000F0FEF80E2000F0DA
:108A2000FBF8002103480175017610BD20110440B8
:108A30002060004020610040F7B584B016468020D9
:108A4000039000242BE06000174A115A0498FCF7A9
:108A500066FE019002251EE0691C0198FCF75FFE8E
:108A600041080291114A0299514308460599FCF7C1
:108A700056FE0E49471A381E01DB014600E041420E
:108A8000142906DA3470757000200390039807B03B
:108A9000F0BD681CC5B2802DDEDB601CC4B2102C9A
:108AA000D1DB0398F3E7000072B700001027000045
:108AB00070B505460C463E480078012108433C4904
:108AC000087082203B49C8822846FFF7A1FD012D8E
:108AD00006D0022D1CD0042D32D0082D62D148E0E2
:108AE000002035490871112000F08AF80120C003E8
:108AF000304920390882601E304908832D48408B58
:108B0000400840002B49488300212D4801714AE06C
:108B1000002029490872122000F072F80120C003D9
:108B2000244920394882601E244948832148408BCB
:108B3000022188431F49488300212148017232E005
:108B400000201D490873132000F05AF80120C003CB
:108B5000184920398882601E18496031888015487C
:108B6000408B042188431349488300211448017332
:108B700019E0002010490874142000F041F8012089
:108B8000C0030C492039C882601E0C496031C8807E
:108B90000848408B0821884306494883002108483B
:108BA000017400E000BF00BF2846FFF729FD70BD3B
:108BB00020040240A01D044040600040001F04400B
:108BC00040610040002804D000BF102204494A74CC
:108BD00005E000BF1022024970314A7000BF7047A3
:108BE0000000044030B47446641E2578641CAB4217
:108BF00004D3635D5B00E31830BC18471D46F8E7FB
:108C0000002805DBC206D20E01219140014A116005
:108C10007047000080E200E0002805DBC206D20EAB
:108C200001219140014A11607047000080E200E09C
:108C3000002805DBC206D20E01219140014A1160D5
:108C40007047000080E200E0002805DBC206D20E7B
:108C500001219140014A11607047000080E200E06C
:108C600010B5002819DB1A4A03231B02D218830807
:108C70009B00D2588307DC0EFF23A3409A438B0747
:108C80001B0E8407E40EA3401A43114B0324240255
:108C90001B198408A4001A5118E00E4A03071B0F81
:108CA000083B9B089B00D2588307DC0EFF23A340A0
:108CB0009A438B071B0E8407E40EA3401A43054B0F
:108CC0000407240F083CA408A4001A5110BD00009A
:108CD00000E100E01CED00E030380A2801D201205C
:108CE0007047002070470000002803D00449054A5F
:108CF000116202E00121034A116200BFFEE7000099
:108D0000AD0B00000080024010B50446E0B2FFF752
:108D10004DFD10BD00200449087504480068401C42
:108D2000024908607047000040600040C004002015
:108D3000704701460020087800024A78104300027C
:108D40008A7810430002CA781043704730B595B056
:108D50000024502101A8FCF7E0FC0025154801780B
:108D60000078401C134A1070002900D10EE0012148
:108D7000204601F03FFF044622460321362002F040
:108D80004FF900200B49087015B030BD00BF062117
:108D9000204601F02FFF04462A4601A9204601F093
:108DA00017FF044622460321362002F039F900BF9E
:108DB000EAE7000030030020F0B587B00446002049
:108DC00006909E49E01C085C039003980A285FD037
:108DD00008DC0300FFF706FF0915181B1E2C89305D
:108DE000895989001C287DD006DC0B287BD00C28F3
:108DF0007AD00E2879D1F8E02B2877D03628F9D10F
:108E000008E100F0BBFF15E101F048FE12E100F0BF
:108E10001BFF0FE1894BE21D995C1A46A31DD05C34
:108E200002F00CF800220321084602F0F9F801E1F3
:108E3000012083490870FDE08049201D085C06027E
:108E40000A46611D515C0E430020049019E0A01DEC
:108E500004994018801C7949085C0502A01D0499FA
:108E60004018C01C7549085C45190919891D049AE8
:108E7000881800F0EFF80746291D0498401880B2C2
:108E800004900498B042E2DBD4E0FFF751FFD1E058
:108E9000002005900598002804D1FF200130694981
:108EA00008800CE00598012803D14002654908803C
:108EB00005E00598022802D14002624908805F4916
:108EC000A01D085C60490860084600680002086050
:108ED0005A49E01D085C5C49096808435A49086022
:108EE000084604E07BE022E073E0A2E089E000684D
:108EF00000020860514920460830085C5249096860
:108F000008435149086008460068000208604B4960
:108F100020460930085C4C49096808434A49086002
:108F2000002001F0B9FF0A204849087082E0474854
:108F300000780A284CD10120454908703F49201D7E
:108F4000085C06020A46611D515C0E431146A01DD5
:108F50000D5C2D02E01D085C05432D022046083003
:108F6000085C05432D0220460930085C054308468D
:108F7000069020460A30069908180690042E0DD156
:108F800031480068854209D100222946069801F03F
:108F90009DFC074600202D4908700FE0301F29492D
:108FA0000988884206DC82B22946069801F08EFCC8
:108FB000074603E00020254908700027012F04D14F
:108FC000002203210B2002F02BF80020204908701A
:108FD00030E01A490919881D01F0FFFC2AE0174901
:108FE0000919881D01F00EFD24E01449A01D085C3C
:108FF0000290E01D085C01900199029801F07AFF4F
:1090000018E00E4BE21D995C1A46A31DD05C01F0DE
:1090100015FF0FE00949201D085C06020A46611D84
:10902000515C0E4311460919881D314600F0FAFFC4
:1090300000E000BF00BF07B0F0BD0000780E0020C8
:109040004103002046030020480300204C03002079
:1090500040030020FEB5044626786778A078050214
:10906000E078401985B2304600F0D6FD01900198B5
:109070004000074940184078B84201D00020FEBDAA
:109080002A46211D304600F02BFC00900098F6E7A0
:1090900048B700000349086000BF02490968002979
:1090A000FBD170472802002002468A4202DD501A96
:1090B000C0B27047881AC0B2FBE7F8B504460D4647
:1090C0002946204601F082FC074639466A2001F015
:1090D000C1FB0646012E00D1F8BD0020FCE7F8B523
:1090E00004460D462946204601F070FC07463946E5
:1090F000162001F0AFFB0646012E00D1F8BD00207E
:10910000FCE7F8B504460D462946204601F05EFC12
:10911000074639466F2001F09DFB0646012E00D11F
:10912000F8BD0020FCE7F8B504460D462946204668
:1091300001F04CFC074639461A2001F08BFB06462D
:10914000012E00D1F8BD0020FCE770B504460D46A5
:109150002A462146662001F045FB0646012E00D135
:1091600070BD0020FCE7000003B5B7B0B922379905
:10917000491C07A8FCF772FA379800780146059059
:10918000FDA0FCF7DDF8FEA0FCF7DAF80020069061
:109190000BE007A90698085C01460590FAA0FCF7C9
:1091A000CFF80698401CC0B2069006981028F0D35D
:1091B000F6A0FCF7C5F808A8007B01460590F4A0CE
:1091C000FCF7BEF808A8407B01460590F3A0FCF729
:1091D000B7F808A8807B01460590F4A0FCF7B0F82A
:1091E00008A8C07B01460590F4A0FCF7A9F808A8E0
:1091F000007C01460590F6A0FCF7A2F808A8407C88
:1092000001460590F6A0FCF79BF808A8807C014673
:109210000590F7A0FCF794F808A8C07C01460590DB
:10922000F7A0FCF78DF808A8007D01460590F7A08F
:10923000FCF786F807A8417F027FC07E0192029169
:10924000009007A8807E059007A8407E0490024603
:109250000021F2A0059BFCF773F80DA8817A427AF1
:10926000007A01920291009007A8C07F059007A89C
:10927000807F049002460121E8A0059BFCF760F87E
:109280000DA8C17B827B407B0192029100900DA8CA
:10929000007B05900DA8C07A049002460221DFA051
:1092A000059BFCF74DF80DA8017DC27C807C0192E6
:1092B000029100900DA8407C05900DA8007C0490C0
:1092C00002460321D5A0059BFCF73AF80DA8417E84
:1092D000027EC07D0192029100900DA8807D0590D4
:1092E0000DA8407D049002460421CCA0059BFCF70C
:1092F00027F80DA8817F427F007F019202910090A4
:109300000DA8C07E05900DA8807E04900246052120
:10931000C2A0059BFCF714F814A803300179C278A9
:1093200080780192029100900DA80130C07F0590D5
:109330000DA8C07F049002460621B8A0059BFBF74C
:10934000FFFF16A80179C2788078019202910090FF
:1093500016A84078059015A80130C0780490024600
:109360000721AEA0059BFBF7EBFF17A801300179A1
:10937000C278807801920291009017A8013040785D
:10938000059015A80130007A049002460821A3A098
:10939000059BFBF7D5FF18A802300179C2788078C9
:1093A00001920291009018A802304078059015A80B
:1093B0000130407B04900246092198A0059BFBF7F1
:1093C000BFFF19A803300179C27880780192029119
:1093D000009019A803304078059015A80130807CD2
:1093E000049002460A218DA0059BFBF7A9FF1BA84C
:1093F0000179C27880780192029100901BA8407890
:10940000059015A80130C07D049002460B2183A071
:10941000059BFBF795FF1CA801300179C278807885
:109420000192029100901CA801304078059015A887
:109430000130007F049002460C2178A0059BFBF7C9
:109440007FFF1DA802300179C278807801920291D5
:1094500000901DA80230407805901DA8013040788A
:10946000049002460D216DA0059BFBF769FF1EA825
:1094700003300179C27880780192029100901EA891
:109480000330407805901DA8013080790490024691
:109490000E2162A0059BFBF753FF20A80179C2783B
:1094A000807801920291009020A8407805901DA834
:1094B0000130C07A049002460F2158A0059BFBF7AB
:1094C0003FFF21A801300179C27880780192029192
:1094D000009021A80130407805901DA80130007C43
:1094E0000490024610214DA0059BFBF729FF22A8FE
:1094F00002300179C278807801920291009022A80E
:109500000230407805901DA80130407D049002464D
:10951000112142A0059BFBF713FF23A8033001791B
:10952000C278807801920291009023A8033040789D
:1095300005901DA80130807E04900246122137A0BC
:10954000059BFBF7FDFE25A80179C2788078019282
:109550000291009025A8407805901DA80130C07F99
:109560000490024613212DA0059BFBF7E9FE26A8D7
:1095700001300179C27865E06E756D3A25640D00A1
:109580006E616D653A000000256300000D0000006B
:1095900053706565643A25640D0000004272696786
:1095A00068746E657373313A25640D0042726967A1
:1095B00068746E657373323A25640D004D696353A8
:1095C000656E73697469766974793A25640D000073
:1095D000456666656374547970653A25640D0000CC
:1095E0004D6F74696F6E547970653A25640D000093
:1095F000446972656374696F6E3A25640D000000FA
:10960000466C6F773A25640D00000000636F6C6F45
:10961000724E756D3A25640D000000005B253264C2
:109620005D2049443A253364205B2533645D205B2B
:109630002533645D205B2533645D205B2533645DE9
:109640000D000000807801920291009026A8013060
:109650004078059025A80130007904900246142135
:109660007F48059BFBF76CFE27A802300179C27882
:10967000807801920291009027A8023040780590EE
:1096800025A80130407A0490024615217448059BB4
:10969000FBF756FE28A803300179C2788078019242
:1096A0000291009028A803304078059025A8013049
:1096B000807B0490024616216948059BFBF740FE1B
:1096C0002AA80179C27880780192029100902AA894
:1096D0004078059025A80130C07C049002461721EF
:1096E0005F48059BFBF72CFE2BA801300179C2785F
:1096F00080780192029100902BA80130407805906B
:1097000025A80130007E0490024618215448059B8C
:10971000FBF716FE2CA802300179C27880780192FE
:10972000029100902CA802304078059025A80130C5
:10973000407F0490024619214948059BFBF700FE33
:109740002DA803300179C2788078019202910090AF
:109750002DA80330407805902DA801308078049022
:1097600002461A213E48059BFBF7EAFD2FA8017926
:10977000C27880780192029100902FA840780590DD
:109780002DA80130C079049002461B213448059B66
:10979000FBF7D6FD30A801300179C27880780192BC
:1097A0000291009030A80130407805902DA801303A
:1097B000007B049002461C212948059BFBF7C0FD55
:1097C00031A802300179C27880780192029100902C
:1097D00031A80230407805902DA80130407C0490DB
:1097E00002461D211E48059BFBF7AAFD32A8033047
:1097F0000179C278807801920291009032A80330FA
:10980000407805902DA80130807D049002461E21ED
:109810001348059BFBF794FD34A80179C278807842
:1098200001920291009034A8407805902DA8013053
:10983000C07E049002461F210948059BFBF780FD6E
:1098400008A0FBF77DFD6820389A379900F092FF59
:1098500036903698012801D139B000BD0020FBE7D1
:109860001C9600000D00000070B504460D462A4607
:109870002146672000F07EFF0646012E00D170BD14
:109880000020FCE770B504460D462A4621466520B7
:1098900000F0A8FF0646012E00D170BD0020FCE7B5
:1098A000F8B504460D462946204601F08FF80746D4
:1098B00039466D2000F0CEFF0646012E00D1F8BDDE
:1098C0000020FCE770B504460D462A462146752067
:1098D00000F050FF0646012E00D170BD0020FCE7CD
:1098E000F8B505460E46174628466B2D5FD018DCA6
:1098F00066283ED00CDC162829D004DC14281AD0A7
:10990000152872D11DE01A2827D06528F9D12AE040
:10991000672834D0682838D069283CD06A28F0D12C
:109920003FE06C380300FFF75DF90A484E545A6176
:10993000676D73797F853946304600F0DFF804465D
:1099400079E03946304600F027F9044673E039469D
:109950003046FFF7C4FB04466DE039463046FFF75A
:10996000E2FB044667E039463046FFF78BFF0446CA
:1099700061E039463046FFF7E8FB04465BE03946D4
:109980003046FFF771FF044655E039463046FFF791
:10999000EBFB04464FE03946304600F0EFF8044652
:1099A00049E039463046FFF788FB044643E0394634
:1099B000304600F0BFF804463DE03946304600F03E
:1099C0008BF8044637E039463046FFF769FF044616
:1099D00031E03946304600F05BF804462BE039466A
:1099E0003046FFF78EFB044625E023E0394630463B
:1099F00000F0B2F804461EE03946304600F05AF84E
:109A0000044618E03946304600F034F8044612E0C7
:109A10003946304600F020F804460CE0394630461E
:109A200000F00CF8044606E039463046FFF74AFFDE
:109A3000044600E000BF00BF2046F8BD70B50446F4
:109A40000D462A462146742000F094FE0646012E5B
:109A500000D170BD0020FCE770B504460D462A46D3
:109A60002146732000F086FE0646012E00D170BD0F
:109A70000020FCE770B504460D462A4621467220B8
:109A800000F078FE0646012E00D170BD0020FCE7F4
:109A9000F8B504460D462946204600F097FF0746D4
:109AA00039466E2000F0D6FE0646012E00D1F8BDE4
:109AB0000020FCE7F8B504460D462946204600F094
:109AC00085FF07463946712000F0C4FE0646012E88
:109AD00000D1F8BD0020FCE7F8B504460D46294644
:109AE000204600F06DFF074639466C2000F0E2FD8D
:109AF0000646012E00D1F8BD0020FCE7F8B5064669
:109B00000F463946304600F05BFF0546002D02D176
:109B10000749087002E00120054908702946142011
:109B200000F0C8FD0446012C00D1F8BD0020FCE780
:109B300035020020F8B504460D462946204600F0BF
:109B40003FFF074639466B2000F0B4FD0646012E64
:109B500000D1F8BD0020FCE7F8B504460D462946C3
:109B6000204600F033FF07463946702000F072FEB1
:109B70000646012E00D1F8BD0020FCE770B5044672
:109B80000D462A462146692000F0F4FD0646012EC6
:109B900000D170BD0020FCE7F8B506460F463946F7
:109BA000304600F010FF0546002D06D0012D05D0EF
:109BB000022D04D0032D04D102E003E002E001E015
:109BC00000E000BF00BF2946152000F0A7FD0446B5
:109BD000012C00D1F8BD0020FCE701460020C04365
:109BE000704770B504460D46E0B2FEF7DFFD0A2C63
:109BF00002D10D20FEF7DAFD204670BD30B50246D9
:109C00000020002305E01578521C2C18E0B25C1CE3
:109C1000A3B28B42F7DB30BD70B5054600F012F8F9
:109C20000646002407E060000549085CA84200D110
:109C300003E0601CC4B2B442F5DB00BF204670BD37
:109C400048B700001520704710B5002422460321B4
:109C5000022001F0E5F910BD0148007870470000CE
:109C60004203002086B004460D4626686768A06857
:109C70000590E06804902069039060690290A069F3
:109C80000190E069009014A0FBF75AFB314618A040
:109C9000FBF756FB394619A0FBF752FB1AA00599B2
:109CA000FBF74EFB1BA00499FBF74AFB1CA0039992
:109CB000FBF746FB1DA00299FBF742FB20A0019990
:109CC000FBF73EFB23A00099FBF73AFB294626A0B1
:109CD000FBF736FB00BFFEE75B48617264206661FC
:109CE000756C742068616E646C65725D0D0A0000AD
:109CF0005230203D2025780D0A0000005231203DD1
:109D00002025780D0A0000005232203D2025780DD4
:109D10000A0000005233203D2025780D0A00000083
:109D2000523132203D2025780D0A000053746163C2
:109D30006B6564204C52203D2025780D0A00000000
:109D4000537461636B6564205043203D2025780D7A
:109D50000A000000537461636B6564205053522005
:109D60003D2025780D0A000043757272656E7420DF
:109D70004C52203D2025780D0A00000010B500242B
:109D80000B480078002808D10021204600F032FF5F
:109D9000044601200649087004E00121204600F035
:109DA00029FF044622460321002001F039F910BDA5
:109DB00044030020FFB581B006460F46002400256D
:109DC00000BF2AE020011749085CB04223D10025DA
:109DD00019E02001134A8018C0682A0181583846CA
:109DE00000F037FE00280CD120010E494018C06851
:109DF0002901401881790398814202D1012005B0E0
:109E0000F0BD681CC5B2200106494018407AA8423E
:109E1000DFDC0020F3E7601CC4B2002CD2D00020AD
:109E2000EDE7000020030020F3B589B006460020CE
:109E300008900025069005900027002402900390CA
:109E40000125E9E0705D0790681C305C0690A81C55
:109E5000311805A8069A00F0D6FDA81C06994018EE
:109E6000305C0490E81C06994018305C0002291D03
:109E7000069A8918715C084307467019401D0699B7
:109E8000441804980300FEF7ADFE07050E1A26716C
:109E90008699AB002078002801D0012000E0002046
:109EA000694608729DE0207800066178090408433D
:109EB000A17809020843E1780843029091E02078F4
:109EC0000006617809040843A17809020843E17893
:109ED0000843029085E020780021039102900299C6
:109EE0000A0E0398000210430A0261780A430292A4
:109EF000039002990A0E0398000210430A02A17807
:109F00000A430292039002990A0E0398000210433A
:109F10000A02E1780A430292039002990A0E03981A
:109F2000000210430A0221790A4302920390029927
:109F30000A0E0398000210430A0261790A43029252
:109F4000039002990A0E0398000210430A02A179B5
:109F50000A430292039002990A0E039800021043EA
:109F60000A02E1790A43029203903AE0A1780902D9
:109F7000E2781143084600F017FA019021780902AF
:109F8000627811430846FBF74FFD0090019901F0FC
:109F900075F9029025E0781CFBF77AF90290029897
:109FA000002800D11DE0791C0298FBF7B4FB791C56
:109FB0008AB22146029800F026FD12E03846FBF7EF
:109FC00067F902900298002800D10AE03946029809
:109FD000FBF7A1FB3A462146029800F014FD00E091
:109FE00000BF00BF02A83B46009005A9049A07984D
:109FF000FFF7E0FE08900498052802D10298FBF7CD
:10A0000078F90498062802D10298FBF772F90698AD
:10A01000401DC019401985B20A98854200DA11E73F
:10A020000BB0F0BD70B504460D4620780300FEF776
:10A03000D9FD071405060C140711140000BF00BF5A
:10A040002946204600F00CF808E029462046FFF794
:10A05000EBFE03E0FEF77AFE00E000BF00BF70BD3C
:10A06000F3B581B00546002600242878012804D0E5
:10A07000022839D005287CD1E7E0002602213046AD
:10A0800000F0B8FD0646B04800780001AF4A115C08
:10A09000304600F0AFFD0646AB4909780901AB4AEE
:10A0A0008918486800F0EBFCC7B23946304600F02A
:10A0B000A1FD0646A44909780901A44A89184868FF
:10A0C00000F0DDFC87B2A048007800019F4A8018AC
:10A0D0003A464168304600F07BFD06463246032191
:10A0E000362000F09DFF2CE1687800287ED168784A
:10A0F000002801D1012000E00020934909780901DE
:10A10000924A8918087200260521304600F072FD37
:10A1100006468D48007800018C4A115C304600F0FC
:10A1200069FD0646002438E0874800780001874929
:10A130004018C068210140180079012800D12AE0A8
:10A14000814909780901814A8918C968220188581A
:10A1500000F095FCC7B23946304600F04BFD06468C
:10A16000794909780901794A8918C968220188580A
:10A1700000E0E5E000F083FC87B27348007800015E
:10A18000724A8018C068220181583A46304600F071
:10A190001FFD064600BF601C84B26B4800780001BA
:10A1A0006A494018407AA042BEDC022E47D1664878
:10A1B0000078401C6449087008460078002838D1AF
:10A1C00000260221304600F015FD06465E48007864
:10A1D00000015E4A115C304600F00CFD06465A490B
:10A1E00009780901594A8918486800E02CE000F014
:10A1F00046FCC7B23946304600F0FCFC06465249E0
:10A2000009780901514A8918486800F038FC87B27A
:10A210004D48007800014D4A80183A464168304662
:10A2200000F0D6FC064632460321362000F0F8FE48
:10A230000AE0FEF78BFD00204349087004E0324637
:10A240000321362000F0ECFE7BE06878002876D110
:10A250000027002422E03C48007800013B494018D8
:10A26000C068210140180079012800D114E0781C51
:10A27000C7B20298801EB84203DA00203249087043
:10A28000FEBD0121304800780001304A8018C068C6
:10A2900022018018417100BF601C84B22A480078F6
:10A2A00000012A494018407AA042D4DC26480078B0
:10A2B000401C2549087008460078002839D100263E
:10A2C0000221304600F096FC06461F480078000147
:10A2D0001E4A115C304600F08DFC06461A4909788A
:10A2E00009011A4A8918486800F0C9FBC0B2014642
:10A2F0000090304600F07EFC0646134909780901BB
:10A30000124A8918486800F0BAFB80B200900E48E3
:10A31000007800010D4A801841683046009A00F02C
:10A3200057FC064632460321362000F079FE05E050
:10A3300005E0FEF70BFD00200349087000BF00E0B8
:10A3400000BF00BF00BF9BE73103002020030020B7
:10A350007047000010B5012002490870FCF736FC78
:10A3600010BD00007504002010B5012002490870DE
:10A37000FCF72CFC10BD00007404002070470000A6
:10A3800010B5012002490870FCF768FC10BD000000
:10A390007704002010B5012002490870FCF75EFC2C
:10A3A00010BD000076040020F8B505460A2401E03F
:10A3B0000A20444321462846FBF7B1F90028F7D18B
:10A3C0002046FBF739FB06462846FBF735FB0746D8
:10A3D0003146FBF755FAF8BD02480068401C0149B8
:10A3E00008607047D404002010B5002002490877A7
:10A3F000FFF7F2FF10BD0000406000400EB572B6DE
:10A400000520000391498860BFF35F8F62B6FBF7B8
:10A41000DDFCFCF75DFBFEF7A1F87D21C9008C484F
:10A420000068FBF77CF906463446601E894988427D
:10A4300000D90CE0601E884948610321081FFEF71F
:10A440000FFC0020844988610720086100BFFEF7E7
:10A4500085F84B2189027E480068FEF719F9054608
:10A460004B2189027A480068FEF7DAF901217B481E
:10A47000FEF778FA802D01D100BFFEE778A0FAF749
:10A480005FFF00217C48017300207C4908707C49F3
:10A4900008707C49087000BF10217B48017300BF21
:10A4A00000BF0821017300BF00BF02217648703849
:10A4B000017700BF01210220FCF788FFFCF7CCFFE9
:10A4C00001216D482030017703210120FBF7C4FCF6
:10A4D0000D210220FBF7B0FC0020FBF7D7FC6B49F5
:10A4E0006B48C822012300920291019000220E21A4
:10A4F0000520FBF741FD05210120FEF7D9FA0021D7
:10A500005D48203001710220FDF740FEFDF784FE1A
:10A5100000F0D6FCFEF714F807205E490870002012
:10A520005D49087001205D49087000205C49087091
:10A53000FF215A4881700171C1706420FEF7AAFDA5
:10A54000FDF720FF57A0FAF7FBFE7EE058480078A1
:10A55000C007C00F002807D055480078FE210840EA
:10A560005349087000F0CCFC5148007802210840A3
:10A57000002805D04E480078FD2108404C4908705D
:10A580004B4800780421084000281CD04848007837
:10A59000FB21084046490870FDF794FAFDF740F9A1
:10A5A000FCF7CEFFFDF76CFA0020FBF76FFC374994
:10A5B0003748C822012300920291019000220E2107
:10A5C0000520FBF7D9FC3A4800780821084000280C
:10A5D00007D037480078F721084035490870FDF763
:10A5E0000DFA3348007810210840002805D0304883
:10A5F0000078EF2108402E4908702D48007820216E
:10A600000840002805D02A480078DF210840284962
:10A6100008702748007840210840002805D02448C9
:10A620000078BF2108402249087021480078802125
:10A630000840002809D01E4800784006400E1C49FA
:10A640000870FDF71BFEFBF751FD7FE700ED00E012
:10A65000D8040020FFFFFF0000E000E044020020DB
:10A660000A48656C6C6F2C4920616D204D617473D4
:10A6700065720A0D0A0000002061004006020020F9
:10A68000070200200802002070000440F6040020A9
:10A690000E500440470200204802002035020020EE
:10A6A0004102002056312E302E300D0A00000000ED
:10A6B0004A02002070B504460D4600261648007870
:10A6C000012800D170BD2146304600F093FA0646BD
:10A6D0000121304600F08EFA06460021304600F097
:10A6E00089FA06460121304600F084FA0646002D1C
:10A6F00005D10021304600F07DFA064604E0012134
:10A70000304600F077FA064632460321072000F073
:10A7100087FC0120D6E700004003002070B5044606
:10A720000E46002512480078012800D170BD214650
:10A73000284600F05FFA05460421284600F05AFA40
:10A7400005460021284600F055FA05460121284615
:10A7500000F050FA05463146284600F04BFA05460F
:10A760002A460321072000F05BFC0120DEE7000001
:10A7700040030020F7B50646144600271848007825
:10A78000012800D1FEBD3146384600F033FA0746B5
:10A790000021384600F02EFA07462546E017000E45
:10A7A00040190004010E384600F024FA0746E0176D
:10A7B000000E401900120002201AC1B2384600F003
:10A7C00019FA074622463846019900F001FA074671
:10A7D0003A460321072000F023FC0120D2E70000C5
:10A7E00040030020F7B506461446002718480078B5
:10A7F000012800D1FEBD3146384600F0FBF907467E
:10A800000321384600F0F6F907462546E017000E0A
:10A8100040190004010E384600F0ECF90746E01735
:10A82000000E401900120002201AC1B2384600F092
:10A83000E1F9074622463846019900F0C9F9074672
:10A840003A460321072000F0EBFB0120D2E700008D
:10A850004003002070B505460C4600261A480078D3
:10A86000012800D170BD2946304600F0C3F90646E4
:10A870000221304600F0BEF906460021304600F0C5
:10A88000B9F906460421304600F0B4F90646210E17
:10A89000304600F0AFF906462002010E304600F0C7
:10A8A000A9F906462004010E304600F0A3F9064639
:10A8B000E1B2304600F09EF90646324603210720F9
:10A8C00000F0AEFB0120CDE74003002070B5054647
:10A8D0000C461646002E24D11C480068FBF742FCAB
:10A8E00000281AD01AA0FAF72BFD184801681DA0FD
:10A8F000FAF726FD15480068FDF742FB20A0FAF79D
:10A900001FFD00BFBFF34F8F21482249C860BFF32E
:10A910004F8F00BF00BF00BFFDE71FA0FAF710FD7B
:10A9200011E0002C07D100200849086008460168A2
:10A930001EA0FAF705FD29462046FBF7D9FB29465C
:10A940000248FBF70BFB012070BD00003403002020
:10A950000D646F776E6C6F61642066696E697368F1
:10A96000210D0A0062756666657220636865636B17
:10A9700073756D206973203078253034780D0000B0
:10A980000D53797374656D52657365740D0A00001B
:10A990000400FA0500ED00E0706C656173652072DB
:10A9A00065737461727420210D0A00004368656349
:10A9B0006B53756D20696E6974200D0A00000000EC
:10A9C00002461078704702461078704710B503466B
:10A9D0000C461846FEF7ADF910BD704710B50022C1
:10A9E00003211C2000F01CFB10BD000010B500204E
:10A9F0000349087000220321042000F011FB10BD60
:10AA0000410300207047F0B505460E4613462A461E
:10AA10003446002D01D0002E01D10020F0BDA2420D
:10AA200002D9E018904208D2002103E0605C505443
:10AA3000481C81B29942F9DB09E0194605E0481E3D
:10AA4000205C4F1ED055481E81B20029F7DC2846F5
:10AA5000E4E7024601E0521C491C1078002808D0A7
:10AA60000878002805D0002010560023CB569842C5
:10AA7000F1D0002010560023CB56C01A7047014673
:10AA80000022002900D17047002200E0521C0B7800
:10AA9000491C002BFAD11046F5E7000030B589B00B
:10AAA0000024202101A8FAF738FE1FA223A101A843
:10AAB000FAF754FC01A8FFF7E2FF85B22A4601A984
:10AAC000204600F085F804461FA221A101A8FAF74C
:10AAD00045FC01A8FFF7D3FF85B22A4601A920460D
